{
	"data": {
		"bytecode": {
			"linkReferences": {
				"remix_tests.sol": {
					"Assert": [
						{
							"length": 20,
							"start": 106
						},
						{
							"length": 20,
							"start": 367
						}
					]
				}
			},
			"object": "6080604052348015600e575f80fd5b50612a818061001c5f395ff3fe608060405234801561000f575f80fd5b5060043610610034575f3560e01c8063218e00ff146100385780637fea0d4b14610042575b5f80fd5b61004061004c565b005b61004a610258565b005b73__$acbfb1c35000d78352310b16a054a6b106$__63e8c2cb165f8054906101000a900473ffffffffffffffffffffffffffffffffffffffff1673ffffffffffffffffffffffffffffffffffffffff166306fdde036040518163ffffffff1660e01b81526004015f60405180830381865afa1580156100cd573d5f803e3d5ffd5b505050506040513d5f823e3d601f19601f820116820180604052508101906100f59190610418565b6040518263ffffffff1660e01b81526004016101119190610545565b602060405180830381865af415801561012c573d5f803e3d5ffd5b505050506040513d601f19601f8201168201806040525081019061015091906105c0565b5073__$acbfb1c35000d78352310b16a054a6b106$__63e8c2cb165f8054906101000a900473ffffffffffffffffffffffffffffffffffffffff1673ffffffffffffffffffffffffffffffffffffffff166395d89b416040518163ffffffff1660e01b81526004015f60405180830381865afa1580156101d2573d5f803e3d5ffd5b505050506040513d5f823e3d601f19601f820116820180604052508101906101fa9190610418565b6040518263ffffffff1660e01b8152600401610216919061067f565b602060405180830381865af4158015610231573d5f803e3d5ffd5b505050506040513d601f19601f8201168201806040525081019061025591906105c0565b50565b604051610264906102be565b604051809103905ff08015801561027d573d5f803e3d5ffd5b505f806101000a81548173ffffffffffffffffffffffffffffffffffffffff021916908373ffffffffffffffffffffffffffffffffffffffff160217905550565b612386806106c683390190565b5f604051905090565b5f80fd5b5f80fd5b5f80fd5b5f80fd5b5f601f19601f8301169050919050565b7f4e487b71000000000000000000000000000000000000000000000000000000005f52604160045260245ffd5b61032a826102e4565b810181811067ffffffffffffffff82111715610349576103486102f4565b5b80604052505050565b5f61035b6102cb565b90506103678282610321565b919050565b5f67ffffffffffffffff821115610386576103856102f4565b5b61038f826102e4565b9050602081019050919050565b8281835e5f83830152505050565b5f6103bc6103b78461036c565b610352565b9050828152602081018484840111156103d8576103d76102e0565b5b6103e384828561039c565b509392505050565b5f82601f8301126103ff576103fe6102dc565b5b815161040f8482602086016103aa565b91505092915050565b5f6020828403121561042d5761042c6102d4565b5b5f82015167ffffffffffffffff81111561044a576104496102d8565b5b610456848285016103eb565b91505092915050565b5f81519050919050565b5f82825260208201905092915050565b5f6104838261045f565b61048d8185610469565b935061049d81856020860161039c565b6104a6816102e4565b840191505092915050565b7f4d79546f6b656e000000000000000000000000000000000000000000000000005f82015250565b5f6104e5600783610469565b91506104f0826104b1565b602082019050919050565b7f746f6b656e206e616d6520646964206e6f74206d6174636800000000000000005f82015250565b5f61052f601883610469565b915061053a826104fb565b602082019050919050565b5f6060820190508181035f83015261055d8184610479565b90508181036020830152610570816104d9565b9050818103604083015261058381610523565b905092915050565b5f8115159050919050565b61059f8161058b565b81146105a9575f80fd5b50565b5f815190506105ba81610596565b92915050565b5f602082840312156105d5576105d46102d4565b5b5f6105e2848285016105ac565b91505092915050565b7f4d544b00000000000000000000000000000000000000000000000000000000005f82015250565b5f61061f600383610469565b915061062a826105eb565b602082019050919050565b7f746f6b656e2073796d626f6c20646964206e6f74206d617463680000000000005f82015250565b5f610669601a83610469565b915061067482610635565b602082019050919050565b5f6060820190508181035f8301526106978184610479565b905081810360208301526106aa81610613565b905081810360408301526106bd8161065d565b90509291505056fe60806040526103e8600755348015610015575f80fd5b506040518060400160405280601781526020017f4d657932303231204e465420436f6c6c656374696f6e320000000000000000008152506040518060400160405280600481526020017f4d45593200000000000000000000000000000000000000000000000000000000815250815f908161009091906102e2565b5080600190816100a091906102e2565b5050506103b1565b5f81519050919050565b7f4e487b71000000000000000000000000000000000000000000000000000000005f52604160045260245ffd5b7f4e487b71000000000000000000000000000000000000000000000000000000005f52602260045260245ffd5b5f600282049050600182168061012357607f821691505b602082108103610136576101356100df565b5b50919050565b5f819050815f5260205f209050919050565b5f6020601f8301049050919050565b5f82821b905092915050565b5f600883026101987fffffffffffffffffffffffffffffffffffffffffffffffffffffffffffffffff8261015d565b6101a2868361015d565b95508019841693508086168417925050509392505050565b5f819050919050565b5f819050919050565b5f6101e66101e16101dc846101ba565b6101c3565b6101ba565b9050919050565b5f819050919050565b6101ff836101cc565b61021361020b826101ed565b848454610169565b825550505050565b5f90565b61022761021b565b6102328184846101f6565b505050565b5b818110156102555761024a5f8261021f565b600181019050610238565b5050565b601f82111561029a5761026b8161013c565b6102748461014e565b81016020851015610283578190505b61029761028f8561014e565b830182610237565b50505b505050565b5f82821c905092915050565b5f6102ba5f198460080261029f565b1980831691505092915050565b5f6102d283836102ab565b9150826002028217905092915050565b6102eb826100a8565b67ffffffffffffffff811115610304576103036100b2565b5b61030e825461010c565b610319828285610259565b5f60209050601f83116001811461034a575f8415610338578287015190505b61034285826102c7565b8655506103a9565b601f1984166103588661013c565b5f5b8281101561037f5784890151825560018201915060208501945060208101905061035a565b8683101561039c5784890151610398601f8916826102ab565b8355505b6001600288020188555050505b505050505050565b611fc8806103be5f395ff3fe608060405234801561000f575f80fd5b50600436106100fe575f3560e01c80636352211e11610095578063b88d4fde11610064578063b88d4fde14610296578063c87b56dd146102b2578063d5abeb01146102e2578063e985e9c514610300576100fe565b80636352211e146101fc57806370a082311461022c57806395d89b411461025c578063a22cb4651461027a576100fe565b80631249c58b116100d15780631249c58b1461019c57806317d70f7c146101a657806323b872dd146101c457806342842e0e146101e0576100fe565b806301ffc9a71461010257806306fdde0314610132578063081812fc14610150578063095ea7b314610180575b5f80fd5b61011c60048036038101906101179190611608565b610330565b604051610129919061164d565b60405180910390f35b61013a610411565b60405161014791906116d6565b60405180910390f35b61016a60048036038101906101659190611729565b6104a0565b6040516101779190611793565b60405180910390f35b61019a600480360381019061019591906117d6565b6104bb565b005b6101a46104d1565b005b6101ae61053a565b6040516101bb9190611823565b60405180910390f35b6101de60048036038101906101d9919061183c565b610540565b005b6101fa60048036038101906101f5919061183c565b61063f565b005b61021660048036038101906102119190611729565b61065e565b6040516102239190611793565b60405180910390f35b6102466004803603810190610241919061188c565b61066f565b6040516102539190611823565b60405180910390f35b610264610725565b60405161027191906116d6565b60405180910390f35b610294600480360381019061028f91906118e1565b6107b5565b005b6102b060048036038101906102ab9190611a4b565b6107cb565b005b6102cc60048036038101906102c79190611729565b6107f0565b6040516102d991906116d6565b60405180910390f35b6102ea610843565b6040516102f79190611823565b60405180910390f35b61031a60048036038101906103159190611acb565b610849565b604051610327919061164d565b60405180910390f35b5f7f80ac58cd000000000000000000000000000000000000000000000000000000007bffffffffffffffffffffffffffffffffffffffffffffffffffffffff1916827bffffffffffffffffffffffffffffffffffffffffffffffffffffffff191614806103fa57507f5b5e139f000000000000000000000000000000000000000000000000000000007bffffffffffffffffffffffffffffffffffffffffffffffffffffffff1916827bffffffffffffffffffffffffffffffffffffffffffffffffffffffff1916145b8061040a5750610409826108d7565b5b9050919050565b60605f805461041f90611b36565b80601f016020809104026020016040519081016040528092919081815260200182805461044b90611b36565b80156104965780601f1061046d57610100808354040283529160200191610496565b820191905f5260205f20905b81548152906001019060200180831161047957829003601f168201915b5050505050905090565b5f6104aa82610940565b506104b4826109c6565b9050919050565b6104cd82826104c86109ff565b610a06565b5050565b60075460065410610517576040517f08c379a000000000000000000000000000000000000000000000000000000000815260040161050e90611bb0565b60405180910390fd5b61052333600654610a18565b60016006546105329190611bfb565b600681905550565b60065481565b5f73ffffffffffffffffffffffffffffffffffffffff168273ffffffffffffffffffffffffffffffffffffffff16036105b0575f6040517f64a0ae920000000000000000000000000000000000000000000000000000000081526004016105a79190611793565b60405180910390fd5b5f6105c383836105be6109ff565b610a35565b90508373ffffffffffffffffffffffffffffffffffffffff168173ffffffffffffffffffffffffffffffffffffffff1614610639578382826040517f64283d7b00000000000000000000000000000000000000000000000000000000815260040161063093929190611c2e565b60405180910390fd5b50505050565b61065983838360405180602001604052805f8152506107cb565b505050565b5f61066882610940565b9050919050565b5f8073ffffffffffffffffffffffffffffffffffffffff168273ffffffffffffffffffffffffffffffffffffffff16036106e0575f6040517f89c62b640000000000000000000000000000000000000000000000000000000081526004016106d79190611793565b60405180910390fd5b60035f8373ffffffffffffffffffffffffffffffffffffffff1673ffffffffffffffffffffffffffffffffffffffff1681526020019081526020015f20549050919050565b60606001805461073490611b36565b80601f016020809104026020016040519081016040528092919081815260200182805461076090611b36565b80156107ab5780601f10610782576101008083540402835291602001916107ab565b820191905f5260205f20905b81548152906001019060200180831161078e57829003601f168201915b5050505050905090565b6107c76107c06109ff565b8383610c40565b5050565b6107d6848484610540565b6107ea6107e16109ff565b85858585610da9565b50505050565b60605f61081960405160200161080590611d03565b604051602081830303815290604052610f55565b90508060405160200161082c9190611d91565b604051602081830303815290604052915050919050565b60075481565b5f60055f8473ffffffffffffffffffffffffffffffffffffffff1673ffffffffffffffffffffffffffffffffffffffff1681526020019081526020015f205f8373ffffffffffffffffffffffffffffffffffffffff1673ffffffffffffffffffffffffffffffffffffffff1681526020019081526020015f205f9054906101000a900460ff16905092915050565b5f7f01ffc9a7000000000000000000000000000000000000000000000000000000007bffffffffffffffffffffffffffffffffffffffffffffffffffffffff1916827bffffffffffffffffffffffffffffffffffffffffffffffffffffffff1916149050919050565b5f8061094b83610f82565b90505f73ffffffffffffffffffffffffffffffffffffffff168173ffffffffffffffffffffffffffffffffffffffff16036109bd57826040517f7e2732890000000000000000000000000000000000000000000000000000000081526004016109b49190611823565b60405180910390fd5b80915050919050565b5f60045f8381526020019081526020015f205f9054906101000a900473ffffffffffffffffffffffffffffffffffffffff169050919050565b5f33905090565b610a138383836001610fbb565b505050565b610a31828260405180602001604052805f81525061117a565b5050565b5f80610a4084610f82565b90505f73ffffffffffffffffffffffffffffffffffffffff168373ffffffffffffffffffffffffffffffffffffffff1614610a8157610a8081848661119d565b5b5f73ffffffffffffffffffffffffffffffffffffffff168173ffffffffffffffffffffffffffffffffffffffff1614610b0c57610ac05f855f80610fbb565b600160035f8373ffffffffffffffffffffffffffffffffffffffff1673ffffffffffffffffffffffffffffffffffffffff1681526020019081526020015f205f82825403925050819055505b5f73ffffffffffffffffffffffffffffffffffffffff168573ffffffffffffffffffffffffffffffffffffffff1614610b8b57600160035f8773ffffffffffffffffffffffffffffffffffffffff1673ffffffffffffffffffffffffffffffffffffffff1681526020019081526020015f205f82825401925050819055505b8460025f8681526020019081526020015f205f6101000a81548173ffffffffffffffffffffffffffffffffffffffff021916908373ffffffffffffffffffffffffffffffffffffffff160217905550838573ffffffffffffffffffffffffffffffffffffffff168273ffffffffffffffffffffffffffffffffffffffff167fddf252ad1be2c89b69c2b068fc378daa952ba7f163c4a11628f55a4df523b3ef60405160405180910390a4809150509392505050565b5f73ffffffffffffffffffffffffffffffffffffffff168273ffffffffffffffffffffffffffffffffffffffff1603610cb057816040517f5b08ba18000000000000000000000000000000000000000000000000000000008152600401610ca79190611793565b60405180910390fd5b8060055f8573ffffffffffffffffffffffffffffffffffffffff1673ffffffffffffffffffffffffffffffffffffffff1681526020019081526020015f205f8473ffffffffffffffffffffffffffffffffffffffff1673ffffffffffffffffffffffffffffffffffffffff1681526020019081526020015f205f6101000a81548160ff0219169083151502179055508173ffffffffffffffffffffffffffffffffffffffff168373ffffffffffffffffffffffffffffffffffffffff167f17307eab39ab6107e8899845ad3d59bd9653f200f220920489ca2b5937696c3183604051610d9c919061164d565b60405180910390a3505050565b5f8373ffffffffffffffffffffffffffffffffffffffff163b1115610f4e578273ffffffffffffffffffffffffffffffffffffffff1663150b7a02868685856040518563ffffffff1660e01b8152600401610e079493929190611e04565b6020604051808303815f875af1925050508015610e4257506040513d601f19601f82011682018060405250810190610e3f9190611e62565b60015b610ec3573d805f8114610e70576040519150601f19603f3d011682016040523d82523d5f602084013e610e75565b606091505b505f815103610ebb57836040517f64a0ae92000000000000000000000000000000000000000000000000000000008152600401610eb29190611793565b60405180910390fd5b805181602001fd5b63150b7a0260e01b7bffffffffffffffffffffffffffffffffffffffffffffffffffffffff1916817bffffffffffffffffffffffffffffffffffffffffffffffffffffffff191614610f4c57836040517f64a0ae92000000000000000000000000000000000000000000000000000000008152600401610f439190611793565b60405180910390fd5b505b5050505050565b6060610f7b82604051806060016040528060408152602001611f53604091396001611260565b9050919050565b5f60025f8381526020019081526020015f205f9054906101000a900473ffffffffffffffffffffffffffffffffffffffff169050919050565b8080610ff357505f73ffffffffffffffffffffffffffffffffffffffff168273ffffffffffffffffffffffffffffffffffffffff1614155b15611125575f61100284610940565b90505f73ffffffffffffffffffffffffffffffffffffffff168373ffffffffffffffffffffffffffffffffffffffff161415801561106c57508273ffffffffffffffffffffffffffffffffffffffff168173ffffffffffffffffffffffffffffffffffffffff1614155b801561107f575061107d8184610849565b155b156110c157826040517fa9fbf51f0000000000000000000000000000000000000000000000000000000081526004016110b89190611793565b60405180910390fd5b811561112357838573ffffffffffffffffffffffffffffffffffffffff168273ffffffffffffffffffffffffffffffffffffffff167f8c5be1e5ebec7d5bd14f71427d1e84f3dd0314c0f7b2291e5b200ac8c7c3b92560405160405180910390a45b505b8360045f8581526020019081526020015f205f6101000a81548173ffffffffffffffffffffffffffffffffffffffff021916908373ffffffffffffffffffffffffffffffffffffffff16021790555050505050565b61118483836113ef565b61119861118f6109ff565b5f858585610da9565b505050565b6111a88383836114e2565b61125b575f73ffffffffffffffffffffffffffffffffffffffff168373ffffffffffffffffffffffffffffffffffffffff160361121c57806040517f7e2732890000000000000000000000000000000000000000000000000000000081526004016112139190611823565b60405180910390fd5b81816040517f177e802f000000000000000000000000000000000000000000000000000000008152600401611252929190611e8d565b60405180910390fd5b505050565b60605f8451036112805760405180602001604052805f81525090506113e8565b5f826112b15760036002865160046112989190611eb4565b6112a29190611bfb565b6112ac9190611f22565b6112d8565b6003600286516112c19190611bfb565b6112cb9190611f22565b60046112d79190611eb4565b5b90505f8167ffffffffffffffff8111156112f5576112f4611927565b5b6040519080825280601f01601f1916602001820160405280156113275781602001600182028036833780820191505090505b509050600185016020820187885189016020810180515f82525b8284101561139c576003840193508351603f8160121c168701518653600186019550603f81600c1c168701518653600186019550603f8160061c168701518653600186019550603f8116870151865360018601955050611341565b80825289156113dc5760038c5106600181146113bf57600281146113d2576113da565b603d6001870353603d60028703536113da565b603d60018703535b505b50505050505080925050505b9392505050565b5f73ffffffffffffffffffffffffffffffffffffffff168273ffffffffffffffffffffffffffffffffffffffff160361145f575f6040517f64a0ae920000000000000000000000000000000000000000000000000000000081526004016114569190611793565b60405180910390fd5b5f61146b83835f610a35565b90505f73ffffffffffffffffffffffffffffffffffffffff168173ffffffffffffffffffffffffffffffffffffffff16146114dd575f6040517f73c6ac6e0000000000000000000000000000000000000000000000000000000081526004016114d49190611793565b60405180910390fd5b505050565b5f8073ffffffffffffffffffffffffffffffffffffffff168373ffffffffffffffffffffffffffffffffffffffff161415801561159957508273ffffffffffffffffffffffffffffffffffffffff168473ffffffffffffffffffffffffffffffffffffffff16148061155a57506115598484610849565b5b8061159857508273ffffffffffffffffffffffffffffffffffffffff16611580836109c6565b73ffffffffffffffffffffffffffffffffffffffff16145b5b90509392505050565b5f604051905090565b5f80fd5b5f80fd5b5f7fffffffff0000000000000000000000000000000000000000000000000000000082169050919050565b6115e7816115b3565b81146115f1575f80fd5b50565b5f81359050611602816115de565b92915050565b5f6020828403121561161d5761161c6115ab565b5b5f61162a848285016115f4565b91505092915050565b5f8115159050919050565b61164781611633565b82525050565b5f6020820190506116605f83018461163e565b92915050565b5f81519050919050565b5f82825260208201905092915050565b8281835e5f83830152505050565b5f601f19601f8301169050919050565b5f6116a882611666565b6116b28185611670565b93506116c2818560208601611680565b6116cb8161168e565b840191505092915050565b5f6020820190508181035f8301526116ee818461169e565b905092915050565b5f819050919050565b611708816116f6565b8114611712575f80fd5b50565b5f81359050611723816116ff565b92915050565b5f6020828403121561173e5761173d6115ab565b5b5f61174b84828501611715565b91505092915050565b5f73ffffffffffffffffffffffffffffffffffffffff82169050919050565b5f61177d82611754565b9050919050565b61178d81611773565b82525050565b5f6020820190506117a65f830184611784565b92915050565b6117b581611773565b81146117bf575f80fd5b50565b5f813590506117d0816117ac565b92915050565b5f80604083850312156117ec576117eb6115ab565b5b5f6117f9858286016117c2565b925050602061180a85828601611715565b9150509250929050565b61181d816116f6565b82525050565b5f6020820190506118365f830184611814565b92915050565b5f805f60608486031215611853576118526115ab565b5b5f611860868287016117c2565b9350506020611871868287016117c2565b925050604061188286828701611715565b9150509250925092565b5f602082840312156118a1576118a06115ab565b5b5f6118ae848285016117c2565b91505092915050565b6118c081611633565b81146118ca575f80fd5b50565b5f813590506118db816118b7565b92915050565b5f80604083850312156118f7576118f66115ab565b5b5f611904858286016117c2565b9250506020611915858286016118cd565b9150509250929050565b5f80fd5b5f80fd5b7f4e487b71000000000000000000000000000000000000000000000000000000005f52604160045260245ffd5b61195d8261168e565b810181811067ffffffffffffffff8211171561197c5761197b611927565b5b80604052505050565b5f61198e6115a2565b905061199a8282611954565b919050565b5f67ffffffffffffffff8211156119b9576119b8611927565b5b6119c28261168e565b9050602081019050919050565b828183375f83830152505050565b5f6119ef6119ea8461199f565b611985565b905082815260208101848484011115611a0b57611a0a611923565b5b611a168482856119cf565b509392505050565b5f82601f830112611a3257611a3161191f565b5b8135611a428482602086016119dd565b91505092915050565b5f805f8060808587031215611a6357611a626115ab565b5b5f611a70878288016117c2565b9450506020611a81878288016117c2565b9350506040611a9287828801611715565b925050606085013567ffffffffffffffff811115611ab357611ab26115af565b5b611abf87828801611a1e565b91505092959194509250565b5f8060408385031215611ae157611ae06115ab565b5b5f611aee858286016117c2565b9250506020611aff858286016117c2565b9150509250929050565b7f4e487b71000000000000000000000000000000000000000000000000000000005f52602260045260245ffd5b5f6002820490506001821680611b4d57607f821691505b602082108103611b6057611b5f611b09565b5b50919050565b7f416c6c20746f6b656e732068617665206265656e206d696e74656421210000005f82015250565b5f611b9a601d83611670565b9150611ba582611b66565b602082019050919050565b5f6020820190508181035f830152611bc781611b8e565b9050919050565b7f4e487b71000000000000000000000000000000000000000000000000000000005f52601160045260245ffd5b5f611c05826116f6565b9150611c10836116f6565b9250828201905080821115611c2857611c27611bce565b5b92915050565b5f606082019050611c415f830186611784565b611c4e6020830185611814565b611c5b6040830184611784565b949350505050565b5f81905092915050565b7f7b226e616d65223a20227468697264222c2022223a2022222c2022696d6167655f8201527f223a202268747470733a2f2f692e6962622e636f2f447758443737462f342e6a60208201527f7067227d00000000000000000000000000000000000000000000000000000000604082015250565b5f611ced604483611c63565b9150611cf882611c6d565b604482019050919050565b5f611d0d82611ce1565b9150819050919050565b7f646174613a6170706c69636174696f6e2f6a736f6e3b6261736536342c0000005f82015250565b5f611d4b601d83611c63565b9150611d5682611d17565b601d82019050919050565b5f611d6b82611666565b611d758185611c63565b9350611d85818560208601611680565b80840191505092915050565b5f611d9b82611d3f565b9150611da78284611d61565b915081905092915050565b5f81519050919050565b5f82825260208201905092915050565b5f611dd682611db2565b611de08185611dbc565b9350611df0818560208601611680565b611df98161168e565b840191505092915050565b5f608082019050611e175f830187611784565b611e246020830186611784565b611e316040830185611814565b8181036060830152611e438184611dcc565b905095945050505050565b5f81519050611e5c816115de565b92915050565b5f60208284031215611e7757611e766115ab565b5b5f611e8484828501611e4e565b91505092915050565b5f604082019050611ea05f830185611784565b611ead6020830184611814565b9392505050565b5f611ebe826116f6565b9150611ec9836116f6565b9250828202611ed7816116f6565b91508282048414831517611eee57611eed611bce565b5b5092915050565b7f4e487b71000000000000000000000000000000000000000000000000000000005f52601260045260245ffd5b5f611f2c826116f6565b9150611f37836116f6565b925082611f4757611f46611ef5565b5b82820490509291505056fe4142434445464748494a4b4c4d4e4f505152535455565758595a6162636465666768696a6b6c6d6e6f707172737475767778797a303132333435363738392b2fa2646970667358221220d707971c21a86b5ca33ec7dc524b45668819072e0f26cf3d4640639ea79036d464736f6c634300081a0033a2646970667358221220d89d26b4b0d74e068289d65bef3a39893402fc6a155a054904282bd3281a30cb64736f6c634300081a0033",
			"opcodes": "PUSH1 0x80 PUSH1 0x40 MSTORE CALLVALUE DUP1 ISZERO PUSH1 0xE JUMPI PUSH0 DUP1 REVERT JUMPDEST POP PUSH2 0x2A81 DUP1 PUSH2 0x1C PUSH0 CODECOPY PUSH0 RETURN INVALID PUSH1 0x80 PUSH1 0x40 MSTORE CALLVALUE DUP1 ISZERO PUSH2 0xF JUMPI PUSH0 DUP1 REVERT JUMPDEST POP PUSH1 0x4 CALLDATASIZE LT PUSH2 0x34 JUMPI PUSH0 CALLDATALOAD PUSH1 0xE0 SHR DUP1 PUSH4 0x218E00FF EQ PUSH2 0x38 JUMPI DUP1 PUSH4 0x7FEA0D4B EQ PUSH2 0x42 JUMPI JUMPDEST PUSH0 DUP1 REVERT JUMPDEST PUSH2 0x40 PUSH2 0x4C JUMP JUMPDEST STOP JUMPDEST PUSH2 0x4A PUSH2 0x258 JUMP JUMPDEST STOP JUMPDEST PUSH20 0x0 PUSH4 0xE8C2CB16 PUSH0 DUP1 SLOAD SWAP1 PUSH2 0x100 EXP SWAP1 DIV PUSH20 0xFFFFFFFFFFFFFFFFFFFFFFFFFFFFFFFFFFFFFFFF AND PUSH20 0xFFFFFFFFFFFFFFFFFFFFFFFFFFFFFFFFFFFFFFFF AND PUSH4 0x6FDDE03 PUSH1 0x40 MLOAD DUP2 PUSH4 0xFFFFFFFF AND PUSH1 0xE0 SHL DUP2 MSTORE PUSH1 0x4 ADD PUSH0 PUSH1 0x40 MLOAD DUP1 DUP4 SUB DUP2 DUP7 GAS STATICCALL ISZERO DUP1 ISZERO PUSH2 0xCD JUMPI RETURNDATASIZE PUSH0 DUP1 RETURNDATACOPY RETURNDATASIZE PUSH0 REVERT JUMPDEST POP POP POP POP PUSH1 0x40 MLOAD RETURNDATASIZE PUSH0 DUP3 RETURNDATACOPY RETURNDATASIZE PUSH1 0x1F NOT PUSH1 0x1F DUP3 ADD AND DUP3 ADD DUP1 PUSH1 0x40 MSTORE POP DUP2 ADD SWAP1 PUSH2 0xF5 SWAP2 SWAP1 PUSH2 0x418 JUMP JUMPDEST PUSH1 0x40 MLOAD DUP3 PUSH4 0xFFFFFFFF AND PUSH1 0xE0 SHL DUP2 MSTORE PUSH1 0x4 ADD PUSH2 0x111 SWAP2 SWAP1 PUSH2 0x545 JUMP JUMPDEST PUSH1 0x20 PUSH1 0x40 MLOAD DUP1 DUP4 SUB DUP2 DUP7 GAS DELEGATECALL ISZERO DUP1 ISZERO PUSH2 0x12C JUMPI RETURNDATASIZE PUSH0 DUP1 RETURNDATACOPY RETURNDATASIZE PUSH0 REVERT JUMPDEST POP POP POP POP PUSH1 0x40 MLOAD RETURNDATASIZE PUSH1 0x1F NOT PUSH1 0x1F DUP3 ADD AND DUP3 ADD DUP1 PUSH1 0x40 MSTORE POP DUP2 ADD SWAP1 PUSH2 0x150 SWAP2 SWAP1 PUSH2 0x5C0 JUMP JUMPDEST POP PUSH20 0x0 PUSH4 0xE8C2CB16 PUSH0 DUP1 SLOAD SWAP1 PUSH2 0x100 EXP SWAP1 DIV PUSH20 0xFFFFFFFFFFFFFFFFFFFFFFFFFFFFFFFFFFFFFFFF AND PUSH20 0xFFFFFFFFFFFFFFFFFFFFFFFFFFFFFFFFFFFFFFFF AND PUSH4 0x95D89B41 PUSH1 0x40 MLOAD DUP2 PUSH4 0xFFFFFFFF AND PUSH1 0xE0 SHL DUP2 MSTORE PUSH1 0x4 ADD PUSH0 PUSH1 0x40 MLOAD DUP1 DUP4 SUB DUP2 DUP7 GAS STATICCALL ISZERO DUP1 ISZERO PUSH2 0x1D2 JUMPI RETURNDATASIZE PUSH0 DUP1 RETURNDATACOPY RETURNDATASIZE PUSH0 REVERT JUMPDEST POP POP POP POP PUSH1 0x40 MLOAD RETURNDATASIZE PUSH0 DUP3 RETURNDATACOPY RETURNDATASIZE PUSH1 0x1F NOT PUSH1 0x1F DUP3 ADD AND DUP3 ADD DUP1 PUSH1 0x40 MSTORE POP DUP2 ADD SWAP1 PUSH2 0x1FA SWAP2 SWAP1 PUSH2 0x418 JUMP JUMPDEST PUSH1 0x40 MLOAD DUP3 PUSH4 0xFFFFFFFF AND PUSH1 0xE0 SHL DUP2 MSTORE PUSH1 0x4 ADD PUSH2 0x216 SWAP2 SWAP1 PUSH2 0x67F JUMP JUMPDEST PUSH1 0x20 PUSH1 0x40 MLOAD DUP1 DUP4 SUB DUP2 DUP7 GAS DELEGATECALL ISZERO DUP1 ISZERO PUSH2 0x231 JUMPI RETURNDATASIZE PUSH0 DUP1 RETURNDATACOPY RETURNDATASIZE PUSH0 REVERT JUMPDEST POP POP POP POP PUSH1 0x40 MLOAD RETURNDATASIZE PUSH1 0x1F NOT PUSH1 0x1F DUP3 ADD AND DUP3 ADD DUP1 PUSH1 0x40 MSTORE POP DUP2 ADD SWAP1 PUSH2 0x255 SWAP2 SWAP1 PUSH2 0x5C0 JUMP JUMPDEST POP JUMP JUMPDEST PUSH1 0x40 MLOAD PUSH2 0x264 SWAP1 PUSH2 0x2BE JUMP JUMPDEST PUSH1 0x40 MLOAD DUP1 SWAP2 SUB SWAP1 PUSH0 CREATE DUP1 ISZERO DUP1 ISZERO PUSH2 0x27D JUMPI RETURNDATASIZE PUSH0 DUP1 RETURNDATACOPY RETURNDATASIZE PUSH0 REVERT JUMPDEST POP PUSH0 DUP1 PUSH2 0x100 EXP DUP2 SLOAD DUP2 PUSH20 0xFFFFFFFFFFFFFFFFFFFFFFFFFFFFFFFFFFFFFFFF MUL NOT AND SWAP1 DUP4 PUSH20 0xFFFFFFFFFFFFFFFFFFFFFFFFFFFFFFFFFFFFFFFF AND MUL OR SWAP1 SSTORE POP JUMP JUMPDEST PUSH2 0x2386 DUP1 PUSH2 0x6C6 DUP4 CODECOPY ADD SWAP1 JUMP JUMPDEST PUSH0 PUSH1 0x40 MLOAD SWAP1 POP SWAP1 JUMP JUMPDEST PUSH0 DUP1 REVERT JUMPDEST PUSH0 DUP1 REVERT JUMPDEST PUSH0 DUP1 REVERT JUMPDEST PUSH0 DUP1 REVERT JUMPDEST PUSH0 PUSH1 0x1F NOT PUSH1 0x1F DUP4 ADD AND SWAP1 POP SWAP2 SWAP1 POP JUMP JUMPDEST PUSH32 0x4E487B7100000000000000000000000000000000000000000000000000000000 PUSH0 MSTORE PUSH1 0x41 PUSH1 0x4 MSTORE PUSH1 0x24 PUSH0 REVERT JUMPDEST PUSH2 0x32A DUP3 PUSH2 0x2E4 JUMP JUMPDEST DUP2 ADD DUP2 DUP2 LT PUSH8 0xFFFFFFFFFFFFFFFF DUP3 GT OR ISZERO PUSH2 0x349 JUMPI PUSH2 0x348 PUSH2 0x2F4 JUMP JUMPDEST JUMPDEST DUP1 PUSH1 0x40 MSTORE POP POP POP JUMP JUMPDEST PUSH0 PUSH2 0x35B PUSH2 0x2CB JUMP JUMPDEST SWAP1 POP PUSH2 0x367 DUP3 DUP3 PUSH2 0x321 JUMP JUMPDEST SWAP2 SWAP1 POP JUMP JUMPDEST PUSH0 PUSH8 0xFFFFFFFFFFFFFFFF DUP3 GT ISZERO PUSH2 0x386 JUMPI PUSH2 0x385 PUSH2 0x2F4 JUMP JUMPDEST JUMPDEST PUSH2 0x38F DUP3 PUSH2 0x2E4 JUMP JUMPDEST SWAP1 POP PUSH1 0x20 DUP2 ADD SWAP1 POP SWAP2 SWAP1 POP JUMP JUMPDEST DUP3 DUP2 DUP4 MCOPY PUSH0 DUP4 DUP4 ADD MSTORE POP POP POP JUMP JUMPDEST PUSH0 PUSH2 0x3BC PUSH2 0x3B7 DUP5 PUSH2 0x36C JUMP JUMPDEST PUSH2 0x352 JUMP JUMPDEST SWAP1 POP DUP3 DUP2 MSTORE PUSH1 0x20 DUP2 ADD DUP5 DUP5 DUP5 ADD GT ISZERO PUSH2 0x3D8 JUMPI PUSH2 0x3D7 PUSH2 0x2E0 JUMP JUMPDEST JUMPDEST PUSH2 0x3E3 DUP5 DUP3 DUP6 PUSH2 0x39C JUMP JUMPDEST POP SWAP4 SWAP3 POP POP POP JUMP JUMPDEST PUSH0 DUP3 PUSH1 0x1F DUP4 ADD SLT PUSH2 0x3FF JUMPI PUSH2 0x3FE PUSH2 0x2DC JUMP JUMPDEST JUMPDEST DUP2 MLOAD PUSH2 0x40F DUP5 DUP3 PUSH1 0x20 DUP7 ADD PUSH2 0x3AA JUMP JUMPDEST SWAP2 POP POP SWAP3 SWAP2 POP POP JUMP JUMPDEST PUSH0 PUSH1 0x20 DUP3 DUP5 SUB SLT ISZERO PUSH2 0x42D JUMPI PUSH2 0x42C PUSH2 0x2D4 JUMP JUMPDEST JUMPDEST PUSH0 DUP3 ADD MLOAD PUSH8 0xFFFFFFFFFFFFFFFF DUP2 GT ISZERO PUSH2 0x44A JUMPI PUSH2 0x449 PUSH2 0x2D8 JUMP JUMPDEST JUMPDEST PUSH2 0x456 DUP5 DUP3 DUP6 ADD PUSH2 0x3EB JUMP JUMPDEST SWAP2 POP POP SWAP3 SWAP2 POP POP JUMP JUMPDEST PUSH0 DUP2 MLOAD SWAP1 POP SWAP2 SWAP1 POP JUMP JUMPDEST PUSH0 DUP3 DUP3 MSTORE PUSH1 0x20 DUP3 ADD SWAP1 POP SWAP3 SWAP2 POP POP JUMP JUMPDEST PUSH0 PUSH2 0x483 DUP3 PUSH2 0x45F JUMP JUMPDEST PUSH2 0x48D DUP2 DUP6 PUSH2 0x469 JUMP JUMPDEST SWAP4 POP PUSH2 0x49D DUP2 DUP6 PUSH1 0x20 DUP7 ADD PUSH2 0x39C JUMP JUMPDEST PUSH2 0x4A6 DUP2 PUSH2 0x2E4 JUMP JUMPDEST DUP5 ADD SWAP2 POP POP SWAP3 SWAP2 POP POP JUMP JUMPDEST PUSH32 0x4D79546F6B656E00000000000000000000000000000000000000000000000000 PUSH0 DUP3 ADD MSTORE POP JUMP JUMPDEST PUSH0 PUSH2 0x4E5 PUSH1 0x7 DUP4 PUSH2 0x469 JUMP JUMPDEST SWAP2 POP PUSH2 0x4F0 DUP3 PUSH2 0x4B1 JUMP JUMPDEST PUSH1 0x20 DUP3 ADD SWAP1 POP SWAP2 SWAP1 POP JUMP JUMPDEST PUSH32 0x746F6B656E206E616D6520646964206E6F74206D617463680000000000000000 PUSH0 DUP3 ADD MSTORE POP JUMP JUMPDEST PUSH0 PUSH2 0x52F PUSH1 0x18 DUP4 PUSH2 0x469 JUMP JUMPDEST SWAP2 POP PUSH2 0x53A DUP3 PUSH2 0x4FB JUMP JUMPDEST PUSH1 0x20 DUP3 ADD SWAP1 POP SWAP2 SWAP1 POP JUMP JUMPDEST PUSH0 PUSH1 0x60 DUP3 ADD SWAP1 POP DUP2 DUP2 SUB PUSH0 DUP4 ADD MSTORE PUSH2 0x55D DUP2 DUP5 PUSH2 0x479 JUMP JUMPDEST SWAP1 POP DUP2 DUP2 SUB PUSH1 0x20 DUP4 ADD MSTORE PUSH2 0x570 DUP2 PUSH2 0x4D9 JUMP JUMPDEST SWAP1 POP DUP2 DUP2 SUB PUSH1 0x40 DUP4 ADD MSTORE PUSH2 0x583 DUP2 PUSH2 0x523 JUMP JUMPDEST SWAP1 POP SWAP3 SWAP2 POP POP JUMP JUMPDEST PUSH0 DUP2 ISZERO ISZERO SWAP1 POP SWAP2 SWAP1 POP JUMP JUMPDEST PUSH2 0x59F DUP2 PUSH2 0x58B JUMP JUMPDEST DUP2 EQ PUSH2 0x5A9 JUMPI PUSH0 DUP1 REVERT JUMPDEST POP JUMP JUMPDEST PUSH0 DUP2 MLOAD SWAP1 POP PUSH2 0x5BA DUP2 PUSH2 0x596 JUMP JUMPDEST SWAP3 SWAP2 POP POP JUMP JUMPDEST PUSH0 PUSH1 0x20 DUP3 DUP5 SUB SLT ISZERO PUSH2 0x5D5 JUMPI PUSH2 0x5D4 PUSH2 0x2D4 JUMP JUMPDEST JUMPDEST PUSH0 PUSH2 0x5E2 DUP5 DUP3 DUP6 ADD PUSH2 0x5AC JUMP JUMPDEST SWAP2 POP POP SWAP3 SWAP2 POP POP JUMP JUMPDEST PUSH32 0x4D544B0000000000000000000000000000000000000000000000000000000000 PUSH0 DUP3 ADD MSTORE POP JUMP JUMPDEST PUSH0 PUSH2 0x61F PUSH1 0x3 DUP4 PUSH2 0x469 JUMP JUMPDEST SWAP2 POP PUSH2 0x62A DUP3 PUSH2 0x5EB JUMP JUMPDEST PUSH1 0x20 DUP3 ADD SWAP1 POP SWAP2 SWAP1 POP JUMP JUMPDEST PUSH32 0x746F6B656E2073796D626F6C20646964206E6F74206D61746368000000000000 PUSH0 DUP3 ADD MSTORE POP JUMP JUMPDEST PUSH0 PUSH2 0x669 PUSH1 0x1A DUP4 PUSH2 0x469 JUMP JUMPDEST SWAP2 POP PUSH2 0x674 DUP3 PUSH2 0x635 JUMP JUMPDEST PUSH1 0x20 DUP3 ADD SWAP1 POP SWAP2 SWAP1 POP JUMP JUMPDEST PUSH0 PUSH1 0x60 DUP3 ADD SWAP1 POP DUP2 DUP2 SUB PUSH0 DUP4 ADD MSTORE PUSH2 0x697 DUP2 DUP5 PUSH2 0x479 JUMP JUMPDEST SWAP1 POP DUP2 DUP2 SUB PUSH1 0x20 DUP4 ADD MSTORE PUSH2 0x6AA DUP2 PUSH2 0x613 JUMP JUMPDEST SWAP1 POP DUP2 DUP2 SUB PUSH1 0x40 DUP4 ADD MSTORE PUSH2 0x6BD DUP2 PUSH2 0x65D JUMP JUMPDEST SWAP1 POP SWAP3 SWAP2 POP POP JUMP INVALID PUSH1 0x80 PUSH1 0x40 MSTORE PUSH2 0x3E8 PUSH1 0x7 SSTORE CALLVALUE DUP1 ISZERO PUSH2 0x15 JUMPI PUSH0 DUP1 REVERT JUMPDEST POP PUSH1 0x40 MLOAD DUP1 PUSH1 0x40 ADD PUSH1 0x40 MSTORE DUP1 PUSH1 0x17 DUP2 MSTORE PUSH1 0x20 ADD PUSH32 0x4D657932303231204E465420436F6C6C656374696F6E32000000000000000000 DUP2 MSTORE POP PUSH1 0x40 MLOAD DUP1 PUSH1 0x40 ADD PUSH1 0x40 MSTORE DUP1 PUSH1 0x4 DUP2 MSTORE PUSH1 0x20 ADD PUSH32 0x4D45593200000000000000000000000000000000000000000000000000000000 DUP2 MSTORE POP DUP2 PUSH0 SWAP1 DUP2 PUSH2 0x90 SWAP2 SWAP1 PUSH2 0x2E2 JUMP JUMPDEST POP DUP1 PUSH1 0x1 SWAP1 DUP2 PUSH2 0xA0 SWAP2 SWAP1 PUSH2 0x2E2 JUMP JUMPDEST POP POP POP PUSH2 0x3B1 JUMP JUMPDEST PUSH0 DUP2 MLOAD SWAP1 POP SWAP2 SWAP1 POP JUMP JUMPDEST PUSH32 0x4E487B7100000000000000000000000000000000000000000000000000000000 PUSH0 MSTORE PUSH1 0x41 PUSH1 0x4 MSTORE PUSH1 0x24 PUSH0 REVERT JUMPDEST PUSH32 0x4E487B7100000000000000000000000000000000000000000000000000000000 PUSH0 MSTORE PUSH1 0x22 PUSH1 0x4 MSTORE PUSH1 0x24 PUSH0 REVERT JUMPDEST PUSH0 PUSH1 0x2 DUP3 DIV SWAP1 POP PUSH1 0x1 DUP3 AND DUP1 PUSH2 0x123 JUMPI PUSH1 0x7F DUP3 AND SWAP2 POP JUMPDEST PUSH1 0x20 DUP3 LT DUP2 SUB PUSH2 0x136 JUMPI PUSH2 0x135 PUSH2 0xDF JUMP JUMPDEST JUMPDEST POP SWAP2 SWAP1 POP JUMP JUMPDEST PUSH0 DUP2 SWAP1 POP DUP2 PUSH0 MSTORE PUSH1 0x20 PUSH0 KECCAK256 SWAP1 POP SWAP2 SWAP1 POP JUMP JUMPDEST PUSH0 PUSH1 0x20 PUSH1 0x1F DUP4 ADD DIV SWAP1 POP SWAP2 SWAP1 POP JUMP JUMPDEST PUSH0 DUP3 DUP3 SHL SWAP1 POP SWAP3 SWAP2 POP POP JUMP JUMPDEST PUSH0 PUSH1 0x8 DUP4 MUL PUSH2 0x198 PUSH32 0xFFFFFFFFFFFFFFFFFFFFFFFFFFFFFFFFFFFFFFFFFFFFFFFFFFFFFFFFFFFFFFFF DUP3 PUSH2 0x15D JUMP JUMPDEST PUSH2 0x1A2 DUP7 DUP4 PUSH2 0x15D JUMP JUMPDEST SWAP6 POP DUP1 NOT DUP5 AND SWAP4 POP DUP1 DUP7 AND DUP5 OR SWAP3 POP POP POP SWAP4 SWAP3 POP POP POP JUMP JUMPDEST PUSH0 DUP2 SWAP1 POP SWAP2 SWAP1 POP JUMP JUMPDEST PUSH0 DUP2 SWAP1 POP SWAP2 SWAP1 POP JUMP JUMPDEST PUSH0 PUSH2 0x1E6 PUSH2 0x1E1 PUSH2 0x1DC DUP5 PUSH2 0x1BA JUMP JUMPDEST PUSH2 0x1C3 JUMP JUMPDEST PUSH2 0x1BA JUMP JUMPDEST SWAP1 POP SWAP2 SWAP1 POP JUMP JUMPDEST PUSH0 DUP2 SWAP1 POP SWAP2 SWAP1 POP JUMP JUMPDEST PUSH2 0x1FF DUP4 PUSH2 0x1CC JUMP JUMPDEST PUSH2 0x213 PUSH2 0x20B DUP3 PUSH2 0x1ED JUMP JUMPDEST DUP5 DUP5 SLOAD PUSH2 0x169 JUMP JUMPDEST DUP3 SSTORE POP POP POP POP JUMP JUMPDEST PUSH0 SWAP1 JUMP JUMPDEST PUSH2 0x227 PUSH2 0x21B JUMP JUMPDEST PUSH2 0x232 DUP2 DUP5 DUP5 PUSH2 0x1F6 JUMP JUMPDEST POP POP POP JUMP JUMPDEST JUMPDEST DUP2 DUP2 LT ISZERO PUSH2 0x255 JUMPI PUSH2 0x24A PUSH0 DUP3 PUSH2 0x21F JUMP JUMPDEST PUSH1 0x1 DUP2 ADD SWAP1 POP PUSH2 0x238 JUMP JUMPDEST POP POP JUMP JUMPDEST PUSH1 0x1F DUP3 GT ISZERO PUSH2 0x29A JUMPI PUSH2 0x26B DUP2 PUSH2 0x13C JUMP JUMPDEST PUSH2 0x274 DUP5 PUSH2 0x14E JUMP JUMPDEST DUP2 ADD PUSH1 0x20 DUP6 LT ISZERO PUSH2 0x283 JUMPI DUP2 SWAP1 POP JUMPDEST PUSH2 0x297 PUSH2 0x28F DUP6 PUSH2 0x14E JUMP JUMPDEST DUP4 ADD DUP3 PUSH2 0x237 JUMP JUMPDEST POP POP JUMPDEST POP POP POP JUMP JUMPDEST PUSH0 DUP3 DUP3 SHR SWAP1 POP SWAP3 SWAP2 POP POP JUMP JUMPDEST PUSH0 PUSH2 0x2BA PUSH0 NOT DUP5 PUSH1 0x8 MUL PUSH2 0x29F JUMP JUMPDEST NOT DUP1 DUP4 AND SWAP2 POP POP SWAP3 SWAP2 POP POP JUMP JUMPDEST PUSH0 PUSH2 0x2D2 DUP4 DUP4 PUSH2 0x2AB JUMP JUMPDEST SWAP2 POP DUP3 PUSH1 0x2 MUL DUP3 OR SWAP1 POP SWAP3 SWAP2 POP POP JUMP JUMPDEST PUSH2 0x2EB DUP3 PUSH2 0xA8 JUMP JUMPDEST PUSH8 0xFFFFFFFFFFFFFFFF DUP2 GT ISZERO PUSH2 0x304 JUMPI PUSH2 0x303 PUSH2 0xB2 JUMP JUMPDEST JUMPDEST PUSH2 0x30E DUP3 SLOAD PUSH2 0x10C JUMP JUMPDEST PUSH2 0x319 DUP3 DUP3 DUP6 PUSH2 0x259 JUMP JUMPDEST PUSH0 PUSH1 0x20 SWAP1 POP PUSH1 0x1F DUP4 GT PUSH1 0x1 DUP2 EQ PUSH2 0x34A JUMPI PUSH0 DUP5 ISZERO PUSH2 0x338 JUMPI DUP3 DUP8 ADD MLOAD SWAP1 POP JUMPDEST PUSH2 0x342 DUP6 DUP3 PUSH2 0x2C7 JUMP JUMPDEST DUP7 SSTORE POP PUSH2 0x3A9 JUMP JUMPDEST PUSH1 0x1F NOT DUP5 AND PUSH2 0x358 DUP7 PUSH2 0x13C JUMP JUMPDEST PUSH0 JUMPDEST DUP3 DUP2 LT ISZERO PUSH2 0x37F JUMPI DUP5 DUP10 ADD MLOAD DUP3 SSTORE PUSH1 0x1 DUP3 ADD SWAP2 POP PUSH1 0x20 DUP6 ADD SWAP5 POP PUSH1 0x20 DUP2 ADD SWAP1 POP PUSH2 0x35A JUMP JUMPDEST DUP7 DUP4 LT ISZERO PUSH2 0x39C JUMPI DUP5 DUP10 ADD MLOAD PUSH2 0x398 PUSH1 0x1F DUP10 AND DUP3 PUSH2 0x2AB JUMP JUMPDEST DUP4 SSTORE POP JUMPDEST PUSH1 0x1 PUSH1 0x2 DUP9 MUL ADD DUP9 SSTORE POP POP POP JUMPDEST POP POP POP POP POP POP JUMP JUMPDEST PUSH2 0x1FC8 DUP1 PUSH2 0x3BE PUSH0 CODECOPY PUSH0 RETURN INVALID PUSH1 0x80 PUSH1 0x40 MSTORE CALLVALUE DUP1 ISZERO PUSH2 0xF JUMPI PUSH0 DUP1 REVERT JUMPDEST POP PUSH1 0x4 CALLDATASIZE LT PUSH2 0xFE JUMPI PUSH0 CALLDATALOAD PUSH1 0xE0 SHR DUP1 PUSH4 0x6352211E GT PUSH2 0x95 JUMPI DUP1 PUSH4 0xB88D4FDE GT PUSH2 0x64 JUMPI DUP1 PUSH4 0xB88D4FDE EQ PUSH2 0x296 JUMPI DUP1 PUSH4 0xC87B56DD EQ PUSH2 0x2B2 JUMPI DUP1 PUSH4 0xD5ABEB01 EQ PUSH2 0x2E2 JUMPI DUP1 PUSH4 0xE985E9C5 EQ PUSH2 0x300 JUMPI PUSH2 0xFE JUMP JUMPDEST DUP1 PUSH4 0x6352211E EQ PUSH2 0x1FC JUMPI DUP1 PUSH4 0x70A08231 EQ PUSH2 0x22C JUMPI DUP1 PUSH4 0x95D89B41 EQ PUSH2 0x25C JUMPI DUP1 PUSH4 0xA22CB465 EQ PUSH2 0x27A JUMPI PUSH2 0xFE JUMP JUMPDEST DUP1 PUSH4 0x1249C58B GT PUSH2 0xD1 JUMPI DUP1 PUSH4 0x1249C58B EQ PUSH2 0x19C JUMPI DUP1 PUSH4 0x17D70F7C EQ PUSH2 0x1A6 JUMPI DUP1 PUSH4 0x23B872DD EQ PUSH2 0x1C4 JUMPI DUP1 PUSH4 0x42842E0E EQ PUSH2 0x1E0 JUMPI PUSH2 0xFE JUMP JUMPDEST DUP1 PUSH4 0x1FFC9A7 EQ PUSH2 0x102 JUMPI DUP1 PUSH4 0x6FDDE03 EQ PUSH2 0x132 JUMPI DUP1 PUSH4 0x81812FC EQ PUSH2 0x150 JUMPI DUP1 PUSH4 0x95EA7B3 EQ PUSH2 0x180 JUMPI JUMPDEST PUSH0 DUP1 REVERT JUMPDEST PUSH2 0x11C PUSH1 0x4 DUP1 CALLDATASIZE SUB DUP2 ADD SWAP1 PUSH2 0x117 SWAP2 SWAP1 PUSH2 0x1608 JUMP JUMPDEST PUSH2 0x330 JUMP JUMPDEST PUSH1 0x40 MLOAD PUSH2 0x129 SWAP2 SWAP1 PUSH2 0x164D JUMP JUMPDEST PUSH1 0x40 MLOAD DUP1 SWAP2 SUB SWAP1 RETURN JUMPDEST PUSH2 0x13A PUSH2 0x411 JUMP JUMPDEST PUSH1 0x40 MLOAD PUSH2 0x147 SWAP2 SWAP1 PUSH2 0x16D6 JUMP JUMPDEST PUSH1 0x40 MLOAD DUP1 SWAP2 SUB SWAP1 RETURN JUMPDEST PUSH2 0x16A PUSH1 0x4 DUP1 CALLDATASIZE SUB DUP2 ADD SWAP1 PUSH2 0x165 SWAP2 SWAP1 PUSH2 0x1729 JUMP JUMPDEST PUSH2 0x4A0 JUMP JUMPDEST PUSH1 0x40 MLOAD PUSH2 0x177 SWAP2 SWAP1 PUSH2 0x1793 JUMP JUMPDEST PUSH1 0x40 MLOAD DUP1 SWAP2 SUB SWAP1 RETURN JUMPDEST PUSH2 0x19A PUSH1 0x4 DUP1 CALLDATASIZE SUB DUP2 ADD SWAP1 PUSH2 0x195 SWAP2 SWAP1 PUSH2 0x17D6 JUMP JUMPDEST PUSH2 0x4BB JUMP JUMPDEST STOP JUMPDEST PUSH2 0x1A4 PUSH2 0x4D1 JUMP JUMPDEST STOP JUMPDEST PUSH2 0x1AE PUSH2 0x53A JUMP JUMPDEST PUSH1 0x40 MLOAD PUSH2 0x1BB SWAP2 SWAP1 PUSH2 0x1823 JUMP JUMPDEST PUSH1 0x40 MLOAD DUP1 SWAP2 SUB SWAP1 RETURN JUMPDEST PUSH2 0x1DE PUSH1 0x4 DUP1 CALLDATASIZE SUB DUP2 ADD SWAP1 PUSH2 0x1D9 SWAP2 SWAP1 PUSH2 0x183C JUMP JUMPDEST PUSH2 0x540 JUMP JUMPDEST STOP JUMPDEST PUSH2 0x1FA PUSH1 0x4 DUP1 CALLDATASIZE SUB DUP2 ADD SWAP1 PUSH2 0x1F5 SWAP2 SWAP1 PUSH2 0x183C JUMP JUMPDEST PUSH2 0x63F JUMP JUMPDEST STOP JUMPDEST PUSH2 0x216 PUSH1 0x4 DUP1 CALLDATASIZE SUB DUP2 ADD SWAP1 PUSH2 0x211 SWAP2 SWAP1 PUSH2 0x1729 JUMP JUMPDEST PUSH2 0x65E JUMP JUMPDEST PUSH1 0x40 MLOAD PUSH2 0x223 SWAP2 SWAP1 PUSH2 0x1793 JUMP JUMPDEST PUSH1 0x40 MLOAD DUP1 SWAP2 SUB SWAP1 RETURN JUMPDEST PUSH2 0x246 PUSH1 0x4 DUP1 CALLDATASIZE SUB DUP2 ADD SWAP1 PUSH2 0x241 SWAP2 SWAP1 PUSH2 0x188C JUMP JUMPDEST PUSH2 0x66F JUMP JUMPDEST PUSH1 0x40 MLOAD PUSH2 0x253 SWAP2 SWAP1 PUSH2 0x1823 JUMP JUMPDEST PUSH1 0x40 MLOAD DUP1 SWAP2 SUB SWAP1 RETURN JUMPDEST PUSH2 0x264 PUSH2 0x725 JUMP JUMPDEST PUSH1 0x40 MLOAD PUSH2 0x271 SWAP2 SWAP1 PUSH2 0x16D6 JUMP JUMPDEST PUSH1 0x40 MLOAD DUP1 SWAP2 SUB SWAP1 RETURN JUMPDEST PUSH2 0x294 PUSH1 0x4 DUP1 CALLDATASIZE SUB DUP2 ADD SWAP1 PUSH2 0x28F SWAP2 SWAP1 PUSH2 0x18E1 JUMP JUMPDEST PUSH2 0x7B5 JUMP JUMPDEST STOP JUMPDEST PUSH2 0x2B0 PUSH1 0x4 DUP1 CALLDATASIZE SUB DUP2 ADD SWAP1 PUSH2 0x2AB SWAP2 SWAP1 PUSH2 0x1A4B JUMP JUMPDEST PUSH2 0x7CB JUMP JUMPDEST STOP JUMPDEST PUSH2 0x2CC PUSH1 0x4 DUP1 CALLDATASIZE SUB DUP2 ADD SWAP1 PUSH2 0x2C7 SWAP2 SWAP1 PUSH2 0x1729 JUMP JUMPDEST PUSH2 0x7F0 JUMP JUMPDEST PUSH1 0x40 MLOAD PUSH2 0x2D9 SWAP2 SWAP1 PUSH2 0x16D6 JUMP JUMPDEST PUSH1 0x40 MLOAD DUP1 SWAP2 SUB SWAP1 RETURN JUMPDEST PUSH2 0x2EA PUSH2 0x843 JUMP JUMPDEST PUSH1 0x40 MLOAD PUSH2 0x2F7 SWAP2 SWAP1 PUSH2 0x1823 JUMP JUMPDEST PUSH1 0x40 MLOAD DUP1 SWAP2 SUB SWAP1 RETURN JUMPDEST PUSH2 0x31A PUSH1 0x4 DUP1 CALLDATASIZE SUB DUP2 ADD SWAP1 PUSH2 0x315 SWAP2 SWAP1 PUSH2 0x1ACB JUMP JUMPDEST PUSH2 0x849 JUMP JUMPDEST PUSH1 0x40 MLOAD PUSH2 0x327 SWAP2 SWAP1 PUSH2 0x164D JUMP JUMPDEST PUSH1 0x40 MLOAD DUP1 SWAP2 SUB SWAP1 RETURN JUMPDEST PUSH0 PUSH32 0x80AC58CD00000000000000000000000000000000000000000000000000000000 PUSH28 0xFFFFFFFFFFFFFFFFFFFFFFFFFFFFFFFFFFFFFFFFFFFFFFFFFFFFFFFF NOT AND DUP3 PUSH28 0xFFFFFFFFFFFFFFFFFFFFFFFFFFFFFFFFFFFFFFFFFFFFFFFFFFFFFFFF NOT AND EQ DUP1 PUSH2 0x3FA JUMPI POP PUSH32 0x5B5E139F00000000000000000000000000000000000000000000000000000000 PUSH28 0xFFFFFFFFFFFFFFFFFFFFFFFFFFFFFFFFFFFFFFFFFFFFFFFFFFFFFFFF NOT AND DUP3 PUSH28 0xFFFFFFFFFFFFFFFFFFFFFFFFFFFFFFFFFFFFFFFFFFFFFFFFFFFFFFFF NOT AND EQ JUMPDEST DUP1 PUSH2 0x40A JUMPI POP PUSH2 0x409 DUP3 PUSH2 0x8D7 JUMP JUMPDEST JUMPDEST SWAP1 POP SWAP2 SWAP1 POP JUMP JUMPDEST PUSH1 0x60 PUSH0 DUP1 SLOAD PUSH2 0x41F SWAP1 PUSH2 0x1B36 JUMP JUMPDEST DUP1 PUSH1 0x1F ADD PUSH1 0x20 DUP1 SWAP2 DIV MUL PUSH1 0x20 ADD PUSH1 0x40 MLOAD SWAP1 DUP2 ADD PUSH1 0x40 MSTORE DUP1 SWAP3 SWAP2 SWAP1 DUP2 DUP2 MSTORE PUSH1 0x20 ADD DUP3 DUP1 SLOAD PUSH2 0x44B SWAP1 PUSH2 0x1B36 JUMP JUMPDEST DUP1 ISZERO PUSH2 0x496 JUMPI DUP1 PUSH1 0x1F LT PUSH2 0x46D JUMPI PUSH2 0x100 DUP1 DUP4 SLOAD DIV MUL DUP4 MSTORE SWAP2 PUSH1 0x20 ADD SWAP2 PUSH2 0x496 JUMP JUMPDEST DUP3 ADD SWAP2 SWAP1 PUSH0 MSTORE PUSH1 0x20 PUSH0 KECCAK256 SWAP1 JUMPDEST DUP2 SLOAD DUP2 MSTORE SWAP1 PUSH1 0x1 ADD SWAP1 PUSH1 0x20 ADD DUP1 DUP4 GT PUSH2 0x479 JUMPI DUP3 SWAP1 SUB PUSH1 0x1F AND DUP3 ADD SWAP2 JUMPDEST POP POP POP POP POP SWAP1 POP SWAP1 JUMP JUMPDEST PUSH0 PUSH2 0x4AA DUP3 PUSH2 0x940 JUMP JUMPDEST POP PUSH2 0x4B4 DUP3 PUSH2 0x9C6 JUMP JUMPDEST SWAP1 POP SWAP2 SWAP1 POP JUMP JUMPDEST PUSH2 0x4CD DUP3 DUP3 PUSH2 0x4C8 PUSH2 0x9FF JUMP JUMPDEST PUSH2 0xA06 JUMP JUMPDEST POP POP JUMP JUMPDEST PUSH1 0x7 SLOAD PUSH1 0x6 SLOAD LT PUSH2 0x517 JUMPI PUSH1 0x40 MLOAD PUSH32 0x8C379A000000000000000000000000000000000000000000000000000000000 DUP2 MSTORE PUSH1 0x4 ADD PUSH2 0x50E SWAP1 PUSH2 0x1BB0 JUMP JUMPDEST PUSH1 0x40 MLOAD DUP1 SWAP2 SUB SWAP1 REVERT JUMPDEST PUSH2 0x523 CALLER PUSH1 0x6 SLOAD PUSH2 0xA18 JUMP JUMPDEST PUSH1 0x1 PUSH1 0x6 SLOAD PUSH2 0x532 SWAP2 SWAP1 PUSH2 0x1BFB JUMP JUMPDEST PUSH1 0x6 DUP2 SWAP1 SSTORE POP JUMP JUMPDEST PUSH1 0x6 SLOAD DUP2 JUMP JUMPDEST PUSH0 PUSH20 0xFFFFFFFFFFFFFFFFFFFFFFFFFFFFFFFFFFFFFFFF AND DUP3 PUSH20 0xFFFFFFFFFFFFFFFFFFFFFFFFFFFFFFFFFFFFFFFF AND SUB PUSH2 0x5B0 JUMPI PUSH0 PUSH1 0x40 MLOAD PUSH32 0x64A0AE9200000000000000000000000000000000000000000000000000000000 DUP2 MSTORE PUSH1 0x4 ADD PUSH2 0x5A7 SWAP2 SWAP1 PUSH2 0x1793 JUMP JUMPDEST PUSH1 0x40 MLOAD DUP1 SWAP2 SUB SWAP1 REVERT JUMPDEST PUSH0 PUSH2 0x5C3 DUP4 DUP4 PUSH2 0x5BE PUSH2 0x9FF JUMP JUMPDEST PUSH2 0xA35 JUMP JUMPDEST SWAP1 POP DUP4 PUSH20 0xFFFFFFFFFFFFFFFFFFFFFFFFFFFFFFFFFFFFFFFF AND DUP2 PUSH20 0xFFFFFFFFFFFFFFFFFFFFFFFFFFFFFFFFFFFFFFFF AND EQ PUSH2 0x639 JUMPI DUP4 DUP3 DUP3 PUSH1 0x40 MLOAD PUSH32 0x64283D7B00000000000000000000000000000000000000000000000000000000 DUP2 MSTORE PUSH1 0x4 ADD PUSH2 0x630 SWAP4 SWAP3 SWAP2 SWAP1 PUSH2 0x1C2E JUMP JUMPDEST PUSH1 0x40 MLOAD DUP1 SWAP2 SUB SWAP1 REVERT JUMPDEST POP POP POP POP JUMP JUMPDEST PUSH2 0x659 DUP4 DUP4 DUP4 PUSH1 0x40 MLOAD DUP1 PUSH1 0x20 ADD PUSH1 0x40 MSTORE DUP1 PUSH0 DUP2 MSTORE POP PUSH2 0x7CB JUMP JUMPDEST POP POP POP JUMP JUMPDEST PUSH0 PUSH2 0x668 DUP3 PUSH2 0x940 JUMP JUMPDEST SWAP1 POP SWAP2 SWAP1 POP JUMP JUMPDEST PUSH0 DUP1 PUSH20 0xFFFFFFFFFFFFFFFFFFFFFFFFFFFFFFFFFFFFFFFF AND DUP3 PUSH20 0xFFFFFFFFFFFFFFFFFFFFFFFFFFFFFFFFFFFFFFFF AND SUB PUSH2 0x6E0 JUMPI PUSH0 PUSH1 0x40 MLOAD PUSH32 0x89C62B6400000000000000000000000000000000000000000000000000000000 DUP2 MSTORE PUSH1 0x4 ADD PUSH2 0x6D7 SWAP2 SWAP1 PUSH2 0x1793 JUMP JUMPDEST PUSH1 0x40 MLOAD DUP1 SWAP2 SUB SWAP1 REVERT JUMPDEST PUSH1 0x3 PUSH0 DUP4 PUSH20 0xFFFFFFFFFFFFFFFFFFFFFFFFFFFFFFFFFFFFFFFF AND PUSH20 0xFFFFFFFFFFFFFFFFFFFFFFFFFFFFFFFFFFFFFFFF AND DUP2 MSTORE PUSH1 0x20 ADD SWAP1 DUP2 MSTORE PUSH1 0x20 ADD PUSH0 KECCAK256 SLOAD SWAP1 POP SWAP2 SWAP1 POP JUMP JUMPDEST PUSH1 0x60 PUSH1 0x1 DUP1 SLOAD PUSH2 0x734 SWAP1 PUSH2 0x1B36 JUMP JUMPDEST DUP1 PUSH1 0x1F ADD PUSH1 0x20 DUP1 SWAP2 DIV MUL PUSH1 0x20 ADD PUSH1 0x40 MLOAD SWAP1 DUP2 ADD PUSH1 0x40 MSTORE DUP1 SWAP3 SWAP2 SWAP1 DUP2 DUP2 MSTORE PUSH1 0x20 ADD DUP3 DUP1 SLOAD PUSH2 0x760 SWAP1 PUSH2 0x1B36 JUMP JUMPDEST DUP1 ISZERO PUSH2 0x7AB JUMPI DUP1 PUSH1 0x1F LT PUSH2 0x782 JUMPI PUSH2 0x100 DUP1 DUP4 SLOAD DIV MUL DUP4 MSTORE SWAP2 PUSH1 0x20 ADD SWAP2 PUSH2 0x7AB JUMP JUMPDEST DUP3 ADD SWAP2 SWAP1 PUSH0 MSTORE PUSH1 0x20 PUSH0 KECCAK256 SWAP1 JUMPDEST DUP2 SLOAD DUP2 MSTORE SWAP1 PUSH1 0x1 ADD SWAP1 PUSH1 0x20 ADD DUP1 DUP4 GT PUSH2 0x78E JUMPI DUP3 SWAP1 SUB PUSH1 0x1F AND DUP3 ADD SWAP2 JUMPDEST POP POP POP POP POP SWAP1 POP SWAP1 JUMP JUMPDEST PUSH2 0x7C7 PUSH2 0x7C0 PUSH2 0x9FF JUMP JUMPDEST DUP4 DUP4 PUSH2 0xC40 JUMP JUMPDEST POP POP JUMP JUMPDEST PUSH2 0x7D6 DUP5 DUP5 DUP5 PUSH2 0x540 JUMP JUMPDEST PUSH2 0x7EA PUSH2 0x7E1 PUSH2 0x9FF JUMP JUMPDEST DUP6 DUP6 DUP6 DUP6 PUSH2 0xDA9 JUMP JUMPDEST POP POP POP POP JUMP JUMPDEST PUSH1 0x60 PUSH0 PUSH2 0x819 PUSH1 0x40 MLOAD PUSH1 0x20 ADD PUSH2 0x805 SWAP1 PUSH2 0x1D03 JUMP JUMPDEST PUSH1 0x40 MLOAD PUSH1 0x20 DUP2 DUP4 SUB SUB DUP2 MSTORE SWAP1 PUSH1 0x40 MSTORE PUSH2 0xF55 JUMP JUMPDEST SWAP1 POP DUP1 PUSH1 0x40 MLOAD PUSH1 0x20 ADD PUSH2 0x82C SWAP2 SWAP1 PUSH2 0x1D91 JUMP JUMPDEST PUSH1 0x40 MLOAD PUSH1 0x20 DUP2 DUP4 SUB SUB DUP2 MSTORE SWAP1 PUSH1 0x40 MSTORE SWAP2 POP POP SWAP2 SWAP1 POP JUMP JUMPDEST PUSH1 0x7 SLOAD DUP2 JUMP JUMPDEST PUSH0 PUSH1 0x5 PUSH0 DUP5 PUSH20 0xFFFFFFFFFFFFFFFFFFFFFFFFFFFFFFFFFFFFFFFF AND PUSH20 0xFFFFFFFFFFFFFFFFFFFFFFFFFFFFFFFFFFFFFFFF AND DUP2 MSTORE PUSH1 0x20 ADD SWAP1 DUP2 MSTORE PUSH1 0x20 ADD PUSH0 KECCAK256 PUSH0 DUP4 PUSH20 0xFFFFFFFFFFFFFFFFFFFFFFFFFFFFFFFFFFFFFFFF AND PUSH20 0xFFFFFFFFFFFFFFFFFFFFFFFFFFFFFFFFFFFFFFFF AND DUP2 MSTORE PUSH1 0x20 ADD SWAP1 DUP2 MSTORE PUSH1 0x20 ADD PUSH0 KECCAK256 PUSH0 SWAP1 SLOAD SWAP1 PUSH2 0x100 EXP SWAP1 DIV PUSH1 0xFF AND SWAP1 POP SWAP3 SWAP2 POP POP JUMP JUMPDEST PUSH0 PUSH32 0x1FFC9A700000000000000000000000000000000000000000000000000000000 PUSH28 0xFFFFFFFFFFFFFFFFFFFFFFFFFFFFFFFFFFFFFFFFFFFFFFFFFFFFFFFF NOT AND DUP3 PUSH28 0xFFFFFFFFFFFFFFFFFFFFFFFFFFFFFFFFFFFFFFFFFFFFFFFFFFFFFFFF NOT AND EQ SWAP1 POP SWAP2 SWAP1 POP JUMP JUMPDEST PUSH0 DUP1 PUSH2 0x94B DUP4 PUSH2 0xF82 JUMP JUMPDEST SWAP1 POP PUSH0 PUSH20 0xFFFFFFFFFFFFFFFFFFFFFFFFFFFFFFFFFFFFFFFF AND DUP2 PUSH20 0xFFFFFFFFFFFFFFFFFFFFFFFFFFFFFFFFFFFFFFFF AND SUB PUSH2 0x9BD JUMPI DUP3 PUSH1 0x40 MLOAD PUSH32 0x7E27328900000000000000000000000000000000000000000000000000000000 DUP2 MSTORE PUSH1 0x4 ADD PUSH2 0x9B4 SWAP2 SWAP1 PUSH2 0x1823 JUMP JUMPDEST PUSH1 0x40 MLOAD DUP1 SWAP2 SUB SWAP1 REVERT JUMPDEST DUP1 SWAP2 POP POP SWAP2 SWAP1 POP JUMP JUMPDEST PUSH0 PUSH1 0x4 PUSH0 DUP4 DUP2 MSTORE PUSH1 0x20 ADD SWAP1 DUP2 MSTORE PUSH1 0x20 ADD PUSH0 KECCAK256 PUSH0 SWAP1 SLOAD SWAP1 PUSH2 0x100 EXP SWAP1 DIV PUSH20 0xFFFFFFFFFFFFFFFFFFFFFFFFFFFFFFFFFFFFFFFF AND SWAP1 POP SWAP2 SWAP1 POP JUMP JUMPDEST PUSH0 CALLER SWAP1 POP SWAP1 JUMP JUMPDEST PUSH2 0xA13 DUP4 DUP4 DUP4 PUSH1 0x1 PUSH2 0xFBB JUMP JUMPDEST POP POP POP JUMP JUMPDEST PUSH2 0xA31 DUP3 DUP3 PUSH1 0x40 MLOAD DUP1 PUSH1 0x20 ADD PUSH1 0x40 MSTORE DUP1 PUSH0 DUP2 MSTORE POP PUSH2 0x117A JUMP JUMPDEST POP POP JUMP JUMPDEST PUSH0 DUP1 PUSH2 0xA40 DUP5 PUSH2 0xF82 JUMP JUMPDEST SWAP1 POP PUSH0 PUSH20 0xFFFFFFFFFFFFFFFFFFFFFFFFFFFFFFFFFFFFFFFF AND DUP4 PUSH20 0xFFFFFFFFFFFFFFFFFFFFFFFFFFFFFFFFFFFFFFFF AND EQ PUSH2 0xA81 JUMPI PUSH2 0xA80 DUP2 DUP5 DUP7 PUSH2 0x119D JUMP JUMPDEST JUMPDEST PUSH0 PUSH20 0xFFFFFFFFFFFFFFFFFFFFFFFFFFFFFFFFFFFFFFFF AND DUP2 PUSH20 0xFFFFFFFFFFFFFFFFFFFFFFFFFFFFFFFFFFFFFFFF AND EQ PUSH2 0xB0C JUMPI PUSH2 0xAC0 PUSH0 DUP6 PUSH0 DUP1 PUSH2 0xFBB JUMP JUMPDEST PUSH1 0x1 PUSH1 0x3 PUSH0 DUP4 PUSH20 0xFFFFFFFFFFFFFFFFFFFFFFFFFFFFFFFFFFFFFFFF AND PUSH20 0xFFFFFFFFFFFFFFFFFFFFFFFFFFFFFFFFFFFFFFFF AND DUP2 MSTORE PUSH1 0x20 ADD SWAP1 DUP2 MSTORE PUSH1 0x20 ADD PUSH0 KECCAK256 PUSH0 DUP3 DUP3 SLOAD SUB SWAP3 POP POP DUP2 SWAP1 SSTORE POP JUMPDEST PUSH0 PUSH20 0xFFFFFFFFFFFFFFFFFFFFFFFFFFFFFFFFFFFFFFFF AND DUP6 PUSH20 0xFFFFFFFFFFFFFFFFFFFFFFFFFFFFFFFFFFFFFFFF AND EQ PUSH2 0xB8B JUMPI PUSH1 0x1 PUSH1 0x3 PUSH0 DUP8 PUSH20 0xFFFFFFFFFFFFFFFFFFFFFFFFFFFFFFFFFFFFFFFF AND PUSH20 0xFFFFFFFFFFFFFFFFFFFFFFFFFFFFFFFFFFFFFFFF AND DUP2 MSTORE PUSH1 0x20 ADD SWAP1 DUP2 MSTORE PUSH1 0x20 ADD PUSH0 KECCAK256 PUSH0 DUP3 DUP3 SLOAD ADD SWAP3 POP POP DUP2 SWAP1 SSTORE POP JUMPDEST DUP5 PUSH1 0x2 PUSH0 DUP7 DUP2 MSTORE PUSH1 0x20 ADD SWAP1 DUP2 MSTORE PUSH1 0x20 ADD PUSH0 KECCAK256 PUSH0 PUSH2 0x100 EXP DUP2 SLOAD DUP2 PUSH20 0xFFFFFFFFFFFFFFFFFFFFFFFFFFFFFFFFFFFFFFFF MUL NOT AND SWAP1 DUP4 PUSH20 0xFFFFFFFFFFFFFFFFFFFFFFFFFFFFFFFFFFFFFFFF AND MUL OR SWAP1 SSTORE POP DUP4 DUP6 PUSH20 0xFFFFFFFFFFFFFFFFFFFFFFFFFFFFFFFFFFFFFFFF AND DUP3 PUSH20 0xFFFFFFFFFFFFFFFFFFFFFFFFFFFFFFFFFFFFFFFF AND PUSH32 0xDDF252AD1BE2C89B69C2B068FC378DAA952BA7F163C4A11628F55A4DF523B3EF PUSH1 0x40 MLOAD PUSH1 0x40 MLOAD DUP1 SWAP2 SUB SWAP1 LOG4 DUP1 SWAP2 POP POP SWAP4 SWAP3 POP POP POP JUMP JUMPDEST PUSH0 PUSH20 0xFFFFFFFFFFFFFFFFFFFFFFFFFFFFFFFFFFFFFFFF AND DUP3 PUSH20 0xFFFFFFFFFFFFFFFFFFFFFFFFFFFFFFFFFFFFFFFF AND SUB PUSH2 0xCB0 JUMPI DUP2 PUSH1 0x40 MLOAD PUSH32 0x5B08BA1800000000000000000000000000000000000000000000000000000000 DUP2 MSTORE PUSH1 0x4 ADD PUSH2 0xCA7 SWAP2 SWAP1 PUSH2 0x1793 JUMP JUMPDEST PUSH1 0x40 MLOAD DUP1 SWAP2 SUB SWAP1 REVERT JUMPDEST DUP1 PUSH1 0x5 PUSH0 DUP6 PUSH20 0xFFFFFFFFFFFFFFFFFFFFFFFFFFFFFFFFFFFFFFFF AND PUSH20 0xFFFFFFFFFFFFFFFFFFFFFFFFFFFFFFFFFFFFFFFF AND DUP2 MSTORE PUSH1 0x20 ADD SWAP1 DUP2 MSTORE PUSH1 0x20 ADD PUSH0 KECCAK256 PUSH0 DUP5 PUSH20 0xFFFFFFFFFFFFFFFFFFFFFFFFFFFFFFFFFFFFFFFF AND PUSH20 0xFFFFFFFFFFFFFFFFFFFFFFFFFFFFFFFFFFFFFFFF AND DUP2 MSTORE PUSH1 0x20 ADD SWAP1 DUP2 MSTORE PUSH1 0x20 ADD PUSH0 KECCAK256 PUSH0 PUSH2 0x100 EXP DUP2 SLOAD DUP2 PUSH1 0xFF MUL NOT AND SWAP1 DUP4 ISZERO ISZERO MUL OR SWAP1 SSTORE POP DUP2 PUSH20 0xFFFFFFFFFFFFFFFFFFFFFFFFFFFFFFFFFFFFFFFF AND DUP4 PUSH20 0xFFFFFFFFFFFFFFFFFFFFFFFFFFFFFFFFFFFFFFFF AND PUSH32 0x17307EAB39AB6107E8899845AD3D59BD9653F200F220920489CA2B5937696C31 DUP4 PUSH1 0x40 MLOAD PUSH2 0xD9C SWAP2 SWAP1 PUSH2 0x164D JUMP JUMPDEST PUSH1 0x40 MLOAD DUP1 SWAP2 SUB SWAP1 LOG3 POP POP POP JUMP JUMPDEST PUSH0 DUP4 PUSH20 0xFFFFFFFFFFFFFFFFFFFFFFFFFFFFFFFFFFFFFFFF AND EXTCODESIZE GT ISZERO PUSH2 0xF4E JUMPI DUP3 PUSH20 0xFFFFFFFFFFFFFFFFFFFFFFFFFFFFFFFFFFFFFFFF AND PUSH4 0x150B7A02 DUP7 DUP7 DUP6 DUP6 PUSH1 0x40 MLOAD DUP6 PUSH4 0xFFFFFFFF AND PUSH1 0xE0 SHL DUP2 MSTORE PUSH1 0x4 ADD PUSH2 0xE07 SWAP5 SWAP4 SWAP3 SWAP2 SWAP1 PUSH2 0x1E04 JUMP JUMPDEST PUSH1 0x20 PUSH1 0x40 MLOAD DUP1 DUP4 SUB DUP2 PUSH0 DUP8 GAS CALL SWAP3 POP POP POP DUP1 ISZERO PUSH2 0xE42 JUMPI POP PUSH1 0x40 MLOAD RETURNDATASIZE PUSH1 0x1F NOT PUSH1 0x1F DUP3 ADD AND DUP3 ADD DUP1 PUSH1 0x40 MSTORE POP DUP2 ADD SWAP1 PUSH2 0xE3F SWAP2 SWAP1 PUSH2 0x1E62 JUMP JUMPDEST PUSH1 0x1 JUMPDEST PUSH2 0xEC3 JUMPI RETURNDATASIZE DUP1 PUSH0 DUP2 EQ PUSH2 0xE70 JUMPI PUSH1 0x40 MLOAD SWAP2 POP PUSH1 0x1F NOT PUSH1 0x3F RETURNDATASIZE ADD AND DUP3 ADD PUSH1 0x40 MSTORE RETURNDATASIZE DUP3 MSTORE RETURNDATASIZE PUSH0 PUSH1 0x20 DUP5 ADD RETURNDATACOPY PUSH2 0xE75 JUMP JUMPDEST PUSH1 0x60 SWAP2 POP JUMPDEST POP PUSH0 DUP2 MLOAD SUB PUSH2 0xEBB JUMPI DUP4 PUSH1 0x40 MLOAD PUSH32 0x64A0AE9200000000000000000000000000000000000000000000000000000000 DUP2 MSTORE PUSH1 0x4 ADD PUSH2 0xEB2 SWAP2 SWAP1 PUSH2 0x1793 JUMP JUMPDEST PUSH1 0x40 MLOAD DUP1 SWAP2 SUB SWAP1 REVERT JUMPDEST DUP1 MLOAD DUP2 PUSH1 0x20 ADD REVERT JUMPDEST PUSH4 0x150B7A02 PUSH1 0xE0 SHL PUSH28 0xFFFFFFFFFFFFFFFFFFFFFFFFFFFFFFFFFFFFFFFFFFFFFFFFFFFFFFFF NOT AND DUP2 PUSH28 0xFFFFFFFFFFFFFFFFFFFFFFFFFFFFFFFFFFFFFFFFFFFFFFFFFFFFFFFF NOT AND EQ PUSH2 0xF4C JUMPI DUP4 PUSH1 0x40 MLOAD PUSH32 0x64A0AE9200000000000000000000000000000000000000000000000000000000 DUP2 MSTORE PUSH1 0x4 ADD PUSH2 0xF43 SWAP2 SWAP1 PUSH2 0x1793 JUMP JUMPDEST PUSH1 0x40 MLOAD DUP1 SWAP2 SUB SWAP1 REVERT JUMPDEST POP JUMPDEST POP POP POP POP POP JUMP JUMPDEST PUSH1 0x60 PUSH2 0xF7B DUP3 PUSH1 0x40 MLOAD DUP1 PUSH1 0x60 ADD PUSH1 0x40 MSTORE DUP1 PUSH1 0x40 DUP2 MSTORE PUSH1 0x20 ADD PUSH2 0x1F53 PUSH1 0x40 SWAP2 CODECOPY PUSH1 0x1 PUSH2 0x1260 JUMP JUMPDEST SWAP1 POP SWAP2 SWAP1 POP JUMP JUMPDEST PUSH0 PUSH1 0x2 PUSH0 DUP4 DUP2 MSTORE PUSH1 0x20 ADD SWAP1 DUP2 MSTORE PUSH1 0x20 ADD PUSH0 KECCAK256 PUSH0 SWAP1 SLOAD SWAP1 PUSH2 0x100 EXP SWAP1 DIV PUSH20 0xFFFFFFFFFFFFFFFFFFFFFFFFFFFFFFFFFFFFFFFF AND SWAP1 POP SWAP2 SWAP1 POP JUMP JUMPDEST DUP1 DUP1 PUSH2 0xFF3 JUMPI POP PUSH0 PUSH20 0xFFFFFFFFFFFFFFFFFFFFFFFFFFFFFFFFFFFFFFFF AND DUP3 PUSH20 0xFFFFFFFFFFFFFFFFFFFFFFFFFFFFFFFFFFFFFFFF AND EQ ISZERO JUMPDEST ISZERO PUSH2 0x1125 JUMPI PUSH0 PUSH2 0x1002 DUP5 PUSH2 0x940 JUMP JUMPDEST SWAP1 POP PUSH0 PUSH20 0xFFFFFFFFFFFFFFFFFFFFFFFFFFFFFFFFFFFFFFFF AND DUP4 PUSH20 0xFFFFFFFFFFFFFFFFFFFFFFFFFFFFFFFFFFFFFFFF AND EQ ISZERO DUP1 ISZERO PUSH2 0x106C JUMPI POP DUP3 PUSH20 0xFFFFFFFFFFFFFFFFFFFFFFFFFFFFFFFFFFFFFFFF AND DUP2 PUSH20 0xFFFFFFFFFFFFFFFFFFFFFFFFFFFFFFFFFFFFFFFF AND EQ ISZERO JUMPDEST DUP1 ISZERO PUSH2 0x107F JUMPI POP PUSH2 0x107D DUP2 DUP5 PUSH2 0x849 JUMP JUMPDEST ISZERO JUMPDEST ISZERO PUSH2 0x10C1 JUMPI DUP3 PUSH1 0x40 MLOAD PUSH32 0xA9FBF51F00000000000000000000000000000000000000000000000000000000 DUP2 MSTORE PUSH1 0x4 ADD PUSH2 0x10B8 SWAP2 SWAP1 PUSH2 0x1793 JUMP JUMPDEST PUSH1 0x40 MLOAD DUP1 SWAP2 SUB SWAP1 REVERT JUMPDEST DUP2 ISZERO PUSH2 0x1123 JUMPI DUP4 DUP6 PUSH20 0xFFFFFFFFFFFFFFFFFFFFFFFFFFFFFFFFFFFFFFFF AND DUP3 PUSH20 0xFFFFFFFFFFFFFFFFFFFFFFFFFFFFFFFFFFFFFFFF AND PUSH32 0x8C5BE1E5EBEC7D5BD14F71427D1E84F3DD0314C0F7B2291E5B200AC8C7C3B925 PUSH1 0x40 MLOAD PUSH1 0x40 MLOAD DUP1 SWAP2 SUB SWAP1 LOG4 JUMPDEST POP JUMPDEST DUP4 PUSH1 0x4 PUSH0 DUP6 DUP2 MSTORE PUSH1 0x20 ADD SWAP1 DUP2 MSTORE PUSH1 0x20 ADD PUSH0 KECCAK256 PUSH0 PUSH2 0x100 EXP DUP2 SLOAD DUP2 PUSH20 0xFFFFFFFFFFFFFFFFFFFFFFFFFFFFFFFFFFFFFFFF MUL NOT AND SWAP1 DUP4 PUSH20 0xFFFFFFFFFFFFFFFFFFFFFFFFFFFFFFFFFFFFFFFF AND MUL OR SWAP1 SSTORE POP POP POP POP POP JUMP JUMPDEST PUSH2 0x1184 DUP4 DUP4 PUSH2 0x13EF JUMP JUMPDEST PUSH2 0x1198 PUSH2 0x118F PUSH2 0x9FF JUMP JUMPDEST PUSH0 DUP6 DUP6 DUP6 PUSH2 0xDA9 JUMP JUMPDEST POP POP POP JUMP JUMPDEST PUSH2 0x11A8 DUP4 DUP4 DUP4 PUSH2 0x14E2 JUMP JUMPDEST PUSH2 0x125B JUMPI PUSH0 PUSH20 0xFFFFFFFFFFFFFFFFFFFFFFFFFFFFFFFFFFFFFFFF AND DUP4 PUSH20 0xFFFFFFFFFFFFFFFFFFFFFFFFFFFFFFFFFFFFFFFF AND SUB PUSH2 0x121C JUMPI DUP1 PUSH1 0x40 MLOAD PUSH32 0x7E27328900000000000000000000000000000000000000000000000000000000 DUP2 MSTORE PUSH1 0x4 ADD PUSH2 0x1213 SWAP2 SWAP1 PUSH2 0x1823 JUMP JUMPDEST PUSH1 0x40 MLOAD DUP1 SWAP2 SUB SWAP1 REVERT JUMPDEST DUP2 DUP2 PUSH1 0x40 MLOAD PUSH32 0x177E802F00000000000000000000000000000000000000000000000000000000 DUP2 MSTORE PUSH1 0x4 ADD PUSH2 0x1252 SWAP3 SWAP2 SWAP1 PUSH2 0x1E8D JUMP JUMPDEST PUSH1 0x40 MLOAD DUP1 SWAP2 SUB SWAP1 REVERT JUMPDEST POP POP POP JUMP JUMPDEST PUSH1 0x60 PUSH0 DUP5 MLOAD SUB PUSH2 0x1280 JUMPI PUSH1 0x40 MLOAD DUP1 PUSH1 0x20 ADD PUSH1 0x40 MSTORE DUP1 PUSH0 DUP2 MSTORE POP SWAP1 POP PUSH2 0x13E8 JUMP JUMPDEST PUSH0 DUP3 PUSH2 0x12B1 JUMPI PUSH1 0x3 PUSH1 0x2 DUP7 MLOAD PUSH1 0x4 PUSH2 0x1298 SWAP2 SWAP1 PUSH2 0x1EB4 JUMP JUMPDEST PUSH2 0x12A2 SWAP2 SWAP1 PUSH2 0x1BFB JUMP JUMPDEST PUSH2 0x12AC SWAP2 SWAP1 PUSH2 0x1F22 JUMP JUMPDEST PUSH2 0x12D8 JUMP JUMPDEST PUSH1 0x3 PUSH1 0x2 DUP7 MLOAD PUSH2 0x12C1 SWAP2 SWAP1 PUSH2 0x1BFB JUMP JUMPDEST PUSH2 0x12CB SWAP2 SWAP1 PUSH2 0x1F22 JUMP JUMPDEST PUSH1 0x4 PUSH2 0x12D7 SWAP2 SWAP1 PUSH2 0x1EB4 JUMP JUMPDEST JUMPDEST SWAP1 POP PUSH0 DUP2 PUSH8 0xFFFFFFFFFFFFFFFF DUP2 GT ISZERO PUSH2 0x12F5 JUMPI PUSH2 0x12F4 PUSH2 0x1927 JUMP JUMPDEST JUMPDEST PUSH1 0x40 MLOAD SWAP1 DUP1 DUP3 MSTORE DUP1 PUSH1 0x1F ADD PUSH1 0x1F NOT AND PUSH1 0x20 ADD DUP3 ADD PUSH1 0x40 MSTORE DUP1 ISZERO PUSH2 0x1327 JUMPI DUP2 PUSH1 0x20 ADD PUSH1 0x1 DUP3 MUL DUP1 CALLDATASIZE DUP4 CALLDATACOPY DUP1 DUP3 ADD SWAP2 POP POP SWAP1 POP JUMPDEST POP SWAP1 POP PUSH1 0x1 DUP6 ADD PUSH1 0x20 DUP3 ADD DUP8 DUP9 MLOAD DUP10 ADD PUSH1 0x20 DUP2 ADD DUP1 MLOAD PUSH0 DUP3 MSTORE JUMPDEST DUP3 DUP5 LT ISZERO PUSH2 0x139C JUMPI PUSH1 0x3 DUP5 ADD SWAP4 POP DUP4 MLOAD PUSH1 0x3F DUP2 PUSH1 0x12 SHR AND DUP8 ADD MLOAD DUP7 MSTORE8 PUSH1 0x1 DUP7 ADD SWAP6 POP PUSH1 0x3F DUP2 PUSH1 0xC SHR AND DUP8 ADD MLOAD DUP7 MSTORE8 PUSH1 0x1 DUP7 ADD SWAP6 POP PUSH1 0x3F DUP2 PUSH1 0x6 SHR AND DUP8 ADD MLOAD DUP7 MSTORE8 PUSH1 0x1 DUP7 ADD SWAP6 POP PUSH1 0x3F DUP2 AND DUP8 ADD MLOAD DUP7 MSTORE8 PUSH1 0x1 DUP7 ADD SWAP6 POP POP PUSH2 0x1341 JUMP JUMPDEST DUP1 DUP3 MSTORE DUP10 ISZERO PUSH2 0x13DC JUMPI PUSH1 0x3 DUP13 MLOAD MOD PUSH1 0x1 DUP2 EQ PUSH2 0x13BF JUMPI PUSH1 0x2 DUP2 EQ PUSH2 0x13D2 JUMPI PUSH2 0x13DA JUMP JUMPDEST PUSH1 0x3D PUSH1 0x1 DUP8 SUB MSTORE8 PUSH1 0x3D PUSH1 0x2 DUP8 SUB MSTORE8 PUSH2 0x13DA JUMP JUMPDEST PUSH1 0x3D PUSH1 0x1 DUP8 SUB MSTORE8 JUMPDEST POP JUMPDEST POP POP POP POP POP POP DUP1 SWAP3 POP POP POP JUMPDEST SWAP4 SWAP3 POP POP POP JUMP JUMPDEST PUSH0 PUSH20 0xFFFFFFFFFFFFFFFFFFFFFFFFFFFFFFFFFFFFFFFF AND DUP3 PUSH20 0xFFFFFFFFFFFFFFFFFFFFFFFFFFFFFFFFFFFFFFFF AND SUB PUSH2 0x145F JUMPI PUSH0 PUSH1 0x40 MLOAD PUSH32 0x64A0AE9200000000000000000000000000000000000000000000000000000000 DUP2 MSTORE PUSH1 0x4 ADD PUSH2 0x1456 SWAP2 SWAP1 PUSH2 0x1793 JUMP JUMPDEST PUSH1 0x40 MLOAD DUP1 SWAP2 SUB SWAP1 REVERT JUMPDEST PUSH0 PUSH2 0x146B DUP4 DUP4 PUSH0 PUSH2 0xA35 JUMP JUMPDEST SWAP1 POP PUSH0 PUSH20 0xFFFFFFFFFFFFFFFFFFFFFFFFFFFFFFFFFFFFFFFF AND DUP2 PUSH20 0xFFFFFFFFFFFFFFFFFFFFFFFFFFFFFFFFFFFFFFFF AND EQ PUSH2 0x14DD JUMPI PUSH0 PUSH1 0x40 MLOAD PUSH32 0x73C6AC6E00000000000000000000000000000000000000000000000000000000 DUP2 MSTORE PUSH1 0x4 ADD PUSH2 0x14D4 SWAP2 SWAP1 PUSH2 0x1793 JUMP JUMPDEST PUSH1 0x40 MLOAD DUP1 SWAP2 SUB SWAP1 REVERT JUMPDEST POP POP POP JUMP JUMPDEST PUSH0 DUP1 PUSH20 0xFFFFFFFFFFFFFFFFFFFFFFFFFFFFFFFFFFFFFFFF AND DUP4 PUSH20 0xFFFFFFFFFFFFFFFFFFFFFFFFFFFFFFFFFFFFFFFF AND EQ ISZERO DUP1 ISZERO PUSH2 0x1599 JUMPI POP DUP3 PUSH20 0xFFFFFFFFFFFFFFFFFFFFFFFFFFFFFFFFFFFFFFFF AND DUP5 PUSH20 0xFFFFFFFFFFFFFFFFFFFFFFFFFFFFFFFFFFFFFFFF AND EQ DUP1 PUSH2 0x155A JUMPI POP PUSH2 0x1559 DUP5 DUP5 PUSH2 0x849 JUMP JUMPDEST JUMPDEST DUP1 PUSH2 0x1598 JUMPI POP DUP3 PUSH20 0xFFFFFFFFFFFFFFFFFFFFFFFFFFFFFFFFFFFFFFFF AND PUSH2 0x1580 DUP4 PUSH2 0x9C6 JUMP JUMPDEST PUSH20 0xFFFFFFFFFFFFFFFFFFFFFFFFFFFFFFFFFFFFFFFF AND EQ JUMPDEST JUMPDEST SWAP1 POP SWAP4 SWAP3 POP POP POP JUMP JUMPDEST PUSH0 PUSH1 0x40 MLOAD SWAP1 POP SWAP1 JUMP JUMPDEST PUSH0 DUP1 REVERT JUMPDEST PUSH0 DUP1 REVERT JUMPDEST PUSH0 PUSH32 0xFFFFFFFF00000000000000000000000000000000000000000000000000000000 DUP3 AND SWAP1 POP SWAP2 SWAP1 POP JUMP JUMPDEST PUSH2 0x15E7 DUP2 PUSH2 0x15B3 JUMP JUMPDEST DUP2 EQ PUSH2 0x15F1 JUMPI PUSH0 DUP1 REVERT JUMPDEST POP JUMP JUMPDEST PUSH0 DUP2 CALLDATALOAD SWAP1 POP PUSH2 0x1602 DUP2 PUSH2 0x15DE JUMP JUMPDEST SWAP3 SWAP2 POP POP JUMP JUMPDEST PUSH0 PUSH1 0x20 DUP3 DUP5 SUB SLT ISZERO PUSH2 0x161D JUMPI PUSH2 0x161C PUSH2 0x15AB JUMP JUMPDEST JUMPDEST PUSH0 PUSH2 0x162A DUP5 DUP3 DUP6 ADD PUSH2 0x15F4 JUMP JUMPDEST SWAP2 POP POP SWAP3 SWAP2 POP POP JUMP JUMPDEST PUSH0 DUP2 ISZERO ISZERO SWAP1 POP SWAP2 SWAP1 POP JUMP JUMPDEST PUSH2 0x1647 DUP2 PUSH2 0x1633 JUMP JUMPDEST DUP3 MSTORE POP POP JUMP JUMPDEST PUSH0 PUSH1 0x20 DUP3 ADD SWAP1 POP PUSH2 0x1660 PUSH0 DUP4 ADD DUP5 PUSH2 0x163E JUMP JUMPDEST SWAP3 SWAP2 POP POP JUMP JUMPDEST PUSH0 DUP2 MLOAD SWAP1 POP SWAP2 SWAP1 POP JUMP JUMPDEST PUSH0 DUP3 DUP3 MSTORE PUSH1 0x20 DUP3 ADD SWAP1 POP SWAP3 SWAP2 POP POP JUMP JUMPDEST DUP3 DUP2 DUP4 MCOPY PUSH0 DUP4 DUP4 ADD MSTORE POP POP POP JUMP JUMPDEST PUSH0 PUSH1 0x1F NOT PUSH1 0x1F DUP4 ADD AND SWAP1 POP SWAP2 SWAP1 POP JUMP JUMPDEST PUSH0 PUSH2 0x16A8 DUP3 PUSH2 0x1666 JUMP JUMPDEST PUSH2 0x16B2 DUP2 DUP6 PUSH2 0x1670 JUMP JUMPDEST SWAP4 POP PUSH2 0x16C2 DUP2 DUP6 PUSH1 0x20 DUP7 ADD PUSH2 0x1680 JUMP JUMPDEST PUSH2 0x16CB DUP2 PUSH2 0x168E JUMP JUMPDEST DUP5 ADD SWAP2 POP POP SWAP3 SWAP2 POP POP JUMP JUMPDEST PUSH0 PUSH1 0x20 DUP3 ADD SWAP1 POP DUP2 DUP2 SUB PUSH0 DUP4 ADD MSTORE PUSH2 0x16EE DUP2 DUP5 PUSH2 0x169E JUMP JUMPDEST SWAP1 POP SWAP3 SWAP2 POP POP JUMP JUMPDEST PUSH0 DUP2 SWAP1 POP SWAP2 SWAP1 POP JUMP JUMPDEST PUSH2 0x1708 DUP2 PUSH2 0x16F6 JUMP JUMPDEST DUP2 EQ PUSH2 0x1712 JUMPI PUSH0 DUP1 REVERT JUMPDEST POP JUMP JUMPDEST PUSH0 DUP2 CALLDATALOAD SWAP1 POP PUSH2 0x1723 DUP2 PUSH2 0x16FF JUMP JUMPDEST SWAP3 SWAP2 POP POP JUMP JUMPDEST PUSH0 PUSH1 0x20 DUP3 DUP5 SUB SLT ISZERO PUSH2 0x173E JUMPI PUSH2 0x173D PUSH2 0x15AB JUMP JUMPDEST JUMPDEST PUSH0 PUSH2 0x174B DUP5 DUP3 DUP6 ADD PUSH2 0x1715 JUMP JUMPDEST SWAP2 POP POP SWAP3 SWAP2 POP POP JUMP JUMPDEST PUSH0 PUSH20 0xFFFFFFFFFFFFFFFFFFFFFFFFFFFFFFFFFFFFFFFF DUP3 AND SWAP1 POP SWAP2 SWAP1 POP JUMP JUMPDEST PUSH0 PUSH2 0x177D DUP3 PUSH2 0x1754 JUMP JUMPDEST SWAP1 POP SWAP2 SWAP1 POP JUMP JUMPDEST PUSH2 0x178D DUP2 PUSH2 0x1773 JUMP JUMPDEST DUP3 MSTORE POP POP JUMP JUMPDEST PUSH0 PUSH1 0x20 DUP3 ADD SWAP1 POP PUSH2 0x17A6 PUSH0 DUP4 ADD DUP5 PUSH2 0x1784 JUMP JUMPDEST SWAP3 SWAP2 POP POP JUMP JUMPDEST PUSH2 0x17B5 DUP2 PUSH2 0x1773 JUMP JUMPDEST DUP2 EQ PUSH2 0x17BF JUMPI PUSH0 DUP1 REVERT JUMPDEST POP JUMP JUMPDEST PUSH0 DUP2 CALLDATALOAD SWAP1 POP PUSH2 0x17D0 DUP2 PUSH2 0x17AC JUMP JUMPDEST SWAP3 SWAP2 POP POP JUMP JUMPDEST PUSH0 DUP1 PUSH1 0x40 DUP4 DUP6 SUB SLT ISZERO PUSH2 0x17EC JUMPI PUSH2 0x17EB PUSH2 0x15AB JUMP JUMPDEST JUMPDEST PUSH0 PUSH2 0x17F9 DUP6 DUP3 DUP7 ADD PUSH2 0x17C2 JUMP JUMPDEST SWAP3 POP POP PUSH1 0x20 PUSH2 0x180A DUP6 DUP3 DUP7 ADD PUSH2 0x1715 JUMP JUMPDEST SWAP2 POP POP SWAP3 POP SWAP3 SWAP1 POP JUMP JUMPDEST PUSH2 0x181D DUP2 PUSH2 0x16F6 JUMP JUMPDEST DUP3 MSTORE POP POP JUMP JUMPDEST PUSH0 PUSH1 0x20 DUP3 ADD SWAP1 POP PUSH2 0x1836 PUSH0 DUP4 ADD DUP5 PUSH2 0x1814 JUMP JUMPDEST SWAP3 SWAP2 POP POP JUMP JUMPDEST PUSH0 DUP1 PUSH0 PUSH1 0x60 DUP5 DUP7 SUB SLT ISZERO PUSH2 0x1853 JUMPI PUSH2 0x1852 PUSH2 0x15AB JUMP JUMPDEST JUMPDEST PUSH0 PUSH2 0x1860 DUP7 DUP3 DUP8 ADD PUSH2 0x17C2 JUMP JUMPDEST SWAP4 POP POP PUSH1 0x20 PUSH2 0x1871 DUP7 DUP3 DUP8 ADD PUSH2 0x17C2 JUMP JUMPDEST SWAP3 POP POP PUSH1 0x40 PUSH2 0x1882 DUP7 DUP3 DUP8 ADD PUSH2 0x1715 JUMP JUMPDEST SWAP2 POP POP SWAP3 POP SWAP3 POP SWAP3 JUMP JUMPDEST PUSH0 PUSH1 0x20 DUP3 DUP5 SUB SLT ISZERO PUSH2 0x18A1 JUMPI PUSH2 0x18A0 PUSH2 0x15AB JUMP JUMPDEST JUMPDEST PUSH0 PUSH2 0x18AE DUP5 DUP3 DUP6 ADD PUSH2 0x17C2 JUMP JUMPDEST SWAP2 POP POP SWAP3 SWAP2 POP POP JUMP JUMPDEST PUSH2 0x18C0 DUP2 PUSH2 0x1633 JUMP JUMPDEST DUP2 EQ PUSH2 0x18CA JUMPI PUSH0 DUP1 REVERT JUMPDEST POP JUMP JUMPDEST PUSH0 DUP2 CALLDATALOAD SWAP1 POP PUSH2 0x18DB DUP2 PUSH2 0x18B7 JUMP JUMPDEST SWAP3 SWAP2 POP POP JUMP JUMPDEST PUSH0 DUP1 PUSH1 0x40 DUP4 DUP6 SUB SLT ISZERO PUSH2 0x18F7 JUMPI PUSH2 0x18F6 PUSH2 0x15AB JUMP JUMPDEST JUMPDEST PUSH0 PUSH2 0x1904 DUP6 DUP3 DUP7 ADD PUSH2 0x17C2 JUMP JUMPDEST SWAP3 POP POP PUSH1 0x20 PUSH2 0x1915 DUP6 DUP3 DUP7 ADD PUSH2 0x18CD JUMP JUMPDEST SWAP2 POP POP SWAP3 POP SWAP3 SWAP1 POP JUMP JUMPDEST PUSH0 DUP1 REVERT JUMPDEST PUSH0 DUP1 REVERT JUMPDEST PUSH32 0x4E487B7100000000000000000000000000000000000000000000000000000000 PUSH0 MSTORE PUSH1 0x41 PUSH1 0x4 MSTORE PUSH1 0x24 PUSH0 REVERT JUMPDEST PUSH2 0x195D DUP3 PUSH2 0x168E JUMP JUMPDEST DUP2 ADD DUP2 DUP2 LT PUSH8 0xFFFFFFFFFFFFFFFF DUP3 GT OR ISZERO PUSH2 0x197C JUMPI PUSH2 0x197B PUSH2 0x1927 JUMP JUMPDEST JUMPDEST DUP1 PUSH1 0x40 MSTORE POP POP POP JUMP JUMPDEST PUSH0 PUSH2 0x198E PUSH2 0x15A2 JUMP JUMPDEST SWAP1 POP PUSH2 0x199A DUP3 DUP3 PUSH2 0x1954 JUMP JUMPDEST SWAP2 SWAP1 POP JUMP JUMPDEST PUSH0 PUSH8 0xFFFFFFFFFFFFFFFF DUP3 GT ISZERO PUSH2 0x19B9 JUMPI PUSH2 0x19B8 PUSH2 0x1927 JUMP JUMPDEST JUMPDEST PUSH2 0x19C2 DUP3 PUSH2 0x168E JUMP JUMPDEST SWAP1 POP PUSH1 0x20 DUP2 ADD SWAP1 POP SWAP2 SWAP1 POP JUMP JUMPDEST DUP3 DUP2 DUP4 CALLDATACOPY PUSH0 DUP4 DUP4 ADD MSTORE POP POP POP JUMP JUMPDEST PUSH0 PUSH2 0x19EF PUSH2 0x19EA DUP5 PUSH2 0x199F JUMP JUMPDEST PUSH2 0x1985 JUMP JUMPDEST SWAP1 POP DUP3 DUP2 MSTORE PUSH1 0x20 DUP2 ADD DUP5 DUP5 DUP5 ADD GT ISZERO PUSH2 0x1A0B JUMPI PUSH2 0x1A0A PUSH2 0x1923 JUMP JUMPDEST JUMPDEST PUSH2 0x1A16 DUP5 DUP3 DUP6 PUSH2 0x19CF JUMP JUMPDEST POP SWAP4 SWAP3 POP POP POP JUMP JUMPDEST PUSH0 DUP3 PUSH1 0x1F DUP4 ADD SLT PUSH2 0x1A32 JUMPI PUSH2 0x1A31 PUSH2 0x191F JUMP JUMPDEST JUMPDEST DUP2 CALLDATALOAD PUSH2 0x1A42 DUP5 DUP3 PUSH1 0x20 DUP7 ADD PUSH2 0x19DD JUMP JUMPDEST SWAP2 POP POP SWAP3 SWAP2 POP POP JUMP JUMPDEST PUSH0 DUP1 PUSH0 DUP1 PUSH1 0x80 DUP6 DUP8 SUB SLT ISZERO PUSH2 0x1A63 JUMPI PUSH2 0x1A62 PUSH2 0x15AB JUMP JUMPDEST JUMPDEST PUSH0 PUSH2 0x1A70 DUP8 DUP3 DUP9 ADD PUSH2 0x17C2 JUMP JUMPDEST SWAP5 POP POP PUSH1 0x20 PUSH2 0x1A81 DUP8 DUP3 DUP9 ADD PUSH2 0x17C2 JUMP JUMPDEST SWAP4 POP POP PUSH1 0x40 PUSH2 0x1A92 DUP8 DUP3 DUP9 ADD PUSH2 0x1715 JUMP JUMPDEST SWAP3 POP POP PUSH1 0x60 DUP6 ADD CALLDATALOAD PUSH8 0xFFFFFFFFFFFFFFFF DUP2 GT ISZERO PUSH2 0x1AB3 JUMPI PUSH2 0x1AB2 PUSH2 0x15AF JUMP JUMPDEST JUMPDEST PUSH2 0x1ABF DUP8 DUP3 DUP9 ADD PUSH2 0x1A1E JUMP JUMPDEST SWAP2 POP POP SWAP3 SWAP6 SWAP2 SWAP5 POP SWAP3 POP JUMP JUMPDEST PUSH0 DUP1 PUSH1 0x40 DUP4 DUP6 SUB SLT ISZERO PUSH2 0x1AE1 JUMPI PUSH2 0x1AE0 PUSH2 0x15AB JUMP JUMPDEST JUMPDEST PUSH0 PUSH2 0x1AEE DUP6 DUP3 DUP7 ADD PUSH2 0x17C2 JUMP JUMPDEST SWAP3 POP POP PUSH1 0x20 PUSH2 0x1AFF DUP6 DUP3 DUP7 ADD PUSH2 0x17C2 JUMP JUMPDEST SWAP2 POP POP SWAP3 POP SWAP3 SWAP1 POP JUMP JUMPDEST PUSH32 0x4E487B7100000000000000000000000000000000000000000000000000000000 PUSH0 MSTORE PUSH1 0x22 PUSH1 0x4 MSTORE PUSH1 0x24 PUSH0 REVERT JUMPDEST PUSH0 PUSH1 0x2 DUP3 DIV SWAP1 POP PUSH1 0x1 DUP3 AND DUP1 PUSH2 0x1B4D JUMPI PUSH1 0x7F DUP3 AND SWAP2 POP JUMPDEST PUSH1 0x20 DUP3 LT DUP2 SUB PUSH2 0x1B60 JUMPI PUSH2 0x1B5F PUSH2 0x1B09 JUMP JUMPDEST JUMPDEST POP SWAP2 SWAP1 POP JUMP JUMPDEST PUSH32 0x416C6C20746F6B656E732068617665206265656E206D696E7465642121000000 PUSH0 DUP3 ADD MSTORE POP JUMP JUMPDEST PUSH0 PUSH2 0x1B9A PUSH1 0x1D DUP4 PUSH2 0x1670 JUMP JUMPDEST SWAP2 POP PUSH2 0x1BA5 DUP3 PUSH2 0x1B66 JUMP JUMPDEST PUSH1 0x20 DUP3 ADD SWAP1 POP SWAP2 SWAP1 POP JUMP JUMPDEST PUSH0 PUSH1 0x20 DUP3 ADD SWAP1 POP DUP2 DUP2 SUB PUSH0 DUP4 ADD MSTORE PUSH2 0x1BC7 DUP2 PUSH2 0x1B8E JUMP JUMPDEST SWAP1 POP SWAP2 SWAP1 POP JUMP JUMPDEST PUSH32 0x4E487B7100000000000000000000000000000000000000000000000000000000 PUSH0 MSTORE PUSH1 0x11 PUSH1 0x4 MSTORE PUSH1 0x24 PUSH0 REVERT JUMPDEST PUSH0 PUSH2 0x1C05 DUP3 PUSH2 0x16F6 JUMP JUMPDEST SWAP2 POP PUSH2 0x1C10 DUP4 PUSH2 0x16F6 JUMP JUMPDEST SWAP3 POP DUP3 DUP3 ADD SWAP1 POP DUP1 DUP3 GT ISZERO PUSH2 0x1C28 JUMPI PUSH2 0x1C27 PUSH2 0x1BCE JUMP JUMPDEST JUMPDEST SWAP3 SWAP2 POP POP JUMP JUMPDEST PUSH0 PUSH1 0x60 DUP3 ADD SWAP1 POP PUSH2 0x1C41 PUSH0 DUP4 ADD DUP7 PUSH2 0x1784 JUMP JUMPDEST PUSH2 0x1C4E PUSH1 0x20 DUP4 ADD DUP6 PUSH2 0x1814 JUMP JUMPDEST PUSH2 0x1C5B PUSH1 0x40 DUP4 ADD DUP5 PUSH2 0x1784 JUMP JUMPDEST SWAP5 SWAP4 POP POP POP POP JUMP JUMPDEST PUSH0 DUP2 SWAP1 POP SWAP3 SWAP2 POP POP JUMP JUMPDEST PUSH32 0x7B226E616D65223A20227468697264222C2022223A2022222C2022696D616765 PUSH0 DUP3 ADD MSTORE PUSH32 0x223A202268747470733A2F2F692E6962622E636F2F447758443737462F342E6A PUSH1 0x20 DUP3 ADD MSTORE PUSH32 0x7067227D00000000000000000000000000000000000000000000000000000000 PUSH1 0x40 DUP3 ADD MSTORE POP JUMP JUMPDEST PUSH0 PUSH2 0x1CED PUSH1 0x44 DUP4 PUSH2 0x1C63 JUMP JUMPDEST SWAP2 POP PUSH2 0x1CF8 DUP3 PUSH2 0x1C6D JUMP JUMPDEST PUSH1 0x44 DUP3 ADD SWAP1 POP SWAP2 SWAP1 POP JUMP JUMPDEST PUSH0 PUSH2 0x1D0D DUP3 PUSH2 0x1CE1 JUMP JUMPDEST SWAP2 POP DUP2 SWAP1 POP SWAP2 SWAP1 POP JUMP JUMPDEST PUSH32 0x646174613A6170706C69636174696F6E2F6A736F6E3B6261736536342C000000 PUSH0 DUP3 ADD MSTORE POP JUMP JUMPDEST PUSH0 PUSH2 0x1D4B PUSH1 0x1D DUP4 PUSH2 0x1C63 JUMP JUMPDEST SWAP2 POP PUSH2 0x1D56 DUP3 PUSH2 0x1D17 JUMP JUMPDEST PUSH1 0x1D DUP3 ADD SWAP1 POP SWAP2 SWAP1 POP JUMP JUMPDEST PUSH0 PUSH2 0x1D6B DUP3 PUSH2 0x1666 JUMP JUMPDEST PUSH2 0x1D75 DUP2 DUP6 PUSH2 0x1C63 JUMP JUMPDEST SWAP4 POP PUSH2 0x1D85 DUP2 DUP6 PUSH1 0x20 DUP7 ADD PUSH2 0x1680 JUMP JUMPDEST DUP1 DUP5 ADD SWAP2 POP POP SWAP3 SWAP2 POP POP JUMP JUMPDEST PUSH0 PUSH2 0x1D9B DUP3 PUSH2 0x1D3F JUMP JUMPDEST SWAP2 POP PUSH2 0x1DA7 DUP3 DUP5 PUSH2 0x1D61 JUMP JUMPDEST SWAP2 POP DUP2 SWAP1 POP SWAP3 SWAP2 POP POP JUMP JUMPDEST PUSH0 DUP2 MLOAD SWAP1 POP SWAP2 SWAP1 POP JUMP JUMPDEST PUSH0 DUP3 DUP3 MSTORE PUSH1 0x20 DUP3 ADD SWAP1 POP SWAP3 SWAP2 POP POP JUMP JUMPDEST PUSH0 PUSH2 0x1DD6 DUP3 PUSH2 0x1DB2 JUMP JUMPDEST PUSH2 0x1DE0 DUP2 DUP6 PUSH2 0x1DBC JUMP JUMPDEST SWAP4 POP PUSH2 0x1DF0 DUP2 DUP6 PUSH1 0x20 DUP7 ADD PUSH2 0x1680 JUMP JUMPDEST PUSH2 0x1DF9 DUP2 PUSH2 0x168E JUMP JUMPDEST DUP5 ADD SWAP2 POP POP SWAP3 SWAP2 POP POP JUMP JUMPDEST PUSH0 PUSH1 0x80 DUP3 ADD SWAP1 POP PUSH2 0x1E17 PUSH0 DUP4 ADD DUP8 PUSH2 0x1784 JUMP JUMPDEST PUSH2 0x1E24 PUSH1 0x20 DUP4 ADD DUP7 PUSH2 0x1784 JUMP JUMPDEST PUSH2 0x1E31 PUSH1 0x40 DUP4 ADD DUP6 PUSH2 0x1814 JUMP JUMPDEST DUP2 DUP2 SUB PUSH1 0x60 DUP4 ADD MSTORE PUSH2 0x1E43 DUP2 DUP5 PUSH2 0x1DCC JUMP JUMPDEST SWAP1 POP SWAP6 SWAP5 POP POP POP POP POP JUMP JUMPDEST PUSH0 DUP2 MLOAD SWAP1 POP PUSH2 0x1E5C DUP2 PUSH2 0x15DE JUMP JUMPDEST SWAP3 SWAP2 POP POP JUMP JUMPDEST PUSH0 PUSH1 0x20 DUP3 DUP5 SUB SLT ISZERO PUSH2 0x1E77 JUMPI PUSH2 0x1E76 PUSH2 0x15AB JUMP JUMPDEST JUMPDEST PUSH0 PUSH2 0x1E84 DUP5 DUP3 DUP6 ADD PUSH2 0x1E4E JUMP JUMPDEST SWAP2 POP POP SWAP3 SWAP2 POP POP JUMP JUMPDEST PUSH0 PUSH1 0x40 DUP3 ADD SWAP1 POP PUSH2 0x1EA0 PUSH0 DUP4 ADD DUP6 PUSH2 0x1784 JUMP JUMPDEST PUSH2 0x1EAD PUSH1 0x20 DUP4 ADD DUP5 PUSH2 0x1814 JUMP JUMPDEST SWAP4 SWAP3 POP POP POP JUMP JUMPDEST PUSH0 PUSH2 0x1EBE DUP3 PUSH2 0x16F6 JUMP JUMPDEST SWAP2 POP PUSH2 0x1EC9 DUP4 PUSH2 0x16F6 JUMP JUMPDEST SWAP3 POP DUP3 DUP3 MUL PUSH2 0x1ED7 DUP2 PUSH2 0x16F6 JUMP JUMPDEST SWAP2 POP DUP3 DUP3 DIV DUP5 EQ DUP4 ISZERO OR PUSH2 0x1EEE JUMPI PUSH2 0x1EED PUSH2 0x1BCE JUMP JUMPDEST JUMPDEST POP SWAP3 SWAP2 POP POP JUMP JUMPDEST PUSH32 0x4E487B7100000000000000000000000000000000000000000000000000000000 PUSH0 MSTORE PUSH1 0x12 PUSH1 0x4 MSTORE PUSH1 0x24 PUSH0 REVERT JUMPDEST PUSH0 PUSH2 0x1F2C DUP3 PUSH2 0x16F6 JUMP JUMPDEST SWAP2 POP PUSH2 0x1F37 DUP4 PUSH2 0x16F6 JUMP JUMPDEST SWAP3 POP DUP3 PUSH2 0x1F47 JUMPI PUSH2 0x1F46 PUSH2 0x1EF5 JUMP JUMPDEST JUMPDEST DUP3 DUP3 DIV SWAP1 POP SWAP3 SWAP2 POP POP JUMP INVALID COINBASE TIMESTAMP NUMBER PREVRANDAO GASLIMIT CHAINID SELFBALANCE BASEFEE BLOBHASH BLOBBASEFEE 0x4B 0x4C 0x4D 0x4E 0x4F POP MLOAD MSTORE MSTORE8 SLOAD SSTORE JUMP JUMPI PC MSIZE GAS PUSH2 0x6263 PUSH5 0x6566676869 PUSH11 0x6B6C6D6E6F707172737475 PUSH23 0x7778797A303132333435363738392B2FA2646970667358 0x22 SLT KECCAK256 0xD7 SMOD SWAP8 SHR 0x21 0xA8 PUSH12 0x5CA33EC7DC524B4566881907 0x2E 0xF 0x26 0xCF RETURNDATASIZE CHAINID BLOCKHASH PUSH4 0x9EA79036 0xD4 PUSH5 0x736F6C6343 STOP ADDMOD BYTE STOP CALLER LOG2 PUSH5 0x6970667358 0x22 SLT KECCAK256 0xD8 SWAP14 0x26 0xB4 0xB0 0xD7 0x4E MOD DUP3 DUP10 0xD6 JUMPDEST 0xEF GASPRICE CODECOPY DUP10 CALLVALUE MUL 0xFC PUSH11 0x155A054904282BD3281A30 0xCB PUSH5 0x736F6C6343 STOP ADDMOD BYTE STOP CALLER "
		},
		"gasEstimates": {
			"creation": {
				"codeDepositCost": "2176200",
				"executionCost": "2322",
				"totalCost": "2178522"
			},
			"external": {
				"beforeAll()": "infinite",
				"testTokenNameAndSymbol()": "infinite"
			}
		},
		"methodIdentifiers": {
			"beforeAll()": "7fea0d4b",
			"testTokenNameAndSymbol()": "218e00ff"
		}
	},
	"abi": [
		{
			"inputs": [],
			"name": "beforeAll",
			"outputs": [],
			"stateMutability": "nonpayable",
			"type": "function"
		},
		{
			"inputs": [],
			"name": "testTokenNameAndSymbol",
			"outputs": [],
			"stateMutability": "nonpayable",
			"type": "function"
		}
	]
}