{
	"contracts/MyCantract.sol": {
		"MyCantract": {
			"abi": [
				{
					"inputs": [
						{
							"internalType": "string",
							"name": "_name",
							"type": "string"
						},
						{
							"internalType": "uint256",
							"name": "_age",
							"type": "uint256"
						},
						{
							"internalType": "bool",
							"name": "_married",
							"type": "bool"
						}
					],
					"stateMutability": "nonpayable",
					"type": "constructor"
				},
				{
					"inputs": [],
					"name": "getData",
					"outputs": [
						{
							"internalType": "string",
							"name": "_name",
							"type": "string"
						},
						{
							"internalType": "uint256",
							"name": "_age",
							"type": "uint256"
						},
						{
							"internalType": "bool",
							"name": "_married",
							"type": "bool"
						}
					],
					"stateMutability": "view",
					"type": "function"
				},
				{
					"inputs": [
						{
							"internalType": "string",
							"name": "_name",
							"type": "string"
						},
						{
							"internalType": "uint256",
							"name": "_age",
							"type": "uint256"
						},
						{
							"internalType": "bool",
							"name": "_married",
							"type": "bool"
						}
					],
					"name": "setData",
					"outputs": [
						{
							"internalType": "bool",
							"name": "",
							"type": "bool"
						}
					],
					"stateMutability": "nonpayable",
					"type": "function"
				}
			],
			"devdoc": {
				"kind": "dev",
				"methods": {},
				"version": 1
			},
			"evm": {
				"assembly": "    /* \"contracts/MyCantract.sol\":58:724  contract MyCantract {... */\n  mstore(0x40, 0x80)\n    /* \"contracts/MyCantract.sol\":137:260  constructor( string memory _name,... */\n  callvalue\n  dup1\n  iszero\n  tag_1\n  jumpi\n  0x00\n  dup1\n  revert\ntag_1:\n  pop\n  mload(0x40)\n  sub(codesize, bytecodeSize)\n  dup1\n  bytecodeSize\n  dup4\n  codecopy\n  dup2\n  dup2\n  add\n  0x40\n  mstore\n  dup2\n  add\n  swap1\n  tag_2\n  swap2\n  swap1\n  tag_3\n  jump\t// in\ntag_2:\n    /* \"contracts/MyCantract.sol\":223:253  setData(_name, _age, _married) */\n  tag_6\n    /* \"contracts/MyCantract.sol\":231:236  _name */\n  dup4\n    /* \"contracts/MyCantract.sol\":238:242  _age */\n  dup4\n    /* \"contracts/MyCantract.sol\":244:252  _married */\n  dup4\n    /* \"contracts/MyCantract.sol\":223:230  setData */\n  shl(0x20, tag_7)\n    /* \"contracts/MyCantract.sol\":223:253  setData(_name, _age, _married) */\n  0x20\n  shr\n  jump\t// in\ntag_6:\n  pop\n    /* \"contracts/MyCantract.sol\":137:260  constructor( string memory _name,... */\n  pop\n  pop\n  pop\n    /* \"contracts/MyCantract.sol\":58:724  contract MyCantract {... */\n  jump(tag_8)\n    /* \"contracts/MyCantract.sol\":505:722  function setData(... */\ntag_7:\n    /* \"contracts/MyCantract.sol\":618:622  bool */\n  0x00\n    /* \"contracts/MyCantract.sol\":641:646  _name */\n  dup4\n    /* \"contracts/MyCantract.sol\":634:638  name */\n  0x00\n    /* \"contracts/MyCantract.sol\":634:646  name = _name */\n  swap1\n  dup2\n  tag_10\n  swap2\n  swap1\n  tag_11\n  jump\t// in\ntag_10:\n  pop\n    /* \"contracts/MyCantract.sol\":662:666  _age */\n  dup3\n    /* \"contracts/MyCantract.sol\":656:659  age */\n  0x01\n    /* \"contracts/MyCantract.sol\":656:666  age = _age */\n  dup2\n  swap1\n  sstore\n  pop\n    /* \"contracts/MyCantract.sol\":686:694  _married */\n  dup2\n    /* \"contracts/MyCantract.sol\":676:683  married */\n  0x02\n  0x00\n    /* \"contracts/MyCantract.sol\":676:694  married = _married */\n  0x0100\n  exp\n  dup2\n  sload\n  dup2\n  0xff\n  mul\n  not\n  and\n  swap1\n  dup4\n  iszero\n  iszero\n  mul\n  or\n  swap1\n  sstore\n  pop\n    /* \"contracts/MyCantract.sol\":711:715  true */\n  0x01\n    /* \"contracts/MyCantract.sol\":704:715  return true */\n  swap1\n  pop\n    /* \"contracts/MyCantract.sol\":505:722  function setData(... */\n  swap4\n  swap3\n  pop\n  pop\n  pop\n  jump\t// out\n    /* \"#utility.yul\":7:82   */\ntag_12:\n    /* \"#utility.yul\":40:46   */\n  0x00\n    /* \"#utility.yul\":73:75   */\n  0x40\n    /* \"#utility.yul\":67:76   */\n  mload\n    /* \"#utility.yul\":57:76   */\n  swap1\n  pop\n    /* \"#utility.yul\":7:82   */\n  swap1\n  jump\t// out\n    /* \"#utility.yul\":88:205   */\ntag_13:\n    /* \"#utility.yul\":197:198   */\n  0x00\n    /* \"#utility.yul\":194:195   */\n  dup1\n    /* \"#utility.yul\":187:199   */\n  revert\n    /* \"#utility.yul\":211:328   */\ntag_14:\n    /* \"#utility.yul\":320:321   */\n  0x00\n    /* \"#utility.yul\":317:318   */\n  dup1\n    /* \"#utility.yul\":310:322   */\n  revert\n    /* \"#utility.yul\":334:451   */\ntag_15:\n    /* \"#utility.yul\":443:444   */\n  0x00\n    /* \"#utility.yul\":440:441   */\n  dup1\n    /* \"#utility.yul\":433:445   */\n  revert\n    /* \"#utility.yul\":457:574   */\ntag_16:\n    /* \"#utility.yul\":566:567   */\n  0x00\n    /* \"#utility.yul\":563:564   */\n  dup1\n    /* \"#utility.yul\":556:568   */\n  revert\n    /* \"#utility.yul\":580:682   */\ntag_17:\n    /* \"#utility.yul\":621:627   */\n  0x00\n    /* \"#utility.yul\":672:674   */\n  0x1f\n    /* \"#utility.yul\":668:675   */\n  not\n    /* \"#utility.yul\":663:665   */\n  0x1f\n    /* \"#utility.yul\":656:661   */\n  dup4\n    /* \"#utility.yul\":652:666   */\n  add\n    /* \"#utility.yul\":648:676   */\n  and\n    /* \"#utility.yul\":638:676   */\n  swap1\n  pop\n    /* \"#utility.yul\":580:682   */\n  swap2\n  swap1\n  pop\n  jump\t// out\n    /* \"#utility.yul\":688:868   */\ntag_18:\n    /* \"#utility.yul\":736:813   */\n  0x4e487b7100000000000000000000000000000000000000000000000000000000\n    /* \"#utility.yul\":733:734   */\n  0x00\n    /* \"#utility.yul\":726:814   */\n  mstore\n    /* \"#utility.yul\":833:837   */\n  0x41\n    /* \"#utility.yul\":830:831   */\n  0x04\n    /* \"#utility.yul\":823:838   */\n  mstore\n    /* \"#utility.yul\":857:861   */\n  0x24\n    /* \"#utility.yul\":854:855   */\n  0x00\n    /* \"#utility.yul\":847:862   */\n  revert\n    /* \"#utility.yul\":874:1155   */\ntag_19:\n    /* \"#utility.yul\":957:984   */\n  tag_58\n    /* \"#utility.yul\":979:983   */\n  dup3\n    /* \"#utility.yul\":957:984   */\n  tag_17\n  jump\t// in\ntag_58:\n    /* \"#utility.yul\":949:955   */\n  dup2\n    /* \"#utility.yul\":945:985   */\n  add\n    /* \"#utility.yul\":1087:1093   */\n  dup2\n    /* \"#utility.yul\":1075:1085   */\n  dup2\n    /* \"#utility.yul\":1072:1094   */\n  lt\n    /* \"#utility.yul\":1051:1069   */\n  0xffffffffffffffff\n    /* \"#utility.yul\":1039:1049   */\n  dup3\n    /* \"#utility.yul\":1036:1070   */\n  gt\n    /* \"#utility.yul\":1033:1095   */\n  or\n    /* \"#utility.yul\":1030:1118   */\n  iszero\n  tag_59\n  jumpi\n    /* \"#utility.yul\":1098:1116   */\n  tag_60\n  tag_18\n  jump\t// in\ntag_60:\n    /* \"#utility.yul\":1030:1118   */\ntag_59:\n    /* \"#utility.yul\":1138:1148   */\n  dup1\n    /* \"#utility.yul\":1134:1136   */\n  0x40\n    /* \"#utility.yul\":1127:1149   */\n  mstore\n    /* \"#utility.yul\":917:1155   */\n  pop\n    /* \"#utility.yul\":874:1155   */\n  pop\n  pop\n  jump\t// out\n    /* \"#utility.yul\":1161:1290   */\ntag_20:\n    /* \"#utility.yul\":1195:1201   */\n  0x00\n    /* \"#utility.yul\":1222:1242   */\n  tag_62\n  tag_12\n  jump\t// in\ntag_62:\n    /* \"#utility.yul\":1212:1242   */\n  swap1\n  pop\n    /* \"#utility.yul\":1251:1284   */\n  tag_63\n    /* \"#utility.yul\":1279:1283   */\n  dup3\n    /* \"#utility.yul\":1271:1277   */\n  dup3\n    /* \"#utility.yul\":1251:1284   */\n  tag_19\n  jump\t// in\ntag_63:\n    /* \"#utility.yul\":1161:1290   */\n  swap2\n  swap1\n  pop\n  jump\t// out\n    /* \"#utility.yul\":1296:1604   */\ntag_21:\n    /* \"#utility.yul\":1358:1362   */\n  0x00\n    /* \"#utility.yul\":1448:1466   */\n  0xffffffffffffffff\n    /* \"#utility.yul\":1440:1446   */\n  dup3\n    /* \"#utility.yul\":1437:1467   */\n  gt\n    /* \"#utility.yul\":1434:1490   */\n  iszero\n  tag_65\n  jumpi\n    /* \"#utility.yul\":1470:1488   */\n  tag_66\n  tag_18\n  jump\t// in\ntag_66:\n    /* \"#utility.yul\":1434:1490   */\ntag_65:\n    /* \"#utility.yul\":1508:1537   */\n  tag_67\n    /* \"#utility.yul\":1530:1536   */\n  dup3\n    /* \"#utility.yul\":1508:1537   */\n  tag_17\n  jump\t// in\ntag_67:\n    /* \"#utility.yul\":1500:1537   */\n  swap1\n  pop\n    /* \"#utility.yul\":1592:1596   */\n  0x20\n    /* \"#utility.yul\":1586:1590   */\n  dup2\n    /* \"#utility.yul\":1582:1597   */\n  add\n    /* \"#utility.yul\":1574:1597   */\n  swap1\n  pop\n    /* \"#utility.yul\":1296:1604   */\n  swap2\n  swap1\n  pop\n  jump\t// out\n    /* \"#utility.yul\":1610:1749   */\ntag_22:\n    /* \"#utility.yul\":1699:1705   */\n  dup3\n    /* \"#utility.yul\":1694:1697   */\n  dup2\n    /* \"#utility.yul\":1689:1692   */\n  dup4\n    /* \"#utility.yul\":1683:1706   */\n  mcopy\n    /* \"#utility.yul\":1740:1741   */\n  0x00\n    /* \"#utility.yul\":1731:1737   */\n  dup4\n    /* \"#utility.yul\":1726:1729   */\n  dup4\n    /* \"#utility.yul\":1722:1738   */\n  add\n    /* \"#utility.yul\":1715:1742   */\n  mstore\n    /* \"#utility.yul\":1610:1749   */\n  pop\n  pop\n  pop\n  jump\t// out\n    /* \"#utility.yul\":1755:2189   */\ntag_23:\n    /* \"#utility.yul\":1844:1849   */\n  0x00\n    /* \"#utility.yul\":1869:1935   */\n  tag_70\n    /* \"#utility.yul\":1885:1934   */\n  tag_71\n    /* \"#utility.yul\":1927:1933   */\n  dup5\n    /* \"#utility.yul\":1885:1934   */\n  tag_21\n  jump\t// in\ntag_71:\n    /* \"#utility.yul\":1869:1935   */\n  tag_20\n  jump\t// in\ntag_70:\n    /* \"#utility.yul\":1860:1935   */\n  swap1\n  pop\n    /* \"#utility.yul\":1958:1964   */\n  dup3\n    /* \"#utility.yul\":1951:1956   */\n  dup2\n    /* \"#utility.yul\":1944:1965   */\n  mstore\n    /* \"#utility.yul\":1996:2000   */\n  0x20\n    /* \"#utility.yul\":1989:1994   */\n  dup2\n    /* \"#utility.yul\":1985:2001   */\n  add\n    /* \"#utility.yul\":2034:2037   */\n  dup5\n    /* \"#utility.yul\":2025:2031   */\n  dup5\n    /* \"#utility.yul\":2020:2023   */\n  dup5\n    /* \"#utility.yul\":2016:2032   */\n  add\n    /* \"#utility.yul\":2013:2038   */\n  gt\n    /* \"#utility.yul\":2010:2122   */\n  iszero\n  tag_72\n  jumpi\n    /* \"#utility.yul\":2041:2120   */\n  tag_73\n  tag_16\n  jump\t// in\ntag_73:\n    /* \"#utility.yul\":2010:2122   */\ntag_72:\n    /* \"#utility.yul\":2131:2183   */\n  tag_74\n    /* \"#utility.yul\":2176:2182   */\n  dup5\n    /* \"#utility.yul\":2171:2174   */\n  dup3\n    /* \"#utility.yul\":2166:2169   */\n  dup6\n    /* \"#utility.yul\":2131:2183   */\n  tag_22\n  jump\t// in\ntag_74:\n    /* \"#utility.yul\":1850:2189   */\n  pop\n    /* \"#utility.yul\":1755:2189   */\n  swap4\n  swap3\n  pop\n  pop\n  pop\n  jump\t// out\n    /* \"#utility.yul\":2209:2564   */\ntag_24:\n    /* \"#utility.yul\":2276:2281   */\n  0x00\n    /* \"#utility.yul\":2325:2328   */\n  dup3\n    /* \"#utility.yul\":2318:2322   */\n  0x1f\n    /* \"#utility.yul\":2310:2316   */\n  dup4\n    /* \"#utility.yul\":2306:2323   */\n  add\n    /* \"#utility.yul\":2302:2329   */\n  slt\n    /* \"#utility.yul\":2292:2414   */\n  tag_76\n  jumpi\n    /* \"#utility.yul\":2333:2412   */\n  tag_77\n  tag_15\n  jump\t// in\ntag_77:\n    /* \"#utility.yul\":2292:2414   */\ntag_76:\n    /* \"#utility.yul\":2443:2449   */\n  dup2\n    /* \"#utility.yul\":2437:2450   */\n  mload\n    /* \"#utility.yul\":2468:2558   */\n  tag_78\n    /* \"#utility.yul\":2554:2557   */\n  dup5\n    /* \"#utility.yul\":2546:2552   */\n  dup3\n    /* \"#utility.yul\":2539:2543   */\n  0x20\n    /* \"#utility.yul\":2531:2537   */\n  dup7\n    /* \"#utility.yul\":2527:2544   */\n  add\n    /* \"#utility.yul\":2468:2558   */\n  tag_23\n  jump\t// in\ntag_78:\n    /* \"#utility.yul\":2459:2558   */\n  swap2\n  pop\n    /* \"#utility.yul\":2282:2564   */\n  pop\n    /* \"#utility.yul\":2209:2564   */\n  swap3\n  swap2\n  pop\n  pop\n  jump\t// out\n    /* \"#utility.yul\":2570:2647   */\ntag_25:\n    /* \"#utility.yul\":2607:2614   */\n  0x00\n    /* \"#utility.yul\":2636:2641   */\n  dup2\n    /* \"#utility.yul\":2625:2641   */\n  swap1\n  pop\n    /* \"#utility.yul\":2570:2647   */\n  swap2\n  swap1\n  pop\n  jump\t// out\n    /* \"#utility.yul\":2653:2775   */\ntag_26:\n    /* \"#utility.yul\":2726:2750   */\n  tag_81\n    /* \"#utility.yul\":2744:2749   */\n  dup2\n    /* \"#utility.yul\":2726:2750   */\n  tag_25\n  jump\t// in\ntag_81:\n    /* \"#utility.yul\":2719:2724   */\n  dup2\n    /* \"#utility.yul\":2716:2751   */\n  eq\n    /* \"#utility.yul\":2706:2769   */\n  tag_82\n  jumpi\n    /* \"#utility.yul\":2765:2766   */\n  0x00\n    /* \"#utility.yul\":2762:2763   */\n  dup1\n    /* \"#utility.yul\":2755:2767   */\n  revert\n    /* \"#utility.yul\":2706:2769   */\ntag_82:\n    /* \"#utility.yul\":2653:2775   */\n  pop\n  jump\t// out\n    /* \"#utility.yul\":2781:2924   */\ntag_27:\n    /* \"#utility.yul\":2838:2843   */\n  0x00\n    /* \"#utility.yul\":2869:2875   */\n  dup2\n    /* \"#utility.yul\":2863:2876   */\n  mload\n    /* \"#utility.yul\":2854:2876   */\n  swap1\n  pop\n    /* \"#utility.yul\":2885:2918   */\n  tag_84\n    /* \"#utility.yul\":2912:2917   */\n  dup2\n    /* \"#utility.yul\":2885:2918   */\n  tag_26\n  jump\t// in\ntag_84:\n    /* \"#utility.yul\":2781:2924   */\n  swap3\n  swap2\n  pop\n  pop\n  jump\t// out\n    /* \"#utility.yul\":2930:3020   */\ntag_28:\n    /* \"#utility.yul\":2964:2971   */\n  0x00\n    /* \"#utility.yul\":3007:3012   */\n  dup2\n    /* \"#utility.yul\":3000:3013   */\n  iszero\n    /* \"#utility.yul\":2993:3014   */\n  iszero\n    /* \"#utility.yul\":2982:3014   */\n  swap1\n  pop\n    /* \"#utility.yul\":2930:3020   */\n  swap2\n  swap1\n  pop\n  jump\t// out\n    /* \"#utility.yul\":3026:3142   */\ntag_29:\n    /* \"#utility.yul\":3096:3117   */\n  tag_87\n    /* \"#utility.yul\":3111:3116   */\n  dup2\n    /* \"#utility.yul\":3096:3117   */\n  tag_28\n  jump\t// in\ntag_87:\n    /* \"#utility.yul\":3089:3094   */\n  dup2\n    /* \"#utility.yul\":3086:3118   */\n  eq\n    /* \"#utility.yul\":3076:3136   */\n  tag_88\n  jumpi\n    /* \"#utility.yul\":3132:3133   */\n  0x00\n    /* \"#utility.yul\":3129:3130   */\n  dup1\n    /* \"#utility.yul\":3122:3134   */\n  revert\n    /* \"#utility.yul\":3076:3136   */\ntag_88:\n    /* \"#utility.yul\":3026:3142   */\n  pop\n  jump\t// out\n    /* \"#utility.yul\":3148:3285   */\ntag_30:\n    /* \"#utility.yul\":3202:3207   */\n  0x00\n    /* \"#utility.yul\":3233:3239   */\n  dup2\n    /* \"#utility.yul\":3227:3240   */\n  mload\n    /* \"#utility.yul\":3218:3240   */\n  swap1\n  pop\n    /* \"#utility.yul\":3249:3279   */\n  tag_90\n    /* \"#utility.yul\":3273:3278   */\n  dup2\n    /* \"#utility.yul\":3249:3279   */\n  tag_29\n  jump\t// in\ntag_90:\n    /* \"#utility.yul\":3148:3285   */\n  swap3\n  swap2\n  pop\n  pop\n  jump\t// out\n    /* \"#utility.yul\":3291:4121   */\ntag_3:\n    /* \"#utility.yul\":3386:3392   */\n  0x00\n    /* \"#utility.yul\":3394:3400   */\n  dup1\n    /* \"#utility.yul\":3402:3408   */\n  0x00\n    /* \"#utility.yul\":3451:3453   */\n  0x60\n    /* \"#utility.yul\":3439:3448   */\n  dup5\n    /* \"#utility.yul\":3430:3437   */\n  dup7\n    /* \"#utility.yul\":3426:3449   */\n  sub\n    /* \"#utility.yul\":3422:3454   */\n  slt\n    /* \"#utility.yul\":3419:3538   */\n  iszero\n  tag_92\n  jumpi\n    /* \"#utility.yul\":3457:3536   */\n  tag_93\n  tag_13\n  jump\t// in\ntag_93:\n    /* \"#utility.yul\":3419:3538   */\ntag_92:\n    /* \"#utility.yul\":3598:3599   */\n  0x00\n    /* \"#utility.yul\":3587:3596   */\n  dup5\n    /* \"#utility.yul\":3583:3600   */\n  add\n    /* \"#utility.yul\":3577:3601   */\n  mload\n    /* \"#utility.yul\":3628:3646   */\n  0xffffffffffffffff\n    /* \"#utility.yul\":3620:3626   */\n  dup2\n    /* \"#utility.yul\":3617:3647   */\n  gt\n    /* \"#utility.yul\":3614:3731   */\n  iszero\n  tag_94\n  jumpi\n    /* \"#utility.yul\":3650:3729   */\n  tag_95\n  tag_14\n  jump\t// in\ntag_95:\n    /* \"#utility.yul\":3614:3731   */\ntag_94:\n    /* \"#utility.yul\":3755:3829   */\n  tag_96\n    /* \"#utility.yul\":3821:3828   */\n  dup7\n    /* \"#utility.yul\":3812:3818   */\n  dup3\n    /* \"#utility.yul\":3801:3810   */\n  dup8\n    /* \"#utility.yul\":3797:3819   */\n  add\n    /* \"#utility.yul\":3755:3829   */\n  tag_24\n  jump\t// in\ntag_96:\n    /* \"#utility.yul\":3745:3829   */\n  swap4\n  pop\n    /* \"#utility.yul\":3548:3839   */\n  pop\n    /* \"#utility.yul\":3878:3880   */\n  0x20\n    /* \"#utility.yul\":3904:3968   */\n  tag_97\n    /* \"#utility.yul\":3960:3967   */\n  dup7\n    /* \"#utility.yul\":3951:3957   */\n  dup3\n    /* \"#utility.yul\":3940:3949   */\n  dup8\n    /* \"#utility.yul\":3936:3958   */\n  add\n    /* \"#utility.yul\":3904:3968   */\n  tag_27\n  jump\t// in\ntag_97:\n    /* \"#utility.yul\":3894:3968   */\n  swap3\n  pop\n    /* \"#utility.yul\":3849:3978   */\n  pop\n    /* \"#utility.yul\":4017:4019   */\n  0x40\n    /* \"#utility.yul\":4043:4104   */\n  tag_98\n    /* \"#utility.yul\":4096:4103   */\n  dup7\n    /* \"#utility.yul\":4087:4093   */\n  dup3\n    /* \"#utility.yul\":4076:4085   */\n  dup8\n    /* \"#utility.yul\":4072:4094   */\n  add\n    /* \"#utility.yul\":4043:4104   */\n  tag_30\n  jump\t// in\ntag_98:\n    /* \"#utility.yul\":4033:4104   */\n  swap2\n  pop\n    /* \"#utility.yul\":3988:4114   */\n  pop\n    /* \"#utility.yul\":3291:4121   */\n  swap3\n  pop\n  swap3\n  pop\n  swap3\n  jump\t// out\n    /* \"#utility.yul\":4127:4226   */\ntag_31:\n    /* \"#utility.yul\":4179:4185   */\n  0x00\n    /* \"#utility.yul\":4213:4218   */\n  dup2\n    /* \"#utility.yul\":4207:4219   */\n  mload\n    /* \"#utility.yul\":4197:4219   */\n  swap1\n  pop\n    /* \"#utility.yul\":4127:4226   */\n  swap2\n  swap1\n  pop\n  jump\t// out\n    /* \"#utility.yul\":4232:4412   */\ntag_32:\n    /* \"#utility.yul\":4280:4357   */\n  0x4e487b7100000000000000000000000000000000000000000000000000000000\n    /* \"#utility.yul\":4277:4278   */\n  0x00\n    /* \"#utility.yul\":4270:4358   */\n  mstore\n    /* \"#utility.yul\":4377:4381   */\n  0x22\n    /* \"#utility.yul\":4374:4375   */\n  0x04\n    /* \"#utility.yul\":4367:4382   */\n  mstore\n    /* \"#utility.yul\":4401:4405   */\n  0x24\n    /* \"#utility.yul\":4398:4399   */\n  0x00\n    /* \"#utility.yul\":4391:4406   */\n  revert\n    /* \"#utility.yul\":4418:4738   */\ntag_33:\n    /* \"#utility.yul\":4462:4468   */\n  0x00\n    /* \"#utility.yul\":4499:4500   */\n  0x02\n    /* \"#utility.yul\":4493:4497   */\n  dup3\n    /* \"#utility.yul\":4489:4501   */\n  div\n    /* \"#utility.yul\":4479:4501   */\n  swap1\n  pop\n    /* \"#utility.yul\":4546:4547   */\n  0x01\n    /* \"#utility.yul\":4540:4544   */\n  dup3\n    /* \"#utility.yul\":4536:4548   */\n  and\n    /* \"#utility.yul\":4567:4585   */\n  dup1\n    /* \"#utility.yul\":4557:4638   */\n  tag_102\n  jumpi\n    /* \"#utility.yul\":4623:4627   */\n  0x7f\n    /* \"#utility.yul\":4615:4621   */\n  dup3\n    /* \"#utility.yul\":4611:4628   */\n  and\n    /* \"#utility.yul\":4601:4628   */\n  swap2\n  pop\n    /* \"#utility.yul\":4557:4638   */\ntag_102:\n    /* \"#utility.yul\":4685:4687   */\n  0x20\n    /* \"#utility.yul\":4677:4683   */\n  dup3\n    /* \"#utility.yul\":4674:4688   */\n  lt\n    /* \"#utility.yul\":4654:4672   */\n  dup2\n    /* \"#utility.yul\":4651:4689   */\n  sub\n    /* \"#utility.yul\":4648:4732   */\n  tag_103\n  jumpi\n    /* \"#utility.yul\":4704:4722   */\n  tag_104\n  tag_32\n  jump\t// in\ntag_104:\n    /* \"#utility.yul\":4648:4732   */\ntag_103:\n    /* \"#utility.yul\":4469:4738   */\n  pop\n    /* \"#utility.yul\":4418:4738   */\n  swap2\n  swap1\n  pop\n  jump\t// out\n    /* \"#utility.yul\":4744:4885   */\ntag_34:\n    /* \"#utility.yul\":4793:4797   */\n  0x00\n    /* \"#utility.yul\":4816:4819   */\n  dup2\n    /* \"#utility.yul\":4808:4819   */\n  swap1\n  pop\n    /* \"#utility.yul\":4839:4842   */\n  dup2\n    /* \"#utility.yul\":4836:4837   */\n  0x00\n    /* \"#utility.yul\":4829:4843   */\n  mstore\n    /* \"#utility.yul\":4873:4877   */\n  0x20\n    /* \"#utility.yul\":4870:4871   */\n  0x00\n    /* \"#utility.yul\":4860:4878   */\n  keccak256\n    /* \"#utility.yul\":4852:4878   */\n  swap1\n  pop\n    /* \"#utility.yul\":4744:4885   */\n  swap2\n  swap1\n  pop\n  jump\t// out\n    /* \"#utility.yul\":4891:4984   */\ntag_35:\n    /* \"#utility.yul\":4928:4934   */\n  0x00\n    /* \"#utility.yul\":4975:4977   */\n  0x20\n    /* \"#utility.yul\":4970:4972   */\n  0x1f\n    /* \"#utility.yul\":4963:4968   */\n  dup4\n    /* \"#utility.yul\":4959:4973   */\n  add\n    /* \"#utility.yul\":4955:4978   */\n  div\n    /* \"#utility.yul\":4945:4978   */\n  swap1\n  pop\n    /* \"#utility.yul\":4891:4984   */\n  swap2\n  swap1\n  pop\n  jump\t// out\n    /* \"#utility.yul\":4990:5097   */\ntag_36:\n    /* \"#utility.yul\":5034:5042   */\n  0x00\n    /* \"#utility.yul\":5084:5089   */\n  dup3\n    /* \"#utility.yul\":5078:5082   */\n  dup3\n    /* \"#utility.yul\":5074:5090   */\n  shl\n    /* \"#utility.yul\":5053:5090   */\n  swap1\n  pop\n    /* \"#utility.yul\":4990:5097   */\n  swap3\n  swap2\n  pop\n  pop\n  jump\t// out\n    /* \"#utility.yul\":5103:5496   */\ntag_37:\n    /* \"#utility.yul\":5172:5178   */\n  0x00\n    /* \"#utility.yul\":5222:5223   */\n  0x08\n    /* \"#utility.yul\":5210:5220   */\n  dup4\n    /* \"#utility.yul\":5206:5224   */\n  mul\n    /* \"#utility.yul\":5245:5342   */\n  tag_109\n    /* \"#utility.yul\":5275:5341   */\n  0xffffffffffffffffffffffffffffffffffffffffffffffffffffffffffffffff\n    /* \"#utility.yul\":5264:5273   */\n  dup3\n    /* \"#utility.yul\":5245:5342   */\n  tag_36\n  jump\t// in\ntag_109:\n    /* \"#utility.yul\":5363:5402   */\n  tag_110\n    /* \"#utility.yul\":5393:5401   */\n  dup7\n    /* \"#utility.yul\":5382:5391   */\n  dup4\n    /* \"#utility.yul\":5363:5402   */\n  tag_36\n  jump\t// in\ntag_110:\n    /* \"#utility.yul\":5351:5402   */\n  swap6\n  pop\n    /* \"#utility.yul\":5435:5439   */\n  dup1\n    /* \"#utility.yul\":5431:5440   */\n  not\n    /* \"#utility.yul\":5424:5429   */\n  dup5\n    /* \"#utility.yul\":5420:5441   */\n  and\n    /* \"#utility.yul\":5411:5441   */\n  swap4\n  pop\n    /* \"#utility.yul\":5484:5488   */\n  dup1\n    /* \"#utility.yul\":5474:5482   */\n  dup7\n    /* \"#utility.yul\":5470:5489   */\n  and\n    /* \"#utility.yul\":5463:5468   */\n  dup5\n    /* \"#utility.yul\":5460:5490   */\n  or\n    /* \"#utility.yul\":5450:5490   */\n  swap3\n  pop\n    /* \"#utility.yul\":5179:5496   */\n  pop\n  pop\n    /* \"#utility.yul\":5103:5496   */\n  swap4\n  swap3\n  pop\n  pop\n  pop\n  jump\t// out\n    /* \"#utility.yul\":5502:5562   */\ntag_38:\n    /* \"#utility.yul\":5530:5533   */\n  0x00\n    /* \"#utility.yul\":5551:5556   */\n  dup2\n    /* \"#utility.yul\":5544:5556   */\n  swap1\n  pop\n    /* \"#utility.yul\":5502:5562   */\n  swap2\n  swap1\n  pop\n  jump\t// out\n    /* \"#utility.yul\":5568:5710   */\ntag_39:\n    /* \"#utility.yul\":5618:5627   */\n  0x00\n    /* \"#utility.yul\":5651:5704   */\n  tag_113\n    /* \"#utility.yul\":5669:5703   */\n  tag_114\n    /* \"#utility.yul\":5678:5702   */\n  tag_115\n    /* \"#utility.yul\":5696:5701   */\n  dup5\n    /* \"#utility.yul\":5678:5702   */\n  tag_25\n  jump\t// in\ntag_115:\n    /* \"#utility.yul\":5669:5703   */\n  tag_38\n  jump\t// in\ntag_114:\n    /* \"#utility.yul\":5651:5704   */\n  tag_25\n  jump\t// in\ntag_113:\n    /* \"#utility.yul\":5638:5704   */\n  swap1\n  pop\n    /* \"#utility.yul\":5568:5710   */\n  swap2\n  swap1\n  pop\n  jump\t// out\n    /* \"#utility.yul\":5716:5791   */\ntag_40:\n    /* \"#utility.yul\":5759:5762   */\n  0x00\n    /* \"#utility.yul\":5780:5785   */\n  dup2\n    /* \"#utility.yul\":5773:5785   */\n  swap1\n  pop\n    /* \"#utility.yul\":5716:5791   */\n  swap2\n  swap1\n  pop\n  jump\t// out\n    /* \"#utility.yul\":5797:6066   */\ntag_41:\n    /* \"#utility.yul\":5907:5946   */\n  tag_118\n    /* \"#utility.yul\":5938:5945   */\n  dup4\n    /* \"#utility.yul\":5907:5946   */\n  tag_39\n  jump\t// in\ntag_118:\n    /* \"#utility.yul\":5968:6059   */\n  tag_119\n    /* \"#utility.yul\":6017:6058   */\n  tag_120\n    /* \"#utility.yul\":6041:6057   */\n  dup3\n    /* \"#utility.yul\":6017:6058   */\n  tag_40\n  jump\t// in\ntag_120:\n    /* \"#utility.yul\":6009:6015   */\n  dup5\n    /* \"#utility.yul\":6002:6006   */\n  dup5\n    /* \"#utility.yul\":5996:6007   */\n  sload\n    /* \"#utility.yul\":5968:6059   */\n  tag_37\n  jump\t// in\ntag_119:\n    /* \"#utility.yul\":5962:5966   */\n  dup3\n    /* \"#utility.yul\":5955:6060   */\n  sstore\n    /* \"#utility.yul\":5873:6066   */\n  pop\n    /* \"#utility.yul\":5797:6066   */\n  pop\n  pop\n  pop\n  jump\t// out\n    /* \"#utility.yul\":6072:6145   */\ntag_42:\n    /* \"#utility.yul\":6117:6120   */\n  0x00\n    /* \"#utility.yul\":6072:6145   */\n  swap1\n  jump\t// out\n    /* \"#utility.yul\":6151:6340   */\ntag_43:\n    /* \"#utility.yul\":6228:6260   */\n  tag_123\n  tag_42\n  jump\t// in\ntag_123:\n    /* \"#utility.yul\":6269:6334   */\n  tag_124\n    /* \"#utility.yul\":6327:6333   */\n  dup2\n    /* \"#utility.yul\":6319:6325   */\n  dup5\n    /* \"#utility.yul\":6313:6317   */\n  dup5\n    /* \"#utility.yul\":6269:6334   */\n  tag_41\n  jump\t// in\ntag_124:\n    /* \"#utility.yul\":6204:6340   */\n  pop\n    /* \"#utility.yul\":6151:6340   */\n  pop\n  pop\n  jump\t// out\n    /* \"#utility.yul\":6346:6532   */\ntag_44:\n    /* \"#utility.yul\":6406:6526   */\ntag_126:\n    /* \"#utility.yul\":6423:6426   */\n  dup2\n    /* \"#utility.yul\":6416:6421   */\n  dup2\n    /* \"#utility.yul\":6413:6427   */\n  lt\n    /* \"#utility.yul\":6406:6526   */\n  iszero\n  tag_128\n  jumpi\n    /* \"#utility.yul\":6477:6516   */\n  tag_129\n    /* \"#utility.yul\":6514:6515   */\n  0x00\n    /* \"#utility.yul\":6507:6512   */\n  dup3\n    /* \"#utility.yul\":6477:6516   */\n  tag_43\n  jump\t// in\ntag_129:\n    /* \"#utility.yul\":6450:6451   */\n  0x01\n    /* \"#utility.yul\":6443:6448   */\n  dup2\n    /* \"#utility.yul\":6439:6452   */\n  add\n    /* \"#utility.yul\":6430:6452   */\n  swap1\n  pop\n    /* \"#utility.yul\":6406:6526   */\n  jump(tag_126)\ntag_128:\n    /* \"#utility.yul\":6346:6532   */\n  pop\n  pop\n  jump\t// out\n    /* \"#utility.yul\":6538:7081   */\ntag_45:\n    /* \"#utility.yul\":6639:6641   */\n  0x1f\n    /* \"#utility.yul\":6634:6637   */\n  dup3\n    /* \"#utility.yul\":6631:6642   */\n  gt\n    /* \"#utility.yul\":6628:7074   */\n  iszero\n  tag_131\n  jumpi\n    /* \"#utility.yul\":6673:6711   */\n  tag_132\n    /* \"#utility.yul\":6705:6710   */\n  dup2\n    /* \"#utility.yul\":6673:6711   */\n  tag_34\n  jump\t// in\ntag_132:\n    /* \"#utility.yul\":6757:6786   */\n  tag_133\n    /* \"#utility.yul\":6775:6785   */\n  dup5\n    /* \"#utility.yul\":6757:6786   */\n  tag_35\n  jump\t// in\ntag_133:\n    /* \"#utility.yul\":6747:6755   */\n  dup2\n    /* \"#utility.yul\":6743:6787   */\n  add\n    /* \"#utility.yul\":6940:6942   */\n  0x20\n    /* \"#utility.yul\":6928:6938   */\n  dup6\n    /* \"#utility.yul\":6925:6943   */\n  lt\n    /* \"#utility.yul\":6922:6971   */\n  iszero\n  tag_134\n  jumpi\n    /* \"#utility.yul\":6961:6969   */\n  dup2\n    /* \"#utility.yul\":6946:6969   */\n  swap1\n  pop\n    /* \"#utility.yul\":6922:6971   */\ntag_134:\n    /* \"#utility.yul\":6984:7064   */\n  tag_135\n    /* \"#utility.yul\":7040:7062   */\n  tag_136\n    /* \"#utility.yul\":7058:7061   */\n  dup6\n    /* \"#utility.yul\":7040:7062   */\n  tag_35\n  jump\t// in\ntag_136:\n    /* \"#utility.yul\":7030:7038   */\n  dup4\n    /* \"#utility.yul\":7026:7063   */\n  add\n    /* \"#utility.yul\":7013:7024   */\n  dup3\n    /* \"#utility.yul\":6984:7064   */\n  tag_44\n  jump\t// in\ntag_135:\n    /* \"#utility.yul\":6643:7074   */\n  pop\n  pop\n    /* \"#utility.yul\":6628:7074   */\ntag_131:\n    /* \"#utility.yul\":6538:7081   */\n  pop\n  pop\n  pop\n  jump\t// out\n    /* \"#utility.yul\":7087:7204   */\ntag_46:\n    /* \"#utility.yul\":7141:7149   */\n  0x00\n    /* \"#utility.yul\":7191:7196   */\n  dup3\n    /* \"#utility.yul\":7185:7189   */\n  dup3\n    /* \"#utility.yul\":7181:7197   */\n  shr\n    /* \"#utility.yul\":7160:7197   */\n  swap1\n  pop\n    /* \"#utility.yul\":7087:7204   */\n  swap3\n  swap2\n  pop\n  pop\n  jump\t// out\n    /* \"#utility.yul\":7210:7379   */\ntag_47:\n    /* \"#utility.yul\":7254:7260   */\n  0x00\n    /* \"#utility.yul\":7287:7338   */\n  tag_139\n    /* \"#utility.yul\":7335:7336   */\n  0x00\n    /* \"#utility.yul\":7331:7337   */\n  not\n    /* \"#utility.yul\":7323:7328   */\n  dup5\n    /* \"#utility.yul\":7320:7321   */\n  0x08\n    /* \"#utility.yul\":7316:7329   */\n  mul\n    /* \"#utility.yul\":7287:7338   */\n  tag_46\n  jump\t// in\ntag_139:\n    /* \"#utility.yul\":7283:7339   */\n  not\n    /* \"#utility.yul\":7368:7372   */\n  dup1\n    /* \"#utility.yul\":7362:7366   */\n  dup4\n    /* \"#utility.yul\":7358:7373   */\n  and\n    /* \"#utility.yul\":7348:7373   */\n  swap2\n  pop\n    /* \"#utility.yul\":7261:7379   */\n  pop\n    /* \"#utility.yul\":7210:7379   */\n  swap3\n  swap2\n  pop\n  pop\n  jump\t// out\n    /* \"#utility.yul\":7384:7679   */\ntag_48:\n    /* \"#utility.yul\":7460:7464   */\n  0x00\n    /* \"#utility.yul\":7606:7635   */\n  tag_141\n    /* \"#utility.yul\":7631:7634   */\n  dup4\n    /* \"#utility.yul\":7625:7629   */\n  dup4\n    /* \"#utility.yul\":7606:7635   */\n  tag_47\n  jump\t// in\ntag_141:\n    /* \"#utility.yul\":7598:7635   */\n  swap2\n  pop\n    /* \"#utility.yul\":7668:7671   */\n  dup3\n    /* \"#utility.yul\":7665:7666   */\n  0x02\n    /* \"#utility.yul\":7661:7672   */\n  mul\n    /* \"#utility.yul\":7655:7659   */\n  dup3\n    /* \"#utility.yul\":7652:7673   */\n  or\n    /* \"#utility.yul\":7644:7673   */\n  swap1\n  pop\n    /* \"#utility.yul\":7384:7679   */\n  swap3\n  swap2\n  pop\n  pop\n  jump\t// out\n    /* \"#utility.yul\":7684:9079   */\ntag_11:\n    /* \"#utility.yul\":7801:7838   */\n  tag_143\n    /* \"#utility.yul\":7834:7837   */\n  dup3\n    /* \"#utility.yul\":7801:7838   */\n  tag_31\n  jump\t// in\ntag_143:\n    /* \"#utility.yul\":7903:7921   */\n  0xffffffffffffffff\n    /* \"#utility.yul\":7895:7901   */\n  dup2\n    /* \"#utility.yul\":7892:7922   */\n  gt\n    /* \"#utility.yul\":7889:7945   */\n  iszero\n  tag_144\n  jumpi\n    /* \"#utility.yul\":7925:7943   */\n  tag_145\n  tag_18\n  jump\t// in\ntag_145:\n    /* \"#utility.yul\":7889:7945   */\ntag_144:\n    /* \"#utility.yul\":7969:8007   */\n  tag_146\n    /* \"#utility.yul\":8001:8005   */\n  dup3\n    /* \"#utility.yul\":7995:8006   */\n  sload\n    /* \"#utility.yul\":7969:8007   */\n  tag_33\n  jump\t// in\ntag_146:\n    /* \"#utility.yul\":8054:8121   */\n  tag_147\n    /* \"#utility.yul\":8114:8120   */\n  dup3\n    /* \"#utility.yul\":8106:8112   */\n  dup3\n    /* \"#utility.yul\":8100:8104   */\n  dup6\n    /* \"#utility.yul\":8054:8121   */\n  tag_45\n  jump\t// in\ntag_147:\n    /* \"#utility.yul\":8148:8149   */\n  0x00\n    /* \"#utility.yul\":8172:8176   */\n  0x20\n    /* \"#utility.yul\":8159:8176   */\n  swap1\n  pop\n    /* \"#utility.yul\":8204:8206   */\n  0x1f\n    /* \"#utility.yul\":8196:8202   */\n  dup4\n    /* \"#utility.yul\":8193:8207   */\n  gt\n    /* \"#utility.yul\":8221:8222   */\n  0x01\n    /* \"#utility.yul\":8216:8834   */\n  dup2\n  eq\n  tag_149\n  jumpi\n    /* \"#utility.yul\":8878:8879   */\n  0x00\n    /* \"#utility.yul\":8895:8901   */\n  dup5\n    /* \"#utility.yul\":8892:8969   */\n  iszero\n  tag_150\n  jumpi\n    /* \"#utility.yul\":8944:8953   */\n  dup3\n    /* \"#utility.yul\":8939:8942   */\n  dup8\n    /* \"#utility.yul\":8935:8954   */\n  add\n    /* \"#utility.yul\":8929:8955   */\n  mload\n    /* \"#utility.yul\":8920:8955   */\n  swap1\n  pop\n    /* \"#utility.yul\":8892:8969   */\ntag_150:\n    /* \"#utility.yul\":8995:9062   */\n  tag_151\n    /* \"#utility.yul\":9055:9061   */\n  dup6\n    /* \"#utility.yul\":9048:9053   */\n  dup3\n    /* \"#utility.yul\":8995:9062   */\n  tag_48\n  jump\t// in\ntag_151:\n    /* \"#utility.yul\":8989:8993   */\n  dup7\n    /* \"#utility.yul\":8982:9063   */\n  sstore\n    /* \"#utility.yul\":8851:9073   */\n  pop\n    /* \"#utility.yul\":8186:9073   */\n  jump(tag_148)\n    /* \"#utility.yul\":8216:8834   */\ntag_149:\n    /* \"#utility.yul\":8268:8272   */\n  0x1f\n    /* \"#utility.yul\":8264:8273   */\n  not\n    /* \"#utility.yul\":8256:8262   */\n  dup5\n    /* \"#utility.yul\":8252:8274   */\n  and\n    /* \"#utility.yul\":8302:8339   */\n  tag_152\n    /* \"#utility.yul\":8334:8338   */\n  dup7\n    /* \"#utility.yul\":8302:8339   */\n  tag_34\n  jump\t// in\ntag_152:\n    /* \"#utility.yul\":8361:8362   */\n  0x00\n    /* \"#utility.yul\":8375:8583   */\ntag_153:\n    /* \"#utility.yul\":8389:8396   */\n  dup3\n    /* \"#utility.yul\":8386:8387   */\n  dup2\n    /* \"#utility.yul\":8383:8397   */\n  lt\n    /* \"#utility.yul\":8375:8583   */\n  iszero\n  tag_155\n  jumpi\n    /* \"#utility.yul\":8468:8477   */\n  dup5\n    /* \"#utility.yul\":8463:8466   */\n  dup10\n    /* \"#utility.yul\":8459:8478   */\n  add\n    /* \"#utility.yul\":8453:8479   */\n  mload\n    /* \"#utility.yul\":8445:8451   */\n  dup3\n    /* \"#utility.yul\":8438:8480   */\n  sstore\n    /* \"#utility.yul\":8519:8520   */\n  0x01\n    /* \"#utility.yul\":8511:8517   */\n  dup3\n    /* \"#utility.yul\":8507:8521   */\n  add\n    /* \"#utility.yul\":8497:8521   */\n  swap2\n  pop\n    /* \"#utility.yul\":8566:8568   */\n  0x20\n    /* \"#utility.yul\":8555:8564   */\n  dup6\n    /* \"#utility.yul\":8551:8569   */\n  add\n    /* \"#utility.yul\":8538:8569   */\n  swap5\n  pop\n    /* \"#utility.yul\":8412:8416   */\n  0x20\n    /* \"#utility.yul\":8409:8410   */\n  dup2\n    /* \"#utility.yul\":8405:8417   */\n  add\n    /* \"#utility.yul\":8400:8417   */\n  swap1\n  pop\n    /* \"#utility.yul\":8375:8583   */\n  jump(tag_153)\ntag_155:\n    /* \"#utility.yul\":8611:8617   */\n  dup7\n    /* \"#utility.yul\":8602:8609   */\n  dup4\n    /* \"#utility.yul\":8599:8618   */\n  lt\n    /* \"#utility.yul\":8596:8775   */\n  iszero\n  tag_156\n  jumpi\n    /* \"#utility.yul\":8669:8678   */\n  dup5\n    /* \"#utility.yul\":8664:8667   */\n  dup10\n    /* \"#utility.yul\":8660:8679   */\n  add\n    /* \"#utility.yul\":8654:8680   */\n  mload\n    /* \"#utility.yul\":8712:8760   */\n  tag_157\n    /* \"#utility.yul\":8754:8758   */\n  0x1f\n    /* \"#utility.yul\":8746:8752   */\n  dup10\n    /* \"#utility.yul\":8742:8759   */\n  and\n    /* \"#utility.yul\":8731:8740   */\n  dup3\n    /* \"#utility.yul\":8712:8760   */\n  tag_47\n  jump\t// in\ntag_157:\n    /* \"#utility.yul\":8704:8710   */\n  dup4\n    /* \"#utility.yul\":8697:8761   */\n  sstore\n    /* \"#utility.yul\":8619:8775   */\n  pop\n    /* \"#utility.yul\":8596:8775   */\ntag_156:\n    /* \"#utility.yul\":8821:8822   */\n  0x01\n    /* \"#utility.yul\":8817:8818   */\n  0x02\n    /* \"#utility.yul\":8809:8815   */\n  dup9\n    /* \"#utility.yul\":8805:8819   */\n  mul\n    /* \"#utility.yul\":8801:8823   */\n  add\n    /* \"#utility.yul\":8795:8799   */\n  dup9\n    /* \"#utility.yul\":8788:8824   */\n  sstore\n    /* \"#utility.yul\":8223:8834   */\n  pop\n  pop\n  pop\n    /* \"#utility.yul\":8186:9073   */\ntag_148:\n  pop\n    /* \"#utility.yul\":7776:9079   */\n  pop\n  pop\n  pop\n    /* \"#utility.yul\":7684:9079   */\n  pop\n  pop\n  jump\t// out\n    /* \"contracts/MyCantract.sol\":58:724  contract MyCantract {... */\ntag_8:\n  dataSize(sub_0)\n  dup1\n  dataOffset(sub_0)\n  0x00\n  codecopy\n  0x00\n  return\nstop\n\nsub_0: assembly {\n        /* \"contracts/MyCantract.sol\":58:724  contract MyCantract {... */\n      mstore(0x40, 0x80)\n      callvalue\n      dup1\n      iszero\n      tag_1\n      jumpi\n      0x00\n      dup1\n      revert\n    tag_1:\n      pop\n      jumpi(tag_2, lt(calldatasize, 0x04))\n      shr(0xe0, calldataload(0x00))\n      dup1\n      0x3bc5de30\n      eq\n      tag_3\n      jumpi\n      dup1\n      0x49a0c808\n      eq\n      tag_4\n      jumpi\n    tag_2:\n      0x00\n      dup1\n      revert\n        /* \"contracts/MyCantract.sol\":266:499  function getData()... */\n    tag_3:\n      tag_5\n      tag_6\n      jump\t// in\n    tag_5:\n      mload(0x40)\n      tag_7\n      swap4\n      swap3\n      swap2\n      swap1\n      tag_8\n      jump\t// in\n    tag_7:\n      mload(0x40)\n      dup1\n      swap2\n      sub\n      swap1\n      return\n        /* \"contracts/MyCantract.sol\":505:722  function setData(... */\n    tag_4:\n      tag_9\n      0x04\n      dup1\n      calldatasize\n      sub\n      dup2\n      add\n      swap1\n      tag_10\n      swap2\n      swap1\n      tag_11\n      jump\t// in\n    tag_10:\n      tag_12\n      jump\t// in\n    tag_9:\n      mload(0x40)\n      tag_13\n      swap2\n      swap1\n      tag_14\n      jump\t// in\n    tag_13:\n      mload(0x40)\n      dup1\n      swap2\n      sub\n      swap1\n      return\n        /* \"contracts/MyCantract.sol\":266:499  function getData()... */\n    tag_6:\n        /* \"contracts/MyCantract.sol\":344:363  string memory _name */\n      0x60\n        /* \"contracts/MyCantract.sol\":377:389  uint256 _age */\n      0x00\n        /* \"contracts/MyCantract.sol\":403:416  bool _married */\n      dup1\n        /* \"contracts/MyCantract.sol\":440:444  name */\n      0x00\n        /* \"contracts/MyCantract.sol\":432:444  _name = name */\n      dup1\n      sload\n      tag_16\n      swap1\n      tag_17\n      jump\t// in\n    tag_16:\n      dup1\n      0x1f\n      add\n      0x20\n      dup1\n      swap2\n      div\n      mul\n      0x20\n      add\n      mload(0x40)\n      swap1\n      dup2\n      add\n      0x40\n      mstore\n      dup1\n      swap3\n      swap2\n      swap1\n      dup2\n      dup2\n      mstore\n      0x20\n      add\n      dup3\n      dup1\n      sload\n      tag_18\n      swap1\n      tag_17\n      jump\t// in\n    tag_18:\n      dup1\n      iszero\n      tag_19\n      jumpi\n      dup1\n      0x1f\n      lt\n      tag_20\n      jumpi\n      0x0100\n      dup1\n      dup4\n      sload\n      div\n      mul\n      dup4\n      mstore\n      swap2\n      0x20\n      add\n      swap2\n      jump(tag_19)\n    tag_20:\n      dup3\n      add\n      swap2\n      swap1\n      0x00\n      mstore\n      keccak256(0x00, 0x20)\n      swap1\n    tag_21:\n      dup2\n      sload\n      dup2\n      mstore\n      swap1\n      0x01\n      add\n      swap1\n      0x20\n      add\n      dup1\n      dup4\n      gt\n      tag_21\n      jumpi\n      dup3\n      swap1\n      sub\n      0x1f\n      and\n      dup3\n      add\n      swap2\n    tag_19:\n      pop\n      pop\n      pop\n      pop\n      pop\n      swap3\n      pop\n        /* \"contracts/MyCantract.sol\":461:464  age */\n      sload(0x01)\n        /* \"contracts/MyCantract.sol\":454:464  _age = age */\n      swap2\n      pop\n        /* \"contracts/MyCantract.sol\":485:492  married */\n      0x02\n      0x00\n      swap1\n      sload\n      swap1\n      0x0100\n      exp\n      swap1\n      div\n      0xff\n      and\n        /* \"contracts/MyCantract.sol\":474:492  _married = married */\n      swap1\n      pop\n        /* \"contracts/MyCantract.sol\":266:499  function getData()... */\n      swap1\n      swap2\n      swap3\n      jump\t// out\n        /* \"contracts/MyCantract.sol\":505:722  function setData(... */\n    tag_12:\n        /* \"contracts/MyCantract.sol\":618:622  bool */\n      0x00\n        /* \"contracts/MyCantract.sol\":641:646  _name */\n      dup4\n        /* \"contracts/MyCantract.sol\":634:638  name */\n      0x00\n        /* \"contracts/MyCantract.sol\":634:646  name = _name */\n      swap1\n      dup2\n      tag_23\n      swap2\n      swap1\n      tag_24\n      jump\t// in\n    tag_23:\n      pop\n        /* \"contracts/MyCantract.sol\":662:666  _age */\n      dup3\n        /* \"contracts/MyCantract.sol\":656:659  age */\n      0x01\n        /* \"contracts/MyCantract.sol\":656:666  age = _age */\n      dup2\n      swap1\n      sstore\n      pop\n        /* \"contracts/MyCantract.sol\":686:694  _married */\n      dup2\n        /* \"contracts/MyCantract.sol\":676:683  married */\n      0x02\n      0x00\n        /* \"contracts/MyCantract.sol\":676:694  married = _married */\n      0x0100\n      exp\n      dup2\n      sload\n      dup2\n      0xff\n      mul\n      not\n      and\n      swap1\n      dup4\n      iszero\n      iszero\n      mul\n      or\n      swap1\n      sstore\n      pop\n        /* \"contracts/MyCantract.sol\":711:715  true */\n      0x01\n        /* \"contracts/MyCantract.sol\":704:715  return true */\n      swap1\n      pop\n        /* \"contracts/MyCantract.sol\":505:722  function setData(... */\n      swap4\n      swap3\n      pop\n      pop\n      pop\n      jump\t// out\n        /* \"#utility.yul\":7:106   */\n    tag_25:\n        /* \"#utility.yul\":59:65   */\n      0x00\n        /* \"#utility.yul\":93:98   */\n      dup2\n        /* \"#utility.yul\":87:99   */\n      mload\n        /* \"#utility.yul\":77:99   */\n      swap1\n      pop\n        /* \"#utility.yul\":7:106   */\n      swap2\n      swap1\n      pop\n      jump\t// out\n        /* \"#utility.yul\":112:281   */\n    tag_26:\n        /* \"#utility.yul\":196:207   */\n      0x00\n        /* \"#utility.yul\":230:236   */\n      dup3\n        /* \"#utility.yul\":225:228   */\n      dup3\n        /* \"#utility.yul\":218:237   */\n      mstore\n        /* \"#utility.yul\":270:274   */\n      0x20\n        /* \"#utility.yul\":265:268   */\n      dup3\n        /* \"#utility.yul\":261:275   */\n      add\n        /* \"#utility.yul\":246:275   */\n      swap1\n      pop\n        /* \"#utility.yul\":112:281   */\n      swap3\n      swap2\n      pop\n      pop\n      jump\t// out\n        /* \"#utility.yul\":287:426   */\n    tag_27:\n        /* \"#utility.yul\":376:382   */\n      dup3\n        /* \"#utility.yul\":371:374   */\n      dup2\n        /* \"#utility.yul\":366:369   */\n      dup4\n        /* \"#utility.yul\":360:383   */\n      mcopy\n        /* \"#utility.yul\":417:418   */\n      0x00\n        /* \"#utility.yul\":408:414   */\n      dup4\n        /* \"#utility.yul\":403:406   */\n      dup4\n        /* \"#utility.yul\":399:415   */\n      add\n        /* \"#utility.yul\":392:419   */\n      mstore\n        /* \"#utility.yul\":287:426   */\n      pop\n      pop\n      pop\n      jump\t// out\n        /* \"#utility.yul\":432:534   */\n    tag_28:\n        /* \"#utility.yul\":473:479   */\n      0x00\n        /* \"#utility.yul\":524:526   */\n      0x1f\n        /* \"#utility.yul\":520:527   */\n      not\n        /* \"#utility.yul\":515:517   */\n      0x1f\n        /* \"#utility.yul\":508:513   */\n      dup4\n        /* \"#utility.yul\":504:518   */\n      add\n        /* \"#utility.yul\":500:528   */\n      and\n        /* \"#utility.yul\":490:528   */\n      swap1\n      pop\n        /* \"#utility.yul\":432:534   */\n      swap2\n      swap1\n      pop\n      jump\t// out\n        /* \"#utility.yul\":540:917   */\n    tag_29:\n        /* \"#utility.yul\":628:631   */\n      0x00\n        /* \"#utility.yul\":656:695   */\n      tag_72\n        /* \"#utility.yul\":689:694   */\n      dup3\n        /* \"#utility.yul\":656:695   */\n      tag_25\n      jump\t// in\n    tag_72:\n        /* \"#utility.yul\":711:782   */\n      tag_73\n        /* \"#utility.yul\":775:781   */\n      dup2\n        /* \"#utility.yul\":770:773   */\n      dup6\n        /* \"#utility.yul\":711:782   */\n      tag_26\n      jump\t// in\n    tag_73:\n        /* \"#utility.yul\":704:782   */\n      swap4\n      pop\n        /* \"#utility.yul\":791:856   */\n      tag_74\n        /* \"#utility.yul\":849:855   */\n      dup2\n        /* \"#utility.yul\":844:847   */\n      dup6\n        /* \"#utility.yul\":837:841   */\n      0x20\n        /* \"#utility.yul\":830:835   */\n      dup7\n        /* \"#utility.yul\":826:842   */\n      add\n        /* \"#utility.yul\":791:856   */\n      tag_27\n      jump\t// in\n    tag_74:\n        /* \"#utility.yul\":881:910   */\n      tag_75\n        /* \"#utility.yul\":903:909   */\n      dup2\n        /* \"#utility.yul\":881:910   */\n      tag_28\n      jump\t// in\n    tag_75:\n        /* \"#utility.yul\":876:879   */\n      dup5\n        /* \"#utility.yul\":872:911   */\n      add\n        /* \"#utility.yul\":865:911   */\n      swap2\n      pop\n        /* \"#utility.yul\":632:917   */\n      pop\n        /* \"#utility.yul\":540:917   */\n      swap3\n      swap2\n      pop\n      pop\n      jump\t// out\n        /* \"#utility.yul\":923:1000   */\n    tag_30:\n        /* \"#utility.yul\":960:967   */\n      0x00\n        /* \"#utility.yul\":989:994   */\n      dup2\n        /* \"#utility.yul\":978:994   */\n      swap1\n      pop\n        /* \"#utility.yul\":923:1000   */\n      swap2\n      swap1\n      pop\n      jump\t// out\n        /* \"#utility.yul\":1006:1124   */\n    tag_31:\n        /* \"#utility.yul\":1093:1117   */\n      tag_78\n        /* \"#utility.yul\":1111:1116   */\n      dup2\n        /* \"#utility.yul\":1093:1117   */\n      tag_30\n      jump\t// in\n    tag_78:\n        /* \"#utility.yul\":1088:1091   */\n      dup3\n        /* \"#utility.yul\":1081:1118   */\n      mstore\n        /* \"#utility.yul\":1006:1124   */\n      pop\n      pop\n      jump\t// out\n        /* \"#utility.yul\":1130:1220   */\n    tag_32:\n        /* \"#utility.yul\":1164:1171   */\n      0x00\n        /* \"#utility.yul\":1207:1212   */\n      dup2\n        /* \"#utility.yul\":1200:1213   */\n      iszero\n        /* \"#utility.yul\":1193:1214   */\n      iszero\n        /* \"#utility.yul\":1182:1214   */\n      swap1\n      pop\n        /* \"#utility.yul\":1130:1220   */\n      swap2\n      swap1\n      pop\n      jump\t// out\n        /* \"#utility.yul\":1226:1335   */\n    tag_33:\n        /* \"#utility.yul\":1307:1328   */\n      tag_81\n        /* \"#utility.yul\":1322:1327   */\n      dup2\n        /* \"#utility.yul\":1307:1328   */\n      tag_32\n      jump\t// in\n    tag_81:\n        /* \"#utility.yul\":1302:1305   */\n      dup3\n        /* \"#utility.yul\":1295:1329   */\n      mstore\n        /* \"#utility.yul\":1226:1335   */\n      pop\n      pop\n      jump\t// out\n        /* \"#utility.yul\":1341:1862   */\n    tag_8:\n        /* \"#utility.yul\":1504:1508   */\n      0x00\n        /* \"#utility.yul\":1542:1544   */\n      0x60\n        /* \"#utility.yul\":1531:1540   */\n      dup3\n        /* \"#utility.yul\":1527:1545   */\n      add\n        /* \"#utility.yul\":1519:1545   */\n      swap1\n      pop\n        /* \"#utility.yul\":1591:1600   */\n      dup2\n        /* \"#utility.yul\":1585:1589   */\n      dup2\n        /* \"#utility.yul\":1581:1601   */\n      sub\n        /* \"#utility.yul\":1577:1578   */\n      0x00\n        /* \"#utility.yul\":1566:1575   */\n      dup4\n        /* \"#utility.yul\":1562:1579   */\n      add\n        /* \"#utility.yul\":1555:1602   */\n      mstore\n        /* \"#utility.yul\":1619:1697   */\n      tag_83\n        /* \"#utility.yul\":1692:1696   */\n      dup2\n        /* \"#utility.yul\":1683:1689   */\n      dup7\n        /* \"#utility.yul\":1619:1697   */\n      tag_29\n      jump\t// in\n    tag_83:\n        /* \"#utility.yul\":1611:1697   */\n      swap1\n      pop\n        /* \"#utility.yul\":1707:1779   */\n      tag_84\n        /* \"#utility.yul\":1775:1777   */\n      0x20\n        /* \"#utility.yul\":1764:1773   */\n      dup4\n        /* \"#utility.yul\":1760:1778   */\n      add\n        /* \"#utility.yul\":1751:1757   */\n      dup6\n        /* \"#utility.yul\":1707:1779   */\n      tag_31\n      jump\t// in\n    tag_84:\n        /* \"#utility.yul\":1789:1855   */\n      tag_85\n        /* \"#utility.yul\":1851:1853   */\n      0x40\n        /* \"#utility.yul\":1840:1849   */\n      dup4\n        /* \"#utility.yul\":1836:1854   */\n      add\n        /* \"#utility.yul\":1827:1833   */\n      dup5\n        /* \"#utility.yul\":1789:1855   */\n      tag_33\n      jump\t// in\n    tag_85:\n        /* \"#utility.yul\":1341:1862   */\n      swap5\n      swap4\n      pop\n      pop\n      pop\n      pop\n      jump\t// out\n        /* \"#utility.yul\":1868:1943   */\n    tag_34:\n        /* \"#utility.yul\":1901:1907   */\n      0x00\n        /* \"#utility.yul\":1934:1936   */\n      0x40\n        /* \"#utility.yul\":1928:1937   */\n      mload\n        /* \"#utility.yul\":1918:1937   */\n      swap1\n      pop\n        /* \"#utility.yul\":1868:1943   */\n      swap1\n      jump\t// out\n        /* \"#utility.yul\":1949:2066   */\n    tag_35:\n        /* \"#utility.yul\":2058:2059   */\n      0x00\n        /* \"#utility.yul\":2055:2056   */\n      dup1\n        /* \"#utility.yul\":2048:2060   */\n      revert\n        /* \"#utility.yul\":2072:2189   */\n    tag_36:\n        /* \"#utility.yul\":2181:2182   */\n      0x00\n        /* \"#utility.yul\":2178:2179   */\n      dup1\n        /* \"#utility.yul\":2171:2183   */\n      revert\n        /* \"#utility.yul\":2195:2312   */\n    tag_37:\n        /* \"#utility.yul\":2304:2305   */\n      0x00\n        /* \"#utility.yul\":2301:2302   */\n      dup1\n        /* \"#utility.yul\":2294:2306   */\n      revert\n        /* \"#utility.yul\":2318:2435   */\n    tag_38:\n        /* \"#utility.yul\":2427:2428   */\n      0x00\n        /* \"#utility.yul\":2424:2425   */\n      dup1\n        /* \"#utility.yul\":2417:2429   */\n      revert\n        /* \"#utility.yul\":2441:2621   */\n    tag_39:\n        /* \"#utility.yul\":2489:2566   */\n      0x4e487b7100000000000000000000000000000000000000000000000000000000\n        /* \"#utility.yul\":2486:2487   */\n      0x00\n        /* \"#utility.yul\":2479:2567   */\n      mstore\n        /* \"#utility.yul\":2586:2590   */\n      0x41\n        /* \"#utility.yul\":2583:2584   */\n      0x04\n        /* \"#utility.yul\":2576:2591   */\n      mstore\n        /* \"#utility.yul\":2610:2614   */\n      0x24\n        /* \"#utility.yul\":2607:2608   */\n      0x00\n        /* \"#utility.yul\":2600:2615   */\n      revert\n        /* \"#utility.yul\":2627:2908   */\n    tag_40:\n        /* \"#utility.yul\":2710:2737   */\n      tag_93\n        /* \"#utility.yul\":2732:2736   */\n      dup3\n        /* \"#utility.yul\":2710:2737   */\n      tag_28\n      jump\t// in\n    tag_93:\n        /* \"#utility.yul\":2702:2708   */\n      dup2\n        /* \"#utility.yul\":2698:2738   */\n      add\n        /* \"#utility.yul\":2840:2846   */\n      dup2\n        /* \"#utility.yul\":2828:2838   */\n      dup2\n        /* \"#utility.yul\":2825:2847   */\n      lt\n        /* \"#utility.yul\":2804:2822   */\n      0xffffffffffffffff\n        /* \"#utility.yul\":2792:2802   */\n      dup3\n        /* \"#utility.yul\":2789:2823   */\n      gt\n        /* \"#utility.yul\":2786:2848   */\n      or\n        /* \"#utility.yul\":2783:2871   */\n      iszero\n      tag_94\n      jumpi\n        /* \"#utility.yul\":2851:2869   */\n      tag_95\n      tag_39\n      jump\t// in\n    tag_95:\n        /* \"#utility.yul\":2783:2871   */\n    tag_94:\n        /* \"#utility.yul\":2891:2901   */\n      dup1\n        /* \"#utility.yul\":2887:2889   */\n      0x40\n        /* \"#utility.yul\":2880:2902   */\n      mstore\n        /* \"#utility.yul\":2670:2908   */\n      pop\n        /* \"#utility.yul\":2627:2908   */\n      pop\n      pop\n      jump\t// out\n        /* \"#utility.yul\":2914:3043   */\n    tag_41:\n        /* \"#utility.yul\":2948:2954   */\n      0x00\n        /* \"#utility.yul\":2975:2995   */\n      tag_97\n      tag_34\n      jump\t// in\n    tag_97:\n        /* \"#utility.yul\":2965:2995   */\n      swap1\n      pop\n        /* \"#utility.yul\":3004:3037   */\n      tag_98\n        /* \"#utility.yul\":3032:3036   */\n      dup3\n        /* \"#utility.yul\":3024:3030   */\n      dup3\n        /* \"#utility.yul\":3004:3037   */\n      tag_40\n      jump\t// in\n    tag_98:\n        /* \"#utility.yul\":2914:3043   */\n      swap2\n      swap1\n      pop\n      jump\t// out\n        /* \"#utility.yul\":3049:3357   */\n    tag_42:\n        /* \"#utility.yul\":3111:3115   */\n      0x00\n        /* \"#utility.yul\":3201:3219   */\n      0xffffffffffffffff\n        /* \"#utility.yul\":3193:3199   */\n      dup3\n        /* \"#utility.yul\":3190:3220   */\n      gt\n        /* \"#utility.yul\":3187:3243   */\n      iszero\n      tag_100\n      jumpi\n        /* \"#utility.yul\":3223:3241   */\n      tag_101\n      tag_39\n      jump\t// in\n    tag_101:\n        /* \"#utility.yul\":3187:3243   */\n    tag_100:\n        /* \"#utility.yul\":3261:3290   */\n      tag_102\n        /* \"#utility.yul\":3283:3289   */\n      dup3\n        /* \"#utility.yul\":3261:3290   */\n      tag_28\n      jump\t// in\n    tag_102:\n        /* \"#utility.yul\":3253:3290   */\n      swap1\n      pop\n        /* \"#utility.yul\":3345:3349   */\n      0x20\n        /* \"#utility.yul\":3339:3343   */\n      dup2\n        /* \"#utility.yul\":3335:3350   */\n      add\n        /* \"#utility.yul\":3327:3350   */\n      swap1\n      pop\n        /* \"#utility.yul\":3049:3357   */\n      swap2\n      swap1\n      pop\n      jump\t// out\n        /* \"#utility.yul\":3363:3511   */\n    tag_43:\n        /* \"#utility.yul\":3461:3467   */\n      dup3\n        /* \"#utility.yul\":3456:3459   */\n      dup2\n        /* \"#utility.yul\":3451:3454   */\n      dup4\n        /* \"#utility.yul\":3438:3468   */\n      calldatacopy\n        /* \"#utility.yul\":3502:3503   */\n      0x00\n        /* \"#utility.yul\":3493:3499   */\n      dup4\n        /* \"#utility.yul\":3488:3491   */\n      dup4\n        /* \"#utility.yul\":3484:3500   */\n      add\n        /* \"#utility.yul\":3477:3504   */\n      mstore\n        /* \"#utility.yul\":3363:3511   */\n      pop\n      pop\n      pop\n      jump\t// out\n        /* \"#utility.yul\":3517:3942   */\n    tag_44:\n        /* \"#utility.yul\":3595:3600   */\n      0x00\n        /* \"#utility.yul\":3620:3686   */\n      tag_105\n        /* \"#utility.yul\":3636:3685   */\n      tag_106\n        /* \"#utility.yul\":3678:3684   */\n      dup5\n        /* \"#utility.yul\":3636:3685   */\n      tag_42\n      jump\t// in\n    tag_106:\n        /* \"#utility.yul\":3620:3686   */\n      tag_41\n      jump\t// in\n    tag_105:\n        /* \"#utility.yul\":3611:3686   */\n      swap1\n      pop\n        /* \"#utility.yul\":3709:3715   */\n      dup3\n        /* \"#utility.yul\":3702:3707   */\n      dup2\n        /* \"#utility.yul\":3695:3716   */\n      mstore\n        /* \"#utility.yul\":3747:3751   */\n      0x20\n        /* \"#utility.yul\":3740:3745   */\n      dup2\n        /* \"#utility.yul\":3736:3752   */\n      add\n        /* \"#utility.yul\":3785:3788   */\n      dup5\n        /* \"#utility.yul\":3776:3782   */\n      dup5\n        /* \"#utility.yul\":3771:3774   */\n      dup5\n        /* \"#utility.yul\":3767:3783   */\n      add\n        /* \"#utility.yul\":3764:3789   */\n      gt\n        /* \"#utility.yul\":3761:3873   */\n      iszero\n      tag_107\n      jumpi\n        /* \"#utility.yul\":3792:3871   */\n      tag_108\n      tag_38\n      jump\t// in\n    tag_108:\n        /* \"#utility.yul\":3761:3873   */\n    tag_107:\n        /* \"#utility.yul\":3882:3936   */\n      tag_109\n        /* \"#utility.yul\":3929:3935   */\n      dup5\n        /* \"#utility.yul\":3924:3927   */\n      dup3\n        /* \"#utility.yul\":3919:3922   */\n      dup6\n        /* \"#utility.yul\":3882:3936   */\n      tag_43\n      jump\t// in\n    tag_109:\n        /* \"#utility.yul\":3601:3942   */\n      pop\n        /* \"#utility.yul\":3517:3942   */\n      swap4\n      swap3\n      pop\n      pop\n      pop\n      jump\t// out\n        /* \"#utility.yul\":3962:4302   */\n    tag_45:\n        /* \"#utility.yul\":4018:4023   */\n      0x00\n        /* \"#utility.yul\":4067:4070   */\n      dup3\n        /* \"#utility.yul\":4060:4064   */\n      0x1f\n        /* \"#utility.yul\":4052:4058   */\n      dup4\n        /* \"#utility.yul\":4048:4065   */\n      add\n        /* \"#utility.yul\":4044:4071   */\n      slt\n        /* \"#utility.yul\":4034:4156   */\n      tag_111\n      jumpi\n        /* \"#utility.yul\":4075:4154   */\n      tag_112\n      tag_37\n      jump\t// in\n    tag_112:\n        /* \"#utility.yul\":4034:4156   */\n    tag_111:\n        /* \"#utility.yul\":4192:4198   */\n      dup2\n        /* \"#utility.yul\":4179:4199   */\n      calldataload\n        /* \"#utility.yul\":4217:4296   */\n      tag_113\n        /* \"#utility.yul\":4292:4295   */\n      dup5\n        /* \"#utility.yul\":4284:4290   */\n      dup3\n        /* \"#utility.yul\":4277:4281   */\n      0x20\n        /* \"#utility.yul\":4269:4275   */\n      dup7\n        /* \"#utility.yul\":4265:4282   */\n      add\n        /* \"#utility.yul\":4217:4296   */\n      tag_44\n      jump\t// in\n    tag_113:\n        /* \"#utility.yul\":4208:4296   */\n      swap2\n      pop\n        /* \"#utility.yul\":4024:4302   */\n      pop\n        /* \"#utility.yul\":3962:4302   */\n      swap3\n      swap2\n      pop\n      pop\n      jump\t// out\n        /* \"#utility.yul\":4308:4430   */\n    tag_46:\n        /* \"#utility.yul\":4381:4405   */\n      tag_115\n        /* \"#utility.yul\":4399:4404   */\n      dup2\n        /* \"#utility.yul\":4381:4405   */\n      tag_30\n      jump\t// in\n    tag_115:\n        /* \"#utility.yul\":4374:4379   */\n      dup2\n        /* \"#utility.yul\":4371:4406   */\n      eq\n        /* \"#utility.yul\":4361:4424   */\n      tag_116\n      jumpi\n        /* \"#utility.yul\":4420:4421   */\n      0x00\n        /* \"#utility.yul\":4417:4418   */\n      dup1\n        /* \"#utility.yul\":4410:4422   */\n      revert\n        /* \"#utility.yul\":4361:4424   */\n    tag_116:\n        /* \"#utility.yul\":4308:4430   */\n      pop\n      jump\t// out\n        /* \"#utility.yul\":4436:4575   */\n    tag_47:\n        /* \"#utility.yul\":4482:4487   */\n      0x00\n        /* \"#utility.yul\":4520:4526   */\n      dup2\n        /* \"#utility.yul\":4507:4527   */\n      calldataload\n        /* \"#utility.yul\":4498:4527   */\n      swap1\n      pop\n        /* \"#utility.yul\":4536:4569   */\n      tag_118\n        /* \"#utility.yul\":4563:4568   */\n      dup2\n        /* \"#utility.yul\":4536:4569   */\n      tag_46\n      jump\t// in\n    tag_118:\n        /* \"#utility.yul\":4436:4575   */\n      swap3\n      swap2\n      pop\n      pop\n      jump\t// out\n        /* \"#utility.yul\":4581:4697   */\n    tag_48:\n        /* \"#utility.yul\":4651:4672   */\n      tag_120\n        /* \"#utility.yul\":4666:4671   */\n      dup2\n        /* \"#utility.yul\":4651:4672   */\n      tag_32\n      jump\t// in\n    tag_120:\n        /* \"#utility.yul\":4644:4649   */\n      dup2\n        /* \"#utility.yul\":4641:4673   */\n      eq\n        /* \"#utility.yul\":4631:4691   */\n      tag_121\n      jumpi\n        /* \"#utility.yul\":4687:4688   */\n      0x00\n        /* \"#utility.yul\":4684:4685   */\n      dup1\n        /* \"#utility.yul\":4677:4689   */\n      revert\n        /* \"#utility.yul\":4631:4691   */\n    tag_121:\n        /* \"#utility.yul\":4581:4697   */\n      pop\n      jump\t// out\n        /* \"#utility.yul\":4703:4836   */\n    tag_49:\n        /* \"#utility.yul\":4746:4751   */\n      0x00\n        /* \"#utility.yul\":4784:4790   */\n      dup2\n        /* \"#utility.yul\":4771:4791   */\n      calldataload\n        /* \"#utility.yul\":4762:4791   */\n      swap1\n      pop\n        /* \"#utility.yul\":4800:4830   */\n      tag_123\n        /* \"#utility.yul\":4824:4829   */\n      dup2\n        /* \"#utility.yul\":4800:4830   */\n      tag_48\n      jump\t// in\n    tag_123:\n        /* \"#utility.yul\":4703:4836   */\n      swap3\n      swap2\n      pop\n      pop\n      jump\t// out\n        /* \"#utility.yul\":4842:5635   */\n    tag_11:\n        /* \"#utility.yul\":4926:4932   */\n      0x00\n        /* \"#utility.yul\":4934:4940   */\n      dup1\n        /* \"#utility.yul\":4942:4948   */\n      0x00\n        /* \"#utility.yul\":4991:4993   */\n      0x60\n        /* \"#utility.yul\":4979:4988   */\n      dup5\n        /* \"#utility.yul\":4970:4977   */\n      dup7\n        /* \"#utility.yul\":4966:4989   */\n      sub\n        /* \"#utility.yul\":4962:4994   */\n      slt\n        /* \"#utility.yul\":4959:5078   */\n      iszero\n      tag_125\n      jumpi\n        /* \"#utility.yul\":4997:5076   */\n      tag_126\n      tag_35\n      jump\t// in\n    tag_126:\n        /* \"#utility.yul\":4959:5078   */\n    tag_125:\n        /* \"#utility.yul\":5145:5146   */\n      0x00\n        /* \"#utility.yul\":5134:5143   */\n      dup5\n        /* \"#utility.yul\":5130:5147   */\n      add\n        /* \"#utility.yul\":5117:5148   */\n      calldataload\n        /* \"#utility.yul\":5175:5193   */\n      0xffffffffffffffff\n        /* \"#utility.yul\":5167:5173   */\n      dup2\n        /* \"#utility.yul\":5164:5194   */\n      gt\n        /* \"#utility.yul\":5161:5278   */\n      iszero\n      tag_127\n      jumpi\n        /* \"#utility.yul\":5197:5276   */\n      tag_128\n      tag_36\n      jump\t// in\n    tag_128:\n        /* \"#utility.yul\":5161:5278   */\n    tag_127:\n        /* \"#utility.yul\":5302:5365   */\n      tag_129\n        /* \"#utility.yul\":5357:5364   */\n      dup7\n        /* \"#utility.yul\":5348:5354   */\n      dup3\n        /* \"#utility.yul\":5337:5346   */\n      dup8\n        /* \"#utility.yul\":5333:5355   */\n      add\n        /* \"#utility.yul\":5302:5365   */\n      tag_45\n      jump\t// in\n    tag_129:\n        /* \"#utility.yul\":5292:5365   */\n      swap4\n      pop\n        /* \"#utility.yul\":5088:5375   */\n      pop\n        /* \"#utility.yul\":5414:5416   */\n      0x20\n        /* \"#utility.yul\":5440:5493   */\n      tag_130\n        /* \"#utility.yul\":5485:5492   */\n      dup7\n        /* \"#utility.yul\":5476:5482   */\n      dup3\n        /* \"#utility.yul\":5465:5474   */\n      dup8\n        /* \"#utility.yul\":5461:5483   */\n      add\n        /* \"#utility.yul\":5440:5493   */\n      tag_47\n      jump\t// in\n    tag_130:\n        /* \"#utility.yul\":5430:5493   */\n      swap3\n      pop\n        /* \"#utility.yul\":5385:5503   */\n      pop\n        /* \"#utility.yul\":5542:5544   */\n      0x40\n        /* \"#utility.yul\":5568:5618   */\n      tag_131\n        /* \"#utility.yul\":5610:5617   */\n      dup7\n        /* \"#utility.yul\":5601:5607   */\n      dup3\n        /* \"#utility.yul\":5590:5599   */\n      dup8\n        /* \"#utility.yul\":5586:5608   */\n      add\n        /* \"#utility.yul\":5568:5618   */\n      tag_49\n      jump\t// in\n    tag_131:\n        /* \"#utility.yul\":5558:5618   */\n      swap2\n      pop\n        /* \"#utility.yul\":5513:5628   */\n      pop\n        /* \"#utility.yul\":4842:5635   */\n      swap3\n      pop\n      swap3\n      pop\n      swap3\n      jump\t// out\n        /* \"#utility.yul\":5641:5851   */\n    tag_14:\n        /* \"#utility.yul\":5728:5732   */\n      0x00\n        /* \"#utility.yul\":5766:5768   */\n      0x20\n        /* \"#utility.yul\":5755:5764   */\n      dup3\n        /* \"#utility.yul\":5751:5769   */\n      add\n        /* \"#utility.yul\":5743:5769   */\n      swap1\n      pop\n        /* \"#utility.yul\":5779:5844   */\n      tag_133\n        /* \"#utility.yul\":5841:5842   */\n      0x00\n        /* \"#utility.yul\":5830:5839   */\n      dup4\n        /* \"#utility.yul\":5826:5843   */\n      add\n        /* \"#utility.yul\":5817:5823   */\n      dup5\n        /* \"#utility.yul\":5779:5844   */\n      tag_33\n      jump\t// in\n    tag_133:\n        /* \"#utility.yul\":5641:5851   */\n      swap3\n      swap2\n      pop\n      pop\n      jump\t// out\n        /* \"#utility.yul\":5857:6037   */\n    tag_50:\n        /* \"#utility.yul\":5905:5982   */\n      0x4e487b7100000000000000000000000000000000000000000000000000000000\n        /* \"#utility.yul\":5902:5903   */\n      0x00\n        /* \"#utility.yul\":5895:5983   */\n      mstore\n        /* \"#utility.yul\":6002:6006   */\n      0x22\n        /* \"#utility.yul\":5999:6000   */\n      0x04\n        /* \"#utility.yul\":5992:6007   */\n      mstore\n        /* \"#utility.yul\":6026:6030   */\n      0x24\n        /* \"#utility.yul\":6023:6024   */\n      0x00\n        /* \"#utility.yul\":6016:6031   */\n      revert\n        /* \"#utility.yul\":6043:6363   */\n    tag_17:\n        /* \"#utility.yul\":6087:6093   */\n      0x00\n        /* \"#utility.yul\":6124:6125   */\n      0x02\n        /* \"#utility.yul\":6118:6122   */\n      dup3\n        /* \"#utility.yul\":6114:6126   */\n      div\n        /* \"#utility.yul\":6104:6126   */\n      swap1\n      pop\n        /* \"#utility.yul\":6171:6172   */\n      0x01\n        /* \"#utility.yul\":6165:6169   */\n      dup3\n        /* \"#utility.yul\":6161:6173   */\n      and\n        /* \"#utility.yul\":6192:6210   */\n      dup1\n        /* \"#utility.yul\":6182:6263   */\n      tag_136\n      jumpi\n        /* \"#utility.yul\":6248:6252   */\n      0x7f\n        /* \"#utility.yul\":6240:6246   */\n      dup3\n        /* \"#utility.yul\":6236:6253   */\n      and\n        /* \"#utility.yul\":6226:6253   */\n      swap2\n      pop\n        /* \"#utility.yul\":6182:6263   */\n    tag_136:\n        /* \"#utility.yul\":6310:6312   */\n      0x20\n        /* \"#utility.yul\":6302:6308   */\n      dup3\n        /* \"#utility.yul\":6299:6313   */\n      lt\n        /* \"#utility.yul\":6279:6297   */\n      dup2\n        /* \"#utility.yul\":6276:6314   */\n      sub\n        /* \"#utility.yul\":6273:6357   */\n      tag_137\n      jumpi\n        /* \"#utility.yul\":6329:6347   */\n      tag_138\n      tag_50\n      jump\t// in\n    tag_138:\n        /* \"#utility.yul\":6273:6357   */\n    tag_137:\n        /* \"#utility.yul\":6094:6363   */\n      pop\n        /* \"#utility.yul\":6043:6363   */\n      swap2\n      swap1\n      pop\n      jump\t// out\n        /* \"#utility.yul\":6369:6510   */\n    tag_51:\n        /* \"#utility.yul\":6418:6422   */\n      0x00\n        /* \"#utility.yul\":6441:6444   */\n      dup2\n        /* \"#utility.yul\":6433:6444   */\n      swap1\n      pop\n        /* \"#utility.yul\":6464:6467   */\n      dup2\n        /* \"#utility.yul\":6461:6462   */\n      0x00\n        /* \"#utility.yul\":6454:6468   */\n      mstore\n        /* \"#utility.yul\":6498:6502   */\n      0x20\n        /* \"#utility.yul\":6495:6496   */\n      0x00\n        /* \"#utility.yul\":6485:6503   */\n      keccak256\n        /* \"#utility.yul\":6477:6503   */\n      swap1\n      pop\n        /* \"#utility.yul\":6369:6510   */\n      swap2\n      swap1\n      pop\n      jump\t// out\n        /* \"#utility.yul\":6516:6609   */\n    tag_52:\n        /* \"#utility.yul\":6553:6559   */\n      0x00\n        /* \"#utility.yul\":6600:6602   */\n      0x20\n        /* \"#utility.yul\":6595:6597   */\n      0x1f\n        /* \"#utility.yul\":6588:6593   */\n      dup4\n        /* \"#utility.yul\":6584:6598   */\n      add\n        /* \"#utility.yul\":6580:6603   */\n      div\n        /* \"#utility.yul\":6570:6603   */\n      swap1\n      pop\n        /* \"#utility.yul\":6516:6609   */\n      swap2\n      swap1\n      pop\n      jump\t// out\n        /* \"#utility.yul\":6615:6722   */\n    tag_53:\n        /* \"#utility.yul\":6659:6667   */\n      0x00\n        /* \"#utility.yul\":6709:6714   */\n      dup3\n        /* \"#utility.yul\":6703:6707   */\n      dup3\n        /* \"#utility.yul\":6699:6715   */\n      shl\n        /* \"#utility.yul\":6678:6715   */\n      swap1\n      pop\n        /* \"#utility.yul\":6615:6722   */\n      swap3\n      swap2\n      pop\n      pop\n      jump\t// out\n        /* \"#utility.yul\":6728:7121   */\n    tag_54:\n        /* \"#utility.yul\":6797:6803   */\n      0x00\n        /* \"#utility.yul\":6847:6848   */\n      0x08\n        /* \"#utility.yul\":6835:6845   */\n      dup4\n        /* \"#utility.yul\":6831:6849   */\n      mul\n        /* \"#utility.yul\":6870:6967   */\n      tag_143\n        /* \"#utility.yul\":6900:6966   */\n      0xffffffffffffffffffffffffffffffffffffffffffffffffffffffffffffffff\n        /* \"#utility.yul\":6889:6898   */\n      dup3\n        /* \"#utility.yul\":6870:6967   */\n      tag_53\n      jump\t// in\n    tag_143:\n        /* \"#utility.yul\":6988:7027   */\n      tag_144\n        /* \"#utility.yul\":7018:7026   */\n      dup7\n        /* \"#utility.yul\":7007:7016   */\n      dup4\n        /* \"#utility.yul\":6988:7027   */\n      tag_53\n      jump\t// in\n    tag_144:\n        /* \"#utility.yul\":6976:7027   */\n      swap6\n      pop\n        /* \"#utility.yul\":7060:7064   */\n      dup1\n        /* \"#utility.yul\":7056:7065   */\n      not\n        /* \"#utility.yul\":7049:7054   */\n      dup5\n        /* \"#utility.yul\":7045:7066   */\n      and\n        /* \"#utility.yul\":7036:7066   */\n      swap4\n      pop\n        /* \"#utility.yul\":7109:7113   */\n      dup1\n        /* \"#utility.yul\":7099:7107   */\n      dup7\n        /* \"#utility.yul\":7095:7114   */\n      and\n        /* \"#utility.yul\":7088:7093   */\n      dup5\n        /* \"#utility.yul\":7085:7115   */\n      or\n        /* \"#utility.yul\":7075:7115   */\n      swap3\n      pop\n        /* \"#utility.yul\":6804:7121   */\n      pop\n      pop\n        /* \"#utility.yul\":6728:7121   */\n      swap4\n      swap3\n      pop\n      pop\n      pop\n      jump\t// out\n        /* \"#utility.yul\":7127:7187   */\n    tag_55:\n        /* \"#utility.yul\":7155:7158   */\n      0x00\n        /* \"#utility.yul\":7176:7181   */\n      dup2\n        /* \"#utility.yul\":7169:7181   */\n      swap1\n      pop\n        /* \"#utility.yul\":7127:7187   */\n      swap2\n      swap1\n      pop\n      jump\t// out\n        /* \"#utility.yul\":7193:7335   */\n    tag_56:\n        /* \"#utility.yul\":7243:7252   */\n      0x00\n        /* \"#utility.yul\":7276:7329   */\n      tag_147\n        /* \"#utility.yul\":7294:7328   */\n      tag_148\n        /* \"#utility.yul\":7303:7327   */\n      tag_149\n        /* \"#utility.yul\":7321:7326   */\n      dup5\n        /* \"#utility.yul\":7303:7327   */\n      tag_30\n      jump\t// in\n    tag_149:\n        /* \"#utility.yul\":7294:7328   */\n      tag_55\n      jump\t// in\n    tag_148:\n        /* \"#utility.yul\":7276:7329   */\n      tag_30\n      jump\t// in\n    tag_147:\n        /* \"#utility.yul\":7263:7329   */\n      swap1\n      pop\n        /* \"#utility.yul\":7193:7335   */\n      swap2\n      swap1\n      pop\n      jump\t// out\n        /* \"#utility.yul\":7341:7416   */\n    tag_57:\n        /* \"#utility.yul\":7384:7387   */\n      0x00\n        /* \"#utility.yul\":7405:7410   */\n      dup2\n        /* \"#utility.yul\":7398:7410   */\n      swap1\n      pop\n        /* \"#utility.yul\":7341:7416   */\n      swap2\n      swap1\n      pop\n      jump\t// out\n        /* \"#utility.yul\":7422:7691   */\n    tag_58:\n        /* \"#utility.yul\":7532:7571   */\n      tag_152\n        /* \"#utility.yul\":7563:7570   */\n      dup4\n        /* \"#utility.yul\":7532:7571   */\n      tag_56\n      jump\t// in\n    tag_152:\n        /* \"#utility.yul\":7593:7684   */\n      tag_153\n        /* \"#utility.yul\":7642:7683   */\n      tag_154\n        /* \"#utility.yul\":7666:7682   */\n      dup3\n        /* \"#utility.yul\":7642:7683   */\n      tag_57\n      jump\t// in\n    tag_154:\n        /* \"#utility.yul\":7634:7640   */\n      dup5\n        /* \"#utility.yul\":7627:7631   */\n      dup5\n        /* \"#utility.yul\":7621:7632   */\n      sload\n        /* \"#utility.yul\":7593:7684   */\n      tag_54\n      jump\t// in\n    tag_153:\n        /* \"#utility.yul\":7587:7591   */\n      dup3\n        /* \"#utility.yul\":7580:7685   */\n      sstore\n        /* \"#utility.yul\":7498:7691   */\n      pop\n        /* \"#utility.yul\":7422:7691   */\n      pop\n      pop\n      pop\n      jump\t// out\n        /* \"#utility.yul\":7697:7770   */\n    tag_59:\n        /* \"#utility.yul\":7742:7745   */\n      0x00\n        /* \"#utility.yul\":7697:7770   */\n      swap1\n      jump\t// out\n        /* \"#utility.yul\":7776:7965   */\n    tag_60:\n        /* \"#utility.yul\":7853:7885   */\n      tag_157\n      tag_59\n      jump\t// in\n    tag_157:\n        /* \"#utility.yul\":7894:7959   */\n      tag_158\n        /* \"#utility.yul\":7952:7958   */\n      dup2\n        /* \"#utility.yul\":7944:7950   */\n      dup5\n        /* \"#utility.yul\":7938:7942   */\n      dup5\n        /* \"#utility.yul\":7894:7959   */\n      tag_58\n      jump\t// in\n    tag_158:\n        /* \"#utility.yul\":7829:7965   */\n      pop\n        /* \"#utility.yul\":7776:7965   */\n      pop\n      pop\n      jump\t// out\n        /* \"#utility.yul\":7971:8157   */\n    tag_61:\n        /* \"#utility.yul\":8031:8151   */\n    tag_160:\n        /* \"#utility.yul\":8048:8051   */\n      dup2\n        /* \"#utility.yul\":8041:8046   */\n      dup2\n        /* \"#utility.yul\":8038:8052   */\n      lt\n        /* \"#utility.yul\":8031:8151   */\n      iszero\n      tag_162\n      jumpi\n        /* \"#utility.yul\":8102:8141   */\n      tag_163\n        /* \"#utility.yul\":8139:8140   */\n      0x00\n        /* \"#utility.yul\":8132:8137   */\n      dup3\n        /* \"#utility.yul\":8102:8141   */\n      tag_60\n      jump\t// in\n    tag_163:\n        /* \"#utility.yul\":8075:8076   */\n      0x01\n        /* \"#utility.yul\":8068:8073   */\n      dup2\n        /* \"#utility.yul\":8064:8077   */\n      add\n        /* \"#utility.yul\":8055:8077   */\n      swap1\n      pop\n        /* \"#utility.yul\":8031:8151   */\n      jump(tag_160)\n    tag_162:\n        /* \"#utility.yul\":7971:8157   */\n      pop\n      pop\n      jump\t// out\n        /* \"#utility.yul\":8163:8706   */\n    tag_62:\n        /* \"#utility.yul\":8264:8266   */\n      0x1f\n        /* \"#utility.yul\":8259:8262   */\n      dup3\n        /* \"#utility.yul\":8256:8267   */\n      gt\n        /* \"#utility.yul\":8253:8699   */\n      iszero\n      tag_165\n      jumpi\n        /* \"#utility.yul\":8298:8336   */\n      tag_166\n        /* \"#utility.yul\":8330:8335   */\n      dup2\n        /* \"#utility.yul\":8298:8336   */\n      tag_51\n      jump\t// in\n    tag_166:\n        /* \"#utility.yul\":8382:8411   */\n      tag_167\n        /* \"#utility.yul\":8400:8410   */\n      dup5\n        /* \"#utility.yul\":8382:8411   */\n      tag_52\n      jump\t// in\n    tag_167:\n        /* \"#utility.yul\":8372:8380   */\n      dup2\n        /* \"#utility.yul\":8368:8412   */\n      add\n        /* \"#utility.yul\":8565:8567   */\n      0x20\n        /* \"#utility.yul\":8553:8563   */\n      dup6\n        /* \"#utility.yul\":8550:8568   */\n      lt\n        /* \"#utility.yul\":8547:8596   */\n      iszero\n      tag_168\n      jumpi\n        /* \"#utility.yul\":8586:8594   */\n      dup2\n        /* \"#utility.yul\":8571:8594   */\n      swap1\n      pop\n        /* \"#utility.yul\":8547:8596   */\n    tag_168:\n        /* \"#utility.yul\":8609:8689   */\n      tag_169\n        /* \"#utility.yul\":8665:8687   */\n      tag_170\n        /* \"#utility.yul\":8683:8686   */\n      dup6\n        /* \"#utility.yul\":8665:8687   */\n      tag_52\n      jump\t// in\n    tag_170:\n        /* \"#utility.yul\":8655:8663   */\n      dup4\n        /* \"#utility.yul\":8651:8688   */\n      add\n        /* \"#utility.yul\":8638:8649   */\n      dup3\n        /* \"#utility.yul\":8609:8689   */\n      tag_61\n      jump\t// in\n    tag_169:\n        /* \"#utility.yul\":8268:8699   */\n      pop\n      pop\n        /* \"#utility.yul\":8253:8699   */\n    tag_165:\n        /* \"#utility.yul\":8163:8706   */\n      pop\n      pop\n      pop\n      jump\t// out\n        /* \"#utility.yul\":8712:8829   */\n    tag_63:\n        /* \"#utility.yul\":8766:8774   */\n      0x00\n        /* \"#utility.yul\":8816:8821   */\n      dup3\n        /* \"#utility.yul\":8810:8814   */\n      dup3\n        /* \"#utility.yul\":8806:8822   */\n      shr\n        /* \"#utility.yul\":8785:8822   */\n      swap1\n      pop\n        /* \"#utility.yul\":8712:8829   */\n      swap3\n      swap2\n      pop\n      pop\n      jump\t// out\n        /* \"#utility.yul\":8835:9004   */\n    tag_64:\n        /* \"#utility.yul\":8879:8885   */\n      0x00\n        /* \"#utility.yul\":8912:8963   */\n      tag_173\n        /* \"#utility.yul\":8960:8961   */\n      0x00\n        /* \"#utility.yul\":8956:8962   */\n      not\n        /* \"#utility.yul\":8948:8953   */\n      dup5\n        /* \"#utility.yul\":8945:8946   */\n      0x08\n        /* \"#utility.yul\":8941:8954   */\n      mul\n        /* \"#utility.yul\":8912:8963   */\n      tag_63\n      jump\t// in\n    tag_173:\n        /* \"#utility.yul\":8908:8964   */\n      not\n        /* \"#utility.yul\":8993:8997   */\n      dup1\n        /* \"#utility.yul\":8987:8991   */\n      dup4\n        /* \"#utility.yul\":8983:8998   */\n      and\n        /* \"#utility.yul\":8973:8998   */\n      swap2\n      pop\n        /* \"#utility.yul\":8886:9004   */\n      pop\n        /* \"#utility.yul\":8835:9004   */\n      swap3\n      swap2\n      pop\n      pop\n      jump\t// out\n        /* \"#utility.yul\":9009:9304   */\n    tag_65:\n        /* \"#utility.yul\":9085:9089   */\n      0x00\n        /* \"#utility.yul\":9231:9260   */\n      tag_175\n        /* \"#utility.yul\":9256:9259   */\n      dup4\n        /* \"#utility.yul\":9250:9254   */\n      dup4\n        /* \"#utility.yul\":9231:9260   */\n      tag_64\n      jump\t// in\n    tag_175:\n        /* \"#utility.yul\":9223:9260   */\n      swap2\n      pop\n        /* \"#utility.yul\":9293:9296   */\n      dup3\n        /* \"#utility.yul\":9290:9291   */\n      0x02\n        /* \"#utility.yul\":9286:9297   */\n      mul\n        /* \"#utility.yul\":9280:9284   */\n      dup3\n        /* \"#utility.yul\":9277:9298   */\n      or\n        /* \"#utility.yul\":9269:9298   */\n      swap1\n      pop\n        /* \"#utility.yul\":9009:9304   */\n      swap3\n      swap2\n      pop\n      pop\n      jump\t// out\n        /* \"#utility.yul\":9309:10704   */\n    tag_24:\n        /* \"#utility.yul\":9426:9463   */\n      tag_177\n        /* \"#utility.yul\":9459:9462   */\n      dup3\n        /* \"#utility.yul\":9426:9463   */\n      tag_25\n      jump\t// in\n    tag_177:\n        /* \"#utility.yul\":9528:9546   */\n      0xffffffffffffffff\n        /* \"#utility.yul\":9520:9526   */\n      dup2\n        /* \"#utility.yul\":9517:9547   */\n      gt\n        /* \"#utility.yul\":9514:9570   */\n      iszero\n      tag_178\n      jumpi\n        /* \"#utility.yul\":9550:9568   */\n      tag_179\n      tag_39\n      jump\t// in\n    tag_179:\n        /* \"#utility.yul\":9514:9570   */\n    tag_178:\n        /* \"#utility.yul\":9594:9632   */\n      tag_180\n        /* \"#utility.yul\":9626:9630   */\n      dup3\n        /* \"#utility.yul\":9620:9631   */\n      sload\n        /* \"#utility.yul\":9594:9632   */\n      tag_17\n      jump\t// in\n    tag_180:\n        /* \"#utility.yul\":9679:9746   */\n      tag_181\n        /* \"#utility.yul\":9739:9745   */\n      dup3\n        /* \"#utility.yul\":9731:9737   */\n      dup3\n        /* \"#utility.yul\":9725:9729   */\n      dup6\n        /* \"#utility.yul\":9679:9746   */\n      tag_62\n      jump\t// in\n    tag_181:\n        /* \"#utility.yul\":9773:9774   */\n      0x00\n        /* \"#utility.yul\":9797:9801   */\n      0x20\n        /* \"#utility.yul\":9784:9801   */\n      swap1\n      pop\n        /* \"#utility.yul\":9829:9831   */\n      0x1f\n        /* \"#utility.yul\":9821:9827   */\n      dup4\n        /* \"#utility.yul\":9818:9832   */\n      gt\n        /* \"#utility.yul\":9846:9847   */\n      0x01\n        /* \"#utility.yul\":9841:10459   */\n      dup2\n      eq\n      tag_183\n      jumpi\n        /* \"#utility.yul\":10503:10504   */\n      0x00\n        /* \"#utility.yul\":10520:10526   */\n      dup5\n        /* \"#utility.yul\":10517:10594   */\n      iszero\n      tag_184\n      jumpi\n        /* \"#utility.yul\":10569:10578   */\n      dup3\n        /* \"#utility.yul\":10564:10567   */\n      dup8\n        /* \"#utility.yul\":10560:10579   */\n      add\n        /* \"#utility.yul\":10554:10580   */\n      mload\n        /* \"#utility.yul\":10545:10580   */\n      swap1\n      pop\n        /* \"#utility.yul\":10517:10594   */\n    tag_184:\n        /* \"#utility.yul\":10620:10687   */\n      tag_185\n        /* \"#utility.yul\":10680:10686   */\n      dup6\n        /* \"#utility.yul\":10673:10678   */\n      dup3\n        /* \"#utility.yul\":10620:10687   */\n      tag_65\n      jump\t// in\n    tag_185:\n        /* \"#utility.yul\":10614:10618   */\n      dup7\n        /* \"#utility.yul\":10607:10688   */\n      sstore\n        /* \"#utility.yul\":10476:10698   */\n      pop\n        /* \"#utility.yul\":9811:10698   */\n      jump(tag_182)\n        /* \"#utility.yul\":9841:10459   */\n    tag_183:\n        /* \"#utility.yul\":9893:9897   */\n      0x1f\n        /* \"#utility.yul\":9889:9898   */\n      not\n        /* \"#utility.yul\":9881:9887   */\n      dup5\n        /* \"#utility.yul\":9877:9899   */\n      and\n        /* \"#utility.yul\":9927:9964   */\n      tag_186\n        /* \"#utility.yul\":9959:9963   */\n      dup7\n        /* \"#utility.yul\":9927:9964   */\n      tag_51\n      jump\t// in\n    tag_186:\n        /* \"#utility.yul\":9986:9987   */\n      0x00\n        /* \"#utility.yul\":10000:10208   */\n    tag_187:\n        /* \"#utility.yul\":10014:10021   */\n      dup3\n        /* \"#utility.yul\":10011:10012   */\n      dup2\n        /* \"#utility.yul\":10008:10022   */\n      lt\n        /* \"#utility.yul\":10000:10208   */\n      iszero\n      tag_189\n      jumpi\n        /* \"#utility.yul\":10093:10102   */\n      dup5\n        /* \"#utility.yul\":10088:10091   */\n      dup10\n        /* \"#utility.yul\":10084:10103   */\n      add\n        /* \"#utility.yul\":10078:10104   */\n      mload\n        /* \"#utility.yul\":10070:10076   */\n      dup3\n        /* \"#utility.yul\":10063:10105   */\n      sstore\n        /* \"#utility.yul\":10144:10145   */\n      0x01\n        /* \"#utility.yul\":10136:10142   */\n      dup3\n        /* \"#utility.yul\":10132:10146   */\n      add\n        /* \"#utility.yul\":10122:10146   */\n      swap2\n      pop\n        /* \"#utility.yul\":10191:10193   */\n      0x20\n        /* \"#utility.yul\":10180:10189   */\n      dup6\n        /* \"#utility.yul\":10176:10194   */\n      add\n        /* \"#utility.yul\":10163:10194   */\n      swap5\n      pop\n        /* \"#utility.yul\":10037:10041   */\n      0x20\n        /* \"#utility.yul\":10034:10035   */\n      dup2\n        /* \"#utility.yul\":10030:10042   */\n      add\n        /* \"#utility.yul\":10025:10042   */\n      swap1\n      pop\n        /* \"#utility.yul\":10000:10208   */\n      jump(tag_187)\n    tag_189:\n        /* \"#utility.yul\":10236:10242   */\n      dup7\n        /* \"#utility.yul\":10227:10234   */\n      dup4\n        /* \"#utility.yul\":10224:10243   */\n      lt\n        /* \"#utility.yul\":10221:10400   */\n      iszero\n      tag_190\n      jumpi\n        /* \"#utility.yul\":10294:10303   */\n      dup5\n        /* \"#utility.yul\":10289:10292   */\n      dup10\n        /* \"#utility.yul\":10285:10304   */\n      add\n        /* \"#utility.yul\":10279:10305   */\n      mload\n        /* \"#utility.yul\":10337:10385   */\n      tag_191\n        /* \"#utility.yul\":10379:10383   */\n      0x1f\n        /* \"#utility.yul\":10371:10377   */\n      dup10\n        /* \"#utility.yul\":10367:10384   */\n      and\n        /* \"#utility.yul\":10356:10365   */\n      dup3\n        /* \"#utility.yul\":10337:10385   */\n      tag_64\n      jump\t// in\n    tag_191:\n        /* \"#utility.yul\":10329:10335   */\n      dup4\n        /* \"#utility.yul\":10322:10386   */\n      sstore\n        /* \"#utility.yul\":10244:10400   */\n      pop\n        /* \"#utility.yul\":10221:10400   */\n    tag_190:\n        /* \"#utility.yul\":10446:10447   */\n      0x01\n        /* \"#utility.yul\":10442:10443   */\n      0x02\n        /* \"#utility.yul\":10434:10440   */\n      dup9\n        /* \"#utility.yul\":10430:10444   */\n      mul\n        /* \"#utility.yul\":10426:10448   */\n      add\n        /* \"#utility.yul\":10420:10424   */\n      dup9\n        /* \"#utility.yul\":10413:10449   */\n      sstore\n        /* \"#utility.yul\":9848:10459   */\n      pop\n      pop\n      pop\n        /* \"#utility.yul\":9811:10698   */\n    tag_182:\n      pop\n        /* \"#utility.yul\":9401:10704   */\n      pop\n      pop\n      pop\n        /* \"#utility.yul\":9309:10704   */\n      pop\n      pop\n      jump\t// out\n\n    auxdata: 0xa2646970667358221220698aeef3d7c18f33ae381e20850ec1cafea8b9fb13ae1165f3472333f8e31dc264736f6c634300081a0033\n}\n",
				"bytecode": {
					"linkReferences": {},
					"object": "608060405234801561000f575f80fd5b50604051610ce6380380610ce68339818101604052810190610031919061023b565b61004283838361004b60201b60201c565b5050505061057a565b5f835f908161005a91906104ab565b50826001819055508160025f6101000a81548160ff021916908315150217905550600190509392505050565b5f604051905090565b5f80fd5b5f80fd5b5f80fd5b5f80fd5b5f601f19601f8301169050919050565b7f4e487b71000000000000000000000000000000000000000000000000000000005f52604160045260245ffd5b6100e58261009f565b810181811067ffffffffffffffff82111715610104576101036100af565b5b80604052505050565b5f610116610086565b905061012282826100dc565b919050565b5f67ffffffffffffffff821115610141576101406100af565b5b61014a8261009f565b9050602081019050919050565b8281835e5f83830152505050565b5f61017761017284610127565b61010d565b9050828152602081018484840111156101935761019261009b565b5b61019e848285610157565b509392505050565b5f82601f8301126101ba576101b9610097565b5b81516101ca848260208601610165565b91505092915050565b5f819050919050565b6101e5816101d3565b81146101ef575f80fd5b50565b5f81519050610200816101dc565b92915050565b5f8115159050919050565b61021a81610206565b8114610224575f80fd5b50565b5f8151905061023581610211565b92915050565b5f805f606084860312156102525761025161008f565b5b5f84015167ffffffffffffffff81111561026f5761026e610093565b5b61027b868287016101a6565b935050602061028c868287016101f2565b925050604061029d86828701610227565b9150509250925092565b5f81519050919050565b7f4e487b71000000000000000000000000000000000000000000000000000000005f52602260045260245ffd5b5f60028204905060018216806102f557607f821691505b602082108103610308576103076102b1565b5b50919050565b5f819050815f5260205f209050919050565b5f6020601f8301049050919050565b5f82821b905092915050565b5f6008830261036a7fffffffffffffffffffffffffffffffffffffffffffffffffffffffffffffffff8261032f565b610374868361032f565b95508019841693508086168417925050509392505050565b5f819050919050565b5f6103af6103aa6103a5846101d3565b61038c565b6101d3565b9050919050565b5f819050919050565b6103c883610395565b6103dc6103d4826103b6565b84845461033b565b825550505050565b5f90565b6103f06103e4565b6103fb8184846103bf565b505050565b5b8181101561041e576104135f826103e8565b600181019050610401565b5050565b601f821115610463576104348161030e565b61043d84610320565b8101602085101561044c578190505b61046061045885610320565b830182610400565b50505b505050565b5f82821c905092915050565b5f6104835f1984600802610468565b1980831691505092915050565b5f61049b8383610474565b9150826002028217905092915050565b6104b4826102a7565b67ffffffffffffffff8111156104cd576104cc6100af565b5b6104d782546102de565b6104e2828285610422565b5f60209050601f831160018114610513575f8415610501578287015190505b61050b8582610490565b865550610572565b601f1984166105218661030e565b5f5b8281101561054857848901518255600182019150602085019450602081019050610523565b868310156105655784890151610561601f891682610474565b8355505b6001600288020188555050505b505050505050565b61075f806105875f395ff3fe608060405234801561000f575f80fd5b5060043610610034575f3560e01c80633bc5de301461003857806349a0c80814610058575b5f80fd5b610040610088565b60405161004f9392919061020e565b60405180910390f35b610072600480360381019061006d91906103db565b610131565b60405161007f9190610447565b60405180910390f35b60605f805f80546100989061048d565b80601f01602080910402602001604051908101604052809291908181526020018280546100c49061048d565b801561010f5780601f106100e65761010080835404028352916020019161010f565b820191905f5260205f20905b8154815290600101906020018083116100f257829003601f168201915b50505050509250600154915060025f9054906101000a900460ff169050909192565b5f835f9081610140919061065a565b50826001819055508160025f6101000a81548160ff021916908315150217905550600190509392505050565b5f81519050919050565b5f82825260208201905092915050565b8281835e5f83830152505050565b5f601f19601f8301169050919050565b5f6101ae8261016c565b6101b88185610176565b93506101c8818560208601610186565b6101d181610194565b840191505092915050565b5f819050919050565b6101ee816101dc565b82525050565b5f8115159050919050565b610208816101f4565b82525050565b5f6060820190508181035f83015261022681866101a4565b905061023560208301856101e5565b61024260408301846101ff565b949350505050565b5f604051905090565b5f80fd5b5f80fd5b5f80fd5b5f80fd5b7f4e487b71000000000000000000000000000000000000000000000000000000005f52604160045260245ffd5b61029982610194565b810181811067ffffffffffffffff821117156102b8576102b7610263565b5b80604052505050565b5f6102ca61024a565b90506102d68282610290565b919050565b5f67ffffffffffffffff8211156102f5576102f4610263565b5b6102fe82610194565b9050602081019050919050565b828183375f83830152505050565b5f61032b610326846102db565b6102c1565b9050828152602081018484840111156103475761034661025f565b5b61035284828561030b565b509392505050565b5f82601f83011261036e5761036d61025b565b5b813561037e848260208601610319565b91505092915050565b610390816101dc565b811461039a575f80fd5b50565b5f813590506103ab81610387565b92915050565b6103ba816101f4565b81146103c4575f80fd5b50565b5f813590506103d5816103b1565b92915050565b5f805f606084860312156103f2576103f1610253565b5b5f84013567ffffffffffffffff81111561040f5761040e610257565b5b61041b8682870161035a565b935050602061042c8682870161039d565b925050604061043d868287016103c7565b9150509250925092565b5f60208201905061045a5f8301846101ff565b92915050565b7f4e487b71000000000000000000000000000000000000000000000000000000005f52602260045260245ffd5b5f60028204905060018216806104a457607f821691505b6020821081036104b7576104b6610460565b5b50919050565b5f819050815f5260205f209050919050565b5f6020601f8301049050919050565b5f82821b905092915050565b5f600883026105197fffffffffffffffffffffffffffffffffffffffffffffffffffffffffffffffff826104de565b61052386836104de565b95508019841693508086168417925050509392505050565b5f819050919050565b5f61055e610559610554846101dc565b61053b565b6101dc565b9050919050565b5f819050919050565b61057783610544565b61058b61058382610565565b8484546104ea565b825550505050565b5f90565b61059f610593565b6105aa81848461056e565b505050565b5b818110156105cd576105c25f82610597565b6001810190506105b0565b5050565b601f821115610612576105e3816104bd565b6105ec846104cf565b810160208510156105fb578190505b61060f610607856104cf565b8301826105af565b50505b505050565b5f82821c905092915050565b5f6106325f1984600802610617565b1980831691505092915050565b5f61064a8383610623565b9150826002028217905092915050565b6106638261016c565b67ffffffffffffffff81111561067c5761067b610263565b5b610686825461048d565b6106918282856105d1565b5f60209050601f8311600181146106c2575f84156106b0578287015190505b6106ba858261063f565b865550610721565b601f1984166106d0866104bd565b5f5b828110156106f7578489015182556001820191506020850194506020810190506106d2565b868310156107145784890151610710601f891682610623565b8355505b6001600288020188555050505b50505050505056fea2646970667358221220698aeef3d7c18f33ae381e20850ec1cafea8b9fb13ae1165f3472333f8e31dc264736f6c634300081a0033",
					"opcodes": "PUSH1 0x80 PUSH1 0x40 MSTORE CALLVALUE DUP1 ISZERO PUSH2 0xF JUMPI PUSH0 DUP1 REVERT JUMPDEST POP PUSH1 0x40 MLOAD PUSH2 0xCE6 CODESIZE SUB DUP1 PUSH2 0xCE6 DUP4 CODECOPY DUP2 DUP2 ADD PUSH1 0x40 MSTORE DUP2 ADD SWAP1 PUSH2 0x31 SWAP2 SWAP1 PUSH2 0x23B JUMP JUMPDEST PUSH2 0x42 DUP4 DUP4 DUP4 PUSH2 0x4B PUSH1 0x20 SHL PUSH1 0x20 SHR JUMP JUMPDEST POP POP POP POP PUSH2 0x57A JUMP JUMPDEST PUSH0 DUP4 PUSH0 SWAP1 DUP2 PUSH2 0x5A SWAP2 SWAP1 PUSH2 0x4AB JUMP JUMPDEST POP DUP3 PUSH1 0x1 DUP2 SWAP1 SSTORE POP DUP2 PUSH1 0x2 PUSH0 PUSH2 0x100 EXP DUP2 SLOAD DUP2 PUSH1 0xFF MUL NOT AND SWAP1 DUP4 ISZERO ISZERO MUL OR SWAP1 SSTORE POP PUSH1 0x1 SWAP1 POP SWAP4 SWAP3 POP POP POP JUMP JUMPDEST PUSH0 PUSH1 0x40 MLOAD SWAP1 POP SWAP1 JUMP JUMPDEST PUSH0 DUP1 REVERT JUMPDEST PUSH0 DUP1 REVERT JUMPDEST PUSH0 DUP1 REVERT JUMPDEST PUSH0 DUP1 REVERT JUMPDEST PUSH0 PUSH1 0x1F NOT PUSH1 0x1F DUP4 ADD AND SWAP1 POP SWAP2 SWAP1 POP JUMP JUMPDEST PUSH32 0x4E487B7100000000000000000000000000000000000000000000000000000000 PUSH0 MSTORE PUSH1 0x41 PUSH1 0x4 MSTORE PUSH1 0x24 PUSH0 REVERT JUMPDEST PUSH2 0xE5 DUP3 PUSH2 0x9F JUMP JUMPDEST DUP2 ADD DUP2 DUP2 LT PUSH8 0xFFFFFFFFFFFFFFFF DUP3 GT OR ISZERO PUSH2 0x104 JUMPI PUSH2 0x103 PUSH2 0xAF JUMP JUMPDEST JUMPDEST DUP1 PUSH1 0x40 MSTORE POP POP POP JUMP JUMPDEST PUSH0 PUSH2 0x116 PUSH2 0x86 JUMP JUMPDEST SWAP1 POP PUSH2 0x122 DUP3 DUP3 PUSH2 0xDC JUMP JUMPDEST SWAP2 SWAP1 POP JUMP JUMPDEST PUSH0 PUSH8 0xFFFFFFFFFFFFFFFF DUP3 GT ISZERO PUSH2 0x141 JUMPI PUSH2 0x140 PUSH2 0xAF JUMP JUMPDEST JUMPDEST PUSH2 0x14A DUP3 PUSH2 0x9F JUMP JUMPDEST SWAP1 POP PUSH1 0x20 DUP2 ADD SWAP1 POP SWAP2 SWAP1 POP JUMP JUMPDEST DUP3 DUP2 DUP4 MCOPY PUSH0 DUP4 DUP4 ADD MSTORE POP POP POP JUMP JUMPDEST PUSH0 PUSH2 0x177 PUSH2 0x172 DUP5 PUSH2 0x127 JUMP JUMPDEST PUSH2 0x10D JUMP JUMPDEST SWAP1 POP DUP3 DUP2 MSTORE PUSH1 0x20 DUP2 ADD DUP5 DUP5 DUP5 ADD GT ISZERO PUSH2 0x193 JUMPI PUSH2 0x192 PUSH2 0x9B JUMP JUMPDEST JUMPDEST PUSH2 0x19E DUP5 DUP3 DUP6 PUSH2 0x157 JUMP JUMPDEST POP SWAP4 SWAP3 POP POP POP JUMP JUMPDEST PUSH0 DUP3 PUSH1 0x1F DUP4 ADD SLT PUSH2 0x1BA JUMPI PUSH2 0x1B9 PUSH2 0x97 JUMP JUMPDEST JUMPDEST DUP2 MLOAD PUSH2 0x1CA DUP5 DUP3 PUSH1 0x20 DUP7 ADD PUSH2 0x165 JUMP JUMPDEST SWAP2 POP POP SWAP3 SWAP2 POP POP JUMP JUMPDEST PUSH0 DUP2 SWAP1 POP SWAP2 SWAP1 POP JUMP JUMPDEST PUSH2 0x1E5 DUP2 PUSH2 0x1D3 JUMP JUMPDEST DUP2 EQ PUSH2 0x1EF JUMPI PUSH0 DUP1 REVERT JUMPDEST POP JUMP JUMPDEST PUSH0 DUP2 MLOAD SWAP1 POP PUSH2 0x200 DUP2 PUSH2 0x1DC JUMP JUMPDEST SWAP3 SWAP2 POP POP JUMP JUMPDEST PUSH0 DUP2 ISZERO ISZERO SWAP1 POP SWAP2 SWAP1 POP JUMP JUMPDEST PUSH2 0x21A DUP2 PUSH2 0x206 JUMP JUMPDEST DUP2 EQ PUSH2 0x224 JUMPI PUSH0 DUP1 REVERT JUMPDEST POP JUMP JUMPDEST PUSH0 DUP2 MLOAD SWAP1 POP PUSH2 0x235 DUP2 PUSH2 0x211 JUMP JUMPDEST SWAP3 SWAP2 POP POP JUMP JUMPDEST PUSH0 DUP1 PUSH0 PUSH1 0x60 DUP5 DUP7 SUB SLT ISZERO PUSH2 0x252 JUMPI PUSH2 0x251 PUSH2 0x8F JUMP JUMPDEST JUMPDEST PUSH0 DUP5 ADD MLOAD PUSH8 0xFFFFFFFFFFFFFFFF DUP2 GT ISZERO PUSH2 0x26F JUMPI PUSH2 0x26E PUSH2 0x93 JUMP JUMPDEST JUMPDEST PUSH2 0x27B DUP7 DUP3 DUP8 ADD PUSH2 0x1A6 JUMP JUMPDEST SWAP4 POP POP PUSH1 0x20 PUSH2 0x28C DUP7 DUP3 DUP8 ADD PUSH2 0x1F2 JUMP JUMPDEST SWAP3 POP POP PUSH1 0x40 PUSH2 0x29D DUP7 DUP3 DUP8 ADD PUSH2 0x227 JUMP JUMPDEST SWAP2 POP POP SWAP3 POP SWAP3 POP SWAP3 JUMP JUMPDEST PUSH0 DUP2 MLOAD SWAP1 POP SWAP2 SWAP1 POP JUMP JUMPDEST PUSH32 0x4E487B7100000000000000000000000000000000000000000000000000000000 PUSH0 MSTORE PUSH1 0x22 PUSH1 0x4 MSTORE PUSH1 0x24 PUSH0 REVERT JUMPDEST PUSH0 PUSH1 0x2 DUP3 DIV SWAP1 POP PUSH1 0x1 DUP3 AND DUP1 PUSH2 0x2F5 JUMPI PUSH1 0x7F DUP3 AND SWAP2 POP JUMPDEST PUSH1 0x20 DUP3 LT DUP2 SUB PUSH2 0x308 JUMPI PUSH2 0x307 PUSH2 0x2B1 JUMP JUMPDEST JUMPDEST POP SWAP2 SWAP1 POP JUMP JUMPDEST PUSH0 DUP2 SWAP1 POP DUP2 PUSH0 MSTORE PUSH1 0x20 PUSH0 KECCAK256 SWAP1 POP SWAP2 SWAP1 POP JUMP JUMPDEST PUSH0 PUSH1 0x20 PUSH1 0x1F DUP4 ADD DIV SWAP1 POP SWAP2 SWAP1 POP JUMP JUMPDEST PUSH0 DUP3 DUP3 SHL SWAP1 POP SWAP3 SWAP2 POP POP JUMP JUMPDEST PUSH0 PUSH1 0x8 DUP4 MUL PUSH2 0x36A PUSH32 0xFFFFFFFFFFFFFFFFFFFFFFFFFFFFFFFFFFFFFFFFFFFFFFFFFFFFFFFFFFFFFFFF DUP3 PUSH2 0x32F JUMP JUMPDEST PUSH2 0x374 DUP7 DUP4 PUSH2 0x32F JUMP JUMPDEST SWAP6 POP DUP1 NOT DUP5 AND SWAP4 POP DUP1 DUP7 AND DUP5 OR SWAP3 POP POP POP SWAP4 SWAP3 POP POP POP JUMP JUMPDEST PUSH0 DUP2 SWAP1 POP SWAP2 SWAP1 POP JUMP JUMPDEST PUSH0 PUSH2 0x3AF PUSH2 0x3AA PUSH2 0x3A5 DUP5 PUSH2 0x1D3 JUMP JUMPDEST PUSH2 0x38C JUMP JUMPDEST PUSH2 0x1D3 JUMP JUMPDEST SWAP1 POP SWAP2 SWAP1 POP JUMP JUMPDEST PUSH0 DUP2 SWAP1 POP SWAP2 SWAP1 POP JUMP JUMPDEST PUSH2 0x3C8 DUP4 PUSH2 0x395 JUMP JUMPDEST PUSH2 0x3DC PUSH2 0x3D4 DUP3 PUSH2 0x3B6 JUMP JUMPDEST DUP5 DUP5 SLOAD PUSH2 0x33B JUMP JUMPDEST DUP3 SSTORE POP POP POP POP JUMP JUMPDEST PUSH0 SWAP1 JUMP JUMPDEST PUSH2 0x3F0 PUSH2 0x3E4 JUMP JUMPDEST PUSH2 0x3FB DUP2 DUP5 DUP5 PUSH2 0x3BF JUMP JUMPDEST POP POP POP JUMP JUMPDEST JUMPDEST DUP2 DUP2 LT ISZERO PUSH2 0x41E JUMPI PUSH2 0x413 PUSH0 DUP3 PUSH2 0x3E8 JUMP JUMPDEST PUSH1 0x1 DUP2 ADD SWAP1 POP PUSH2 0x401 JUMP JUMPDEST POP POP JUMP JUMPDEST PUSH1 0x1F DUP3 GT ISZERO PUSH2 0x463 JUMPI PUSH2 0x434 DUP2 PUSH2 0x30E JUMP JUMPDEST PUSH2 0x43D DUP5 PUSH2 0x320 JUMP JUMPDEST DUP2 ADD PUSH1 0x20 DUP6 LT ISZERO PUSH2 0x44C JUMPI DUP2 SWAP1 POP JUMPDEST PUSH2 0x460 PUSH2 0x458 DUP6 PUSH2 0x320 JUMP JUMPDEST DUP4 ADD DUP3 PUSH2 0x400 JUMP JUMPDEST POP POP JUMPDEST POP POP POP JUMP JUMPDEST PUSH0 DUP3 DUP3 SHR SWAP1 POP SWAP3 SWAP2 POP POP JUMP JUMPDEST PUSH0 PUSH2 0x483 PUSH0 NOT DUP5 PUSH1 0x8 MUL PUSH2 0x468 JUMP JUMPDEST NOT DUP1 DUP4 AND SWAP2 POP POP SWAP3 SWAP2 POP POP JUMP JUMPDEST PUSH0 PUSH2 0x49B DUP4 DUP4 PUSH2 0x474 JUMP JUMPDEST SWAP2 POP DUP3 PUSH1 0x2 MUL DUP3 OR SWAP1 POP SWAP3 SWAP2 POP POP JUMP JUMPDEST PUSH2 0x4B4 DUP3 PUSH2 0x2A7 JUMP JUMPDEST PUSH8 0xFFFFFFFFFFFFFFFF DUP2 GT ISZERO PUSH2 0x4CD JUMPI PUSH2 0x4CC PUSH2 0xAF JUMP JUMPDEST JUMPDEST PUSH2 0x4D7 DUP3 SLOAD PUSH2 0x2DE JUMP JUMPDEST PUSH2 0x4E2 DUP3 DUP3 DUP6 PUSH2 0x422 JUMP JUMPDEST PUSH0 PUSH1 0x20 SWAP1 POP PUSH1 0x1F DUP4 GT PUSH1 0x1 DUP2 EQ PUSH2 0x513 JUMPI PUSH0 DUP5 ISZERO PUSH2 0x501 JUMPI DUP3 DUP8 ADD MLOAD SWAP1 POP JUMPDEST PUSH2 0x50B DUP6 DUP3 PUSH2 0x490 JUMP JUMPDEST DUP7 SSTORE POP PUSH2 0x572 JUMP JUMPDEST PUSH1 0x1F NOT DUP5 AND PUSH2 0x521 DUP7 PUSH2 0x30E JUMP JUMPDEST PUSH0 JUMPDEST DUP3 DUP2 LT ISZERO PUSH2 0x548 JUMPI DUP5 DUP10 ADD MLOAD DUP3 SSTORE PUSH1 0x1 DUP3 ADD SWAP2 POP PUSH1 0x20 DUP6 ADD SWAP5 POP PUSH1 0x20 DUP2 ADD SWAP1 POP PUSH2 0x523 JUMP JUMPDEST DUP7 DUP4 LT ISZERO PUSH2 0x565 JUMPI DUP5 DUP10 ADD MLOAD PUSH2 0x561 PUSH1 0x1F DUP10 AND DUP3 PUSH2 0x474 JUMP JUMPDEST DUP4 SSTORE POP JUMPDEST PUSH1 0x1 PUSH1 0x2 DUP9 MUL ADD DUP9 SSTORE POP POP POP JUMPDEST POP POP POP POP POP POP JUMP JUMPDEST PUSH2 0x75F DUP1 PUSH2 0x587 PUSH0 CODECOPY PUSH0 RETURN INVALID PUSH1 0x80 PUSH1 0x40 MSTORE CALLVALUE DUP1 ISZERO PUSH2 0xF JUMPI PUSH0 DUP1 REVERT JUMPDEST POP PUSH1 0x4 CALLDATASIZE LT PUSH2 0x34 JUMPI PUSH0 CALLDATALOAD PUSH1 0xE0 SHR DUP1 PUSH4 0x3BC5DE30 EQ PUSH2 0x38 JUMPI DUP1 PUSH4 0x49A0C808 EQ PUSH2 0x58 JUMPI JUMPDEST PUSH0 DUP1 REVERT JUMPDEST PUSH2 0x40 PUSH2 0x88 JUMP JUMPDEST PUSH1 0x40 MLOAD PUSH2 0x4F SWAP4 SWAP3 SWAP2 SWAP1 PUSH2 0x20E JUMP JUMPDEST PUSH1 0x40 MLOAD DUP1 SWAP2 SUB SWAP1 RETURN JUMPDEST PUSH2 0x72 PUSH1 0x4 DUP1 CALLDATASIZE SUB DUP2 ADD SWAP1 PUSH2 0x6D SWAP2 SWAP1 PUSH2 0x3DB JUMP JUMPDEST PUSH2 0x131 JUMP JUMPDEST PUSH1 0x40 MLOAD PUSH2 0x7F SWAP2 SWAP1 PUSH2 0x447 JUMP JUMPDEST PUSH1 0x40 MLOAD DUP1 SWAP2 SUB SWAP1 RETURN JUMPDEST PUSH1 0x60 PUSH0 DUP1 PUSH0 DUP1 SLOAD PUSH2 0x98 SWAP1 PUSH2 0x48D JUMP JUMPDEST DUP1 PUSH1 0x1F ADD PUSH1 0x20 DUP1 SWAP2 DIV MUL PUSH1 0x20 ADD PUSH1 0x40 MLOAD SWAP1 DUP2 ADD PUSH1 0x40 MSTORE DUP1 SWAP3 SWAP2 SWAP1 DUP2 DUP2 MSTORE PUSH1 0x20 ADD DUP3 DUP1 SLOAD PUSH2 0xC4 SWAP1 PUSH2 0x48D JUMP JUMPDEST DUP1 ISZERO PUSH2 0x10F JUMPI DUP1 PUSH1 0x1F LT PUSH2 0xE6 JUMPI PUSH2 0x100 DUP1 DUP4 SLOAD DIV MUL DUP4 MSTORE SWAP2 PUSH1 0x20 ADD SWAP2 PUSH2 0x10F JUMP JUMPDEST DUP3 ADD SWAP2 SWAP1 PUSH0 MSTORE PUSH1 0x20 PUSH0 KECCAK256 SWAP1 JUMPDEST DUP2 SLOAD DUP2 MSTORE SWAP1 PUSH1 0x1 ADD SWAP1 PUSH1 0x20 ADD DUP1 DUP4 GT PUSH2 0xF2 JUMPI DUP3 SWAP1 SUB PUSH1 0x1F AND DUP3 ADD SWAP2 JUMPDEST POP POP POP POP POP SWAP3 POP PUSH1 0x1 SLOAD SWAP2 POP PUSH1 0x2 PUSH0 SWAP1 SLOAD SWAP1 PUSH2 0x100 EXP SWAP1 DIV PUSH1 0xFF AND SWAP1 POP SWAP1 SWAP2 SWAP3 JUMP JUMPDEST PUSH0 DUP4 PUSH0 SWAP1 DUP2 PUSH2 0x140 SWAP2 SWAP1 PUSH2 0x65A JUMP JUMPDEST POP DUP3 PUSH1 0x1 DUP2 SWAP1 SSTORE POP DUP2 PUSH1 0x2 PUSH0 PUSH2 0x100 EXP DUP2 SLOAD DUP2 PUSH1 0xFF MUL NOT AND SWAP1 DUP4 ISZERO ISZERO MUL OR SWAP1 SSTORE POP PUSH1 0x1 SWAP1 POP SWAP4 SWAP3 POP POP POP JUMP JUMPDEST PUSH0 DUP2 MLOAD SWAP1 POP SWAP2 SWAP1 POP JUMP JUMPDEST PUSH0 DUP3 DUP3 MSTORE PUSH1 0x20 DUP3 ADD SWAP1 POP SWAP3 SWAP2 POP POP JUMP JUMPDEST DUP3 DUP2 DUP4 MCOPY PUSH0 DUP4 DUP4 ADD MSTORE POP POP POP JUMP JUMPDEST PUSH0 PUSH1 0x1F NOT PUSH1 0x1F DUP4 ADD AND SWAP1 POP SWAP2 SWAP1 POP JUMP JUMPDEST PUSH0 PUSH2 0x1AE DUP3 PUSH2 0x16C JUMP JUMPDEST PUSH2 0x1B8 DUP2 DUP6 PUSH2 0x176 JUMP JUMPDEST SWAP4 POP PUSH2 0x1C8 DUP2 DUP6 PUSH1 0x20 DUP7 ADD PUSH2 0x186 JUMP JUMPDEST PUSH2 0x1D1 DUP2 PUSH2 0x194 JUMP JUMPDEST DUP5 ADD SWAP2 POP POP SWAP3 SWAP2 POP POP JUMP JUMPDEST PUSH0 DUP2 SWAP1 POP SWAP2 SWAP1 POP JUMP JUMPDEST PUSH2 0x1EE DUP2 PUSH2 0x1DC JUMP JUMPDEST DUP3 MSTORE POP POP JUMP JUMPDEST PUSH0 DUP2 ISZERO ISZERO SWAP1 POP SWAP2 SWAP1 POP JUMP JUMPDEST PUSH2 0x208 DUP2 PUSH2 0x1F4 JUMP JUMPDEST DUP3 MSTORE POP POP JUMP JUMPDEST PUSH0 PUSH1 0x60 DUP3 ADD SWAP1 POP DUP2 DUP2 SUB PUSH0 DUP4 ADD MSTORE PUSH2 0x226 DUP2 DUP7 PUSH2 0x1A4 JUMP JUMPDEST SWAP1 POP PUSH2 0x235 PUSH1 0x20 DUP4 ADD DUP6 PUSH2 0x1E5 JUMP JUMPDEST PUSH2 0x242 PUSH1 0x40 DUP4 ADD DUP5 PUSH2 0x1FF JUMP JUMPDEST SWAP5 SWAP4 POP POP POP POP JUMP JUMPDEST PUSH0 PUSH1 0x40 MLOAD SWAP1 POP SWAP1 JUMP JUMPDEST PUSH0 DUP1 REVERT JUMPDEST PUSH0 DUP1 REVERT JUMPDEST PUSH0 DUP1 REVERT JUMPDEST PUSH0 DUP1 REVERT JUMPDEST PUSH32 0x4E487B7100000000000000000000000000000000000000000000000000000000 PUSH0 MSTORE PUSH1 0x41 PUSH1 0x4 MSTORE PUSH1 0x24 PUSH0 REVERT JUMPDEST PUSH2 0x299 DUP3 PUSH2 0x194 JUMP JUMPDEST DUP2 ADD DUP2 DUP2 LT PUSH8 0xFFFFFFFFFFFFFFFF DUP3 GT OR ISZERO PUSH2 0x2B8 JUMPI PUSH2 0x2B7 PUSH2 0x263 JUMP JUMPDEST JUMPDEST DUP1 PUSH1 0x40 MSTORE POP POP POP JUMP JUMPDEST PUSH0 PUSH2 0x2CA PUSH2 0x24A JUMP JUMPDEST SWAP1 POP PUSH2 0x2D6 DUP3 DUP3 PUSH2 0x290 JUMP JUMPDEST SWAP2 SWAP1 POP JUMP JUMPDEST PUSH0 PUSH8 0xFFFFFFFFFFFFFFFF DUP3 GT ISZERO PUSH2 0x2F5 JUMPI PUSH2 0x2F4 PUSH2 0x263 JUMP JUMPDEST JUMPDEST PUSH2 0x2FE DUP3 PUSH2 0x194 JUMP JUMPDEST SWAP1 POP PUSH1 0x20 DUP2 ADD SWAP1 POP SWAP2 SWAP1 POP JUMP JUMPDEST DUP3 DUP2 DUP4 CALLDATACOPY PUSH0 DUP4 DUP4 ADD MSTORE POP POP POP JUMP JUMPDEST PUSH0 PUSH2 0x32B PUSH2 0x326 DUP5 PUSH2 0x2DB JUMP JUMPDEST PUSH2 0x2C1 JUMP JUMPDEST SWAP1 POP DUP3 DUP2 MSTORE PUSH1 0x20 DUP2 ADD DUP5 DUP5 DUP5 ADD GT ISZERO PUSH2 0x347 JUMPI PUSH2 0x346 PUSH2 0x25F JUMP JUMPDEST JUMPDEST PUSH2 0x352 DUP5 DUP3 DUP6 PUSH2 0x30B JUMP JUMPDEST POP SWAP4 SWAP3 POP POP POP JUMP JUMPDEST PUSH0 DUP3 PUSH1 0x1F DUP4 ADD SLT PUSH2 0x36E JUMPI PUSH2 0x36D PUSH2 0x25B JUMP JUMPDEST JUMPDEST DUP2 CALLDATALOAD PUSH2 0x37E DUP5 DUP3 PUSH1 0x20 DUP7 ADD PUSH2 0x319 JUMP JUMPDEST SWAP2 POP POP SWAP3 SWAP2 POP POP JUMP JUMPDEST PUSH2 0x390 DUP2 PUSH2 0x1DC JUMP JUMPDEST DUP2 EQ PUSH2 0x39A JUMPI PUSH0 DUP1 REVERT JUMPDEST POP JUMP JUMPDEST PUSH0 DUP2 CALLDATALOAD SWAP1 POP PUSH2 0x3AB DUP2 PUSH2 0x387 JUMP JUMPDEST SWAP3 SWAP2 POP POP JUMP JUMPDEST PUSH2 0x3BA DUP2 PUSH2 0x1F4 JUMP JUMPDEST DUP2 EQ PUSH2 0x3C4 JUMPI PUSH0 DUP1 REVERT JUMPDEST POP JUMP JUMPDEST PUSH0 DUP2 CALLDATALOAD SWAP1 POP PUSH2 0x3D5 DUP2 PUSH2 0x3B1 JUMP JUMPDEST SWAP3 SWAP2 POP POP JUMP JUMPDEST PUSH0 DUP1 PUSH0 PUSH1 0x60 DUP5 DUP7 SUB SLT ISZERO PUSH2 0x3F2 JUMPI PUSH2 0x3F1 PUSH2 0x253 JUMP JUMPDEST JUMPDEST PUSH0 DUP5 ADD CALLDATALOAD PUSH8 0xFFFFFFFFFFFFFFFF DUP2 GT ISZERO PUSH2 0x40F JUMPI PUSH2 0x40E PUSH2 0x257 JUMP JUMPDEST JUMPDEST PUSH2 0x41B DUP7 DUP3 DUP8 ADD PUSH2 0x35A JUMP JUMPDEST SWAP4 POP POP PUSH1 0x20 PUSH2 0x42C DUP7 DUP3 DUP8 ADD PUSH2 0x39D JUMP JUMPDEST SWAP3 POP POP PUSH1 0x40 PUSH2 0x43D DUP7 DUP3 DUP8 ADD PUSH2 0x3C7 JUMP JUMPDEST SWAP2 POP POP SWAP3 POP SWAP3 POP SWAP3 JUMP JUMPDEST PUSH0 PUSH1 0x20 DUP3 ADD SWAP1 POP PUSH2 0x45A PUSH0 DUP4 ADD DUP5 PUSH2 0x1FF JUMP JUMPDEST SWAP3 SWAP2 POP POP JUMP JUMPDEST PUSH32 0x4E487B7100000000000000000000000000000000000000000000000000000000 PUSH0 MSTORE PUSH1 0x22 PUSH1 0x4 MSTORE PUSH1 0x24 PUSH0 REVERT JUMPDEST PUSH0 PUSH1 0x2 DUP3 DIV SWAP1 POP PUSH1 0x1 DUP3 AND DUP1 PUSH2 0x4A4 JUMPI PUSH1 0x7F DUP3 AND SWAP2 POP JUMPDEST PUSH1 0x20 DUP3 LT DUP2 SUB PUSH2 0x4B7 JUMPI PUSH2 0x4B6 PUSH2 0x460 JUMP JUMPDEST JUMPDEST POP SWAP2 SWAP1 POP JUMP JUMPDEST PUSH0 DUP2 SWAP1 POP DUP2 PUSH0 MSTORE PUSH1 0x20 PUSH0 KECCAK256 SWAP1 POP SWAP2 SWAP1 POP JUMP JUMPDEST PUSH0 PUSH1 0x20 PUSH1 0x1F DUP4 ADD DIV SWAP1 POP SWAP2 SWAP1 POP JUMP JUMPDEST PUSH0 DUP3 DUP3 SHL SWAP1 POP SWAP3 SWAP2 POP POP JUMP JUMPDEST PUSH0 PUSH1 0x8 DUP4 MUL PUSH2 0x519 PUSH32 0xFFFFFFFFFFFFFFFFFFFFFFFFFFFFFFFFFFFFFFFFFFFFFFFFFFFFFFFFFFFFFFFF DUP3 PUSH2 0x4DE JUMP JUMPDEST PUSH2 0x523 DUP7 DUP4 PUSH2 0x4DE JUMP JUMPDEST SWAP6 POP DUP1 NOT DUP5 AND SWAP4 POP DUP1 DUP7 AND DUP5 OR SWAP3 POP POP POP SWAP4 SWAP3 POP POP POP JUMP JUMPDEST PUSH0 DUP2 SWAP1 POP SWAP2 SWAP1 POP JUMP JUMPDEST PUSH0 PUSH2 0x55E PUSH2 0x559 PUSH2 0x554 DUP5 PUSH2 0x1DC JUMP JUMPDEST PUSH2 0x53B JUMP JUMPDEST PUSH2 0x1DC JUMP JUMPDEST SWAP1 POP SWAP2 SWAP1 POP JUMP JUMPDEST PUSH0 DUP2 SWAP1 POP SWAP2 SWAP1 POP JUMP JUMPDEST PUSH2 0x577 DUP4 PUSH2 0x544 JUMP JUMPDEST PUSH2 0x58B PUSH2 0x583 DUP3 PUSH2 0x565 JUMP JUMPDEST DUP5 DUP5 SLOAD PUSH2 0x4EA JUMP JUMPDEST DUP3 SSTORE POP POP POP POP JUMP JUMPDEST PUSH0 SWAP1 JUMP JUMPDEST PUSH2 0x59F PUSH2 0x593 JUMP JUMPDEST PUSH2 0x5AA DUP2 DUP5 DUP5 PUSH2 0x56E JUMP JUMPDEST POP POP POP JUMP JUMPDEST JUMPDEST DUP2 DUP2 LT ISZERO PUSH2 0x5CD JUMPI PUSH2 0x5C2 PUSH0 DUP3 PUSH2 0x597 JUMP JUMPDEST PUSH1 0x1 DUP2 ADD SWAP1 POP PUSH2 0x5B0 JUMP JUMPDEST POP POP JUMP JUMPDEST PUSH1 0x1F DUP3 GT ISZERO PUSH2 0x612 JUMPI PUSH2 0x5E3 DUP2 PUSH2 0x4BD JUMP JUMPDEST PUSH2 0x5EC DUP5 PUSH2 0x4CF JUMP JUMPDEST DUP2 ADD PUSH1 0x20 DUP6 LT ISZERO PUSH2 0x5FB JUMPI DUP2 SWAP1 POP JUMPDEST PUSH2 0x60F PUSH2 0x607 DUP6 PUSH2 0x4CF JUMP JUMPDEST DUP4 ADD DUP3 PUSH2 0x5AF JUMP JUMPDEST POP POP JUMPDEST POP POP POP JUMP JUMPDEST PUSH0 DUP3 DUP3 SHR SWAP1 POP SWAP3 SWAP2 POP POP JUMP JUMPDEST PUSH0 PUSH2 0x632 PUSH0 NOT DUP5 PUSH1 0x8 MUL PUSH2 0x617 JUMP JUMPDEST NOT DUP1 DUP4 AND SWAP2 POP POP SWAP3 SWAP2 POP POP JUMP JUMPDEST PUSH0 PUSH2 0x64A DUP4 DUP4 PUSH2 0x623 JUMP JUMPDEST SWAP2 POP DUP3 PUSH1 0x2 MUL DUP3 OR SWAP1 POP SWAP3 SWAP2 POP POP JUMP JUMPDEST PUSH2 0x663 DUP3 PUSH2 0x16C JUMP JUMPDEST PUSH8 0xFFFFFFFFFFFFFFFF DUP2 GT ISZERO PUSH2 0x67C JUMPI PUSH2 0x67B PUSH2 0x263 JUMP JUMPDEST JUMPDEST PUSH2 0x686 DUP3 SLOAD PUSH2 0x48D JUMP JUMPDEST PUSH2 0x691 DUP3 DUP3 DUP6 PUSH2 0x5D1 JUMP JUMPDEST PUSH0 PUSH1 0x20 SWAP1 POP PUSH1 0x1F DUP4 GT PUSH1 0x1 DUP2 EQ PUSH2 0x6C2 JUMPI PUSH0 DUP5 ISZERO PUSH2 0x6B0 JUMPI DUP3 DUP8 ADD MLOAD SWAP1 POP JUMPDEST PUSH2 0x6BA DUP6 DUP3 PUSH2 0x63F JUMP JUMPDEST DUP7 SSTORE POP PUSH2 0x721 JUMP JUMPDEST PUSH1 0x1F NOT DUP5 AND PUSH2 0x6D0 DUP7 PUSH2 0x4BD JUMP JUMPDEST PUSH0 JUMPDEST DUP3 DUP2 LT ISZERO PUSH2 0x6F7 JUMPI DUP5 DUP10 ADD MLOAD DUP3 SSTORE PUSH1 0x1 DUP3 ADD SWAP2 POP PUSH1 0x20 DUP6 ADD SWAP5 POP PUSH1 0x20 DUP2 ADD SWAP1 POP PUSH2 0x6D2 JUMP JUMPDEST DUP7 DUP4 LT ISZERO PUSH2 0x714 JUMPI DUP5 DUP10 ADD MLOAD PUSH2 0x710 PUSH1 0x1F DUP10 AND DUP3 PUSH2 0x623 JUMP JUMPDEST DUP4 SSTORE POP JUMPDEST PUSH1 0x1 PUSH1 0x2 DUP9 MUL ADD DUP9 SSTORE POP POP POP JUMPDEST POP POP POP POP POP POP JUMP INVALID LOG2 PUSH5 0x6970667358 0x22 SLT KECCAK256 PUSH10 0x8AEEF3D7C18F33AE381E KECCAK256 DUP6 0xE 0xC1 0xCA INVALID 0xA8 0xB9 0xFB SGT 0xAE GT PUSH6 0xF3472333F8E3 SAR 0xC2 PUSH5 0x736F6C6343 STOP ADDMOD BYTE STOP CALLER "
				},
				"gasEstimates": {
					"creation": {
						"codeDepositCost": "377400",
						"executionCost": "infinite",
						"totalCost": "infinite"
					},
					"external": {
						"getData()": "infinite",
						"setData(string,uint256,bool)": "infinite"
					}
				},
				"methodIdentifiers": {
					"getData()": "3bc5de30",
					"setData(string,uint256,bool)": "49a0c808"
				}
			},
			"storageLayout": {
				"storage": [
					{
						"astId": 3,
						"contract": "contracts/MyCantract.sol:MyCantract",
						"label": "name",
						"offset": 0,
						"slot": "0",
						"type": "t_string_storage"
					},
					{
						"astId": 5,
						"contract": "contracts/MyCantract.sol:MyCantract",
						"label": "age",
						"offset": 0,
						"slot": "1",
						"type": "t_uint256"
					},
					{
						"astId": 7,
						"contract": "contracts/MyCantract.sol:MyCantract",
						"label": "married",
						"offset": 0,
						"slot": "2",
						"type": "t_bool"
					}
				],
				"types": {
					"t_bool": {
						"encoding": "inplace",
						"label": "bool",
						"numberOfBytes": "1"
					},
					"t_string_storage": {
						"encoding": "bytes",
						"label": "string",
						"numberOfBytes": "32"
					},
					"t_uint256": {
						"encoding": "inplace",
						"label": "uint256",
						"numberOfBytes": "32"
					}
				}
			},
			"userdoc": {
				"kind": "user",
				"methods": {},
				"version": 1
			}
		}
	}
}