{
	"contracts/MyCantract1.sol": {
		"MyCantract2": {
			"abi": [
				{
					"inputs": [
						{
							"internalType": "string",
							"name": "_name",
							"type": "string"
						},
						{
							"internalType": "uint256",
							"name": "_age",
							"type": "uint256"
						}
					],
					"name": "addPerson",
					"outputs": [
						{
							"internalType": "uint256",
							"name": "",
							"type": "uint256"
						}
					],
					"stateMutability": "nonpayable",
					"type": "function"
				},
				{
					"inputs": [
						{
							"internalType": "uint256",
							"name": "",
							"type": "uint256"
						}
					],
					"name": "people",
					"outputs": [
						{
							"internalType": "string",
							"name": "name",
							"type": "string"
						},
						{
							"internalType": "uint256",
							"name": "age",
							"type": "uint256"
						}
					],
					"stateMutability": "view",
					"type": "function"
				},
				{
					"inputs": [],
					"name": "peopleLen",
					"outputs": [
						{
							"internalType": "uint256",
							"name": "",
							"type": "uint256"
						}
					],
					"stateMutability": "view",
					"type": "function"
				}
			],
			"devdoc": {
				"kind": "dev",
				"methods": {},
				"version": 1
			},
			"evm": {
				"assembly": "    /* \"contracts/MyCantract1.sol\":58:458  contract MyCantract2 {... */\n  mstore(0x40, 0x80)\n    /* \"contracts/MyCantract1.sol\":201:202  0 */\n  0x00\n    /* \"contracts/MyCantract1.sol\":177:202  uint public peopleLen = 0 */\n  0x01\n  sstore\n    /* \"contracts/MyCantract1.sol\":58:458  contract MyCantract2 {... */\n  callvalue\n  dup1\n  iszero\n  tag_1\n  jumpi\n  0x00\n  dup1\n  revert\ntag_1:\n  pop\n  dataSize(sub_0)\n  dup1\n  dataOffset(sub_0)\n  0x00\n  codecopy\n  0x00\n  return\nstop\n\nsub_0: assembly {\n        /* \"contracts/MyCantract1.sol\":58:458  contract MyCantract2 {... */\n      mstore(0x40, 0x80)\n      callvalue\n      dup1\n      iszero\n      tag_1\n      jumpi\n      0x00\n      dup1\n      revert\n    tag_1:\n      pop\n      jumpi(tag_2, lt(calldatasize, 0x04))\n      shr(0xe0, calldataload(0x00))\n      dup1\n      0x319e969a\n      eq\n      tag_3\n      jumpi\n      dup1\n      0x6f760f41\n      eq\n      tag_4\n      jumpi\n      dup1\n      0x9e7a13ad\n      eq\n      tag_5\n      jumpi\n    tag_2:\n      0x00\n      dup1\n      revert\n        /* \"contracts/MyCantract1.sol\":177:202  uint public peopleLen = 0 */\n    tag_3:\n      tag_6\n      tag_7\n      jump\t// in\n    tag_6:\n      mload(0x40)\n      tag_8\n      swap2\n      swap1\n      tag_9\n      jump\t// in\n    tag_8:\n      mload(0x40)\n      dup1\n      swap2\n      sub\n      swap1\n      return\n        /* \"contracts/MyCantract1.sol\":208:367  function addPerson(string memory _name, uint _age) public returns (uint){... */\n    tag_4:\n      tag_10\n      0x04\n      dup1\n      calldatasize\n      sub\n      dup2\n      add\n      swap1\n      tag_11\n      swap2\n      swap1\n      tag_12\n      jump\t// in\n    tag_11:\n      tag_13\n      jump\t// in\n    tag_10:\n      mload(0x40)\n      tag_14\n      swap2\n      swap1\n      tag_9\n      jump\t// in\n    tag_14:\n      mload(0x40)\n      dup1\n      swap2\n      sub\n      swap1\n      return\n        /* \"contracts/MyCantract1.sol\":137:173  mapping(uint=> Person) public people */\n    tag_5:\n      tag_15\n      0x04\n      dup1\n      calldatasize\n      sub\n      dup2\n      add\n      swap1\n      tag_16\n      swap2\n      swap1\n      tag_17\n      jump\t// in\n    tag_16:\n      tag_18\n      jump\t// in\n    tag_15:\n      mload(0x40)\n      tag_19\n      swap3\n      swap2\n      swap1\n      tag_20\n      jump\t// in\n    tag_19:\n      mload(0x40)\n      dup1\n      swap2\n      sub\n      swap1\n      return\n        /* \"contracts/MyCantract1.sol\":177:202  uint public peopleLen = 0 */\n    tag_7:\n      sload(0x01)\n      dup2\n      jump\t// out\n        /* \"contracts/MyCantract1.sol\":208:367  function addPerson(string memory _name, uint _age) public returns (uint){... */\n    tag_13:\n        /* \"contracts/MyCantract1.sol\":275:279  uint */\n      0x00\n        /* \"contracts/MyCantract1.sol\":305:323  Person(_name,_age) */\n      mload(0x40)\n      dup1\n      0x40\n      add\n      0x40\n      mstore\n      dup1\n        /* \"contracts/MyCantract1.sol\":312:317  _name */\n      dup5\n        /* \"contracts/MyCantract1.sol\":305:323  Person(_name,_age) */\n      dup2\n      mstore\n      0x20\n      add\n        /* \"contracts/MyCantract1.sol\":318:322  _age */\n      dup4\n        /* \"contracts/MyCantract1.sol\":305:323  Person(_name,_age) */\n      dup2\n      mstore\n      pop\n        /* \"contracts/MyCantract1.sol\":286:292  people */\n      0x00\n        /* \"contracts/MyCantract1.sol\":286:303  people[peopleLen] */\n      dup1\n        /* \"contracts/MyCantract1.sol\":293:302  peopleLen */\n      sload(0x01)\n        /* \"contracts/MyCantract1.sol\":286:303  people[peopleLen] */\n      dup2\n      mstore\n      0x20\n      add\n      swap1\n      dup2\n      mstore\n      0x20\n      add\n      0x00\n      keccak256\n        /* \"contracts/MyCantract1.sol\":286:323  people[peopleLen]= Person(_name,_age) */\n      0x00\n      dup3\n      add\n      mload\n      dup2\n      0x00\n      add\n      swap1\n      dup2\n      tag_22\n      swap2\n      swap1\n      tag_23\n      jump\t// in\n    tag_22:\n      pop\n      0x20\n      dup3\n      add\n      mload\n      dup2\n      0x01\n      add\n      sstore\n      swap1\n      pop\n      pop\n        /* \"contracts/MyCantract1.sol\":329:340  increment() */\n      tag_24\n        /* \"contracts/MyCantract1.sol\":329:338  increment */\n      tag_25\n        /* \"contracts/MyCantract1.sol\":329:340  increment() */\n      jump\t// in\n    tag_24:\n      pop\n        /* \"contracts/MyCantract1.sol\":353:362  peopleLen */\n      sload(0x01)\n        /* \"contracts/MyCantract1.sol\":346:362  return peopleLen */\n      swap1\n      pop\n        /* \"contracts/MyCantract1.sol\":208:367  function addPerson(string memory _name, uint _age) public returns (uint){... */\n      swap3\n      swap2\n      pop\n      pop\n      jump\t// out\n        /* \"contracts/MyCantract1.sol\":137:173  mapping(uint=> Person) public people */\n    tag_18:\n      mstore(0x20, 0x00)\n      dup1\n      0x00\n      mstore\n      keccak256(0x00, 0x40)\n      0x00\n      swap2\n      pop\n      swap1\n      pop\n      dup1\n      0x00\n      add\n      dup1\n      sload\n      tag_26\n      swap1\n      tag_27\n      jump\t// in\n    tag_26:\n      dup1\n      0x1f\n      add\n      0x20\n      dup1\n      swap2\n      div\n      mul\n      0x20\n      add\n      mload(0x40)\n      swap1\n      dup2\n      add\n      0x40\n      mstore\n      dup1\n      swap3\n      swap2\n      swap1\n      dup2\n      dup2\n      mstore\n      0x20\n      add\n      dup3\n      dup1\n      sload\n      tag_28\n      swap1\n      tag_27\n      jump\t// in\n    tag_28:\n      dup1\n      iszero\n      tag_29\n      jumpi\n      dup1\n      0x1f\n      lt\n      tag_30\n      jumpi\n      0x0100\n      dup1\n      dup4\n      sload\n      div\n      mul\n      dup4\n      mstore\n      swap2\n      0x20\n      add\n      swap2\n      jump(tag_29)\n    tag_30:\n      dup3\n      add\n      swap2\n      swap1\n      0x00\n      mstore\n      keccak256(0x00, 0x20)\n      swap1\n    tag_31:\n      dup2\n      sload\n      dup2\n      mstore\n      swap1\n      0x01\n      add\n      swap1\n      0x20\n      add\n      dup1\n      dup4\n      gt\n      tag_31\n      jumpi\n      dup3\n      swap1\n      sub\n      0x1f\n      and\n      dup3\n      add\n      swap2\n    tag_29:\n      pop\n      pop\n      pop\n      pop\n      pop\n      swap1\n      dup1\n      0x01\n      add\n      sload\n      swap1\n      pop\n      dup3\n      jump\t// out\n        /* \"contracts/MyCantract1.sol\":370:455  function increment() internal returns (bool){... */\n    tag_25:\n        /* \"contracts/MyCantract1.sol\":409:413  bool */\n      0x00\n        /* \"contracts/MyCantract1.sol\":432:433  1 */\n      0x01\n        /* \"contracts/MyCantract1.sol\":420:429  peopleLen */\n      dup1\n      0x00\n        /* \"contracts/MyCantract1.sol\":420:433  peopleLen +=1 */\n      dup3\n      dup3\n      sload\n      tag_33\n      swap2\n      swap1\n      tag_34\n      jump\t// in\n    tag_33:\n      swap3\n      pop\n      pop\n      dup2\n      swap1\n      sstore\n      pop\n        /* \"contracts/MyCantract1.sol\":446:450  true */\n      0x01\n        /* \"contracts/MyCantract1.sol\":439:450  return true */\n      swap1\n      pop\n        /* \"contracts/MyCantract1.sol\":370:455  function increment() internal returns (bool){... */\n      swap1\n      jump\t// out\n        /* \"#utility.yul\":7:84   */\n    tag_35:\n        /* \"#utility.yul\":44:51   */\n      0x00\n        /* \"#utility.yul\":73:78   */\n      dup2\n        /* \"#utility.yul\":62:78   */\n      swap1\n      pop\n        /* \"#utility.yul\":7:84   */\n      swap2\n      swap1\n      pop\n      jump\t// out\n        /* \"#utility.yul\":90:208   */\n    tag_36:\n        /* \"#utility.yul\":177:201   */\n      tag_76\n        /* \"#utility.yul\":195:200   */\n      dup2\n        /* \"#utility.yul\":177:201   */\n      tag_35\n      jump\t// in\n    tag_76:\n        /* \"#utility.yul\":172:175   */\n      dup3\n        /* \"#utility.yul\":165:202   */\n      mstore\n        /* \"#utility.yul\":90:208   */\n      pop\n      pop\n      jump\t// out\n        /* \"#utility.yul\":214:436   */\n    tag_9:\n        /* \"#utility.yul\":307:311   */\n      0x00\n        /* \"#utility.yul\":345:347   */\n      0x20\n        /* \"#utility.yul\":334:343   */\n      dup3\n        /* \"#utility.yul\":330:348   */\n      add\n        /* \"#utility.yul\":322:348   */\n      swap1\n      pop\n        /* \"#utility.yul\":358:429   */\n      tag_78\n        /* \"#utility.yul\":426:427   */\n      0x00\n        /* \"#utility.yul\":415:424   */\n      dup4\n        /* \"#utility.yul\":411:428   */\n      add\n        /* \"#utility.yul\":402:408   */\n      dup5\n        /* \"#utility.yul\":358:429   */\n      tag_36\n      jump\t// in\n    tag_78:\n        /* \"#utility.yul\":214:436   */\n      swap3\n      swap2\n      pop\n      pop\n      jump\t// out\n        /* \"#utility.yul\":442:517   */\n    tag_37:\n        /* \"#utility.yul\":475:481   */\n      0x00\n        /* \"#utility.yul\":508:510   */\n      0x40\n        /* \"#utility.yul\":502:511   */\n      mload\n        /* \"#utility.yul\":492:511   */\n      swap1\n      pop\n        /* \"#utility.yul\":442:517   */\n      swap1\n      jump\t// out\n        /* \"#utility.yul\":523:640   */\n    tag_38:\n        /* \"#utility.yul\":632:633   */\n      0x00\n        /* \"#utility.yul\":629:630   */\n      dup1\n        /* \"#utility.yul\":622:634   */\n      revert\n        /* \"#utility.yul\":646:763   */\n    tag_39:\n        /* \"#utility.yul\":755:756   */\n      0x00\n        /* \"#utility.yul\":752:753   */\n      dup1\n        /* \"#utility.yul\":745:757   */\n      revert\n        /* \"#utility.yul\":769:886   */\n    tag_40:\n        /* \"#utility.yul\":878:879   */\n      0x00\n        /* \"#utility.yul\":875:876   */\n      dup1\n        /* \"#utility.yul\":868:880   */\n      revert\n        /* \"#utility.yul\":892:1009   */\n    tag_41:\n        /* \"#utility.yul\":1001:1002   */\n      0x00\n        /* \"#utility.yul\":998:999   */\n      dup1\n        /* \"#utility.yul\":991:1003   */\n      revert\n        /* \"#utility.yul\":1015:1117   */\n    tag_42:\n        /* \"#utility.yul\":1056:1062   */\n      0x00\n        /* \"#utility.yul\":1107:1109   */\n      0x1f\n        /* \"#utility.yul\":1103:1110   */\n      not\n        /* \"#utility.yul\":1098:1100   */\n      0x1f\n        /* \"#utility.yul\":1091:1096   */\n      dup4\n        /* \"#utility.yul\":1087:1101   */\n      add\n        /* \"#utility.yul\":1083:1111   */\n      and\n        /* \"#utility.yul\":1073:1111   */\n      swap1\n      pop\n        /* \"#utility.yul\":1015:1117   */\n      swap2\n      swap1\n      pop\n      jump\t// out\n        /* \"#utility.yul\":1123:1303   */\n    tag_43:\n        /* \"#utility.yul\":1171:1248   */\n      0x4e487b7100000000000000000000000000000000000000000000000000000000\n        /* \"#utility.yul\":1168:1169   */\n      0x00\n        /* \"#utility.yul\":1161:1249   */\n      mstore\n        /* \"#utility.yul\":1268:1272   */\n      0x41\n        /* \"#utility.yul\":1265:1266   */\n      0x04\n        /* \"#utility.yul\":1258:1273   */\n      mstore\n        /* \"#utility.yul\":1292:1296   */\n      0x24\n        /* \"#utility.yul\":1289:1290   */\n      0x00\n        /* \"#utility.yul\":1282:1297   */\n      revert\n        /* \"#utility.yul\":1309:1590   */\n    tag_44:\n        /* \"#utility.yul\":1392:1419   */\n      tag_87\n        /* \"#utility.yul\":1414:1418   */\n      dup3\n        /* \"#utility.yul\":1392:1419   */\n      tag_42\n      jump\t// in\n    tag_87:\n        /* \"#utility.yul\":1384:1390   */\n      dup2\n        /* \"#utility.yul\":1380:1420   */\n      add\n        /* \"#utility.yul\":1522:1528   */\n      dup2\n        /* \"#utility.yul\":1510:1520   */\n      dup2\n        /* \"#utility.yul\":1507:1529   */\n      lt\n        /* \"#utility.yul\":1486:1504   */\n      0xffffffffffffffff\n        /* \"#utility.yul\":1474:1484   */\n      dup3\n        /* \"#utility.yul\":1471:1505   */\n      gt\n        /* \"#utility.yul\":1468:1530   */\n      or\n        /* \"#utility.yul\":1465:1553   */\n      iszero\n      tag_88\n      jumpi\n        /* \"#utility.yul\":1533:1551   */\n      tag_89\n      tag_43\n      jump\t// in\n    tag_89:\n        /* \"#utility.yul\":1465:1553   */\n    tag_88:\n        /* \"#utility.yul\":1573:1583   */\n      dup1\n        /* \"#utility.yul\":1569:1571   */\n      0x40\n        /* \"#utility.yul\":1562:1584   */\n      mstore\n        /* \"#utility.yul\":1352:1590   */\n      pop\n        /* \"#utility.yul\":1309:1590   */\n      pop\n      pop\n      jump\t// out\n        /* \"#utility.yul\":1596:1725   */\n    tag_45:\n        /* \"#utility.yul\":1630:1636   */\n      0x00\n        /* \"#utility.yul\":1657:1677   */\n      tag_91\n      tag_37\n      jump\t// in\n    tag_91:\n        /* \"#utility.yul\":1647:1677   */\n      swap1\n      pop\n        /* \"#utility.yul\":1686:1719   */\n      tag_92\n        /* \"#utility.yul\":1714:1718   */\n      dup3\n        /* \"#utility.yul\":1706:1712   */\n      dup3\n        /* \"#utility.yul\":1686:1719   */\n      tag_44\n      jump\t// in\n    tag_92:\n        /* \"#utility.yul\":1596:1725   */\n      swap2\n      swap1\n      pop\n      jump\t// out\n        /* \"#utility.yul\":1731:2039   */\n    tag_46:\n        /* \"#utility.yul\":1793:1797   */\n      0x00\n        /* \"#utility.yul\":1883:1901   */\n      0xffffffffffffffff\n        /* \"#utility.yul\":1875:1881   */\n      dup3\n        /* \"#utility.yul\":1872:1902   */\n      gt\n        /* \"#utility.yul\":1869:1925   */\n      iszero\n      tag_94\n      jumpi\n        /* \"#utility.yul\":1905:1923   */\n      tag_95\n      tag_43\n      jump\t// in\n    tag_95:\n        /* \"#utility.yul\":1869:1925   */\n    tag_94:\n        /* \"#utility.yul\":1943:1972   */\n      tag_96\n        /* \"#utility.yul\":1965:1971   */\n      dup3\n        /* \"#utility.yul\":1943:1972   */\n      tag_42\n      jump\t// in\n    tag_96:\n        /* \"#utility.yul\":1935:1972   */\n      swap1\n      pop\n        /* \"#utility.yul\":2027:2031   */\n      0x20\n        /* \"#utility.yul\":2021:2025   */\n      dup2\n        /* \"#utility.yul\":2017:2032   */\n      add\n        /* \"#utility.yul\":2009:2032   */\n      swap1\n      pop\n        /* \"#utility.yul\":1731:2039   */\n      swap2\n      swap1\n      pop\n      jump\t// out\n        /* \"#utility.yul\":2045:2193   */\n    tag_47:\n        /* \"#utility.yul\":2143:2149   */\n      dup3\n        /* \"#utility.yul\":2138:2141   */\n      dup2\n        /* \"#utility.yul\":2133:2136   */\n      dup4\n        /* \"#utility.yul\":2120:2150   */\n      calldatacopy\n        /* \"#utility.yul\":2184:2185   */\n      0x00\n        /* \"#utility.yul\":2175:2181   */\n      dup4\n        /* \"#utility.yul\":2170:2173   */\n      dup4\n        /* \"#utility.yul\":2166:2182   */\n      add\n        /* \"#utility.yul\":2159:2186   */\n      mstore\n        /* \"#utility.yul\":2045:2193   */\n      pop\n      pop\n      pop\n      jump\t// out\n        /* \"#utility.yul\":2199:2624   */\n    tag_48:\n        /* \"#utility.yul\":2277:2282   */\n      0x00\n        /* \"#utility.yul\":2302:2368   */\n      tag_99\n        /* \"#utility.yul\":2318:2367   */\n      tag_100\n        /* \"#utility.yul\":2360:2366   */\n      dup5\n        /* \"#utility.yul\":2318:2367   */\n      tag_46\n      jump\t// in\n    tag_100:\n        /* \"#utility.yul\":2302:2368   */\n      tag_45\n      jump\t// in\n    tag_99:\n        /* \"#utility.yul\":2293:2368   */\n      swap1\n      pop\n        /* \"#utility.yul\":2391:2397   */\n      dup3\n        /* \"#utility.yul\":2384:2389   */\n      dup2\n        /* \"#utility.yul\":2377:2398   */\n      mstore\n        /* \"#utility.yul\":2429:2433   */\n      0x20\n        /* \"#utility.yul\":2422:2427   */\n      dup2\n        /* \"#utility.yul\":2418:2434   */\n      add\n        /* \"#utility.yul\":2467:2470   */\n      dup5\n        /* \"#utility.yul\":2458:2464   */\n      dup5\n        /* \"#utility.yul\":2453:2456   */\n      dup5\n        /* \"#utility.yul\":2449:2465   */\n      add\n        /* \"#utility.yul\":2446:2471   */\n      gt\n        /* \"#utility.yul\":2443:2555   */\n      iszero\n      tag_101\n      jumpi\n        /* \"#utility.yul\":2474:2553   */\n      tag_102\n      tag_41\n      jump\t// in\n    tag_102:\n        /* \"#utility.yul\":2443:2555   */\n    tag_101:\n        /* \"#utility.yul\":2564:2618   */\n      tag_103\n        /* \"#utility.yul\":2611:2617   */\n      dup5\n        /* \"#utility.yul\":2606:2609   */\n      dup3\n        /* \"#utility.yul\":2601:2604   */\n      dup6\n        /* \"#utility.yul\":2564:2618   */\n      tag_47\n      jump\t// in\n    tag_103:\n        /* \"#utility.yul\":2283:2624   */\n      pop\n        /* \"#utility.yul\":2199:2624   */\n      swap4\n      swap3\n      pop\n      pop\n      pop\n      jump\t// out\n        /* \"#utility.yul\":2644:2984   */\n    tag_49:\n        /* \"#utility.yul\":2700:2705   */\n      0x00\n        /* \"#utility.yul\":2749:2752   */\n      dup3\n        /* \"#utility.yul\":2742:2746   */\n      0x1f\n        /* \"#utility.yul\":2734:2740   */\n      dup4\n        /* \"#utility.yul\":2730:2747   */\n      add\n        /* \"#utility.yul\":2726:2753   */\n      slt\n        /* \"#utility.yul\":2716:2838   */\n      tag_105\n      jumpi\n        /* \"#utility.yul\":2757:2836   */\n      tag_106\n      tag_40\n      jump\t// in\n    tag_106:\n        /* \"#utility.yul\":2716:2838   */\n    tag_105:\n        /* \"#utility.yul\":2874:2880   */\n      dup2\n        /* \"#utility.yul\":2861:2881   */\n      calldataload\n        /* \"#utility.yul\":2899:2978   */\n      tag_107\n        /* \"#utility.yul\":2974:2977   */\n      dup5\n        /* \"#utility.yul\":2966:2972   */\n      dup3\n        /* \"#utility.yul\":2959:2963   */\n      0x20\n        /* \"#utility.yul\":2951:2957   */\n      dup7\n        /* \"#utility.yul\":2947:2964   */\n      add\n        /* \"#utility.yul\":2899:2978   */\n      tag_48\n      jump\t// in\n    tag_107:\n        /* \"#utility.yul\":2890:2978   */\n      swap2\n      pop\n        /* \"#utility.yul\":2706:2984   */\n      pop\n        /* \"#utility.yul\":2644:2984   */\n      swap3\n      swap2\n      pop\n      pop\n      jump\t// out\n        /* \"#utility.yul\":2990:3112   */\n    tag_50:\n        /* \"#utility.yul\":3063:3087   */\n      tag_109\n        /* \"#utility.yul\":3081:3086   */\n      dup2\n        /* \"#utility.yul\":3063:3087   */\n      tag_35\n      jump\t// in\n    tag_109:\n        /* \"#utility.yul\":3056:3061   */\n      dup2\n        /* \"#utility.yul\":3053:3088   */\n      eq\n        /* \"#utility.yul\":3043:3106   */\n      tag_110\n      jumpi\n        /* \"#utility.yul\":3102:3103   */\n      0x00\n        /* \"#utility.yul\":3099:3100   */\n      dup1\n        /* \"#utility.yul\":3092:3104   */\n      revert\n        /* \"#utility.yul\":3043:3106   */\n    tag_110:\n        /* \"#utility.yul\":2990:3112   */\n      pop\n      jump\t// out\n        /* \"#utility.yul\":3118:3257   */\n    tag_51:\n        /* \"#utility.yul\":3164:3169   */\n      0x00\n        /* \"#utility.yul\":3202:3208   */\n      dup2\n        /* \"#utility.yul\":3189:3209   */\n      calldataload\n        /* \"#utility.yul\":3180:3209   */\n      swap1\n      pop\n        /* \"#utility.yul\":3218:3251   */\n      tag_112\n        /* \"#utility.yul\":3245:3250   */\n      dup2\n        /* \"#utility.yul\":3218:3251   */\n      tag_50\n      jump\t// in\n    tag_112:\n        /* \"#utility.yul\":3118:3257   */\n      swap3\n      swap2\n      pop\n      pop\n      jump\t// out\n        /* \"#utility.yul\":3263:3917   */\n    tag_12:\n        /* \"#utility.yul\":3341:3347   */\n      0x00\n        /* \"#utility.yul\":3349:3355   */\n      dup1\n        /* \"#utility.yul\":3398:3400   */\n      0x40\n        /* \"#utility.yul\":3386:3395   */\n      dup4\n        /* \"#utility.yul\":3377:3384   */\n      dup6\n        /* \"#utility.yul\":3373:3396   */\n      sub\n        /* \"#utility.yul\":3369:3401   */\n      slt\n        /* \"#utility.yul\":3366:3485   */\n      iszero\n      tag_114\n      jumpi\n        /* \"#utility.yul\":3404:3483   */\n      tag_115\n      tag_38\n      jump\t// in\n    tag_115:\n        /* \"#utility.yul\":3366:3485   */\n    tag_114:\n        /* \"#utility.yul\":3552:3553   */\n      0x00\n        /* \"#utility.yul\":3541:3550   */\n      dup4\n        /* \"#utility.yul\":3537:3554   */\n      add\n        /* \"#utility.yul\":3524:3555   */\n      calldataload\n        /* \"#utility.yul\":3582:3600   */\n      0xffffffffffffffff\n        /* \"#utility.yul\":3574:3580   */\n      dup2\n        /* \"#utility.yul\":3571:3601   */\n      gt\n        /* \"#utility.yul\":3568:3685   */\n      iszero\n      tag_116\n      jumpi\n        /* \"#utility.yul\":3604:3683   */\n      tag_117\n      tag_39\n      jump\t// in\n    tag_117:\n        /* \"#utility.yul\":3568:3685   */\n    tag_116:\n        /* \"#utility.yul\":3709:3772   */\n      tag_118\n        /* \"#utility.yul\":3764:3771   */\n      dup6\n        /* \"#utility.yul\":3755:3761   */\n      dup3\n        /* \"#utility.yul\":3744:3753   */\n      dup7\n        /* \"#utility.yul\":3740:3762   */\n      add\n        /* \"#utility.yul\":3709:3772   */\n      tag_49\n      jump\t// in\n    tag_118:\n        /* \"#utility.yul\":3699:3772   */\n      swap3\n      pop\n        /* \"#utility.yul\":3495:3782   */\n      pop\n        /* \"#utility.yul\":3821:3823   */\n      0x20\n        /* \"#utility.yul\":3847:3900   */\n      tag_119\n        /* \"#utility.yul\":3892:3899   */\n      dup6\n        /* \"#utility.yul\":3883:3889   */\n      dup3\n        /* \"#utility.yul\":3872:3881   */\n      dup7\n        /* \"#utility.yul\":3868:3890   */\n      add\n        /* \"#utility.yul\":3847:3900   */\n      tag_51\n      jump\t// in\n    tag_119:\n        /* \"#utility.yul\":3837:3900   */\n      swap2\n      pop\n        /* \"#utility.yul\":3792:3910   */\n      pop\n        /* \"#utility.yul\":3263:3917   */\n      swap3\n      pop\n      swap3\n      swap1\n      pop\n      jump\t// out\n        /* \"#utility.yul\":3923:4252   */\n    tag_17:\n        /* \"#utility.yul\":3982:3988   */\n      0x00\n        /* \"#utility.yul\":4031:4033   */\n      0x20\n        /* \"#utility.yul\":4019:4028   */\n      dup3\n        /* \"#utility.yul\":4010:4017   */\n      dup5\n        /* \"#utility.yul\":4006:4029   */\n      sub\n        /* \"#utility.yul\":4002:4034   */\n      slt\n        /* \"#utility.yul\":3999:4118   */\n      iszero\n      tag_121\n      jumpi\n        /* \"#utility.yul\":4037:4116   */\n      tag_122\n      tag_38\n      jump\t// in\n    tag_122:\n        /* \"#utility.yul\":3999:4118   */\n    tag_121:\n        /* \"#utility.yul\":4157:4158   */\n      0x00\n        /* \"#utility.yul\":4182:4235   */\n      tag_123\n        /* \"#utility.yul\":4227:4234   */\n      dup5\n        /* \"#utility.yul\":4218:4224   */\n      dup3\n        /* \"#utility.yul\":4207:4216   */\n      dup6\n        /* \"#utility.yul\":4203:4225   */\n      add\n        /* \"#utility.yul\":4182:4235   */\n      tag_51\n      jump\t// in\n    tag_123:\n        /* \"#utility.yul\":4172:4235   */\n      swap2\n      pop\n        /* \"#utility.yul\":4128:4245   */\n      pop\n        /* \"#utility.yul\":3923:4252   */\n      swap3\n      swap2\n      pop\n      pop\n      jump\t// out\n        /* \"#utility.yul\":4258:4357   */\n    tag_52:\n        /* \"#utility.yul\":4310:4316   */\n      0x00\n        /* \"#utility.yul\":4344:4349   */\n      dup2\n        /* \"#utility.yul\":4338:4350   */\n      mload\n        /* \"#utility.yul\":4328:4350   */\n      swap1\n      pop\n        /* \"#utility.yul\":4258:4357   */\n      swap2\n      swap1\n      pop\n      jump\t// out\n        /* \"#utility.yul\":4363:4532   */\n    tag_53:\n        /* \"#utility.yul\":4447:4458   */\n      0x00\n        /* \"#utility.yul\":4481:4487   */\n      dup3\n        /* \"#utility.yul\":4476:4479   */\n      dup3\n        /* \"#utility.yul\":4469:4488   */\n      mstore\n        /* \"#utility.yul\":4521:4525   */\n      0x20\n        /* \"#utility.yul\":4516:4519   */\n      dup3\n        /* \"#utility.yul\":4512:4526   */\n      add\n        /* \"#utility.yul\":4497:4526   */\n      swap1\n      pop\n        /* \"#utility.yul\":4363:4532   */\n      swap3\n      swap2\n      pop\n      pop\n      jump\t// out\n        /* \"#utility.yul\":4538:4677   */\n    tag_54:\n        /* \"#utility.yul\":4627:4633   */\n      dup3\n        /* \"#utility.yul\":4622:4625   */\n      dup2\n        /* \"#utility.yul\":4617:4620   */\n      dup4\n        /* \"#utility.yul\":4611:4634   */\n      mcopy\n        /* \"#utility.yul\":4668:4669   */\n      0x00\n        /* \"#utility.yul\":4659:4665   */\n      dup4\n        /* \"#utility.yul\":4654:4657   */\n      dup4\n        /* \"#utility.yul\":4650:4666   */\n      add\n        /* \"#utility.yul\":4643:4670   */\n      mstore\n        /* \"#utility.yul\":4538:4677   */\n      pop\n      pop\n      pop\n      jump\t// out\n        /* \"#utility.yul\":4683:5060   */\n    tag_55:\n        /* \"#utility.yul\":4771:4774   */\n      0x00\n        /* \"#utility.yul\":4799:4838   */\n      tag_128\n        /* \"#utility.yul\":4832:4837   */\n      dup3\n        /* \"#utility.yul\":4799:4838   */\n      tag_52\n      jump\t// in\n    tag_128:\n        /* \"#utility.yul\":4854:4925   */\n      tag_129\n        /* \"#utility.yul\":4918:4924   */\n      dup2\n        /* \"#utility.yul\":4913:4916   */\n      dup6\n        /* \"#utility.yul\":4854:4925   */\n      tag_53\n      jump\t// in\n    tag_129:\n        /* \"#utility.yul\":4847:4925   */\n      swap4\n      pop\n        /* \"#utility.yul\":4934:4999   */\n      tag_130\n        /* \"#utility.yul\":4992:4998   */\n      dup2\n        /* \"#utility.yul\":4987:4990   */\n      dup6\n        /* \"#utility.yul\":4980:4984   */\n      0x20\n        /* \"#utility.yul\":4973:4978   */\n      dup7\n        /* \"#utility.yul\":4969:4985   */\n      add\n        /* \"#utility.yul\":4934:4999   */\n      tag_54\n      jump\t// in\n    tag_130:\n        /* \"#utility.yul\":5024:5053   */\n      tag_131\n        /* \"#utility.yul\":5046:5052   */\n      dup2\n        /* \"#utility.yul\":5024:5053   */\n      tag_42\n      jump\t// in\n    tag_131:\n        /* \"#utility.yul\":5019:5022   */\n      dup5\n        /* \"#utility.yul\":5015:5054   */\n      add\n        /* \"#utility.yul\":5008:5054   */\n      swap2\n      pop\n        /* \"#utility.yul\":4775:5060   */\n      pop\n        /* \"#utility.yul\":4683:5060   */\n      swap3\n      swap2\n      pop\n      pop\n      jump\t// out\n        /* \"#utility.yul\":5066:5489   */\n    tag_20:\n        /* \"#utility.yul\":5207:5211   */\n      0x00\n        /* \"#utility.yul\":5245:5247   */\n      0x40\n        /* \"#utility.yul\":5234:5243   */\n      dup3\n        /* \"#utility.yul\":5230:5248   */\n      add\n        /* \"#utility.yul\":5222:5248   */\n      swap1\n      pop\n        /* \"#utility.yul\":5294:5303   */\n      dup2\n        /* \"#utility.yul\":5288:5292   */\n      dup2\n        /* \"#utility.yul\":5284:5304   */\n      sub\n        /* \"#utility.yul\":5280:5281   */\n      0x00\n        /* \"#utility.yul\":5269:5278   */\n      dup4\n        /* \"#utility.yul\":5265:5282   */\n      add\n        /* \"#utility.yul\":5258:5305   */\n      mstore\n        /* \"#utility.yul\":5322:5400   */\n      tag_133\n        /* \"#utility.yul\":5395:5399   */\n      dup2\n        /* \"#utility.yul\":5386:5392   */\n      dup6\n        /* \"#utility.yul\":5322:5400   */\n      tag_55\n      jump\t// in\n    tag_133:\n        /* \"#utility.yul\":5314:5400   */\n      swap1\n      pop\n        /* \"#utility.yul\":5410:5482   */\n      tag_134\n        /* \"#utility.yul\":5478:5480   */\n      0x20\n        /* \"#utility.yul\":5467:5476   */\n      dup4\n        /* \"#utility.yul\":5463:5481   */\n      add\n        /* \"#utility.yul\":5454:5460   */\n      dup5\n        /* \"#utility.yul\":5410:5482   */\n      tag_36\n      jump\t// in\n    tag_134:\n        /* \"#utility.yul\":5066:5489   */\n      swap4\n      swap3\n      pop\n      pop\n      pop\n      jump\t// out\n        /* \"#utility.yul\":5495:5675   */\n    tag_56:\n        /* \"#utility.yul\":5543:5620   */\n      0x4e487b7100000000000000000000000000000000000000000000000000000000\n        /* \"#utility.yul\":5540:5541   */\n      0x00\n        /* \"#utility.yul\":5533:5621   */\n      mstore\n        /* \"#utility.yul\":5640:5644   */\n      0x22\n        /* \"#utility.yul\":5637:5638   */\n      0x04\n        /* \"#utility.yul\":5630:5645   */\n      mstore\n        /* \"#utility.yul\":5664:5668   */\n      0x24\n        /* \"#utility.yul\":5661:5662   */\n      0x00\n        /* \"#utility.yul\":5654:5669   */\n      revert\n        /* \"#utility.yul\":5681:6001   */\n    tag_27:\n        /* \"#utility.yul\":5725:5731   */\n      0x00\n        /* \"#utility.yul\":5762:5763   */\n      0x02\n        /* \"#utility.yul\":5756:5760   */\n      dup3\n        /* \"#utility.yul\":5752:5764   */\n      div\n        /* \"#utility.yul\":5742:5764   */\n      swap1\n      pop\n        /* \"#utility.yul\":5809:5810   */\n      0x01\n        /* \"#utility.yul\":5803:5807   */\n      dup3\n        /* \"#utility.yul\":5799:5811   */\n      and\n        /* \"#utility.yul\":5830:5848   */\n      dup1\n        /* \"#utility.yul\":5820:5901   */\n      tag_137\n      jumpi\n        /* \"#utility.yul\":5886:5890   */\n      0x7f\n        /* \"#utility.yul\":5878:5884   */\n      dup3\n        /* \"#utility.yul\":5874:5891   */\n      and\n        /* \"#utility.yul\":5864:5891   */\n      swap2\n      pop\n        /* \"#utility.yul\":5820:5901   */\n    tag_137:\n        /* \"#utility.yul\":5948:5950   */\n      0x20\n        /* \"#utility.yul\":5940:5946   */\n      dup3\n        /* \"#utility.yul\":5937:5951   */\n      lt\n        /* \"#utility.yul\":5917:5935   */\n      dup2\n        /* \"#utility.yul\":5914:5952   */\n      sub\n        /* \"#utility.yul\":5911:5995   */\n      tag_138\n      jumpi\n        /* \"#utility.yul\":5967:5985   */\n      tag_139\n      tag_56\n      jump\t// in\n    tag_139:\n        /* \"#utility.yul\":5911:5995   */\n    tag_138:\n        /* \"#utility.yul\":5732:6001   */\n      pop\n        /* \"#utility.yul\":5681:6001   */\n      swap2\n      swap1\n      pop\n      jump\t// out\n        /* \"#utility.yul\":6007:6148   */\n    tag_57:\n        /* \"#utility.yul\":6056:6060   */\n      0x00\n        /* \"#utility.yul\":6079:6082   */\n      dup2\n        /* \"#utility.yul\":6071:6082   */\n      swap1\n      pop\n        /* \"#utility.yul\":6102:6105   */\n      dup2\n        /* \"#utility.yul\":6099:6100   */\n      0x00\n        /* \"#utility.yul\":6092:6106   */\n      mstore\n        /* \"#utility.yul\":6136:6140   */\n      0x20\n        /* \"#utility.yul\":6133:6134   */\n      0x00\n        /* \"#utility.yul\":6123:6141   */\n      keccak256\n        /* \"#utility.yul\":6115:6141   */\n      swap1\n      pop\n        /* \"#utility.yul\":6007:6148   */\n      swap2\n      swap1\n      pop\n      jump\t// out\n        /* \"#utility.yul\":6154:6247   */\n    tag_58:\n        /* \"#utility.yul\":6191:6197   */\n      0x00\n        /* \"#utility.yul\":6238:6240   */\n      0x20\n        /* \"#utility.yul\":6233:6235   */\n      0x1f\n        /* \"#utility.yul\":6226:6231   */\n      dup4\n        /* \"#utility.yul\":6222:6236   */\n      add\n        /* \"#utility.yul\":6218:6241   */\n      div\n        /* \"#utility.yul\":6208:6241   */\n      swap1\n      pop\n        /* \"#utility.yul\":6154:6247   */\n      swap2\n      swap1\n      pop\n      jump\t// out\n        /* \"#utility.yul\":6253:6360   */\n    tag_59:\n        /* \"#utility.yul\":6297:6305   */\n      0x00\n        /* \"#utility.yul\":6347:6352   */\n      dup3\n        /* \"#utility.yul\":6341:6345   */\n      dup3\n        /* \"#utility.yul\":6337:6353   */\n      shl\n        /* \"#utility.yul\":6316:6353   */\n      swap1\n      pop\n        /* \"#utility.yul\":6253:6360   */\n      swap3\n      swap2\n      pop\n      pop\n      jump\t// out\n        /* \"#utility.yul\":6366:6759   */\n    tag_60:\n        /* \"#utility.yul\":6435:6441   */\n      0x00\n        /* \"#utility.yul\":6485:6486   */\n      0x08\n        /* \"#utility.yul\":6473:6483   */\n      dup4\n        /* \"#utility.yul\":6469:6487   */\n      mul\n        /* \"#utility.yul\":6508:6605   */\n      tag_144\n        /* \"#utility.yul\":6538:6604   */\n      0xffffffffffffffffffffffffffffffffffffffffffffffffffffffffffffffff\n        /* \"#utility.yul\":6527:6536   */\n      dup3\n        /* \"#utility.yul\":6508:6605   */\n      tag_59\n      jump\t// in\n    tag_144:\n        /* \"#utility.yul\":6626:6665   */\n      tag_145\n        /* \"#utility.yul\":6656:6664   */\n      dup7\n        /* \"#utility.yul\":6645:6654   */\n      dup4\n        /* \"#utility.yul\":6626:6665   */\n      tag_59\n      jump\t// in\n    tag_145:\n        /* \"#utility.yul\":6614:6665   */\n      swap6\n      pop\n        /* \"#utility.yul\":6698:6702   */\n      dup1\n        /* \"#utility.yul\":6694:6703   */\n      not\n        /* \"#utility.yul\":6687:6692   */\n      dup5\n        /* \"#utility.yul\":6683:6704   */\n      and\n        /* \"#utility.yul\":6674:6704   */\n      swap4\n      pop\n        /* \"#utility.yul\":6747:6751   */\n      dup1\n        /* \"#utility.yul\":6737:6745   */\n      dup7\n        /* \"#utility.yul\":6733:6752   */\n      and\n        /* \"#utility.yul\":6726:6731   */\n      dup5\n        /* \"#utility.yul\":6723:6753   */\n      or\n        /* \"#utility.yul\":6713:6753   */\n      swap3\n      pop\n        /* \"#utility.yul\":6442:6759   */\n      pop\n      pop\n        /* \"#utility.yul\":6366:6759   */\n      swap4\n      swap3\n      pop\n      pop\n      pop\n      jump\t// out\n        /* \"#utility.yul\":6765:6825   */\n    tag_61:\n        /* \"#utility.yul\":6793:6796   */\n      0x00\n        /* \"#utility.yul\":6814:6819   */\n      dup2\n        /* \"#utility.yul\":6807:6819   */\n      swap1\n      pop\n        /* \"#utility.yul\":6765:6825   */\n      swap2\n      swap1\n      pop\n      jump\t// out\n        /* \"#utility.yul\":6831:6973   */\n    tag_62:\n        /* \"#utility.yul\":6881:6890   */\n      0x00\n        /* \"#utility.yul\":6914:6967   */\n      tag_148\n        /* \"#utility.yul\":6932:6966   */\n      tag_149\n        /* \"#utility.yul\":6941:6965   */\n      tag_150\n        /* \"#utility.yul\":6959:6964   */\n      dup5\n        /* \"#utility.yul\":6941:6965   */\n      tag_35\n      jump\t// in\n    tag_150:\n        /* \"#utility.yul\":6932:6966   */\n      tag_61\n      jump\t// in\n    tag_149:\n        /* \"#utility.yul\":6914:6967   */\n      tag_35\n      jump\t// in\n    tag_148:\n        /* \"#utility.yul\":6901:6967   */\n      swap1\n      pop\n        /* \"#utility.yul\":6831:6973   */\n      swap2\n      swap1\n      pop\n      jump\t// out\n        /* \"#utility.yul\":6979:7054   */\n    tag_63:\n        /* \"#utility.yul\":7022:7025   */\n      0x00\n        /* \"#utility.yul\":7043:7048   */\n      dup2\n        /* \"#utility.yul\":7036:7048   */\n      swap1\n      pop\n        /* \"#utility.yul\":6979:7054   */\n      swap2\n      swap1\n      pop\n      jump\t// out\n        /* \"#utility.yul\":7060:7329   */\n    tag_64:\n        /* \"#utility.yul\":7170:7209   */\n      tag_153\n        /* \"#utility.yul\":7201:7208   */\n      dup4\n        /* \"#utility.yul\":7170:7209   */\n      tag_62\n      jump\t// in\n    tag_153:\n        /* \"#utility.yul\":7231:7322   */\n      tag_154\n        /* \"#utility.yul\":7280:7321   */\n      tag_155\n        /* \"#utility.yul\":7304:7320   */\n      dup3\n        /* \"#utility.yul\":7280:7321   */\n      tag_63\n      jump\t// in\n    tag_155:\n        /* \"#utility.yul\":7272:7278   */\n      dup5\n        /* \"#utility.yul\":7265:7269   */\n      dup5\n        /* \"#utility.yul\":7259:7270   */\n      sload\n        /* \"#utility.yul\":7231:7322   */\n      tag_60\n      jump\t// in\n    tag_154:\n        /* \"#utility.yul\":7225:7229   */\n      dup3\n        /* \"#utility.yul\":7218:7323   */\n      sstore\n        /* \"#utility.yul\":7136:7329   */\n      pop\n        /* \"#utility.yul\":7060:7329   */\n      pop\n      pop\n      pop\n      jump\t// out\n        /* \"#utility.yul\":7335:7408   */\n    tag_65:\n        /* \"#utility.yul\":7380:7383   */\n      0x00\n        /* \"#utility.yul\":7335:7408   */\n      swap1\n      jump\t// out\n        /* \"#utility.yul\":7414:7603   */\n    tag_66:\n        /* \"#utility.yul\":7491:7523   */\n      tag_158\n      tag_65\n      jump\t// in\n    tag_158:\n        /* \"#utility.yul\":7532:7597   */\n      tag_159\n        /* \"#utility.yul\":7590:7596   */\n      dup2\n        /* \"#utility.yul\":7582:7588   */\n      dup5\n        /* \"#utility.yul\":7576:7580   */\n      dup5\n        /* \"#utility.yul\":7532:7597   */\n      tag_64\n      jump\t// in\n    tag_159:\n        /* \"#utility.yul\":7467:7603   */\n      pop\n        /* \"#utility.yul\":7414:7603   */\n      pop\n      pop\n      jump\t// out\n        /* \"#utility.yul\":7609:7795   */\n    tag_67:\n        /* \"#utility.yul\":7669:7789   */\n    tag_161:\n        /* \"#utility.yul\":7686:7689   */\n      dup2\n        /* \"#utility.yul\":7679:7684   */\n      dup2\n        /* \"#utility.yul\":7676:7690   */\n      lt\n        /* \"#utility.yul\":7669:7789   */\n      iszero\n      tag_163\n      jumpi\n        /* \"#utility.yul\":7740:7779   */\n      tag_164\n        /* \"#utility.yul\":7777:7778   */\n      0x00\n        /* \"#utility.yul\":7770:7775   */\n      dup3\n        /* \"#utility.yul\":7740:7779   */\n      tag_66\n      jump\t// in\n    tag_164:\n        /* \"#utility.yul\":7713:7714   */\n      0x01\n        /* \"#utility.yul\":7706:7711   */\n      dup2\n        /* \"#utility.yul\":7702:7715   */\n      add\n        /* \"#utility.yul\":7693:7715   */\n      swap1\n      pop\n        /* \"#utility.yul\":7669:7789   */\n      jump(tag_161)\n    tag_163:\n        /* \"#utility.yul\":7609:7795   */\n      pop\n      pop\n      jump\t// out\n        /* \"#utility.yul\":7801:8344   */\n    tag_68:\n        /* \"#utility.yul\":7902:7904   */\n      0x1f\n        /* \"#utility.yul\":7897:7900   */\n      dup3\n        /* \"#utility.yul\":7894:7905   */\n      gt\n        /* \"#utility.yul\":7891:8337   */\n      iszero\n      tag_166\n      jumpi\n        /* \"#utility.yul\":7936:7974   */\n      tag_167\n        /* \"#utility.yul\":7968:7973   */\n      dup2\n        /* \"#utility.yul\":7936:7974   */\n      tag_57\n      jump\t// in\n    tag_167:\n        /* \"#utility.yul\":8020:8049   */\n      tag_168\n        /* \"#utility.yul\":8038:8048   */\n      dup5\n        /* \"#utility.yul\":8020:8049   */\n      tag_58\n      jump\t// in\n    tag_168:\n        /* \"#utility.yul\":8010:8018   */\n      dup2\n        /* \"#utility.yul\":8006:8050   */\n      add\n        /* \"#utility.yul\":8203:8205   */\n      0x20\n        /* \"#utility.yul\":8191:8201   */\n      dup6\n        /* \"#utility.yul\":8188:8206   */\n      lt\n        /* \"#utility.yul\":8185:8234   */\n      iszero\n      tag_169\n      jumpi\n        /* \"#utility.yul\":8224:8232   */\n      dup2\n        /* \"#utility.yul\":8209:8232   */\n      swap1\n      pop\n        /* \"#utility.yul\":8185:8234   */\n    tag_169:\n        /* \"#utility.yul\":8247:8327   */\n      tag_170\n        /* \"#utility.yul\":8303:8325   */\n      tag_171\n        /* \"#utility.yul\":8321:8324   */\n      dup6\n        /* \"#utility.yul\":8303:8325   */\n      tag_58\n      jump\t// in\n    tag_171:\n        /* \"#utility.yul\":8293:8301   */\n      dup4\n        /* \"#utility.yul\":8289:8326   */\n      add\n        /* \"#utility.yul\":8276:8287   */\n      dup3\n        /* \"#utility.yul\":8247:8327   */\n      tag_67\n      jump\t// in\n    tag_170:\n        /* \"#utility.yul\":7906:8337   */\n      pop\n      pop\n        /* \"#utility.yul\":7891:8337   */\n    tag_166:\n        /* \"#utility.yul\":7801:8344   */\n      pop\n      pop\n      pop\n      jump\t// out\n        /* \"#utility.yul\":8350:8467   */\n    tag_69:\n        /* \"#utility.yul\":8404:8412   */\n      0x00\n        /* \"#utility.yul\":8454:8459   */\n      dup3\n        /* \"#utility.yul\":8448:8452   */\n      dup3\n        /* \"#utility.yul\":8444:8460   */\n      shr\n        /* \"#utility.yul\":8423:8460   */\n      swap1\n      pop\n        /* \"#utility.yul\":8350:8467   */\n      swap3\n      swap2\n      pop\n      pop\n      jump\t// out\n        /* \"#utility.yul\":8473:8642   */\n    tag_70:\n        /* \"#utility.yul\":8517:8523   */\n      0x00\n        /* \"#utility.yul\":8550:8601   */\n      tag_174\n        /* \"#utility.yul\":8598:8599   */\n      0x00\n        /* \"#utility.yul\":8594:8600   */\n      not\n        /* \"#utility.yul\":8586:8591   */\n      dup5\n        /* \"#utility.yul\":8583:8584   */\n      0x08\n        /* \"#utility.yul\":8579:8592   */\n      mul\n        /* \"#utility.yul\":8550:8601   */\n      tag_69\n      jump\t// in\n    tag_174:\n        /* \"#utility.yul\":8546:8602   */\n      not\n        /* \"#utility.yul\":8631:8635   */\n      dup1\n        /* \"#utility.yul\":8625:8629   */\n      dup4\n        /* \"#utility.yul\":8621:8636   */\n      and\n        /* \"#utility.yul\":8611:8636   */\n      swap2\n      pop\n        /* \"#utility.yul\":8524:8642   */\n      pop\n        /* \"#utility.yul\":8473:8642   */\n      swap3\n      swap2\n      pop\n      pop\n      jump\t// out\n        /* \"#utility.yul\":8647:8942   */\n    tag_71:\n        /* \"#utility.yul\":8723:8727   */\n      0x00\n        /* \"#utility.yul\":8869:8898   */\n      tag_176\n        /* \"#utility.yul\":8894:8897   */\n      dup4\n        /* \"#utility.yul\":8888:8892   */\n      dup4\n        /* \"#utility.yul\":8869:8898   */\n      tag_70\n      jump\t// in\n    tag_176:\n        /* \"#utility.yul\":8861:8898   */\n      swap2\n      pop\n        /* \"#utility.yul\":8931:8934   */\n      dup3\n        /* \"#utility.yul\":8928:8929   */\n      0x02\n        /* \"#utility.yul\":8924:8935   */\n      mul\n        /* \"#utility.yul\":8918:8922   */\n      dup3\n        /* \"#utility.yul\":8915:8936   */\n      or\n        /* \"#utility.yul\":8907:8936   */\n      swap1\n      pop\n        /* \"#utility.yul\":8647:8942   */\n      swap3\n      swap2\n      pop\n      pop\n      jump\t// out\n        /* \"#utility.yul\":8947:10342   */\n    tag_23:\n        /* \"#utility.yul\":9064:9101   */\n      tag_178\n        /* \"#utility.yul\":9097:9100   */\n      dup3\n        /* \"#utility.yul\":9064:9101   */\n      tag_52\n      jump\t// in\n    tag_178:\n        /* \"#utility.yul\":9166:9184   */\n      0xffffffffffffffff\n        /* \"#utility.yul\":9158:9164   */\n      dup2\n        /* \"#utility.yul\":9155:9185   */\n      gt\n        /* \"#utility.yul\":9152:9208   */\n      iszero\n      tag_179\n      jumpi\n        /* \"#utility.yul\":9188:9206   */\n      tag_180\n      tag_43\n      jump\t// in\n    tag_180:\n        /* \"#utility.yul\":9152:9208   */\n    tag_179:\n        /* \"#utility.yul\":9232:9270   */\n      tag_181\n        /* \"#utility.yul\":9264:9268   */\n      dup3\n        /* \"#utility.yul\":9258:9269   */\n      sload\n        /* \"#utility.yul\":9232:9270   */\n      tag_27\n      jump\t// in\n    tag_181:\n        /* \"#utility.yul\":9317:9384   */\n      tag_182\n        /* \"#utility.yul\":9377:9383   */\n      dup3\n        /* \"#utility.yul\":9369:9375   */\n      dup3\n        /* \"#utility.yul\":9363:9367   */\n      dup6\n        /* \"#utility.yul\":9317:9384   */\n      tag_68\n      jump\t// in\n    tag_182:\n        /* \"#utility.yul\":9411:9412   */\n      0x00\n        /* \"#utility.yul\":9435:9439   */\n      0x20\n        /* \"#utility.yul\":9422:9439   */\n      swap1\n      pop\n        /* \"#utility.yul\":9467:9469   */\n      0x1f\n        /* \"#utility.yul\":9459:9465   */\n      dup4\n        /* \"#utility.yul\":9456:9470   */\n      gt\n        /* \"#utility.yul\":9484:9485   */\n      0x01\n        /* \"#utility.yul\":9479:10097   */\n      dup2\n      eq\n      tag_184\n      jumpi\n        /* \"#utility.yul\":10141:10142   */\n      0x00\n        /* \"#utility.yul\":10158:10164   */\n      dup5\n        /* \"#utility.yul\":10155:10232   */\n      iszero\n      tag_185\n      jumpi\n        /* \"#utility.yul\":10207:10216   */\n      dup3\n        /* \"#utility.yul\":10202:10205   */\n      dup8\n        /* \"#utility.yul\":10198:10217   */\n      add\n        /* \"#utility.yul\":10192:10218   */\n      mload\n        /* \"#utility.yul\":10183:10218   */\n      swap1\n      pop\n        /* \"#utility.yul\":10155:10232   */\n    tag_185:\n        /* \"#utility.yul\":10258:10325   */\n      tag_186\n        /* \"#utility.yul\":10318:10324   */\n      dup6\n        /* \"#utility.yul\":10311:10316   */\n      dup3\n        /* \"#utility.yul\":10258:10325   */\n      tag_71\n      jump\t// in\n    tag_186:\n        /* \"#utility.yul\":10252:10256   */\n      dup7\n        /* \"#utility.yul\":10245:10326   */\n      sstore\n        /* \"#utility.yul\":10114:10336   */\n      pop\n        /* \"#utility.yul\":9449:10336   */\n      jump(tag_183)\n        /* \"#utility.yul\":9479:10097   */\n    tag_184:\n        /* \"#utility.yul\":9531:9535   */\n      0x1f\n        /* \"#utility.yul\":9527:9536   */\n      not\n        /* \"#utility.yul\":9519:9525   */\n      dup5\n        /* \"#utility.yul\":9515:9537   */\n      and\n        /* \"#utility.yul\":9565:9602   */\n      tag_187\n        /* \"#utility.yul\":9597:9601   */\n      dup7\n        /* \"#utility.yul\":9565:9602   */\n      tag_57\n      jump\t// in\n    tag_187:\n        /* \"#utility.yul\":9624:9625   */\n      0x00\n        /* \"#utility.yul\":9638:9846   */\n    tag_188:\n        /* \"#utility.yul\":9652:9659   */\n      dup3\n        /* \"#utility.yul\":9649:9650   */\n      dup2\n        /* \"#utility.yul\":9646:9660   */\n      lt\n        /* \"#utility.yul\":9638:9846   */\n      iszero\n      tag_190\n      jumpi\n        /* \"#utility.yul\":9731:9740   */\n      dup5\n        /* \"#utility.yul\":9726:9729   */\n      dup10\n        /* \"#utility.yul\":9722:9741   */\n      add\n        /* \"#utility.yul\":9716:9742   */\n      mload\n        /* \"#utility.yul\":9708:9714   */\n      dup3\n        /* \"#utility.yul\":9701:9743   */\n      sstore\n        /* \"#utility.yul\":9782:9783   */\n      0x01\n        /* \"#utility.yul\":9774:9780   */\n      dup3\n        /* \"#utility.yul\":9770:9784   */\n      add\n        /* \"#utility.yul\":9760:9784   */\n      swap2\n      pop\n        /* \"#utility.yul\":9829:9831   */\n      0x20\n        /* \"#utility.yul\":9818:9827   */\n      dup6\n        /* \"#utility.yul\":9814:9832   */\n      add\n        /* \"#utility.yul\":9801:9832   */\n      swap5\n      pop\n        /* \"#utility.yul\":9675:9679   */\n      0x20\n        /* \"#utility.yul\":9672:9673   */\n      dup2\n        /* \"#utility.yul\":9668:9680   */\n      add\n        /* \"#utility.yul\":9663:9680   */\n      swap1\n      pop\n        /* \"#utility.yul\":9638:9846   */\n      jump(tag_188)\n    tag_190:\n        /* \"#utility.yul\":9874:9880   */\n      dup7\n        /* \"#utility.yul\":9865:9872   */\n      dup4\n        /* \"#utility.yul\":9862:9881   */\n      lt\n        /* \"#utility.yul\":9859:10038   */\n      iszero\n      tag_191\n      jumpi\n        /* \"#utility.yul\":9932:9941   */\n      dup5\n        /* \"#utility.yul\":9927:9930   */\n      dup10\n        /* \"#utility.yul\":9923:9942   */\n      add\n        /* \"#utility.yul\":9917:9943   */\n      mload\n        /* \"#utility.yul\":9975:10023   */\n      tag_192\n        /* \"#utility.yul\":10017:10021   */\n      0x1f\n        /* \"#utility.yul\":10009:10015   */\n      dup10\n        /* \"#utility.yul\":10005:10022   */\n      and\n        /* \"#utility.yul\":9994:10003   */\n      dup3\n        /* \"#utility.yul\":9975:10023   */\n      tag_70\n      jump\t// in\n    tag_192:\n        /* \"#utility.yul\":9967:9973   */\n      dup4\n        /* \"#utility.yul\":9960:10024   */\n      sstore\n        /* \"#utility.yul\":9882:10038   */\n      pop\n        /* \"#utility.yul\":9859:10038   */\n    tag_191:\n        /* \"#utility.yul\":10084:10085   */\n      0x01\n        /* \"#utility.yul\":10080:10081   */\n      0x02\n        /* \"#utility.yul\":10072:10078   */\n      dup9\n        /* \"#utility.yul\":10068:10082   */\n      mul\n        /* \"#utility.yul\":10064:10086   */\n      add\n        /* \"#utility.yul\":10058:10062   */\n      dup9\n        /* \"#utility.yul\":10051:10087   */\n      sstore\n        /* \"#utility.yul\":9486:10097   */\n      pop\n      pop\n      pop\n        /* \"#utility.yul\":9449:10336   */\n    tag_183:\n      pop\n        /* \"#utility.yul\":9039:10342   */\n      pop\n      pop\n      pop\n        /* \"#utility.yul\":8947:10342   */\n      pop\n      pop\n      jump\t// out\n        /* \"#utility.yul\":10348:10528   */\n    tag_72:\n        /* \"#utility.yul\":10396:10473   */\n      0x4e487b7100000000000000000000000000000000000000000000000000000000\n        /* \"#utility.yul\":10393:10394   */\n      0x00\n        /* \"#utility.yul\":10386:10474   */\n      mstore\n        /* \"#utility.yul\":10493:10497   */\n      0x11\n        /* \"#utility.yul\":10490:10491   */\n      0x04\n        /* \"#utility.yul\":10483:10498   */\n      mstore\n        /* \"#utility.yul\":10517:10521   */\n      0x24\n        /* \"#utility.yul\":10514:10515   */\n      0x00\n        /* \"#utility.yul\":10507:10522   */\n      revert\n        /* \"#utility.yul\":10534:10725   */\n    tag_34:\n        /* \"#utility.yul\":10574:10577   */\n      0x00\n        /* \"#utility.yul\":10593:10613   */\n      tag_195\n        /* \"#utility.yul\":10611:10612   */\n      dup3\n        /* \"#utility.yul\":10593:10613   */\n      tag_35\n      jump\t// in\n    tag_195:\n        /* \"#utility.yul\":10588:10613   */\n      swap2\n      pop\n        /* \"#utility.yul\":10627:10647   */\n      tag_196\n        /* \"#utility.yul\":10645:10646   */\n      dup4\n        /* \"#utility.yul\":10627:10647   */\n      tag_35\n      jump\t// in\n    tag_196:\n        /* \"#utility.yul\":10622:10647   */\n      swap3\n      pop\n        /* \"#utility.yul\":10670:10671   */\n      dup3\n        /* \"#utility.yul\":10667:10668   */\n      dup3\n        /* \"#utility.yul\":10663:10672   */\n      add\n        /* \"#utility.yul\":10656:10672   */\n      swap1\n      pop\n        /* \"#utility.yul\":10691:10694   */\n      dup1\n        /* \"#utility.yul\":10688:10689   */\n      dup3\n        /* \"#utility.yul\":10685:10695   */\n      gt\n        /* \"#utility.yul\":10682:10718   */\n      iszero\n      tag_197\n      jumpi\n        /* \"#utility.yul\":10698:10716   */\n      tag_198\n      tag_72\n      jump\t// in\n    tag_198:\n        /* \"#utility.yul\":10682:10718   */\n    tag_197:\n        /* \"#utility.yul\":10534:10725   */\n      swap3\n      swap2\n      pop\n      pop\n      jump\t// out\n\n    auxdata: 0xa2646970667358221220a228323e17b55032cd421305f8bcb346f913d752fa9078280d11d5a6ce0f93e864736f6c634300081a0033\n}\n",
				"bytecode": {
					"linkReferences": {},
					"object": "60806040525f6001553480156012575f80fd5b50610804806100205f395ff3fe608060405234801561000f575f80fd5b506004361061003f575f3560e01c8063319e969a146100435780636f760f41146100615780639e7a13ad14610091575b5f80fd5b61004b6100c2565b6040516100589190610202565b60405180910390f35b61007b60048036038101906100769190610392565b6100c8565b6040516100889190610202565b60405180910390f35b6100ab60048036038101906100a691906103ec565b610125565b6040516100b9929190610477565b60405180910390f35b60015481565b5f6040518060400160405280848152602001838152505f8060015481526020019081526020015f205f820151815f019081610103919061069f565b50602082015181600101559050506101196101ca565b50600154905092915050565b5f602052805f5260405f205f91509050805f018054610143906104d2565b80601f016020809104026020016040519081016040528092919081815260200182805461016f906104d2565b80156101ba5780601f10610191576101008083540402835291602001916101ba565b820191905f5260205f20905b81548152906001019060200180831161019d57829003601f168201915b5050505050908060010154905082565b5f6001805f8282546101dc919061079b565b925050819055506001905090565b5f819050919050565b6101fc816101ea565b82525050565b5f6020820190506102155f8301846101f3565b92915050565b5f604051905090565b5f80fd5b5f80fd5b5f80fd5b5f80fd5b5f601f19601f8301169050919050565b7f4e487b71000000000000000000000000000000000000000000000000000000005f52604160045260245ffd5b61027a82610234565b810181811067ffffffffffffffff8211171561029957610298610244565b5b80604052505050565b5f6102ab61021b565b90506102b78282610271565b919050565b5f67ffffffffffffffff8211156102d6576102d5610244565b5b6102df82610234565b9050602081019050919050565b828183375f83830152505050565b5f61030c610307846102bc565b6102a2565b90508281526020810184848401111561032857610327610230565b5b6103338482856102ec565b509392505050565b5f82601f83011261034f5761034e61022c565b5b813561035f8482602086016102fa565b91505092915050565b610371816101ea565b811461037b575f80fd5b50565b5f8135905061038c81610368565b92915050565b5f80604083850312156103a8576103a7610224565b5b5f83013567ffffffffffffffff8111156103c5576103c4610228565b5b6103d18582860161033b565b92505060206103e28582860161037e565b9150509250929050565b5f6020828403121561040157610400610224565b5b5f61040e8482850161037e565b91505092915050565b5f81519050919050565b5f82825260208201905092915050565b8281835e5f83830152505050565b5f61044982610417565b6104538185610421565b9350610463818560208601610431565b61046c81610234565b840191505092915050565b5f6040820190508181035f83015261048f818561043f565b905061049e60208301846101f3565b9392505050565b7f4e487b71000000000000000000000000000000000000000000000000000000005f52602260045260245ffd5b5f60028204905060018216806104e957607f821691505b6020821081036104fc576104fb6104a5565b5b50919050565b5f819050815f5260205f209050919050565b5f6020601f8301049050919050565b5f82821b905092915050565b5f6008830261055e7fffffffffffffffffffffffffffffffffffffffffffffffffffffffffffffffff82610523565b6105688683610523565b95508019841693508086168417925050509392505050565b5f819050919050565b5f6105a361059e610599846101ea565b610580565b6101ea565b9050919050565b5f819050919050565b6105bc83610589565b6105d06105c8826105aa565b84845461052f565b825550505050565b5f90565b6105e46105d8565b6105ef8184846105b3565b505050565b5b81811015610612576106075f826105dc565b6001810190506105f5565b5050565b601f8211156106575761062881610502565b61063184610514565b81016020851015610640578190505b61065461064c85610514565b8301826105f4565b50505b505050565b5f82821c905092915050565b5f6106775f198460080261065c565b1980831691505092915050565b5f61068f8383610668565b9150826002028217905092915050565b6106a882610417565b67ffffffffffffffff8111156106c1576106c0610244565b5b6106cb82546104d2565b6106d6828285610616565b5f60209050601f831160018114610707575f84156106f5578287015190505b6106ff8582610684565b865550610766565b601f19841661071586610502565b5f5b8281101561073c57848901518255600182019150602085019450602081019050610717565b868310156107595784890151610755601f891682610668565b8355505b6001600288020188555050505b505050505050565b7f4e487b71000000000000000000000000000000000000000000000000000000005f52601160045260245ffd5b5f6107a5826101ea565b91506107b0836101ea565b92508282019050808211156107c8576107c761076e565b5b9291505056fea2646970667358221220a228323e17b55032cd421305f8bcb346f913d752fa9078280d11d5a6ce0f93e864736f6c634300081a0033",
					"opcodes": "PUSH1 0x80 PUSH1 0x40 MSTORE PUSH0 PUSH1 0x1 SSTORE CALLVALUE DUP1 ISZERO PUSH1 0x12 JUMPI PUSH0 DUP1 REVERT JUMPDEST POP PUSH2 0x804 DUP1 PUSH2 0x20 PUSH0 CODECOPY PUSH0 RETURN INVALID PUSH1 0x80 PUSH1 0x40 MSTORE CALLVALUE DUP1 ISZERO PUSH2 0xF JUMPI PUSH0 DUP1 REVERT JUMPDEST POP PUSH1 0x4 CALLDATASIZE LT PUSH2 0x3F JUMPI PUSH0 CALLDATALOAD PUSH1 0xE0 SHR DUP1 PUSH4 0x319E969A EQ PUSH2 0x43 JUMPI DUP1 PUSH4 0x6F760F41 EQ PUSH2 0x61 JUMPI DUP1 PUSH4 0x9E7A13AD EQ PUSH2 0x91 JUMPI JUMPDEST PUSH0 DUP1 REVERT JUMPDEST PUSH2 0x4B PUSH2 0xC2 JUMP JUMPDEST PUSH1 0x40 MLOAD PUSH2 0x58 SWAP2 SWAP1 PUSH2 0x202 JUMP JUMPDEST PUSH1 0x40 MLOAD DUP1 SWAP2 SUB SWAP1 RETURN JUMPDEST PUSH2 0x7B PUSH1 0x4 DUP1 CALLDATASIZE SUB DUP2 ADD SWAP1 PUSH2 0x76 SWAP2 SWAP1 PUSH2 0x392 JUMP JUMPDEST PUSH2 0xC8 JUMP JUMPDEST PUSH1 0x40 MLOAD PUSH2 0x88 SWAP2 SWAP1 PUSH2 0x202 JUMP JUMPDEST PUSH1 0x40 MLOAD DUP1 SWAP2 SUB SWAP1 RETURN JUMPDEST PUSH2 0xAB PUSH1 0x4 DUP1 CALLDATASIZE SUB DUP2 ADD SWAP1 PUSH2 0xA6 SWAP2 SWAP1 PUSH2 0x3EC JUMP JUMPDEST PUSH2 0x125 JUMP JUMPDEST PUSH1 0x40 MLOAD PUSH2 0xB9 SWAP3 SWAP2 SWAP1 PUSH2 0x477 JUMP JUMPDEST PUSH1 0x40 MLOAD DUP1 SWAP2 SUB SWAP1 RETURN JUMPDEST PUSH1 0x1 SLOAD DUP2 JUMP JUMPDEST PUSH0 PUSH1 0x40 MLOAD DUP1 PUSH1 0x40 ADD PUSH1 0x40 MSTORE DUP1 DUP5 DUP2 MSTORE PUSH1 0x20 ADD DUP4 DUP2 MSTORE POP PUSH0 DUP1 PUSH1 0x1 SLOAD DUP2 MSTORE PUSH1 0x20 ADD SWAP1 DUP2 MSTORE PUSH1 0x20 ADD PUSH0 KECCAK256 PUSH0 DUP3 ADD MLOAD DUP2 PUSH0 ADD SWAP1 DUP2 PUSH2 0x103 SWAP2 SWAP1 PUSH2 0x69F JUMP JUMPDEST POP PUSH1 0x20 DUP3 ADD MLOAD DUP2 PUSH1 0x1 ADD SSTORE SWAP1 POP POP PUSH2 0x119 PUSH2 0x1CA JUMP JUMPDEST POP PUSH1 0x1 SLOAD SWAP1 POP SWAP3 SWAP2 POP POP JUMP JUMPDEST PUSH0 PUSH1 0x20 MSTORE DUP1 PUSH0 MSTORE PUSH1 0x40 PUSH0 KECCAK256 PUSH0 SWAP2 POP SWAP1 POP DUP1 PUSH0 ADD DUP1 SLOAD PUSH2 0x143 SWAP1 PUSH2 0x4D2 JUMP JUMPDEST DUP1 PUSH1 0x1F ADD PUSH1 0x20 DUP1 SWAP2 DIV MUL PUSH1 0x20 ADD PUSH1 0x40 MLOAD SWAP1 DUP2 ADD PUSH1 0x40 MSTORE DUP1 SWAP3 SWAP2 SWAP1 DUP2 DUP2 MSTORE PUSH1 0x20 ADD DUP3 DUP1 SLOAD PUSH2 0x16F SWAP1 PUSH2 0x4D2 JUMP JUMPDEST DUP1 ISZERO PUSH2 0x1BA JUMPI DUP1 PUSH1 0x1F LT PUSH2 0x191 JUMPI PUSH2 0x100 DUP1 DUP4 SLOAD DIV MUL DUP4 MSTORE SWAP2 PUSH1 0x20 ADD SWAP2 PUSH2 0x1BA JUMP JUMPDEST DUP3 ADD SWAP2 SWAP1 PUSH0 MSTORE PUSH1 0x20 PUSH0 KECCAK256 SWAP1 JUMPDEST DUP2 SLOAD DUP2 MSTORE SWAP1 PUSH1 0x1 ADD SWAP1 PUSH1 0x20 ADD DUP1 DUP4 GT PUSH2 0x19D JUMPI DUP3 SWAP1 SUB PUSH1 0x1F AND DUP3 ADD SWAP2 JUMPDEST POP POP POP POP POP SWAP1 DUP1 PUSH1 0x1 ADD SLOAD SWAP1 POP DUP3 JUMP JUMPDEST PUSH0 PUSH1 0x1 DUP1 PUSH0 DUP3 DUP3 SLOAD PUSH2 0x1DC SWAP2 SWAP1 PUSH2 0x79B JUMP JUMPDEST SWAP3 POP POP DUP2 SWAP1 SSTORE POP PUSH1 0x1 SWAP1 POP SWAP1 JUMP JUMPDEST PUSH0 DUP2 SWAP1 POP SWAP2 SWAP1 POP JUMP JUMPDEST PUSH2 0x1FC DUP2 PUSH2 0x1EA JUMP JUMPDEST DUP3 MSTORE POP POP JUMP JUMPDEST PUSH0 PUSH1 0x20 DUP3 ADD SWAP1 POP PUSH2 0x215 PUSH0 DUP4 ADD DUP5 PUSH2 0x1F3 JUMP JUMPDEST SWAP3 SWAP2 POP POP JUMP JUMPDEST PUSH0 PUSH1 0x40 MLOAD SWAP1 POP SWAP1 JUMP JUMPDEST PUSH0 DUP1 REVERT JUMPDEST PUSH0 DUP1 REVERT JUMPDEST PUSH0 DUP1 REVERT JUMPDEST PUSH0 DUP1 REVERT JUMPDEST PUSH0 PUSH1 0x1F NOT PUSH1 0x1F DUP4 ADD AND SWAP1 POP SWAP2 SWAP1 POP JUMP JUMPDEST PUSH32 0x4E487B7100000000000000000000000000000000000000000000000000000000 PUSH0 MSTORE PUSH1 0x41 PUSH1 0x4 MSTORE PUSH1 0x24 PUSH0 REVERT JUMPDEST PUSH2 0x27A DUP3 PUSH2 0x234 JUMP JUMPDEST DUP2 ADD DUP2 DUP2 LT PUSH8 0xFFFFFFFFFFFFFFFF DUP3 GT OR ISZERO PUSH2 0x299 JUMPI PUSH2 0x298 PUSH2 0x244 JUMP JUMPDEST JUMPDEST DUP1 PUSH1 0x40 MSTORE POP POP POP JUMP JUMPDEST PUSH0 PUSH2 0x2AB PUSH2 0x21B JUMP JUMPDEST SWAP1 POP PUSH2 0x2B7 DUP3 DUP3 PUSH2 0x271 JUMP JUMPDEST SWAP2 SWAP1 POP JUMP JUMPDEST PUSH0 PUSH8 0xFFFFFFFFFFFFFFFF DUP3 GT ISZERO PUSH2 0x2D6 JUMPI PUSH2 0x2D5 PUSH2 0x244 JUMP JUMPDEST JUMPDEST PUSH2 0x2DF DUP3 PUSH2 0x234 JUMP JUMPDEST SWAP1 POP PUSH1 0x20 DUP2 ADD SWAP1 POP SWAP2 SWAP1 POP JUMP JUMPDEST DUP3 DUP2 DUP4 CALLDATACOPY PUSH0 DUP4 DUP4 ADD MSTORE POP POP POP JUMP JUMPDEST PUSH0 PUSH2 0x30C PUSH2 0x307 DUP5 PUSH2 0x2BC JUMP JUMPDEST PUSH2 0x2A2 JUMP JUMPDEST SWAP1 POP DUP3 DUP2 MSTORE PUSH1 0x20 DUP2 ADD DUP5 DUP5 DUP5 ADD GT ISZERO PUSH2 0x328 JUMPI PUSH2 0x327 PUSH2 0x230 JUMP JUMPDEST JUMPDEST PUSH2 0x333 DUP5 DUP3 DUP6 PUSH2 0x2EC JUMP JUMPDEST POP SWAP4 SWAP3 POP POP POP JUMP JUMPDEST PUSH0 DUP3 PUSH1 0x1F DUP4 ADD SLT PUSH2 0x34F JUMPI PUSH2 0x34E PUSH2 0x22C JUMP JUMPDEST JUMPDEST DUP2 CALLDATALOAD PUSH2 0x35F DUP5 DUP3 PUSH1 0x20 DUP7 ADD PUSH2 0x2FA JUMP JUMPDEST SWAP2 POP POP SWAP3 SWAP2 POP POP JUMP JUMPDEST PUSH2 0x371 DUP2 PUSH2 0x1EA JUMP JUMPDEST DUP2 EQ PUSH2 0x37B JUMPI PUSH0 DUP1 REVERT JUMPDEST POP JUMP JUMPDEST PUSH0 DUP2 CALLDATALOAD SWAP1 POP PUSH2 0x38C DUP2 PUSH2 0x368 JUMP JUMPDEST SWAP3 SWAP2 POP POP JUMP JUMPDEST PUSH0 DUP1 PUSH1 0x40 DUP4 DUP6 SUB SLT ISZERO PUSH2 0x3A8 JUMPI PUSH2 0x3A7 PUSH2 0x224 JUMP JUMPDEST JUMPDEST PUSH0 DUP4 ADD CALLDATALOAD PUSH8 0xFFFFFFFFFFFFFFFF DUP2 GT ISZERO PUSH2 0x3C5 JUMPI PUSH2 0x3C4 PUSH2 0x228 JUMP JUMPDEST JUMPDEST PUSH2 0x3D1 DUP6 DUP3 DUP7 ADD PUSH2 0x33B JUMP JUMPDEST SWAP3 POP POP PUSH1 0x20 PUSH2 0x3E2 DUP6 DUP3 DUP7 ADD PUSH2 0x37E JUMP JUMPDEST SWAP2 POP POP SWAP3 POP SWAP3 SWAP1 POP JUMP JUMPDEST PUSH0 PUSH1 0x20 DUP3 DUP5 SUB SLT ISZERO PUSH2 0x401 JUMPI PUSH2 0x400 PUSH2 0x224 JUMP JUMPDEST JUMPDEST PUSH0 PUSH2 0x40E DUP5 DUP3 DUP6 ADD PUSH2 0x37E JUMP JUMPDEST SWAP2 POP POP SWAP3 SWAP2 POP POP JUMP JUMPDEST PUSH0 DUP2 MLOAD SWAP1 POP SWAP2 SWAP1 POP JUMP JUMPDEST PUSH0 DUP3 DUP3 MSTORE PUSH1 0x20 DUP3 ADD SWAP1 POP SWAP3 SWAP2 POP POP JUMP JUMPDEST DUP3 DUP2 DUP4 MCOPY PUSH0 DUP4 DUP4 ADD MSTORE POP POP POP JUMP JUMPDEST PUSH0 PUSH2 0x449 DUP3 PUSH2 0x417 JUMP JUMPDEST PUSH2 0x453 DUP2 DUP6 PUSH2 0x421 JUMP JUMPDEST SWAP4 POP PUSH2 0x463 DUP2 DUP6 PUSH1 0x20 DUP7 ADD PUSH2 0x431 JUMP JUMPDEST PUSH2 0x46C DUP2 PUSH2 0x234 JUMP JUMPDEST DUP5 ADD SWAP2 POP POP SWAP3 SWAP2 POP POP JUMP JUMPDEST PUSH0 PUSH1 0x40 DUP3 ADD SWAP1 POP DUP2 DUP2 SUB PUSH0 DUP4 ADD MSTORE PUSH2 0x48F DUP2 DUP6 PUSH2 0x43F JUMP JUMPDEST SWAP1 POP PUSH2 0x49E PUSH1 0x20 DUP4 ADD DUP5 PUSH2 0x1F3 JUMP JUMPDEST SWAP4 SWAP3 POP POP POP JUMP JUMPDEST PUSH32 0x4E487B7100000000000000000000000000000000000000000000000000000000 PUSH0 MSTORE PUSH1 0x22 PUSH1 0x4 MSTORE PUSH1 0x24 PUSH0 REVERT JUMPDEST PUSH0 PUSH1 0x2 DUP3 DIV SWAP1 POP PUSH1 0x1 DUP3 AND DUP1 PUSH2 0x4E9 JUMPI PUSH1 0x7F DUP3 AND SWAP2 POP JUMPDEST PUSH1 0x20 DUP3 LT DUP2 SUB PUSH2 0x4FC JUMPI PUSH2 0x4FB PUSH2 0x4A5 JUMP JUMPDEST JUMPDEST POP SWAP2 SWAP1 POP JUMP JUMPDEST PUSH0 DUP2 SWAP1 POP DUP2 PUSH0 MSTORE PUSH1 0x20 PUSH0 KECCAK256 SWAP1 POP SWAP2 SWAP1 POP JUMP JUMPDEST PUSH0 PUSH1 0x20 PUSH1 0x1F DUP4 ADD DIV SWAP1 POP SWAP2 SWAP1 POP JUMP JUMPDEST PUSH0 DUP3 DUP3 SHL SWAP1 POP SWAP3 SWAP2 POP POP JUMP JUMPDEST PUSH0 PUSH1 0x8 DUP4 MUL PUSH2 0x55E PUSH32 0xFFFFFFFFFFFFFFFFFFFFFFFFFFFFFFFFFFFFFFFFFFFFFFFFFFFFFFFFFFFFFFFF DUP3 PUSH2 0x523 JUMP JUMPDEST PUSH2 0x568 DUP7 DUP4 PUSH2 0x523 JUMP JUMPDEST SWAP6 POP DUP1 NOT DUP5 AND SWAP4 POP DUP1 DUP7 AND DUP5 OR SWAP3 POP POP POP SWAP4 SWAP3 POP POP POP JUMP JUMPDEST PUSH0 DUP2 SWAP1 POP SWAP2 SWAP1 POP JUMP JUMPDEST PUSH0 PUSH2 0x5A3 PUSH2 0x59E PUSH2 0x599 DUP5 PUSH2 0x1EA JUMP JUMPDEST PUSH2 0x580 JUMP JUMPDEST PUSH2 0x1EA JUMP JUMPDEST SWAP1 POP SWAP2 SWAP1 POP JUMP JUMPDEST PUSH0 DUP2 SWAP1 POP SWAP2 SWAP1 POP JUMP JUMPDEST PUSH2 0x5BC DUP4 PUSH2 0x589 JUMP JUMPDEST PUSH2 0x5D0 PUSH2 0x5C8 DUP3 PUSH2 0x5AA JUMP JUMPDEST DUP5 DUP5 SLOAD PUSH2 0x52F JUMP JUMPDEST DUP3 SSTORE POP POP POP POP JUMP JUMPDEST PUSH0 SWAP1 JUMP JUMPDEST PUSH2 0x5E4 PUSH2 0x5D8 JUMP JUMPDEST PUSH2 0x5EF DUP2 DUP5 DUP5 PUSH2 0x5B3 JUMP JUMPDEST POP POP POP JUMP JUMPDEST JUMPDEST DUP2 DUP2 LT ISZERO PUSH2 0x612 JUMPI PUSH2 0x607 PUSH0 DUP3 PUSH2 0x5DC JUMP JUMPDEST PUSH1 0x1 DUP2 ADD SWAP1 POP PUSH2 0x5F5 JUMP JUMPDEST POP POP JUMP JUMPDEST PUSH1 0x1F DUP3 GT ISZERO PUSH2 0x657 JUMPI PUSH2 0x628 DUP2 PUSH2 0x502 JUMP JUMPDEST PUSH2 0x631 DUP5 PUSH2 0x514 JUMP JUMPDEST DUP2 ADD PUSH1 0x20 DUP6 LT ISZERO PUSH2 0x640 JUMPI DUP2 SWAP1 POP JUMPDEST PUSH2 0x654 PUSH2 0x64C DUP6 PUSH2 0x514 JUMP JUMPDEST DUP4 ADD DUP3 PUSH2 0x5F4 JUMP JUMPDEST POP POP JUMPDEST POP POP POP JUMP JUMPDEST PUSH0 DUP3 DUP3 SHR SWAP1 POP SWAP3 SWAP2 POP POP JUMP JUMPDEST PUSH0 PUSH2 0x677 PUSH0 NOT DUP5 PUSH1 0x8 MUL PUSH2 0x65C JUMP JUMPDEST NOT DUP1 DUP4 AND SWAP2 POP POP SWAP3 SWAP2 POP POP JUMP JUMPDEST PUSH0 PUSH2 0x68F DUP4 DUP4 PUSH2 0x668 JUMP JUMPDEST SWAP2 POP DUP3 PUSH1 0x2 MUL DUP3 OR SWAP1 POP SWAP3 SWAP2 POP POP JUMP JUMPDEST PUSH2 0x6A8 DUP3 PUSH2 0x417 JUMP JUMPDEST PUSH8 0xFFFFFFFFFFFFFFFF DUP2 GT ISZERO PUSH2 0x6C1 JUMPI PUSH2 0x6C0 PUSH2 0x244 JUMP JUMPDEST JUMPDEST PUSH2 0x6CB DUP3 SLOAD PUSH2 0x4D2 JUMP JUMPDEST PUSH2 0x6D6 DUP3 DUP3 DUP6 PUSH2 0x616 JUMP JUMPDEST PUSH0 PUSH1 0x20 SWAP1 POP PUSH1 0x1F DUP4 GT PUSH1 0x1 DUP2 EQ PUSH2 0x707 JUMPI PUSH0 DUP5 ISZERO PUSH2 0x6F5 JUMPI DUP3 DUP8 ADD MLOAD SWAP1 POP JUMPDEST PUSH2 0x6FF DUP6 DUP3 PUSH2 0x684 JUMP JUMPDEST DUP7 SSTORE POP PUSH2 0x766 JUMP JUMPDEST PUSH1 0x1F NOT DUP5 AND PUSH2 0x715 DUP7 PUSH2 0x502 JUMP JUMPDEST PUSH0 JUMPDEST DUP3 DUP2 LT ISZERO PUSH2 0x73C JUMPI DUP5 DUP10 ADD MLOAD DUP3 SSTORE PUSH1 0x1 DUP3 ADD SWAP2 POP PUSH1 0x20 DUP6 ADD SWAP5 POP PUSH1 0x20 DUP2 ADD SWAP1 POP PUSH2 0x717 JUMP JUMPDEST DUP7 DUP4 LT ISZERO PUSH2 0x759 JUMPI DUP5 DUP10 ADD MLOAD PUSH2 0x755 PUSH1 0x1F DUP10 AND DUP3 PUSH2 0x668 JUMP JUMPDEST DUP4 SSTORE POP JUMPDEST PUSH1 0x1 PUSH1 0x2 DUP9 MUL ADD DUP9 SSTORE POP POP POP JUMPDEST POP POP POP POP POP POP JUMP JUMPDEST PUSH32 0x4E487B7100000000000000000000000000000000000000000000000000000000 PUSH0 MSTORE PUSH1 0x11 PUSH1 0x4 MSTORE PUSH1 0x24 PUSH0 REVERT JUMPDEST PUSH0 PUSH2 0x7A5 DUP3 PUSH2 0x1EA JUMP JUMPDEST SWAP2 POP PUSH2 0x7B0 DUP4 PUSH2 0x1EA JUMP JUMPDEST SWAP3 POP DUP3 DUP3 ADD SWAP1 POP DUP1 DUP3 GT ISZERO PUSH2 0x7C8 JUMPI PUSH2 0x7C7 PUSH2 0x76E JUMP JUMPDEST JUMPDEST SWAP3 SWAP2 POP POP JUMP INVALID LOG2 PUSH5 0x6970667358 0x22 SLT KECCAK256 LOG2 0x28 ORIGIN RETURNDATACOPY OR 0xB5 POP ORIGIN 0xCD TIMESTAMP SGT SDIV 0xF8 0xBC 0xB3 CHAINID 0xF9 SGT 0xD7 MSTORE STATICCALL SWAP1 PUSH25 0x280D11D5A6CE0F93E864736F6C634300081A00330000000000 "
				},
				"gasEstimates": {
					"creation": {
						"codeDepositCost": "410400",
						"executionCost": "5452",
						"totalCost": "415852"
					},
					"external": {
						"addPerson(string,uint256)": "infinite",
						"people(uint256)": "infinite",
						"peopleLen()": "2403"
					},
					"internal": {
						"increment()": "infinite"
					}
				},
				"methodIdentifiers": {
					"addPerson(string,uint256)": "6f760f41",
					"people(uint256)": "9e7a13ad",
					"peopleLen()": "319e969a"
				}
			},
			"storageLayout": {
				"storage": [
					{
						"astId": 11,
						"contract": "contracts/MyCantract1.sol:MyCantract2",
						"label": "people",
						"offset": 0,
						"slot": "0",
						"type": "t_mapping(t_uint256,t_struct(Person)6_storage)"
					},
					{
						"astId": 14,
						"contract": "contracts/MyCantract1.sol:MyCantract2",
						"label": "peopleLen",
						"offset": 0,
						"slot": "1",
						"type": "t_uint256"
					}
				],
				"types": {
					"t_mapping(t_uint256,t_struct(Person)6_storage)": {
						"encoding": "mapping",
						"key": "t_uint256",
						"label": "mapping(uint256 => struct MyCantract2.Person)",
						"numberOfBytes": "32",
						"value": "t_struct(Person)6_storage"
					},
					"t_string_storage": {
						"encoding": "bytes",
						"label": "string",
						"numberOfBytes": "32"
					},
					"t_struct(Person)6_storage": {
						"encoding": "inplace",
						"label": "struct MyCantract2.Person",
						"members": [
							{
								"astId": 3,
								"contract": "contracts/MyCantract1.sol:MyCantract2",
								"label": "name",
								"offset": 0,
								"slot": "0",
								"type": "t_string_storage"
							},
							{
								"astId": 5,
								"contract": "contracts/MyCantract1.sol:MyCantract2",
								"label": "age",
								"offset": 0,
								"slot": "1",
								"type": "t_uint256"
							}
						],
						"numberOfBytes": "64"
					},
					"t_uint256": {
						"encoding": "inplace",
						"label": "uint256",
						"numberOfBytes": "32"
					}
				}
			},
			"userdoc": {
				"kind": "user",
				"methods": {},
				"version": 1
			}
		}
	}
}