{
	"contracts/MyCantract.sol": {
		"MyCantract": {
			"abi": [
				{
					"inputs": [
						{
							"internalType": "string",
							"name": "_name",
							"type": "string"
						},
						{
							"internalType": "uint256",
							"name": "_age",
							"type": "uint256"
						},
						{
							"internalType": "bool",
							"name": "_married",
							"type": "bool"
						}
					],
					"stateMutability": "nonpayable",
					"type": "constructor"
				},
				{
					"inputs": [],
					"name": "getData",
					"outputs": [
						{
							"internalType": "string",
							"name": "_name",
							"type": "string"
						},
						{
							"internalType": "uint256",
							"name": "_age",
							"type": "uint256"
						},
						{
							"internalType": "bool",
							"name": "_married",
							"type": "bool"
						}
					],
					"stateMutability": "view",
					"type": "function"
				},
				{
					"inputs": [
						{
							"internalType": "string",
							"name": "_name",
							"type": "string"
						},
						{
							"internalType": "uint256",
							"name": "_age",
							"type": "uint256"
						},
						{
							"internalType": "bool",
							"name": "_married",
							"type": "bool"
						}
					],
					"name": "setData",
					"outputs": [
						{
							"internalType": "bool",
							"name": "",
							"type": "bool"
						}
					],
					"stateMutability": "nonpayable",
					"type": "function"
				}
			],
			"devdoc": {
				"kind": "dev",
				"methods": {},
				"version": 1
			},
			"evm": {
				"assembly": "    /* \"contracts/MyCantract.sol\":58:723  contract MyCantract {... */\n  mstore(0x40, 0x80)\n    /* \"contracts/MyCantract.sol\":137:260  constructor( string memory _name,... */\n  callvalue\n  dup1\n  iszero\n  tag_1\n  jumpi\n  0x00\n  dup1\n  revert\ntag_1:\n  pop\n  mload(0x40)\n  sub(codesize, bytecodeSize)\n  dup1\n  bytecodeSize\n  dup4\n  codecopy\n  dup2\n  add\n  0x40\n  dup2\n  swap1\n  mstore\n  tag_2\n  swap2\n  tag_3\n  jump\t// in\ntag_2:\n    /* \"contracts/MyCantract.sol\":223:253  setData(_name, _age, _married) */\n  tag_6\n    /* \"contracts/MyCantract.sol\":231:236  _name */\n  dup4\n    /* \"contracts/MyCantract.sol\":238:242  _age */\n  dup4\n    /* \"contracts/MyCantract.sol\":244:252  _married */\n  dup4\n    /* \"contracts/MyCantract.sol\":223:230  setData */\n  tag_7\n    /* \"contracts/MyCantract.sol\":223:253  setData(_name, _age, _married) */\n  jump\t// in\ntag_6:\n  pop\n    /* \"contracts/MyCantract.sol\":137:260  constructor( string memory _name,... */\n  pop\n  pop\n  pop\n    /* \"contracts/MyCantract.sol\":58:723  contract MyCantract {... */\n  jump(tag_18)\n    /* \"contracts/MyCantract.sol\":504:721  function setData(... */\ntag_7:\n    /* \"contracts/MyCantract.sol\":617:621  bool */\n  0x00\n  dup1\n    /* \"contracts/MyCantract.sol\":633:645  name = _name */\n  tag_10\n    /* \"contracts/MyCantract.sol\":640:645  _name */\n  dup6\n    /* \"contracts/MyCantract.sol\":617:621  bool */\n  dup3\n    /* \"contracts/MyCantract.sol\":633:645  name = _name */\n  tag_11\n  jump\t// in\ntag_10:\n  pop\n  pop\n    /* \"contracts/MyCantract.sol\":655:658  age */\n  0x01\n    /* \"contracts/MyCantract.sol\":655:665  age = _age */\n  swap2\n  dup3\n  sstore\n    /* \"contracts/MyCantract.sol\":675:682  married */\n  0x02\n    /* \"contracts/MyCantract.sol\":675:693  married = _married */\n  dup1\n  sload\n  not(0xff)\n  and\n  swap2\n  iszero\n  iszero\n  swap2\n  swap1\n  swap2\n  or\n  swap1\n  sstore\n    /* \"contracts/MyCantract.sol\":655:658  age */\n  swap2\n    /* \"contracts/MyCantract.sol\":504:721  function setData(... */\n  swap1\n  pop\n  jump\t// out\n    /* \"#utility.yul\":14:141   */\ntag_12:\n    /* \"#utility.yul\":75:85   */\n  0x4e487b71\n    /* \"#utility.yul\":70:73   */\n  0xe0\n    /* \"#utility.yul\":66:86   */\n  shl\n    /* \"#utility.yul\":63:64   */\n  0x00\n    /* \"#utility.yul\":56:87   */\n  mstore\n    /* \"#utility.yul\":106:110   */\n  0x41\n    /* \"#utility.yul\":103:104   */\n  0x04\n    /* \"#utility.yul\":96:111   */\n  mstore\n    /* \"#utility.yul\":130:134   */\n  0x24\n    /* \"#utility.yul\":127:128   */\n  0x00\n    /* \"#utility.yul\":120:135   */\n  revert\n    /* \"#utility.yul\":146:310   */\ntag_13:\n    /* \"#utility.yul\":222:235   */\n  dup1\n  mload\n    /* \"#utility.yul\":271:284   */\n  dup1\n  iszero\n    /* \"#utility.yul\":264:285   */\n  iszero\n    /* \"#utility.yul\":254:286   */\n  dup2\n  eq\n    /* \"#utility.yul\":244:304   */\n  tag_21\n  jumpi\n    /* \"#utility.yul\":300:301   */\n  0x00\n    /* \"#utility.yul\":297:298   */\n  dup1\n    /* \"#utility.yul\":290:302   */\n  revert\n    /* \"#utility.yul\":244:304   */\ntag_21:\n    /* \"#utility.yul\":146:310   */\n  swap2\n  swap1\n  pop\n  jump\t// out\n    /* \"#utility.yul\":315:1446   */\ntag_3:\n    /* \"#utility.yul\":410:416   */\n  0x00\n    /* \"#utility.yul\":418:424   */\n  dup1\n    /* \"#utility.yul\":426:432   */\n  0x00\n    /* \"#utility.yul\":479:481   */\n  0x60\n    /* \"#utility.yul\":467:476   */\n  dup5\n    /* \"#utility.yul\":458:465   */\n  dup7\n    /* \"#utility.yul\":454:477   */\n  sub\n    /* \"#utility.yul\":450:482   */\n  slt\n    /* \"#utility.yul\":447:499   */\n  iszero\n  tag_23\n  jumpi\n    /* \"#utility.yul\":495:496   */\n  0x00\n    /* \"#utility.yul\":492:493   */\n  dup1\n    /* \"#utility.yul\":485:497   */\n  revert\n    /* \"#utility.yul\":447:499   */\ntag_23:\n    /* \"#utility.yul\":522:538   */\n  dup4\n  mload\n  sub(shl(0x40, 0x01), 0x01)\n    /* \"#utility.yul\":550:580   */\n  dup2\n  gt\n    /* \"#utility.yul\":547:597   */\n  iszero\n  tag_24\n  jumpi\n    /* \"#utility.yul\":593:594   */\n  0x00\n    /* \"#utility.yul\":590:591   */\n  dup1\n    /* \"#utility.yul\":583:595   */\n  revert\n    /* \"#utility.yul\":547:597   */\ntag_24:\n    /* \"#utility.yul\":616:638   */\n  dup5\n  add\n    /* \"#utility.yul\":669:673   */\n  0x1f\n    /* \"#utility.yul\":661:674   */\n  dup2\n  add\n    /* \"#utility.yul\":657:684   */\n  dup7\n  sgt\n    /* \"#utility.yul\":647:702   */\n  tag_25\n  jumpi\n    /* \"#utility.yul\":698:699   */\n  0x00\n    /* \"#utility.yul\":695:696   */\n  dup1\n    /* \"#utility.yul\":688:700   */\n  revert\n    /* \"#utility.yul\":647:702   */\ntag_25:\n    /* \"#utility.yul\":725:734   */\n  dup1\n  mload\n  sub(shl(0x40, 0x01), 0x01)\n    /* \"#utility.yul\":746:776   */\n  dup2\n  gt\n    /* \"#utility.yul\":743:799   */\n  iszero\n  tag_27\n  jumpi\n    /* \"#utility.yul\":779:797   */\n  tag_27\n  tag_12\n  jump\t// in\ntag_27:\n    /* \"#utility.yul\":828:830   */\n  0x40\n    /* \"#utility.yul\":822:831   */\n  mload\n    /* \"#utility.yul\":920:922   */\n  0x1f\n    /* \"#utility.yul\":882:899   */\n  dup3\n  add\n  not(0x1f)\n    /* \"#utility.yul\":878:909   */\n  swap1\n  dup2\n  and\n    /* \"#utility.yul\":911:913   */\n  0x3f\n    /* \"#utility.yul\":874:914   */\n  add\n    /* \"#utility.yul\":870:924   */\n  and\n    /* \"#utility.yul\":858:925   */\n  dup2\n  add\n  sub(shl(0x40, 0x01), 0x01)\n    /* \"#utility.yul\":940:974   */\n  dup2\n  gt\n    /* \"#utility.yul\":976:998   */\n  dup3\n  dup3\n  lt\n    /* \"#utility.yul\":937:999   */\n  or\n    /* \"#utility.yul\":934:1022   */\n  iszero\n  tag_29\n  jumpi\n    /* \"#utility.yul\":1002:1020   */\n  tag_29\n  tag_12\n  jump\t// in\ntag_29:\n    /* \"#utility.yul\":1038:1040   */\n  0x40\n    /* \"#utility.yul\":1031:1053   */\n  mstore\n    /* \"#utility.yul\":1062:1084   */\n  dup2\n  dup2\n  mstore\n    /* \"#utility.yul\":1103:1118   */\n  dup3\n  dup3\n  add\n    /* \"#utility.yul\":1120:1124   */\n  0x20\n    /* \"#utility.yul\":1099:1125   */\n  add\n    /* \"#utility.yul\":1096:1135   */\n  dup9\n  lt\n    /* \"#utility.yul\":1093:1152   */\n  iszero\n  tag_30\n  jumpi\n    /* \"#utility.yul\":1148:1149   */\n  0x00\n    /* \"#utility.yul\":1145:1146   */\n  dup1\n    /* \"#utility.yul\":1138:1150   */\n  revert\n    /* \"#utility.yul\":1093:1152   */\ntag_30:\n    /* \"#utility.yul\":1201:1207   */\n  dup2\n    /* \"#utility.yul\":1194:1198   */\n  0x20\n    /* \"#utility.yul\":1190:1192   */\n  dup5\n    /* \"#utility.yul\":1186:1199   */\n  add\n    /* \"#utility.yul\":1179:1183   */\n  0x20\n    /* \"#utility.yul\":1171:1177   */\n  dup4\n    /* \"#utility.yul\":1167:1184   */\n  add\n    /* \"#utility.yul\":1161:1208   */\n  mcopy\n    /* \"#utility.yul\":1256:1257   */\n  0x00\n    /* \"#utility.yul\":1249:1253   */\n  0x20\n    /* \"#utility.yul\":1228:1247   */\n  swap3\n  dup3\n  add\n    /* \"#utility.yul\":1224:1254   */\n  dup4\n  add\n    /* \"#utility.yul\":1217:1258   */\n  mstore\n    /* \"#utility.yul\":1330:1350   */\n  swap1\n  dup7\n  add\n    /* \"#utility.yul\":1324:1351   */\n  mload\n    /* \"#utility.yul\":1228:1247   */\n  swap1\n  swap5\n  pop\n    /* \"#utility.yul\":1324:1351   */\n  swap3\n  pop\n    /* \"#utility.yul\":1394:1440   */\n  tag_31\n  swap1\n  pop\n    /* \"#utility.yul\":1436:1438   */\n  0x40\n    /* \"#utility.yul\":1421:1439   */\n  dup6\n  add\n    /* \"#utility.yul\":1394:1440   */\n  tag_13\n  jump\t// in\ntag_31:\n    /* \"#utility.yul\":1384:1440   */\n  swap1\n  pop\n    /* \"#utility.yul\":315:1446   */\n  swap3\n  pop\n  swap3\n  pop\n  swap3\n  jump\t// out\n    /* \"#utility.yul\":1451:1831   */\ntag_14:\n    /* \"#utility.yul\":1530:1531   */\n  0x01\n    /* \"#utility.yul\":1526:1538   */\n  dup2\n  dup2\n  shr\n  swap1\n    /* \"#utility.yul\":1573:1585   */\n  dup3\n  and\n  dup1\n    /* \"#utility.yul\":1594:1655   */\n  tag_33\n  jumpi\n    /* \"#utility.yul\":1648:1652   */\n  0x7f\n    /* \"#utility.yul\":1640:1646   */\n  dup3\n    /* \"#utility.yul\":1636:1653   */\n  and\n    /* \"#utility.yul\":1626:1653   */\n  swap2\n  pop\n    /* \"#utility.yul\":1594:1655   */\ntag_33:\n    /* \"#utility.yul\":1701:1703   */\n  0x20\n    /* \"#utility.yul\":1693:1699   */\n  dup3\n    /* \"#utility.yul\":1690:1704   */\n  lt\n    /* \"#utility.yul\":1670:1688   */\n  dup2\n    /* \"#utility.yul\":1667:1705   */\n  sub\n    /* \"#utility.yul\":1664:1825   */\n  tag_34\n  jumpi\n    /* \"#utility.yul\":1747:1757   */\n  0x4e487b71\n    /* \"#utility.yul\":1742:1745   */\n  0xe0\n    /* \"#utility.yul\":1738:1758   */\n  shl\n    /* \"#utility.yul\":1735:1736   */\n  0x00\n    /* \"#utility.yul\":1728:1759   */\n  mstore\n    /* \"#utility.yul\":1782:1786   */\n  0x22\n    /* \"#utility.yul\":1779:1780   */\n  0x04\n    /* \"#utility.yul\":1772:1787   */\n  mstore\n    /* \"#utility.yul\":1810:1814   */\n  0x24\n    /* \"#utility.yul\":1807:1808   */\n  0x00\n    /* \"#utility.yul\":1800:1815   */\n  revert\n    /* \"#utility.yul\":1664:1825   */\ntag_34:\n  pop\n    /* \"#utility.yul\":1451:1831   */\n  swap2\n  swap1\n  pop\n  jump\t// out\n    /* \"#utility.yul\":1962:2480   */\ntag_16:\n    /* \"#utility.yul\":2064:2066   */\n  0x1f\n    /* \"#utility.yul\":2059:2062   */\n  dup3\n    /* \"#utility.yul\":2056:2067   */\n  gt\n    /* \"#utility.yul\":2053:2474   */\n  iszero\n  tag_37\n  jumpi\n    /* \"#utility.yul\":2100:2105   */\n  dup1\n    /* \"#utility.yul\":2097:2098   */\n  0x00\n    /* \"#utility.yul\":2090:2106   */\n  mstore\n    /* \"#utility.yul\":2144:2148   */\n  0x20\n    /* \"#utility.yul\":2141:2142   */\n  0x00\n    /* \"#utility.yul\":2131:2149   */\n  keccak256\n    /* \"#utility.yul\":2214:2216   */\n  0x1f\n    /* \"#utility.yul\":2202:2212   */\n  dup5\n    /* \"#utility.yul\":2198:2217   */\n  add\n    /* \"#utility.yul\":2195:2196   */\n  0x05\n    /* \"#utility.yul\":2191:2218   */\n  shr\n    /* \"#utility.yul\":2185:2189   */\n  dup2\n    /* \"#utility.yul\":2181:2219   */\n  add\n    /* \"#utility.yul\":2250:2254   */\n  0x20\n    /* \"#utility.yul\":2238:2248   */\n  dup6\n    /* \"#utility.yul\":2235:2255   */\n  lt\n    /* \"#utility.yul\":2232:2279   */\n  iszero\n  tag_38\n  jumpi\n  pop\n    /* \"#utility.yul\":2273:2277   */\n  dup1\n    /* \"#utility.yul\":2232:2279   */\ntag_38:\n    /* \"#utility.yul\":2328:2330   */\n  0x1f\n    /* \"#utility.yul\":2323:2326   */\n  dup5\n    /* \"#utility.yul\":2319:2331   */\n  add\n    /* \"#utility.yul\":2316:2317   */\n  0x05\n    /* \"#utility.yul\":2312:2332   */\n  shr\n    /* \"#utility.yul\":2306:2310   */\n  dup3\n    /* \"#utility.yul\":2302:2333   */\n  add\n    /* \"#utility.yul\":2292:2333   */\n  swap2\n  pop\n    /* \"#utility.yul\":2383:2464   */\ntag_39:\n    /* \"#utility.yul\":2401:2403   */\n  dup2\n    /* \"#utility.yul\":2394:2399   */\n  dup2\n    /* \"#utility.yul\":2391:2404   */\n  lt\n    /* \"#utility.yul\":2383:2464   */\n  iszero\n  tag_41\n  jumpi\n    /* \"#utility.yul\":2460:2461   */\n  0x00\n    /* \"#utility.yul\":2446:2462   */\n  dup2\n  sstore\n    /* \"#utility.yul\":2427:2428   */\n  0x01\n    /* \"#utility.yul\":2416:2429   */\n  add\n    /* \"#utility.yul\":2383:2464   */\n  jump(tag_39)\ntag_41:\n    /* \"#utility.yul\":2387:2390   */\n  pop\n  pop\n    /* \"#utility.yul\":2053:2474   */\ntag_37:\n    /* \"#utility.yul\":1962:2480   */\n  pop\n  pop\n  pop\n  jump\t// out\n    /* \"#utility.yul\":2656:3955   */\ntag_11:\n    /* \"#utility.yul\":2776:2786   */\n  dup2\n  mload\n  sub(shl(0x40, 0x01), 0x01)\n    /* \"#utility.yul\":2798:2828   */\n  dup2\n  gt\n    /* \"#utility.yul\":2795:2851   */\n  iszero\n  tag_45\n  jumpi\n    /* \"#utility.yul\":2831:2849   */\n  tag_45\n  tag_12\n  jump\t// in\ntag_45:\n    /* \"#utility.yul\":2860:2957   */\n  tag_46\n    /* \"#utility.yul\":2950:2956   */\n  dup2\n    /* \"#utility.yul\":2910:2948   */\n  tag_47\n    /* \"#utility.yul\":2942:2946   */\n  dup5\n    /* \"#utility.yul\":2936:2947   */\n  sload\n    /* \"#utility.yul\":2910:2948   */\n  tag_14\n  jump\t// in\ntag_47:\n    /* \"#utility.yul\":2904:2908   */\n  dup5\n    /* \"#utility.yul\":2860:2957   */\n  tag_16\n  jump\t// in\ntag_46:\n    /* \"#utility.yul\":3006:3010   */\n  0x20\n    /* \"#utility.yul\":3037:3039   */\n  0x1f\n    /* \"#utility.yul\":3026:3040   */\n  dup3\n  gt\n    /* \"#utility.yul\":3054:3055   */\n  0x01\n    /* \"#utility.yul\":3049:3698   */\n  dup2\n  eq\n  tag_49\n  jumpi\n    /* \"#utility.yul\":3742:3743   */\n  0x00\n    /* \"#utility.yul\":3759:3765   */\n  dup4\n    /* \"#utility.yul\":3756:3845   */\n  iszero\n  tag_50\n  jumpi\n  pop\n    /* \"#utility.yul\":3811:3830   */\n  dup5\n  dup3\n  add\n    /* \"#utility.yul\":3805:3831   */\n  mload\n    /* \"#utility.yul\":3756:3845   */\ntag_50:\n  not(0x00)\n    /* \"#utility.yul\":2613:2614   */\n  0x03\n    /* \"#utility.yul\":2609:2620   */\n  dup6\n  swap1\n  shl\n    /* \"#utility.yul\":2605:2629   */\n  shr\n    /* \"#utility.yul\":2601:2630   */\n  not\n    /* \"#utility.yul\":2591:2631   */\n  and\n    /* \"#utility.yul\":2637:2638   */\n  0x01\n    /* \"#utility.yul\":2633:2644   */\n  dup5\n  swap1\n  shl\n    /* \"#utility.yul\":2588:2645   */\n  or\n    /* \"#utility.yul\":3858:3939   */\n  dup5\n  sstore\n    /* \"#utility.yul\":3019:3949   */\n  jump(tag_41)\n    /* \"#utility.yul\":3049:3698   */\ntag_49:\n    /* \"#utility.yul\":1909:1910   */\n  0x00\n    /* \"#utility.yul\":1902:1916   */\n  dup5\n  dup2\n  mstore\n    /* \"#utility.yul\":1946:1950   */\n  0x20\n    /* \"#utility.yul\":1933:1951   */\n  dup2\n  keccak256\n  not(0x1f)\n    /* \"#utility.yul\":3085:3105   */\n  dup6\n  and\n  swap2\n    /* \"#utility.yul\":3203:3425   */\ntag_53:\n    /* \"#utility.yul\":3217:3224   */\n  dup3\n    /* \"#utility.yul\":3214:3215   */\n  dup2\n    /* \"#utility.yul\":3211:3225   */\n  lt\n    /* \"#utility.yul\":3203:3425   */\n  iszero\n  tag_55\n  jumpi\n    /* \"#utility.yul\":3299:3318   */\n  dup8\n  dup6\n  add\n    /* \"#utility.yul\":3293:3319   */\n  mload\n    /* \"#utility.yul\":3278:3320   */\n  dup3\n  sstore\n    /* \"#utility.yul\":3406:3410   */\n  0x20\n    /* \"#utility.yul\":3391:3411   */\n  swap5\n  dup6\n  add\n  swap5\n    /* \"#utility.yul\":3359:3360   */\n  0x01\n    /* \"#utility.yul\":3347:3361   */\n  swap1\n  swap3\n  add\n  swap2\n    /* \"#utility.yul\":3233:3245   */\n  add\n    /* \"#utility.yul\":3203:3425   */\n  jump(tag_53)\ntag_55:\n    /* \"#utility.yul\":3207:3210   */\n  pop\n    /* \"#utility.yul\":3453:3459   */\n  dup5\n    /* \"#utility.yul\":3444:3451   */\n  dup3\n    /* \"#utility.yul\":3441:3460   */\n  lt\n    /* \"#utility.yul\":3438:3639   */\n  iszero\n  tag_56\n  jumpi\n    /* \"#utility.yul\":3514:3533   */\n  dup7\n  dup5\n  add\n    /* \"#utility.yul\":3508:3534   */\n  mload\n  not(0x00)\n    /* \"#utility.yul\":3597:3598   */\n  0x03\n    /* \"#utility.yul\":3593:3607   */\n  dup8\n  swap1\n  shl\n    /* \"#utility.yul\":3609:3612   */\n  0xf8\n    /* \"#utility.yul\":3589:3613   */\n  and\n    /* \"#utility.yul\":3585:3622   */\n  shr\n    /* \"#utility.yul\":3581:3623   */\n  not\n    /* \"#utility.yul\":3566:3624   */\n  and\n    /* \"#utility.yul\":3551:3625   */\n  dup2\n  sstore\n    /* \"#utility.yul\":3438:3639   */\ntag_56:\n  pop\n  pop\n  pop\n  pop\n    /* \"#utility.yul\":3685:3686   */\n  0x01\n    /* \"#utility.yul\":3669:3683   */\n  swap1\n  dup2\n  shl\n    /* \"#utility.yul\":3665:3687   */\n  add\n    /* \"#utility.yul\":3652:3688   */\n  swap1\n  sstore\n  pop\n    /* \"#utility.yul\":2656:3955   */\n  jump\t// out\ntag_18:\n    /* \"contracts/MyCantract.sol\":58:723  contract MyCantract {... */\n  dataSize(sub_0)\n  dup1\n  dataOffset(sub_0)\n  0x00\n  codecopy\n  0x00\n  return\nstop\n\nsub_0: assembly {\n        /* \"contracts/MyCantract.sol\":58:723  contract MyCantract {... */\n      mstore(0x40, 0x80)\n      callvalue\n      dup1\n      iszero\n      tag_1\n      jumpi\n      0x00\n      dup1\n      revert\n    tag_1:\n      pop\n      jumpi(tag_2, lt(calldatasize, 0x04))\n      shr(0xe0, calldataload(0x00))\n      dup1\n      0x3bc5de30\n      eq\n      tag_3\n      jumpi\n      dup1\n      0x49a0c808\n      eq\n      tag_4\n      jumpi\n    tag_2:\n      0x00\n      dup1\n      revert\n        /* \"contracts/MyCantract.sol\":266:498  function getData()... */\n    tag_3:\n      tag_5\n      tag_6\n      jump\t// in\n    tag_5:\n      mload(0x40)\n      tag_7\n      swap4\n      swap3\n      swap2\n      swap1\n      tag_8\n      jump\t// in\n    tag_7:\n      mload(0x40)\n      dup1\n      swap2\n      sub\n      swap1\n      return\n        /* \"contracts/MyCantract.sol\":504:721  function setData(... */\n    tag_4:\n      tag_9\n      tag_10\n      calldatasize\n      0x04\n      tag_11\n      jump\t// in\n    tag_10:\n      tag_12\n      jump\t// in\n    tag_9:\n      mload(0x40)\n        /* \"#utility.yul\":2200:2214   */\n      swap1\n      iszero\n        /* \"#utility.yul\":2193:2215   */\n      iszero\n        /* \"#utility.yul\":2175:2216   */\n      dup2\n      mstore\n        /* \"#utility.yul\":2163:2165   */\n      0x20\n        /* \"#utility.yul\":2148:2166   */\n      add\n        /* \"contracts/MyCantract.sol\":504:721  function setData(... */\n      tag_7\n        /* \"#utility.yul\":2035:2222   */\n      jump\n        /* \"contracts/MyCantract.sol\":266:498  function getData()... */\n    tag_6:\n        /* \"contracts/MyCantract.sol\":343:362  string memory _name */\n      0x60\n        /* \"contracts/MyCantract.sol\":376:388  uint256 _age */\n      0x00\n        /* \"contracts/MyCantract.sol\":402:415  bool _married */\n      dup1\n        /* \"contracts/MyCantract.sol\":439:443  name */\n      0x00\n        /* \"contracts/MyCantract.sol\":431:443  _name = name */\n      dup1\n      sload\n      tag_16\n      swap1\n      tag_17\n      jump\t// in\n    tag_16:\n      dup1\n      0x1f\n      add\n      0x20\n      dup1\n      swap2\n      div\n      mul\n      0x20\n      add\n      mload(0x40)\n      swap1\n      dup2\n      add\n      0x40\n      mstore\n      dup1\n      swap3\n      swap2\n      swap1\n      dup2\n      dup2\n      mstore\n      0x20\n      add\n      dup3\n      dup1\n      sload\n      tag_18\n      swap1\n      tag_17\n      jump\t// in\n    tag_18:\n      dup1\n      iszero\n      tag_19\n      jumpi\n      dup1\n      0x1f\n      lt\n      tag_20\n      jumpi\n      0x0100\n      dup1\n      dup4\n      sload\n      div\n      mul\n      dup4\n      mstore\n      swap2\n      0x20\n      add\n      swap2\n      jump(tag_19)\n    tag_20:\n      dup3\n      add\n      swap2\n      swap1\n      0x00\n      mstore\n      keccak256(0x00, 0x20)\n      swap1\n    tag_21:\n      dup2\n      sload\n      dup2\n      mstore\n      swap1\n      0x01\n      add\n      swap1\n      0x20\n      add\n      dup1\n      dup4\n      gt\n      tag_21\n      jumpi\n      dup3\n      swap1\n      sub\n      0x1f\n      and\n      dup3\n      add\n      swap2\n    tag_19:\n      pop\n      pop\n        /* \"contracts/MyCantract.sol\":460:463  age */\n      sload(0x01)\n        /* \"contracts/MyCantract.sol\":484:491  married */\n      sload(0x02)\n        /* \"contracts/MyCantract.sol\":431:443  _name = name */\n      swap5\n      swap9\n        /* \"contracts/MyCantract.sol\":460:463  age */\n      swap1\n      swap8\n      pop\n        /* \"contracts/MyCantract.sol\":484:491  married */\n      0xff\n      swap1\n      swap5\n      and\n      swap6\n      pop\n        /* \"contracts/MyCantract.sol\":266:498  function getData()... */\n      swap3\n      swap4\n      pop\n      pop\n      pop\n      pop\n      jump\t// out\n        /* \"contracts/MyCantract.sol\":504:721  function setData(... */\n    tag_12:\n        /* \"contracts/MyCantract.sol\":617:621  bool */\n      0x00\n      dup1\n        /* \"contracts/MyCantract.sol\":633:645  name = _name */\n      tag_23\n        /* \"contracts/MyCantract.sol\":640:645  _name */\n      dup6\n        /* \"contracts/MyCantract.sol\":617:621  bool */\n      dup3\n        /* \"contracts/MyCantract.sol\":633:645  name = _name */\n      tag_24\n      jump\t// in\n    tag_23:\n      pop\n      pop\n        /* \"contracts/MyCantract.sol\":655:658  age */\n      0x01\n        /* \"contracts/MyCantract.sol\":655:665  age = _age */\n      swap2\n      dup3\n      sstore\n        /* \"contracts/MyCantract.sol\":675:682  married */\n      0x02\n        /* \"contracts/MyCantract.sol\":675:693  married = _married */\n      dup1\n      sload\n      not(0xff)\n      and\n      swap2\n      iszero\n      iszero\n      swap2\n      swap1\n      swap2\n      or\n      swap1\n      sstore\n        /* \"contracts/MyCantract.sol\":655:658  age */\n      swap2\n        /* \"contracts/MyCantract.sol\":504:721  function setData(... */\n      swap1\n      pop\n      jump\t// out\n        /* \"#utility.yul\":14:591   */\n    tag_8:\n        /* \"#utility.yul\":213:215   */\n      0x60\n        /* \"#utility.yul\":202:211   */\n      dup2\n        /* \"#utility.yul\":195:216   */\n      mstore\n        /* \"#utility.yul\":176:180   */\n      0x00\n        /* \"#utility.yul\":245:251   */\n      dup5\n        /* \"#utility.yul\":239:252   */\n      mload\n        /* \"#utility.yul\":288:294   */\n      dup1\n        /* \"#utility.yul\":283:285   */\n      0x60\n        /* \"#utility.yul\":272:281   */\n      dup5\n        /* \"#utility.yul\":268:286   */\n      add\n        /* \"#utility.yul\":261:295   */\n      mstore\n        /* \"#utility.yul\":350:356   */\n      dup1\n        /* \"#utility.yul\":343:347   */\n      0x20\n        /* \"#utility.yul\":335:341   */\n      dup8\n        /* \"#utility.yul\":331:348   */\n      add\n        /* \"#utility.yul\":325:328   */\n      0x80\n        /* \"#utility.yul\":314:323   */\n      dup6\n        /* \"#utility.yul\":310:329   */\n      add\n        /* \"#utility.yul\":304:357   */\n      mcopy\n        /* \"#utility.yul\":407:408   */\n      0x00\n        /* \"#utility.yul\":401:404   */\n      0x80\n        /* \"#utility.yul\":392:398   */\n      dup3\n        /* \"#utility.yul\":381:390   */\n      dup6\n        /* \"#utility.yul\":377:399   */\n      add\n        /* \"#utility.yul\":373:405   */\n      add\n        /* \"#utility.yul\":366:409   */\n      mstore\n        /* \"#utility.yul\":477:480   */\n      0x80\n        /* \"#utility.yul\":470:472   */\n      0x1f\n        /* \"#utility.yul\":466:473   */\n      not\n        /* \"#utility.yul\":461:463   */\n      0x1f\n        /* \"#utility.yul\":453:459   */\n      dup4\n        /* \"#utility.yul\":449:464   */\n      add\n        /* \"#utility.yul\":445:474   */\n      and\n        /* \"#utility.yul\":434:443   */\n      dup5\n        /* \"#utility.yul\":430:475   */\n      add\n        /* \"#utility.yul\":426:481   */\n      add\n        /* \"#utility.yul\":418:481   */\n      swap2\n      pop\n      pop\n        /* \"#utility.yul\":519:525   */\n      dup4\n        /* \"#utility.yul\":512:516   */\n      0x20\n        /* \"#utility.yul\":501:510   */\n      dup4\n        /* \"#utility.yul\":497:517   */\n      add\n        /* \"#utility.yul\":490:526   */\n      mstore\n        /* \"#utility.yul\":576:582   */\n      dup3\n        /* \"#utility.yul\":569:583   */\n      iszero\n        /* \"#utility.yul\":562:584   */\n      iszero\n        /* \"#utility.yul\":557:559   */\n      0x40\n        /* \"#utility.yul\":546:555   */\n      dup4\n        /* \"#utility.yul\":542:560   */\n      add\n        /* \"#utility.yul\":535:585   */\n      mstore\n        /* \"#utility.yul\":14:591   */\n      swap5\n      swap4\n      pop\n      pop\n      pop\n      pop\n      jump\t// out\n        /* \"#utility.yul\":596:723   */\n    tag_25:\n        /* \"#utility.yul\":657:667   */\n      0x4e487b71\n        /* \"#utility.yul\":652:655   */\n      0xe0\n        /* \"#utility.yul\":648:668   */\n      shl\n        /* \"#utility.yul\":645:646   */\n      0x00\n        /* \"#utility.yul\":638:669   */\n      mstore\n        /* \"#utility.yul\":688:692   */\n      0x41\n        /* \"#utility.yul\":685:686   */\n      0x04\n        /* \"#utility.yul\":678:693   */\n      mstore\n        /* \"#utility.yul\":712:716   */\n      0x24\n        /* \"#utility.yul\":709:710   */\n      0x00\n        /* \"#utility.yul\":702:717   */\n      revert\n        /* \"#utility.yul\":728:888   */\n    tag_26:\n        /* \"#utility.yul\":793:813   */\n      dup1\n      calldataload\n        /* \"#utility.yul\":849:862   */\n      dup1\n      iszero\n        /* \"#utility.yul\":842:863   */\n      iszero\n        /* \"#utility.yul\":832:864   */\n      dup2\n      eq\n        /* \"#utility.yul\":822:882   */\n      tag_34\n      jumpi\n        /* \"#utility.yul\":878:879   */\n      0x00\n        /* \"#utility.yul\":875:876   */\n      dup1\n        /* \"#utility.yul\":868:880   */\n      revert\n        /* \"#utility.yul\":822:882   */\n    tag_34:\n        /* \"#utility.yul\":728:888   */\n      swap2\n      swap1\n      pop\n      jump\t// out\n        /* \"#utility.yul\":893:2030   */\n    tag_11:\n        /* \"#utility.yul\":977:983   */\n      0x00\n        /* \"#utility.yul\":985:991   */\n      dup1\n        /* \"#utility.yul\":993:999   */\n      0x00\n        /* \"#utility.yul\":1046:1048   */\n      0x60\n        /* \"#utility.yul\":1034:1043   */\n      dup5\n        /* \"#utility.yul\":1025:1032   */\n      dup7\n        /* \"#utility.yul\":1021:1044   */\n      sub\n        /* \"#utility.yul\":1017:1049   */\n      slt\n        /* \"#utility.yul\":1014:1066   */\n      iszero\n      tag_36\n      jumpi\n        /* \"#utility.yul\":1062:1063   */\n      0x00\n        /* \"#utility.yul\":1059:1060   */\n      dup1\n        /* \"#utility.yul\":1052:1064   */\n      revert\n        /* \"#utility.yul\":1014:1066   */\n    tag_36:\n        /* \"#utility.yul\":1102:1111   */\n      dup4\n        /* \"#utility.yul\":1089:1112   */\n      calldataload\n        /* \"#utility.yul\":1135:1153   */\n      0xffffffffffffffff\n        /* \"#utility.yul\":1127:1133   */\n      dup2\n        /* \"#utility.yul\":1124:1154   */\n      gt\n        /* \"#utility.yul\":1121:1171   */\n      iszero\n      tag_37\n      jumpi\n        /* \"#utility.yul\":1167:1168   */\n      0x00\n        /* \"#utility.yul\":1164:1165   */\n      dup1\n        /* \"#utility.yul\":1157:1169   */\n      revert\n        /* \"#utility.yul\":1121:1171   */\n    tag_37:\n        /* \"#utility.yul\":1190:1212   */\n      dup5\n      add\n        /* \"#utility.yul\":1243:1247   */\n      0x1f\n        /* \"#utility.yul\":1235:1248   */\n      dup2\n      add\n        /* \"#utility.yul\":1231:1258   */\n      dup7\n      sgt\n        /* \"#utility.yul\":1221:1276   */\n      tag_38\n      jumpi\n        /* \"#utility.yul\":1272:1273   */\n      0x00\n        /* \"#utility.yul\":1269:1270   */\n      dup1\n        /* \"#utility.yul\":1262:1274   */\n      revert\n        /* \"#utility.yul\":1221:1276   */\n    tag_38:\n        /* \"#utility.yul\":1312:1314   */\n      dup1\n        /* \"#utility.yul\":1299:1315   */\n      calldataload\n        /* \"#utility.yul\":1338:1356   */\n      0xffffffffffffffff\n        /* \"#utility.yul\":1330:1336   */\n      dup2\n        /* \"#utility.yul\":1327:1357   */\n      gt\n        /* \"#utility.yul\":1324:1380   */\n      iszero\n      tag_40\n      jumpi\n        /* \"#utility.yul\":1360:1378   */\n      tag_40\n      tag_25\n      jump\t// in\n    tag_40:\n        /* \"#utility.yul\":1409:1411   */\n      0x40\n        /* \"#utility.yul\":1403:1412   */\n      mload\n        /* \"#utility.yul\":1501:1503   */\n      0x1f\n        /* \"#utility.yul\":1463:1480   */\n      dup3\n      add\n      not(0x1f)\n        /* \"#utility.yul\":1459:1490   */\n      swap1\n      dup2\n      and\n        /* \"#utility.yul\":1492:1494   */\n      0x3f\n        /* \"#utility.yul\":1455:1495   */\n      add\n        /* \"#utility.yul\":1451:1505   */\n      and\n        /* \"#utility.yul\":1439:1506   */\n      dup2\n      add\n        /* \"#utility.yul\":1536:1554   */\n      0xffffffffffffffff\n        /* \"#utility.yul\":1521:1555   */\n      dup2\n      gt\n        /* \"#utility.yul\":1557:1579   */\n      dup3\n      dup3\n      lt\n        /* \"#utility.yul\":1518:1580   */\n      or\n        /* \"#utility.yul\":1515:1603   */\n      iszero\n      tag_42\n      jumpi\n        /* \"#utility.yul\":1583:1601   */\n      tag_42\n      tag_25\n      jump\t// in\n    tag_42:\n        /* \"#utility.yul\":1619:1621   */\n      0x40\n        /* \"#utility.yul\":1612:1634   */\n      mstore\n        /* \"#utility.yul\":1643:1665   */\n      dup2\n      dup2\n      mstore\n        /* \"#utility.yul\":1684:1699   */\n      dup3\n      dup3\n      add\n        /* \"#utility.yul\":1701:1705   */\n      0x20\n        /* \"#utility.yul\":1680:1706   */\n      add\n        /* \"#utility.yul\":1677:1716   */\n      dup9\n      lt\n        /* \"#utility.yul\":1674:1733   */\n      iszero\n      tag_43\n      jumpi\n        /* \"#utility.yul\":1729:1730   */\n      0x00\n        /* \"#utility.yul\":1726:1727   */\n      dup1\n        /* \"#utility.yul\":1719:1731   */\n      revert\n        /* \"#utility.yul\":1674:1733   */\n    tag_43:\n        /* \"#utility.yul\":1789:1795   */\n      dup2\n        /* \"#utility.yul\":1782:1786   */\n      0x20\n        /* \"#utility.yul\":1778:1780   */\n      dup5\n        /* \"#utility.yul\":1774:1787   */\n      add\n        /* \"#utility.yul\":1767:1771   */\n      0x20\n        /* \"#utility.yul\":1759:1765   */\n      dup4\n        /* \"#utility.yul\":1755:1772   */\n      add\n        /* \"#utility.yul\":1742:1796   */\n      calldatacopy\n        /* \"#utility.yul\":1844:1845   */\n      0x00\n        /* \"#utility.yul\":1837:1841   */\n      0x20\n        /* \"#utility.yul\":1816:1835   */\n      swap3\n      dup3\n      add\n        /* \"#utility.yul\":1812:1842   */\n      dup4\n      add\n        /* \"#utility.yul\":1805:1846   */\n      mstore\n        /* \"#utility.yul\":1816:1835   */\n      swap5\n      pop\n        /* \"#utility.yul\":1925:1945   */\n      dup6\n      add\n        /* \"#utility.yul\":1912:1946   */\n      calldataload\n      swap3\n      pop\n        /* \"#utility.yul\":1989:2024   */\n      tag_44\n      swap1\n      pop\n        /* \"#utility.yul\":2020:2022   */\n      0x40\n        /* \"#utility.yul\":2005:2023   */\n      dup6\n      add\n        /* \"#utility.yul\":1989:2024   */\n      tag_26\n      jump\t// in\n    tag_44:\n        /* \"#utility.yul\":1979:2024   */\n      swap1\n      pop\n        /* \"#utility.yul\":893:2030   */\n      swap3\n      pop\n      swap3\n      pop\n      swap3\n      jump\t// out\n        /* \"#utility.yul\":2227:2607   */\n    tag_17:\n        /* \"#utility.yul\":2306:2307   */\n      0x01\n        /* \"#utility.yul\":2302:2314   */\n      dup2\n      dup2\n      shr\n      swap1\n        /* \"#utility.yul\":2349:2361   */\n      dup3\n      and\n      dup1\n        /* \"#utility.yul\":2370:2431   */\n      tag_47\n      jumpi\n        /* \"#utility.yul\":2424:2428   */\n      0x7f\n        /* \"#utility.yul\":2416:2422   */\n      dup3\n        /* \"#utility.yul\":2412:2429   */\n      and\n        /* \"#utility.yul\":2402:2429   */\n      swap2\n      pop\n        /* \"#utility.yul\":2370:2431   */\n    tag_47:\n        /* \"#utility.yul\":2477:2479   */\n      0x20\n        /* \"#utility.yul\":2469:2475   */\n      dup3\n        /* \"#utility.yul\":2466:2480   */\n      lt\n        /* \"#utility.yul\":2446:2464   */\n      dup2\n        /* \"#utility.yul\":2443:2481   */\n      sub\n        /* \"#utility.yul\":2440:2601   */\n      tag_48\n      jumpi\n        /* \"#utility.yul\":2523:2533   */\n      0x4e487b71\n        /* \"#utility.yul\":2518:2521   */\n      0xe0\n        /* \"#utility.yul\":2514:2534   */\n      shl\n        /* \"#utility.yul\":2511:2512   */\n      0x00\n        /* \"#utility.yul\":2504:2535   */\n      mstore\n        /* \"#utility.yul\":2558:2562   */\n      0x22\n        /* \"#utility.yul\":2555:2556   */\n      0x04\n        /* \"#utility.yul\":2548:2563   */\n      mstore\n        /* \"#utility.yul\":2586:2590   */\n      0x24\n        /* \"#utility.yul\":2583:2584   */\n      0x00\n        /* \"#utility.yul\":2576:2591   */\n      revert\n        /* \"#utility.yul\":2440:2601   */\n    tag_48:\n      pop\n        /* \"#utility.yul\":2227:2607   */\n      swap2\n      swap1\n      pop\n      jump\t// out\n        /* \"#utility.yul\":2738:3256   */\n    tag_28:\n        /* \"#utility.yul\":2840:2842   */\n      0x1f\n        /* \"#utility.yul\":2835:2838   */\n      dup3\n        /* \"#utility.yul\":2832:2843   */\n      gt\n        /* \"#utility.yul\":2829:3250   */\n      iszero\n      tag_51\n      jumpi\n        /* \"#utility.yul\":2876:2881   */\n      dup1\n        /* \"#utility.yul\":2873:2874   */\n      0x00\n        /* \"#utility.yul\":2866:2882   */\n      mstore\n        /* \"#utility.yul\":2920:2924   */\n      0x20\n        /* \"#utility.yul\":2917:2918   */\n      0x00\n        /* \"#utility.yul\":2907:2925   */\n      keccak256\n        /* \"#utility.yul\":2990:2992   */\n      0x1f\n        /* \"#utility.yul\":2978:2988   */\n      dup5\n        /* \"#utility.yul\":2974:2993   */\n      add\n        /* \"#utility.yul\":2971:2972   */\n      0x05\n        /* \"#utility.yul\":2967:2994   */\n      shr\n        /* \"#utility.yul\":2961:2965   */\n      dup2\n        /* \"#utility.yul\":2957:2995   */\n      add\n        /* \"#utility.yul\":3026:3030   */\n      0x20\n        /* \"#utility.yul\":3014:3024   */\n      dup6\n        /* \"#utility.yul\":3011:3031   */\n      lt\n        /* \"#utility.yul\":3008:3055   */\n      iszero\n      tag_52\n      jumpi\n      pop\n        /* \"#utility.yul\":3049:3053   */\n      dup1\n        /* \"#utility.yul\":3008:3055   */\n    tag_52:\n        /* \"#utility.yul\":3104:3106   */\n      0x1f\n        /* \"#utility.yul\":3099:3102   */\n      dup5\n        /* \"#utility.yul\":3095:3107   */\n      add\n        /* \"#utility.yul\":3092:3093   */\n      0x05\n        /* \"#utility.yul\":3088:3108   */\n      shr\n        /* \"#utility.yul\":3082:3086   */\n      dup3\n        /* \"#utility.yul\":3078:3109   */\n      add\n        /* \"#utility.yul\":3068:3109   */\n      swap2\n      pop\n        /* \"#utility.yul\":3159:3240   */\n    tag_53:\n        /* \"#utility.yul\":3177:3179   */\n      dup2\n        /* \"#utility.yul\":3170:3175   */\n      dup2\n        /* \"#utility.yul\":3167:3180   */\n      lt\n        /* \"#utility.yul\":3159:3240   */\n      iszero\n      tag_55\n      jumpi\n        /* \"#utility.yul\":3236:3237   */\n      0x00\n        /* \"#utility.yul\":3222:3238   */\n      dup2\n      sstore\n        /* \"#utility.yul\":3203:3204   */\n      0x01\n        /* \"#utility.yul\":3192:3205   */\n      add\n        /* \"#utility.yul\":3159:3240   */\n      jump(tag_53)\n    tag_55:\n        /* \"#utility.yul\":3163:3166   */\n      pop\n      pop\n        /* \"#utility.yul\":2829:3250   */\n    tag_51:\n        /* \"#utility.yul\":2738:3256   */\n      pop\n      pop\n      pop\n      jump\t// out\n        /* \"#utility.yul\":3432:4731   */\n    tag_24:\n        /* \"#utility.yul\":3558:3561   */\n      dup2\n        /* \"#utility.yul\":3552:3562   */\n      mload\n        /* \"#utility.yul\":3585:3603   */\n      0xffffffffffffffff\n        /* \"#utility.yul\":3577:3583   */\n      dup2\n        /* \"#utility.yul\":3574:3604   */\n      gt\n        /* \"#utility.yul\":3571:3627   */\n      iszero\n      tag_59\n      jumpi\n        /* \"#utility.yul\":3607:3625   */\n      tag_59\n      tag_25\n      jump\t// in\n    tag_59:\n        /* \"#utility.yul\":3636:3733   */\n      tag_60\n        /* \"#utility.yul\":3726:3732   */\n      dup2\n        /* \"#utility.yul\":3686:3724   */\n      tag_61\n        /* \"#utility.yul\":3718:3722   */\n      dup5\n        /* \"#utility.yul\":3712:3723   */\n      sload\n        /* \"#utility.yul\":3686:3724   */\n      tag_17\n      jump\t// in\n    tag_61:\n        /* \"#utility.yul\":3680:3684   */\n      dup5\n        /* \"#utility.yul\":3636:3733   */\n      tag_28\n      jump\t// in\n    tag_60:\n        /* \"#utility.yul\":3782:3786   */\n      0x20\n        /* \"#utility.yul\":3813:3815   */\n      0x1f\n        /* \"#utility.yul\":3802:3816   */\n      dup3\n      gt\n        /* \"#utility.yul\":3830:3831   */\n      0x01\n        /* \"#utility.yul\":3825:4474   */\n      dup2\n      eq\n      tag_63\n      jumpi\n        /* \"#utility.yul\":4518:4519   */\n      0x00\n        /* \"#utility.yul\":4535:4541   */\n      dup4\n        /* \"#utility.yul\":4532:4621   */\n      iszero\n      tag_64\n      jumpi\n      pop\n        /* \"#utility.yul\":4587:4606   */\n      dup5\n      dup3\n      add\n        /* \"#utility.yul\":4581:4607   */\n      mload\n        /* \"#utility.yul\":4532:4621   */\n    tag_64:\n      not(0x00)\n        /* \"#utility.yul\":3389:3390   */\n      0x03\n        /* \"#utility.yul\":3385:3396   */\n      dup6\n      swap1\n      shl\n        /* \"#utility.yul\":3381:3405   */\n      shr\n        /* \"#utility.yul\":3377:3406   */\n      not\n        /* \"#utility.yul\":3367:3407   */\n      and\n        /* \"#utility.yul\":3413:3414   */\n      0x01\n        /* \"#utility.yul\":3409:3420   */\n      dup5\n      swap1\n      shl\n        /* \"#utility.yul\":3364:3421   */\n      or\n        /* \"#utility.yul\":4634:4715   */\n      dup5\n      sstore\n        /* \"#utility.yul\":3795:4725   */\n      jump(tag_55)\n        /* \"#utility.yul\":3825:4474   */\n    tag_63:\n        /* \"#utility.yul\":2685:2686   */\n      0x00\n        /* \"#utility.yul\":2678:2692   */\n      dup5\n      dup2\n      mstore\n        /* \"#utility.yul\":2722:2726   */\n      0x20\n        /* \"#utility.yul\":2709:2727   */\n      dup2\n      keccak256\n      not(0x1f)\n        /* \"#utility.yul\":3861:3881   */\n      dup6\n      and\n      swap2\n        /* \"#utility.yul\":3979:4201   */\n    tag_67:\n        /* \"#utility.yul\":3993:4000   */\n      dup3\n        /* \"#utility.yul\":3990:3991   */\n      dup2\n        /* \"#utility.yul\":3987:4001   */\n      lt\n        /* \"#utility.yul\":3979:4201   */\n      iszero\n      tag_69\n      jumpi\n        /* \"#utility.yul\":4075:4094   */\n      dup8\n      dup6\n      add\n        /* \"#utility.yul\":4069:4095   */\n      mload\n        /* \"#utility.yul\":4054:4096   */\n      dup3\n      sstore\n        /* \"#utility.yul\":4182:4186   */\n      0x20\n        /* \"#utility.yul\":4167:4187   */\n      swap5\n      dup6\n      add\n      swap5\n        /* \"#utility.yul\":4135:4136   */\n      0x01\n        /* \"#utility.yul\":4123:4137   */\n      swap1\n      swap3\n      add\n      swap2\n        /* \"#utility.yul\":4009:4021   */\n      add\n        /* \"#utility.yul\":3979:4201   */\n      jump(tag_67)\n    tag_69:\n        /* \"#utility.yul\":3983:3986   */\n      pop\n        /* \"#utility.yul\":4229:4235   */\n      dup5\n        /* \"#utility.yul\":4220:4227   */\n      dup3\n        /* \"#utility.yul\":4217:4236   */\n      lt\n        /* \"#utility.yul\":4214:4415   */\n      iszero\n      tag_70\n      jumpi\n        /* \"#utility.yul\":4290:4309   */\n      dup7\n      dup5\n      add\n        /* \"#utility.yul\":4284:4310   */\n      mload\n      not(0x00)\n        /* \"#utility.yul\":4373:4374   */\n      0x03\n        /* \"#utility.yul\":4369:4383   */\n      dup8\n      swap1\n      shl\n        /* \"#utility.yul\":4385:4388   */\n      0xf8\n        /* \"#utility.yul\":4365:4389   */\n      and\n        /* \"#utility.yul\":4361:4398   */\n      shr\n        /* \"#utility.yul\":4357:4399   */\n      not\n        /* \"#utility.yul\":4342:4400   */\n      and\n        /* \"#utility.yul\":4327:4401   */\n      dup2\n      sstore\n        /* \"#utility.yul\":4214:4415   */\n    tag_70:\n      pop\n      pop\n      pop\n      pop\n        /* \"#utility.yul\":4461:4462   */\n      0x01\n        /* \"#utility.yul\":4445:4459   */\n      swap1\n      dup2\n      shl\n        /* \"#utility.yul\":4441:4463   */\n      add\n        /* \"#utility.yul\":4428:4464   */\n      swap1\n      sstore\n      pop\n        /* \"#utility.yul\":3432:4731   */\n      jump\t// out\n\n    auxdata: 0xa264697066735822122079392122492e2186a8c0626a280d33d544a4c2d39a220cecbede0bd370e85d6964736f6c634300081a0033\n}\n",
				"bytecode": {
					"linkReferences": {},
					"object": "608060405234801561000f575f80fd5b5060405161069838038061069883398101604081905261002e91610093565b610039838383610042565b50505050610299565b5f8061004e85826101df565b505060019182556002805460ff1916911515919091179055919050565b634e487b7160e01b5f52604160045260245ffd5b8051801515811461008e575f80fd5b919050565b5f805f606084860312156100a5575f80fd5b83516001600160401b038111156100ba575f80fd5b8401601f810186136100ca575f80fd5b80516001600160401b038111156100e3576100e361006b565b604051601f8201601f19908116603f011681016001600160401b03811182821017156101115761011161006b565b604052818152828201602001881015610128575f80fd5b8160208401602083015e5f602092820183015290860151909450925061015290506040850161007f565b90509250925092565b600181811c9082168061016f57607f821691505b60208210810361018d57634e487b7160e01b5f52602260045260245ffd5b50919050565b601f8211156101da57805f5260205f20601f840160051c810160208510156101b85750805b601f840160051c820191505b818110156101d7575f81556001016101c4565b50505b505050565b81516001600160401b038111156101f8576101f861006b565b61020c81610206845461015b565b84610193565b6020601f82116001811461023e575f83156102275750848201515b5f19600385901b1c1916600184901b1784556101d7565b5f84815260208120601f198516915b8281101561026d578785015182556020948501946001909201910161024d565b508482101561028a57868401515f19600387901b60f8161c191681555b50505050600190811b01905550565b6103f2806102a65f395ff3fe608060405234801561000f575f80fd5b5060043610610034575f3560e01c80633bc5de301461003857806349a0c80814610058575b5f80fd5b61004061007b565b60405161004f93929190610147565b60405180910390f35b61006b6100663660046101b4565b61011e565b604051901515815260200161004f565b60605f805f805461008b9061027d565b80601f01602080910402602001604051908101604052809291908181526020018280546100b79061027d565b80156101025780601f106100d957610100808354040283529160200191610102565b820191905f5260205f20905b8154815290600101906020018083116100e557829003601f168201915b5050600154600254949890975060ff9094169550929350505050565b5f8061012a8582610301565b505060019182556002805460ff1916911515919091179055919050565b606081525f84518060608401528060208701608085015e5f608082850101526080601f19601f8301168401019150508360208301528215156040830152949350505050565b634e487b7160e01b5f52604160045260245ffd5b803580151581146101af575f80fd5b919050565b5f805f606084860312156101c6575f80fd5b833567ffffffffffffffff8111156101dc575f80fd5b8401601f810186136101ec575f80fd5b803567ffffffffffffffff8111156102065761020661018c565b604051601f8201601f19908116603f0116810167ffffffffffffffff811182821017156102355761023561018c565b60405281815282820160200188101561024c575f80fd5b816020840160208301375f6020928201830152945085013592506102749050604085016101a0565b90509250925092565b600181811c9082168061029157607f821691505b6020821081036102af57634e487b7160e01b5f52602260045260245ffd5b50919050565b601f8211156102fc57805f5260205f20601f840160051c810160208510156102da5750805b601f840160051c820191505b818110156102f9575f81556001016102e6565b50505b505050565b815167ffffffffffffffff81111561031b5761031b61018c565b61032f81610329845461027d565b846102b5565b6020601f821160018114610361575f831561034a5750848201515b5f19600385901b1c1916600184901b1784556102f9565b5f84815260208120601f198516915b828110156103905787850151825560209485019460019092019101610370565b50848210156103ad57868401515f19600387901b60f8161c191681555b50505050600190811b0190555056fea264697066735822122079392122492e2186a8c0626a280d33d544a4c2d39a220cecbede0bd370e85d6964736f6c634300081a0033",
					"opcodes": "PUSH1 0x80 PUSH1 0x40 MSTORE CALLVALUE DUP1 ISZERO PUSH2 0xF JUMPI PUSH0 DUP1 REVERT JUMPDEST POP PUSH1 0x40 MLOAD PUSH2 0x698 CODESIZE SUB DUP1 PUSH2 0x698 DUP4 CODECOPY DUP2 ADD PUSH1 0x40 DUP2 SWAP1 MSTORE PUSH2 0x2E SWAP2 PUSH2 0x93 JUMP JUMPDEST PUSH2 0x39 DUP4 DUP4 DUP4 PUSH2 0x42 JUMP JUMPDEST POP POP POP POP PUSH2 0x299 JUMP JUMPDEST PUSH0 DUP1 PUSH2 0x4E DUP6 DUP3 PUSH2 0x1DF JUMP JUMPDEST POP POP PUSH1 0x1 SWAP2 DUP3 SSTORE PUSH1 0x2 DUP1 SLOAD PUSH1 0xFF NOT AND SWAP2 ISZERO ISZERO SWAP2 SWAP1 SWAP2 OR SWAP1 SSTORE SWAP2 SWAP1 POP JUMP JUMPDEST PUSH4 0x4E487B71 PUSH1 0xE0 SHL PUSH0 MSTORE PUSH1 0x41 PUSH1 0x4 MSTORE PUSH1 0x24 PUSH0 REVERT JUMPDEST DUP1 MLOAD DUP1 ISZERO ISZERO DUP2 EQ PUSH2 0x8E JUMPI PUSH0 DUP1 REVERT JUMPDEST SWAP2 SWAP1 POP JUMP JUMPDEST PUSH0 DUP1 PUSH0 PUSH1 0x60 DUP5 DUP7 SUB SLT ISZERO PUSH2 0xA5 JUMPI PUSH0 DUP1 REVERT JUMPDEST DUP4 MLOAD PUSH1 0x1 PUSH1 0x1 PUSH1 0x40 SHL SUB DUP2 GT ISZERO PUSH2 0xBA JUMPI PUSH0 DUP1 REVERT JUMPDEST DUP5 ADD PUSH1 0x1F DUP2 ADD DUP7 SGT PUSH2 0xCA JUMPI PUSH0 DUP1 REVERT JUMPDEST DUP1 MLOAD PUSH1 0x1 PUSH1 0x1 PUSH1 0x40 SHL SUB DUP2 GT ISZERO PUSH2 0xE3 JUMPI PUSH2 0xE3 PUSH2 0x6B JUMP JUMPDEST PUSH1 0x40 MLOAD PUSH1 0x1F DUP3 ADD PUSH1 0x1F NOT SWAP1 DUP2 AND PUSH1 0x3F ADD AND DUP2 ADD PUSH1 0x1 PUSH1 0x1 PUSH1 0x40 SHL SUB DUP2 GT DUP3 DUP3 LT OR ISZERO PUSH2 0x111 JUMPI PUSH2 0x111 PUSH2 0x6B JUMP JUMPDEST PUSH1 0x40 MSTORE DUP2 DUP2 MSTORE DUP3 DUP3 ADD PUSH1 0x20 ADD DUP9 LT ISZERO PUSH2 0x128 JUMPI PUSH0 DUP1 REVERT JUMPDEST DUP2 PUSH1 0x20 DUP5 ADD PUSH1 0x20 DUP4 ADD MCOPY PUSH0 PUSH1 0x20 SWAP3 DUP3 ADD DUP4 ADD MSTORE SWAP1 DUP7 ADD MLOAD SWAP1 SWAP5 POP SWAP3 POP PUSH2 0x152 SWAP1 POP PUSH1 0x40 DUP6 ADD PUSH2 0x7F JUMP JUMPDEST SWAP1 POP SWAP3 POP SWAP3 POP SWAP3 JUMP JUMPDEST PUSH1 0x1 DUP2 DUP2 SHR SWAP1 DUP3 AND DUP1 PUSH2 0x16F JUMPI PUSH1 0x7F DUP3 AND SWAP2 POP JUMPDEST PUSH1 0x20 DUP3 LT DUP2 SUB PUSH2 0x18D JUMPI PUSH4 0x4E487B71 PUSH1 0xE0 SHL PUSH0 MSTORE PUSH1 0x22 PUSH1 0x4 MSTORE PUSH1 0x24 PUSH0 REVERT JUMPDEST POP SWAP2 SWAP1 POP JUMP JUMPDEST PUSH1 0x1F DUP3 GT ISZERO PUSH2 0x1DA JUMPI DUP1 PUSH0 MSTORE PUSH1 0x20 PUSH0 KECCAK256 PUSH1 0x1F DUP5 ADD PUSH1 0x5 SHR DUP2 ADD PUSH1 0x20 DUP6 LT ISZERO PUSH2 0x1B8 JUMPI POP DUP1 JUMPDEST PUSH1 0x1F DUP5 ADD PUSH1 0x5 SHR DUP3 ADD SWAP2 POP JUMPDEST DUP2 DUP2 LT ISZERO PUSH2 0x1D7 JUMPI PUSH0 DUP2 SSTORE PUSH1 0x1 ADD PUSH2 0x1C4 JUMP JUMPDEST POP POP JUMPDEST POP POP POP JUMP JUMPDEST DUP2 MLOAD PUSH1 0x1 PUSH1 0x1 PUSH1 0x40 SHL SUB DUP2 GT ISZERO PUSH2 0x1F8 JUMPI PUSH2 0x1F8 PUSH2 0x6B JUMP JUMPDEST PUSH2 0x20C DUP2 PUSH2 0x206 DUP5 SLOAD PUSH2 0x15B JUMP JUMPDEST DUP5 PUSH2 0x193 JUMP JUMPDEST PUSH1 0x20 PUSH1 0x1F DUP3 GT PUSH1 0x1 DUP2 EQ PUSH2 0x23E JUMPI PUSH0 DUP4 ISZERO PUSH2 0x227 JUMPI POP DUP5 DUP3 ADD MLOAD JUMPDEST PUSH0 NOT PUSH1 0x3 DUP6 SWAP1 SHL SHR NOT AND PUSH1 0x1 DUP5 SWAP1 SHL OR DUP5 SSTORE PUSH2 0x1D7 JUMP JUMPDEST PUSH0 DUP5 DUP2 MSTORE PUSH1 0x20 DUP2 KECCAK256 PUSH1 0x1F NOT DUP6 AND SWAP2 JUMPDEST DUP3 DUP2 LT ISZERO PUSH2 0x26D JUMPI DUP8 DUP6 ADD MLOAD DUP3 SSTORE PUSH1 0x20 SWAP5 DUP6 ADD SWAP5 PUSH1 0x1 SWAP1 SWAP3 ADD SWAP2 ADD PUSH2 0x24D JUMP JUMPDEST POP DUP5 DUP3 LT ISZERO PUSH2 0x28A JUMPI DUP7 DUP5 ADD MLOAD PUSH0 NOT PUSH1 0x3 DUP8 SWAP1 SHL PUSH1 0xF8 AND SHR NOT AND DUP2 SSTORE JUMPDEST POP POP POP POP PUSH1 0x1 SWAP1 DUP2 SHL ADD SWAP1 SSTORE POP JUMP JUMPDEST PUSH2 0x3F2 DUP1 PUSH2 0x2A6 PUSH0 CODECOPY PUSH0 RETURN INVALID PUSH1 0x80 PUSH1 0x40 MSTORE CALLVALUE DUP1 ISZERO PUSH2 0xF JUMPI PUSH0 DUP1 REVERT JUMPDEST POP PUSH1 0x4 CALLDATASIZE LT PUSH2 0x34 JUMPI PUSH0 CALLDATALOAD PUSH1 0xE0 SHR DUP1 PUSH4 0x3BC5DE30 EQ PUSH2 0x38 JUMPI DUP1 PUSH4 0x49A0C808 EQ PUSH2 0x58 JUMPI JUMPDEST PUSH0 DUP1 REVERT JUMPDEST PUSH2 0x40 PUSH2 0x7B JUMP JUMPDEST PUSH1 0x40 MLOAD PUSH2 0x4F SWAP4 SWAP3 SWAP2 SWAP1 PUSH2 0x147 JUMP JUMPDEST PUSH1 0x40 MLOAD DUP1 SWAP2 SUB SWAP1 RETURN JUMPDEST PUSH2 0x6B PUSH2 0x66 CALLDATASIZE PUSH1 0x4 PUSH2 0x1B4 JUMP JUMPDEST PUSH2 0x11E JUMP JUMPDEST PUSH1 0x40 MLOAD SWAP1 ISZERO ISZERO DUP2 MSTORE PUSH1 0x20 ADD PUSH2 0x4F JUMP JUMPDEST PUSH1 0x60 PUSH0 DUP1 PUSH0 DUP1 SLOAD PUSH2 0x8B SWAP1 PUSH2 0x27D JUMP JUMPDEST DUP1 PUSH1 0x1F ADD PUSH1 0x20 DUP1 SWAP2 DIV MUL PUSH1 0x20 ADD PUSH1 0x40 MLOAD SWAP1 DUP2 ADD PUSH1 0x40 MSTORE DUP1 SWAP3 SWAP2 SWAP1 DUP2 DUP2 MSTORE PUSH1 0x20 ADD DUP3 DUP1 SLOAD PUSH2 0xB7 SWAP1 PUSH2 0x27D JUMP JUMPDEST DUP1 ISZERO PUSH2 0x102 JUMPI DUP1 PUSH1 0x1F LT PUSH2 0xD9 JUMPI PUSH2 0x100 DUP1 DUP4 SLOAD DIV MUL DUP4 MSTORE SWAP2 PUSH1 0x20 ADD SWAP2 PUSH2 0x102 JUMP JUMPDEST DUP3 ADD SWAP2 SWAP1 PUSH0 MSTORE PUSH1 0x20 PUSH0 KECCAK256 SWAP1 JUMPDEST DUP2 SLOAD DUP2 MSTORE SWAP1 PUSH1 0x1 ADD SWAP1 PUSH1 0x20 ADD DUP1 DUP4 GT PUSH2 0xE5 JUMPI DUP3 SWAP1 SUB PUSH1 0x1F AND DUP3 ADD SWAP2 JUMPDEST POP POP PUSH1 0x1 SLOAD PUSH1 0x2 SLOAD SWAP5 SWAP9 SWAP1 SWAP8 POP PUSH1 0xFF SWAP1 SWAP5 AND SWAP6 POP SWAP3 SWAP4 POP POP POP POP JUMP JUMPDEST PUSH0 DUP1 PUSH2 0x12A DUP6 DUP3 PUSH2 0x301 JUMP JUMPDEST POP POP PUSH1 0x1 SWAP2 DUP3 SSTORE PUSH1 0x2 DUP1 SLOAD PUSH1 0xFF NOT AND SWAP2 ISZERO ISZERO SWAP2 SWAP1 SWAP2 OR SWAP1 SSTORE SWAP2 SWAP1 POP JUMP JUMPDEST PUSH1 0x60 DUP2 MSTORE PUSH0 DUP5 MLOAD DUP1 PUSH1 0x60 DUP5 ADD MSTORE DUP1 PUSH1 0x20 DUP8 ADD PUSH1 0x80 DUP6 ADD MCOPY PUSH0 PUSH1 0x80 DUP3 DUP6 ADD ADD MSTORE PUSH1 0x80 PUSH1 0x1F NOT PUSH1 0x1F DUP4 ADD AND DUP5 ADD ADD SWAP2 POP POP DUP4 PUSH1 0x20 DUP4 ADD MSTORE DUP3 ISZERO ISZERO PUSH1 0x40 DUP4 ADD MSTORE SWAP5 SWAP4 POP POP POP POP JUMP JUMPDEST PUSH4 0x4E487B71 PUSH1 0xE0 SHL PUSH0 MSTORE PUSH1 0x41 PUSH1 0x4 MSTORE PUSH1 0x24 PUSH0 REVERT JUMPDEST DUP1 CALLDATALOAD DUP1 ISZERO ISZERO DUP2 EQ PUSH2 0x1AF JUMPI PUSH0 DUP1 REVERT JUMPDEST SWAP2 SWAP1 POP JUMP JUMPDEST PUSH0 DUP1 PUSH0 PUSH1 0x60 DUP5 DUP7 SUB SLT ISZERO PUSH2 0x1C6 JUMPI PUSH0 DUP1 REVERT JUMPDEST DUP4 CALLDATALOAD PUSH8 0xFFFFFFFFFFFFFFFF DUP2 GT ISZERO PUSH2 0x1DC JUMPI PUSH0 DUP1 REVERT JUMPDEST DUP5 ADD PUSH1 0x1F DUP2 ADD DUP7 SGT PUSH2 0x1EC JUMPI PUSH0 DUP1 REVERT JUMPDEST DUP1 CALLDATALOAD PUSH8 0xFFFFFFFFFFFFFFFF DUP2 GT ISZERO PUSH2 0x206 JUMPI PUSH2 0x206 PUSH2 0x18C JUMP JUMPDEST PUSH1 0x40 MLOAD PUSH1 0x1F DUP3 ADD PUSH1 0x1F NOT SWAP1 DUP2 AND PUSH1 0x3F ADD AND DUP2 ADD PUSH8 0xFFFFFFFFFFFFFFFF DUP2 GT DUP3 DUP3 LT OR ISZERO PUSH2 0x235 JUMPI PUSH2 0x235 PUSH2 0x18C JUMP JUMPDEST PUSH1 0x40 MSTORE DUP2 DUP2 MSTORE DUP3 DUP3 ADD PUSH1 0x20 ADD DUP9 LT ISZERO PUSH2 0x24C JUMPI PUSH0 DUP1 REVERT JUMPDEST DUP2 PUSH1 0x20 DUP5 ADD PUSH1 0x20 DUP4 ADD CALLDATACOPY PUSH0 PUSH1 0x20 SWAP3 DUP3 ADD DUP4 ADD MSTORE SWAP5 POP DUP6 ADD CALLDATALOAD SWAP3 POP PUSH2 0x274 SWAP1 POP PUSH1 0x40 DUP6 ADD PUSH2 0x1A0 JUMP JUMPDEST SWAP1 POP SWAP3 POP SWAP3 POP SWAP3 JUMP JUMPDEST PUSH1 0x1 DUP2 DUP2 SHR SWAP1 DUP3 AND DUP1 PUSH2 0x291 JUMPI PUSH1 0x7F DUP3 AND SWAP2 POP JUMPDEST PUSH1 0x20 DUP3 LT DUP2 SUB PUSH2 0x2AF JUMPI PUSH4 0x4E487B71 PUSH1 0xE0 SHL PUSH0 MSTORE PUSH1 0x22 PUSH1 0x4 MSTORE PUSH1 0x24 PUSH0 REVERT JUMPDEST POP SWAP2 SWAP1 POP JUMP JUMPDEST PUSH1 0x1F DUP3 GT ISZERO PUSH2 0x2FC JUMPI DUP1 PUSH0 MSTORE PUSH1 0x20 PUSH0 KECCAK256 PUSH1 0x1F DUP5 ADD PUSH1 0x5 SHR DUP2 ADD PUSH1 0x20 DUP6 LT ISZERO PUSH2 0x2DA JUMPI POP DUP1 JUMPDEST PUSH1 0x1F DUP5 ADD PUSH1 0x5 SHR DUP3 ADD SWAP2 POP JUMPDEST DUP2 DUP2 LT ISZERO PUSH2 0x2F9 JUMPI PUSH0 DUP2 SSTORE PUSH1 0x1 ADD PUSH2 0x2E6 JUMP JUMPDEST POP POP JUMPDEST POP POP POP JUMP JUMPDEST DUP2 MLOAD PUSH8 0xFFFFFFFFFFFFFFFF DUP2 GT ISZERO PUSH2 0x31B JUMPI PUSH2 0x31B PUSH2 0x18C JUMP JUMPDEST PUSH2 0x32F DUP2 PUSH2 0x329 DUP5 SLOAD PUSH2 0x27D JUMP JUMPDEST DUP5 PUSH2 0x2B5 JUMP JUMPDEST PUSH1 0x20 PUSH1 0x1F DUP3 GT PUSH1 0x1 DUP2 EQ PUSH2 0x361 JUMPI PUSH0 DUP4 ISZERO PUSH2 0x34A JUMPI POP DUP5 DUP3 ADD MLOAD JUMPDEST PUSH0 NOT PUSH1 0x3 DUP6 SWAP1 SHL SHR NOT AND PUSH1 0x1 DUP5 SWAP1 SHL OR DUP5 SSTORE PUSH2 0x2F9 JUMP JUMPDEST PUSH0 DUP5 DUP2 MSTORE PUSH1 0x20 DUP2 KECCAK256 PUSH1 0x1F NOT DUP6 AND SWAP2 JUMPDEST DUP3 DUP2 LT ISZERO PUSH2 0x390 JUMPI DUP8 DUP6 ADD MLOAD DUP3 SSTORE PUSH1 0x20 SWAP5 DUP6 ADD SWAP5 PUSH1 0x1 SWAP1 SWAP3 ADD SWAP2 ADD PUSH2 0x370 JUMP JUMPDEST POP DUP5 DUP3 LT ISZERO PUSH2 0x3AD JUMPI DUP7 DUP5 ADD MLOAD PUSH0 NOT PUSH1 0x3 DUP8 SWAP1 SHL PUSH1 0xF8 AND SHR NOT AND DUP2 SSTORE JUMPDEST POP POP POP POP PUSH1 0x1 SWAP1 DUP2 SHL ADD SWAP1 SSTORE POP JUMP INVALID LOG2 PUSH5 0x6970667358 0x22 SLT KECCAK256 PUSH26 0x392122492E2186A8C0626A280D33D544A4C2D39A220CECBEDE0B 0xD3 PUSH17 0xE85D6964736F6C634300081A0033000000 "
				},
				"gasEstimates": {
					"creation": {
						"codeDepositCost": "202000",
						"executionCost": "infinite",
						"totalCost": "infinite"
					},
					"external": {
						"getData()": "infinite",
						"setData(string,uint256,bool)": "infinite"
					}
				},
				"methodIdentifiers": {
					"getData()": "3bc5de30",
					"setData(string,uint256,bool)": "49a0c808"
				}
			},
			"storageLayout": {
				"storage": [
					{
						"astId": 3,
						"contract": "contracts/MyCantract.sol:MyCantract",
						"label": "name",
						"offset": 0,
						"slot": "0",
						"type": "t_string_storage"
					},
					{
						"astId": 5,
						"contract": "contracts/MyCantract.sol:MyCantract",
						"label": "age",
						"offset": 0,
						"slot": "1",
						"type": "t_uint256"
					},
					{
						"astId": 7,
						"contract": "contracts/MyCantract.sol:MyCantract",
						"label": "married",
						"offset": 0,
						"slot": "2",
						"type": "t_bool"
					}
				],
				"types": {
					"t_bool": {
						"encoding": "inplace",
						"label": "bool",
						"numberOfBytes": "1"
					},
					"t_string_storage": {
						"encoding": "bytes",
						"label": "string",
						"numberOfBytes": "32"
					},
					"t_uint256": {
						"encoding": "inplace",
						"label": "uint256",
						"numberOfBytes": "32"
					}
				}
			},
			"userdoc": {
				"kind": "user",
				"methods": {},
				"version": 1
			}
		}
	}
}